{
	"contracts/struct2.sol": {
		"STRUCT": {
			"abi": [
				{
					"inputs": [],
					"name": "getClass",
					"outputs": [
						{
							"components": [
								{
									"internalType": "string",
									"name": "name",
									"type": "string"
								},
								{
									"internalType": "bool",
									"name": "isMale",
									"type": "bool"
								},
								{
									"internalType": "uint256",
									"name": "number",
									"type": "uint256"
								}
							],
							"internalType": "struct STRUCT.Student[]",
							"name": "",
							"type": "tuple[]"
						}
					],
					"stateMutability": "view",
					"type": "function"
				},
				{
					"inputs": [
						{
							"internalType": "uint256",
							"name": "_n",
							"type": "uint256"
						}
					],
					"name": "getStudent",
					"outputs": [
						{
							"components": [
								{
									"internalType": "string",
									"name": "name",
									"type": "string"
								},
								{
									"internalType": "bool",
									"name": "isMale",
									"type": "bool"
								},
								{
									"internalType": "uint256",
									"name": "number",
									"type": "uint256"
								}
							],
							"internalType": "struct STRUCT.Student",
							"name": "",
							"type": "tuple"
						}
					],
					"stateMutability": "view",
					"type": "function"
				},
				{
					"inputs": [
						{
							"internalType": "string",
							"name": "_name",
							"type": "string"
						},
						{
							"internalType": "bool",
							"name": "_isMale",
							"type": "bool"
						},
						{
							"internalType": "uint256",
							"name": "_number",
							"type": "uint256"
						}
					],
					"name": "pushStudent",
					"outputs": [],
					"stateMutability": "nonpayable",
					"type": "function"
				},
				{
					"inputs": [
						{
							"components": [
								{
									"internalType": "string",
									"name": "name",
									"type": "string"
								},
								{
									"internalType": "bool",
									"name": "isMale",
									"type": "bool"
								},
								{
									"internalType": "uint256",
									"name": "number",
									"type": "uint256"
								}
							],
							"internalType": "struct STRUCT.Student",
							"name": "_s",
							"type": "tuple"
						}
					],
					"name": "pushStudent2",
					"outputs": [],
					"stateMutability": "nonpayable",
					"type": "function"
				}
			],
			"devdoc": {
				"kind": "dev",
				"methods": {},
				"version": 1
			},
			"evm": {
				"assembly": "    /* \"contracts/struct2.sol\":62:617  contract STRUCT {... */\n  mstore(0x40, 0x80)\n  callvalue\n  dup1\n  iszero\n  tag_1\n  jumpi\n  0x00\n  dup1\n  revert\ntag_1:\n  pop\n  dataSize(sub_0)\n  dup1\n  dataOffset(sub_0)\n  0x00\n  codecopy\n  0x00\n  return\nstop\n\nsub_0: assembly {\n        /* \"contracts/struct2.sol\":62:617  contract STRUCT {... */\n      mstore(0x40, 0x80)\n      callvalue\n      dup1\n      iszero\n      tag_1\n      jumpi\n      0x00\n      dup1\n      revert\n    tag_1:\n      pop\n      jumpi(tag_2, lt(calldatasize, 0x04))\n      shr(0xe0, calldataload(0x00))\n      dup1\n      0x57e61ea4\n      eq\n      tag_3\n      jumpi\n      dup1\n      0x642f9163\n      eq\n      tag_4\n      jumpi\n      dup1\n      0xbc84f213\n      eq\n      tag_5\n      jumpi\n      dup1\n      0xf6dfc78b\n      eq\n      tag_6\n      jumpi\n    tag_2:\n      0x00\n      dup1\n      revert\n        /* \"contracts/struct2.sol\":421:508  function getClass ()public view returns (Student[] memory){... */\n    tag_3:\n      tag_7\n      tag_8\n      jump\t// in\n    tag_7:\n      mload(0x40)\n      tag_9\n      swap2\n      swap1\n      tag_10\n      jump\t// in\n    tag_9:\n      mload(0x40)\n      dup1\n      swap2\n      sub\n      swap1\n      return\n        /* \"contracts/struct2.sol\":514:615  function getStudent (uint _n) public view returns (Student memory){... */\n    tag_4:\n      tag_11\n      0x04\n      dup1\n      calldatasize\n      sub\n      dup2\n      add\n      swap1\n      tag_12\n      swap2\n      swap1\n      tag_13\n      jump\t// in\n    tag_12:\n      tag_14\n      jump\t// in\n    tag_11:\n      mload(0x40)\n      tag_15\n      swap2\n      swap1\n      tag_16\n      jump\t// in\n    tag_15:\n      mload(0x40)\n      dup1\n      swap2\n      sub\n      swap1\n      return\n        /* \"contracts/struct2.sol\":195:330  function pushStudent(string memory _name, bool _isMale,uint _number) public {... */\n    tag_5:\n      tag_17\n      0x04\n      dup1\n      calldatasize\n      sub\n      dup2\n      add\n      swap1\n      tag_18\n      swap2\n      swap1\n      tag_19\n      jump\t// in\n    tag_18:\n      tag_20\n      jump\t// in\n    tag_17:\n      stop\n        /* \"contracts/struct2.sol\":336:415  function pushStudent2(Student memory _s) public {... */\n    tag_6:\n      tag_21\n      0x04\n      dup1\n      calldatasize\n      sub\n      dup2\n      add\n      swap1\n      tag_22\n      swap2\n      swap1\n      tag_23\n      jump\t// in\n    tag_22:\n      tag_24\n      jump\t// in\n    tag_21:\n      stop\n        /* \"contracts/struct2.sol\":421:508  function getClass ()public view returns (Student[] memory){... */\n    tag_8:\n        /* \"contracts/struct2.sol\":462:478  Student[] memory */\n      0x60\n        /* \"contracts/struct2.sol\":496:501  class */\n      0x00\n        /* \"contracts/struct2.sol\":489:501  return class */\n      dup1\n      sload\n      dup1\n      0x20\n      mul\n      0x20\n      add\n      mload(0x40)\n      swap1\n      dup2\n      add\n      0x40\n      mstore\n      dup1\n      swap3\n      swap2\n      swap1\n      dup2\n      dup2\n      mstore\n      0x20\n      add\n      0x00\n      swap1\n    tag_26:\n      dup3\n      dup3\n      lt\n      iszero\n      tag_27\n      jumpi\n      dup4\n      dup3\n      swap1\n      0x00\n      mstore\n      keccak256(0x00, 0x20)\n      swap1\n      0x03\n      mul\n      add\n      mload(0x40)\n      dup1\n      0x60\n      add\n      0x40\n      mstore\n      swap1\n      dup2\n      0x00\n      dup3\n      add\n      dup1\n      sload\n      tag_29\n      swap1\n      tag_30\n      jump\t// in\n    tag_29:\n      dup1\n      0x1f\n      add\n      0x20\n      dup1\n      swap2\n      div\n      mul\n      0x20\n      add\n      mload(0x40)\n      swap1\n      dup2\n      add\n      0x40\n      mstore\n      dup1\n      swap3\n      swap2\n      swap1\n      dup2\n      dup2\n      mstore\n      0x20\n      add\n      dup3\n      dup1\n      sload\n      tag_31\n      swap1\n      tag_30\n      jump\t// in\n    tag_31:\n      dup1\n      iszero\n      tag_32\n      jumpi\n      dup1\n      0x1f\n      lt\n      tag_33\n      jumpi\n      0x0100\n      dup1\n      dup4\n      sload\n      div\n      mul\n      dup4\n      mstore\n      swap2\n      0x20\n      add\n      swap2\n      jump(tag_32)\n    tag_33:\n      dup3\n      add\n      swap2\n      swap1\n      0x00\n      mstore\n      keccak256(0x00, 0x20)\n      swap1\n    tag_34:\n      dup2\n      sload\n      dup2\n      mstore\n      swap1\n      0x01\n      add\n      swap1\n      0x20\n      add\n      dup1\n      dup4\n      gt\n      tag_34\n      jumpi\n      dup3\n      swap1\n      sub\n      0x1f\n      and\n      dup3\n      add\n      swap2\n    tag_32:\n      pop\n      pop\n      pop\n      pop\n      pop\n      dup2\n      mstore\n      0x20\n      add\n      0x01\n      dup3\n      add\n      0x00\n      swap1\n      sload\n      swap1\n      0x0100\n      exp\n      swap1\n      div\n      0xff\n      and\n      iszero\n      iszero\n      iszero\n      iszero\n      dup2\n      mstore\n      0x20\n      add\n      0x02\n      dup3\n      add\n      sload\n      dup2\n      mstore\n      pop\n      pop\n      dup2\n      mstore\n      0x20\n      add\n      swap1\n      0x01\n      add\n      swap1\n      jump(tag_26)\n    tag_27:\n      pop\n      pop\n      pop\n      pop\n      swap1\n      pop\n        /* \"contracts/struct2.sol\":421:508  function getClass ()public view returns (Student[] memory){... */\n      swap1\n      jump\t// out\n        /* \"contracts/struct2.sol\":514:615  function getStudent (uint _n) public view returns (Student memory){... */\n    tag_14:\n        /* \"contracts/struct2.sol\":565:579  Student memory */\n      tag_35\n      tag_36\n      jump\t// in\n    tag_35:\n        /* \"contracts/struct2.sol\":597:602  class */\n      0x00\n        /* \"contracts/struct2.sol\":606:607  1 */\n      0x01\n        /* \"contracts/struct2.sol\":603:605  _n */\n      dup4\n        /* \"contracts/struct2.sol\":603:607  _n-1 */\n      tag_38\n      swap2\n      swap1\n      tag_39\n      jump\t// in\n    tag_38:\n        /* \"contracts/struct2.sol\":597:608  class[_n-1] */\n      dup2\n      sload\n      dup2\n      lt\n      tag_40\n      jumpi\n      tag_41\n      tag_42\n      jump\t// in\n    tag_41:\n    tag_40:\n      swap1\n      0x00\n      mstore\n      keccak256(0x00, 0x20)\n      swap1\n      0x03\n      mul\n      add\n        /* \"contracts/struct2.sol\":590:608  return class[_n-1] */\n      mload(0x40)\n      dup1\n      0x60\n      add\n      0x40\n      mstore\n      swap1\n      dup2\n      0x00\n      dup3\n      add\n      dup1\n      sload\n      tag_44\n      swap1\n      tag_30\n      jump\t// in\n    tag_44:\n      dup1\n      0x1f\n      add\n      0x20\n      dup1\n      swap2\n      div\n      mul\n      0x20\n      add\n      mload(0x40)\n      swap1\n      dup2\n      add\n      0x40\n      mstore\n      dup1\n      swap3\n      swap2\n      swap1\n      dup2\n      dup2\n      mstore\n      0x20\n      add\n      dup3\n      dup1\n      sload\n      tag_45\n      swap1\n      tag_30\n      jump\t// in\n    tag_45:\n      dup1\n      iszero\n      tag_46\n      jumpi\n      dup1\n      0x1f\n      lt\n      tag_47\n      jumpi\n      0x0100\n      dup1\n      dup4\n      sload\n      div\n      mul\n      dup4\n      mstore\n      swap2\n      0x20\n      add\n      swap2\n      jump(tag_46)\n    tag_47:\n      dup3\n      add\n      swap2\n      swap1\n      0x00\n      mstore\n      keccak256(0x00, 0x20)\n      swap1\n    tag_48:\n      dup2\n      sload\n      dup2\n      mstore\n      swap1\n      0x01\n      add\n      swap1\n      0x20\n      add\n      dup1\n      dup4\n      gt\n      tag_48\n      jumpi\n      dup3\n      swap1\n      sub\n      0x1f\n      and\n      dup3\n      add\n      swap2\n    tag_46:\n      pop\n      pop\n      pop\n      pop\n      pop\n      dup2\n      mstore\n      0x20\n      add\n      0x01\n      dup3\n      add\n      0x00\n      swap1\n      sload\n      swap1\n      0x0100\n      exp\n      swap1\n      div\n      0xff\n      and\n      iszero\n      iszero\n      iszero\n      iszero\n      dup2\n      mstore\n      0x20\n      add\n      0x02\n      dup3\n      add\n      sload\n      dup2\n      mstore\n      pop\n      pop\n      swap1\n      pop\n        /* \"contracts/struct2.sol\":514:615  function getStudent (uint _n) public view returns (Student memory){... */\n      swap2\n      swap1\n      pop\n      jump\t// out\n        /* \"contracts/struct2.sol\":195:330  function pushStudent(string memory _name, bool _isMale,uint _number) public {... */\n    tag_20:\n        /* \"contracts/struct2.sol\":281:286  class */\n      0x00\n        /* \"contracts/struct2.sol\":292:322  Student(_name,_isMale,_number) */\n      mload(0x40)\n      dup1\n      0x60\n      add\n      0x40\n      mstore\n      dup1\n        /* \"contracts/struct2.sol\":300:305  _name */\n      dup6\n        /* \"contracts/struct2.sol\":292:322  Student(_name,_isMale,_number) */\n      dup2\n      mstore\n      0x20\n      add\n        /* \"contracts/struct2.sol\":306:313  _isMale */\n      dup5\n        /* \"contracts/struct2.sol\":292:322  Student(_name,_isMale,_number) */\n      iszero\n      iszero\n      dup2\n      mstore\n      0x20\n      add\n        /* \"contracts/struct2.sol\":314:321  _number */\n      dup4\n        /* \"contracts/struct2.sol\":292:322  Student(_name,_isMale,_number) */\n      dup2\n      mstore\n      pop\n        /* \"contracts/struct2.sol\":281:323  class.push(Student(_name,_isMale,_number)) */\n      swap1\n      dup1\n      0x01\n      dup2\n      sload\n      add\n      dup1\n      dup3\n      sstore\n      dup1\n      swap2\n      pop\n      pop\n      0x01\n      swap1\n      sub\n      swap1\n      0x00\n      mstore\n      keccak256(0x00, 0x20)\n      swap1\n      0x03\n      mul\n      add\n      0x00\n      swap1\n      swap2\n      swap1\n      swap2\n      swap1\n      swap2\n      pop\n      0x00\n      dup3\n      add\n      mload\n      dup2\n      0x00\n      add\n      swap1\n      dup2\n      tag_51\n      swap2\n      swap1\n      tag_52\n      jump\t// in\n    tag_51:\n      pop\n      0x20\n      dup3\n      add\n      mload\n      dup2\n      0x01\n      add\n      exp(0x0100, 0x00)\n      dup2\n      sload\n      dup2\n      0xff\n      mul\n      not\n      and\n      swap1\n      dup4\n      iszero\n      iszero\n      mul\n      or\n      swap1\n      sstore\n      pop\n      0x40\n      dup3\n      add\n      mload\n      dup2\n      0x02\n      add\n      sstore\n      pop\n      pop\n        /* \"contracts/struct2.sol\":195:330  function pushStudent(string memory _name, bool _isMale,uint _number) public {... */\n      pop\n      pop\n      pop\n      jump\t// out\n        /* \"contracts/struct2.sol\":336:415  function pushStudent2(Student memory _s) public {... */\n    tag_24:\n        /* \"contracts/struct2.sol\":394:399  class */\n      0x00\n        /* \"contracts/struct2.sol\":405:407  _s */\n      dup2\n        /* \"contracts/struct2.sol\":394:408  class.push(_s) */\n      swap1\n      dup1\n      0x01\n      dup2\n      sload\n      add\n      dup1\n      dup3\n      sstore\n      dup1\n      swap2\n      pop\n      pop\n      0x01\n      swap1\n      sub\n      swap1\n      0x00\n      mstore\n      keccak256(0x00, 0x20)\n      swap1\n      0x03\n      mul\n      add\n      0x00\n      swap1\n      swap2\n      swap1\n      swap2\n      swap1\n      swap2\n      pop\n      0x00\n      dup3\n      add\n      mload\n      dup2\n      0x00\n      add\n      swap1\n      dup2\n      tag_55\n      swap2\n      swap1\n      tag_52\n      jump\t// in\n    tag_55:\n      pop\n      0x20\n      dup3\n      add\n      mload\n      dup2\n      0x01\n      add\n      exp(0x0100, 0x00)\n      dup2\n      sload\n      dup2\n      0xff\n      mul\n      not\n      and\n      swap1\n      dup4\n      iszero\n      iszero\n      mul\n      or\n      swap1\n      sstore\n      pop\n      0x40\n      dup3\n      add\n      mload\n      dup2\n      0x02\n      add\n      sstore\n      pop\n      pop\n        /* \"contracts/struct2.sol\":336:415  function pushStudent2(Student memory _s) public {... */\n      pop\n      jump\t// out\n    tag_36:\n      mload(0x40)\n      dup1\n      0x60\n      add\n      0x40\n      mstore\n      dup1\n      0x60\n      dup2\n      mstore\n      0x20\n      add\n      iszero(iszero(0x00))\n      dup2\n      mstore\n      0x20\n      add\n      0x00\n      dup2\n      mstore\n      pop\n      swap1\n      jump\t// out\n        /* \"#utility.yul\":7:143   */\n    tag_56:\n        /* \"#utility.yul\":96:102   */\n      0x00\n        /* \"#utility.yul\":130:135   */\n      dup2\n        /* \"#utility.yul\":124:136   */\n      mload\n        /* \"#utility.yul\":114:136   */\n      swap1\n      pop\n        /* \"#utility.yul\":7:143   */\n      swap2\n      swap1\n      pop\n      jump\t// out\n        /* \"#utility.yul\":149:355   */\n    tag_57:\n        /* \"#utility.yul\":270:281   */\n      0x00\n        /* \"#utility.yul\":304:310   */\n      dup3\n        /* \"#utility.yul\":299:302   */\n      dup3\n        /* \"#utility.yul\":292:311   */\n      mstore\n        /* \"#utility.yul\":344:348   */\n      0x20\n        /* \"#utility.yul\":339:342   */\n      dup3\n        /* \"#utility.yul\":335:349   */\n      add\n        /* \"#utility.yul\":320:349   */\n      swap1\n      pop\n        /* \"#utility.yul\":149:355   */\n      swap3\n      swap2\n      pop\n      pop\n      jump\t// out\n        /* \"#utility.yul\":361:515   */\n    tag_58:\n        /* \"#utility.yul\":450:454   */\n      0x00\n        /* \"#utility.yul\":473:476   */\n      dup2\n        /* \"#utility.yul\":465:476   */\n      swap1\n      pop\n        /* \"#utility.yul\":503:507   */\n      0x20\n        /* \"#utility.yul\":498:501   */\n      dup3\n        /* \"#utility.yul\":494:508   */\n      add\n        /* \"#utility.yul\":486:508   */\n      swap1\n      pop\n        /* \"#utility.yul\":361:515   */\n      swap2\n      swap1\n      pop\n      jump\t// out\n        /* \"#utility.yul\":521:620   */\n    tag_59:\n        /* \"#utility.yul\":573:579   */\n      0x00\n        /* \"#utility.yul\":607:612   */\n      dup2\n        /* \"#utility.yul\":601:613   */\n      mload\n        /* \"#utility.yul\":591:613   */\n      swap1\n      pop\n        /* \"#utility.yul\":521:620   */\n      swap2\n      swap1\n      pop\n      jump\t// out\n        /* \"#utility.yul\":626:785   */\n    tag_60:\n        /* \"#utility.yul\":700:711   */\n      0x00\n        /* \"#utility.yul\":734:740   */\n      dup3\n        /* \"#utility.yul\":729:732   */\n      dup3\n        /* \"#utility.yul\":722:741   */\n      mstore\n        /* \"#utility.yul\":774:778   */\n      0x20\n        /* \"#utility.yul\":769:772   */\n      dup3\n        /* \"#utility.yul\":765:779   */\n      add\n        /* \"#utility.yul\":750:779   */\n      swap1\n      pop\n        /* \"#utility.yul\":626:785   */\n      swap3\n      swap2\n      pop\n      pop\n      jump\t// out\n        /* \"#utility.yul\":791:1037   */\n    tag_61:\n        /* \"#utility.yul\":872:873   */\n      0x00\n        /* \"#utility.yul\":882:995   */\n    tag_116:\n        /* \"#utility.yul\":896:902   */\n      dup4\n        /* \"#utility.yul\":893:894   */\n      dup2\n        /* \"#utility.yul\":890:903   */\n      lt\n        /* \"#utility.yul\":882:995   */\n      iszero\n      tag_118\n      jumpi\n        /* \"#utility.yul\":981:982   */\n      dup1\n        /* \"#utility.yul\":976:979   */\n      dup3\n        /* \"#utility.yul\":972:983   */\n      add\n        /* \"#utility.yul\":966:984   */\n      mload\n        /* \"#utility.yul\":962:963   */\n      dup2\n        /* \"#utility.yul\":957:960   */\n      dup5\n        /* \"#utility.yul\":953:964   */\n      add\n        /* \"#utility.yul\":946:985   */\n      mstore\n        /* \"#utility.yul\":918:920   */\n      0x20\n        /* \"#utility.yul\":915:916   */\n      dup2\n        /* \"#utility.yul\":911:921   */\n      add\n        /* \"#utility.yul\":906:921   */\n      swap1\n      pop\n        /* \"#utility.yul\":882:995   */\n      jump(tag_116)\n    tag_118:\n        /* \"#utility.yul\":1029:1030   */\n      0x00\n        /* \"#utility.yul\":1020:1026   */\n      dup5\n        /* \"#utility.yul\":1015:1018   */\n      dup5\n        /* \"#utility.yul\":1011:1027   */\n      add\n        /* \"#utility.yul\":1004:1031   */\n      mstore\n        /* \"#utility.yul\":853:1037   */\n      pop\n        /* \"#utility.yul\":791:1037   */\n      pop\n      pop\n      pop\n      jump\t// out\n        /* \"#utility.yul\":1043:1145   */\n    tag_62:\n        /* \"#utility.yul\":1084:1090   */\n      0x00\n        /* \"#utility.yul\":1135:1137   */\n      0x1f\n        /* \"#utility.yul\":1131:1138   */\n      not\n        /* \"#utility.yul\":1126:1128   */\n      0x1f\n        /* \"#utility.yul\":1119:1124   */\n      dup4\n        /* \"#utility.yul\":1115:1129   */\n      add\n        /* \"#utility.yul\":1111:1139   */\n      and\n        /* \"#utility.yul\":1101:1139   */\n      swap1\n      pop\n        /* \"#utility.yul\":1043:1145   */\n      swap2\n      swap1\n      pop\n      jump\t// out\n        /* \"#utility.yul\":1151:1508   */\n    tag_63:\n        /* \"#utility.yul\":1229:1232   */\n      0x00\n        /* \"#utility.yul\":1257:1296   */\n      tag_121\n        /* \"#utility.yul\":1290:1295   */\n      dup3\n        /* \"#utility.yul\":1257:1296   */\n      tag_59\n      jump\t// in\n    tag_121:\n        /* \"#utility.yul\":1312:1373   */\n      tag_122\n        /* \"#utility.yul\":1366:1372   */\n      dup2\n        /* \"#utility.yul\":1361:1364   */\n      dup6\n        /* \"#utility.yul\":1312:1373   */\n      tag_60\n      jump\t// in\n    tag_122:\n        /* \"#utility.yul\":1305:1373   */\n      swap4\n      pop\n        /* \"#utility.yul\":1382:1447   */\n      tag_123\n        /* \"#utility.yul\":1440:1446   */\n      dup2\n        /* \"#utility.yul\":1435:1438   */\n      dup6\n        /* \"#utility.yul\":1428:1432   */\n      0x20\n        /* \"#utility.yul\":1421:1426   */\n      dup7\n        /* \"#utility.yul\":1417:1433   */\n      add\n        /* \"#utility.yul\":1382:1447   */\n      tag_61\n      jump\t// in\n    tag_123:\n        /* \"#utility.yul\":1472:1501   */\n      tag_124\n        /* \"#utility.yul\":1494:1500   */\n      dup2\n        /* \"#utility.yul\":1472:1501   */\n      tag_62\n      jump\t// in\n    tag_124:\n        /* \"#utility.yul\":1467:1470   */\n      dup5\n        /* \"#utility.yul\":1463:1502   */\n      add\n        /* \"#utility.yul\":1456:1502   */\n      swap2\n      pop\n        /* \"#utility.yul\":1233:1508   */\n      pop\n        /* \"#utility.yul\":1151:1508   */\n      swap3\n      swap2\n      pop\n      pop\n      jump\t// out\n        /* \"#utility.yul\":1514:1604   */\n    tag_64:\n        /* \"#utility.yul\":1548:1555   */\n      0x00\n        /* \"#utility.yul\":1591:1596   */\n      dup2\n        /* \"#utility.yul\":1584:1597   */\n      iszero\n        /* \"#utility.yul\":1577:1598   */\n      iszero\n        /* \"#utility.yul\":1566:1598   */\n      swap1\n      pop\n        /* \"#utility.yul\":1514:1604   */\n      swap2\n      swap1\n      pop\n      jump\t// out\n        /* \"#utility.yul\":1610:1709   */\n    tag_65:\n        /* \"#utility.yul\":1681:1702   */\n      tag_127\n        /* \"#utility.yul\":1696:1701   */\n      dup2\n        /* \"#utility.yul\":1681:1702   */\n      tag_64\n      jump\t// in\n    tag_127:\n        /* \"#utility.yul\":1676:1679   */\n      dup3\n        /* \"#utility.yul\":1669:1703   */\n      mstore\n        /* \"#utility.yul\":1610:1709   */\n      pop\n      pop\n      jump\t// out\n        /* \"#utility.yul\":1715:1792   */\n    tag_66:\n        /* \"#utility.yul\":1752:1759   */\n      0x00\n        /* \"#utility.yul\":1781:1786   */\n      dup2\n        /* \"#utility.yul\":1770:1786   */\n      swap1\n      pop\n        /* \"#utility.yul\":1715:1792   */\n      swap2\n      swap1\n      pop\n      jump\t// out\n        /* \"#utility.yul\":1798:1906   */\n    tag_67:\n        /* \"#utility.yul\":1875:1899   */\n      tag_130\n        /* \"#utility.yul\":1893:1898   */\n      dup2\n        /* \"#utility.yul\":1875:1899   */\n      tag_66\n      jump\t// in\n    tag_130:\n        /* \"#utility.yul\":1870:1873   */\n      dup3\n        /* \"#utility.yul\":1863:1900   */\n      mstore\n        /* \"#utility.yul\":1798:1906   */\n      pop\n      pop\n      jump\t// out\n        /* \"#utility.yul\":1966:2728   */\n    tag_68:\n        /* \"#utility.yul\":2069:2072   */\n      0x00\n        /* \"#utility.yul\":2105:2109   */\n      0x60\n        /* \"#utility.yul\":2100:2103   */\n      dup4\n        /* \"#utility.yul\":2096:2110   */\n      add\n        /* \"#utility.yul\":2192:2196   */\n      0x00\n        /* \"#utility.yul\":2185:2190   */\n      dup4\n        /* \"#utility.yul\":2181:2197   */\n      add\n        /* \"#utility.yul\":2175:2198   */\n      mload\n        /* \"#utility.yul\":2245:2248   */\n      dup5\n        /* \"#utility.yul\":2239:2243   */\n      dup3\n        /* \"#utility.yul\":2235:2249   */\n      sub\n        /* \"#utility.yul\":2228:2232   */\n      0x00\n        /* \"#utility.yul\":2223:2226   */\n      dup7\n        /* \"#utility.yul\":2219:2233   */\n      add\n        /* \"#utility.yul\":2212:2250   */\n      mstore\n        /* \"#utility.yul\":2271:2344   */\n      tag_132\n        /* \"#utility.yul\":2339:2343   */\n      dup3\n        /* \"#utility.yul\":2325:2337   */\n      dup3\n        /* \"#utility.yul\":2271:2344   */\n      tag_63\n      jump\t// in\n    tag_132:\n        /* \"#utility.yul\":2263:2344   */\n      swap2\n      pop\n        /* \"#utility.yul\":2120:2355   */\n      pop\n        /* \"#utility.yul\":2439:2443   */\n      0x20\n        /* \"#utility.yul\":2432:2437   */\n      dup4\n        /* \"#utility.yul\":2428:2444   */\n      add\n        /* \"#utility.yul\":2422:2445   */\n      mload\n        /* \"#utility.yul\":2458:2515   */\n      tag_133\n        /* \"#utility.yul\":2509:2513   */\n      0x20\n        /* \"#utility.yul\":2504:2507   */\n      dup7\n        /* \"#utility.yul\":2500:2514   */\n      add\n        /* \"#utility.yul\":2486:2498   */\n      dup3\n        /* \"#utility.yul\":2458:2515   */\n      tag_65\n      jump\t// in\n    tag_133:\n        /* \"#utility.yul\":2365:2525   */\n      pop\n        /* \"#utility.yul\":2609:2613   */\n      0x40\n        /* \"#utility.yul\":2602:2607   */\n      dup4\n        /* \"#utility.yul\":2598:2614   */\n      add\n        /* \"#utility.yul\":2592:2615   */\n      mload\n        /* \"#utility.yul\":2628:2691   */\n      tag_134\n        /* \"#utility.yul\":2685:2689   */\n      0x40\n        /* \"#utility.yul\":2680:2683   */\n      dup7\n        /* \"#utility.yul\":2676:2690   */\n      add\n        /* \"#utility.yul\":2662:2674   */\n      dup3\n        /* \"#utility.yul\":2628:2691   */\n      tag_67\n      jump\t// in\n    tag_134:\n        /* \"#utility.yul\":2535:2701   */\n      pop\n        /* \"#utility.yul\":2718:2722   */\n      dup1\n        /* \"#utility.yul\":2711:2722   */\n      swap2\n      pop\n        /* \"#utility.yul\":2074:2728   */\n      pop\n        /* \"#utility.yul\":1966:2728   */\n      swap3\n      swap2\n      pop\n      pop\n      jump\t// out\n        /* \"#utility.yul\":2734:2978   */\n    tag_69:\n        /* \"#utility.yul\":2847:2857   */\n      0x00\n        /* \"#utility.yul\":2882:2972   */\n      tag_136\n        /* \"#utility.yul\":2968:2971   */\n      dup4\n        /* \"#utility.yul\":2960:2966   */\n      dup4\n        /* \"#utility.yul\":2882:2972   */\n      tag_68\n      jump\t// in\n    tag_136:\n        /* \"#utility.yul\":2868:2972   */\n      swap1\n      pop\n        /* \"#utility.yul\":2734:2978   */\n      swap3\n      swap2\n      pop\n      pop\n      jump\t// out\n        /* \"#utility.yul\":2984:3119   */\n    tag_70:\n        /* \"#utility.yul\":3076:3080   */\n      0x00\n        /* \"#utility.yul\":3108:3112   */\n      0x20\n        /* \"#utility.yul\":3103:3106   */\n      dup3\n        /* \"#utility.yul\":3099:3113   */\n      add\n        /* \"#utility.yul\":3091:3113   */\n      swap1\n      pop\n        /* \"#utility.yul\":2984:3119   */\n      swap2\n      swap1\n      pop\n      jump\t// out\n        /* \"#utility.yul\":3183:4270   */\n    tag_71:\n        /* \"#utility.yul\":3346:3349   */\n      0x00\n        /* \"#utility.yul\":3375:3451   */\n      tag_139\n        /* \"#utility.yul\":3445:3450   */\n      dup3\n        /* \"#utility.yul\":3375:3451   */\n      tag_56\n      jump\t// in\n    tag_139:\n        /* \"#utility.yul\":3467:3575   */\n      tag_140\n        /* \"#utility.yul\":3568:3574   */\n      dup2\n        /* \"#utility.yul\":3563:3566   */\n      dup6\n        /* \"#utility.yul\":3467:3575   */\n      tag_57\n      jump\t// in\n    tag_140:\n        /* \"#utility.yul\":3460:3575   */\n      swap4\n      pop\n        /* \"#utility.yul\":3601:3604   */\n      dup4\n        /* \"#utility.yul\":3646:3650   */\n      0x20\n        /* \"#utility.yul\":3638:3644   */\n      dup3\n        /* \"#utility.yul\":3634:3651   */\n      mul\n        /* \"#utility.yul\":3629:3632   */\n      dup6\n        /* \"#utility.yul\":3625:3652   */\n      add\n        /* \"#utility.yul\":3676:3754   */\n      tag_141\n        /* \"#utility.yul\":3748:3753   */\n      dup6\n        /* \"#utility.yul\":3676:3754   */\n      tag_58\n      jump\t// in\n    tag_141:\n        /* \"#utility.yul\":3777:3784   */\n      dup1\n        /* \"#utility.yul\":3808:3809   */\n      0x00\n        /* \"#utility.yul\":3793:4225   */\n    tag_142:\n        /* \"#utility.yul\":3818:3824   */\n      dup6\n        /* \"#utility.yul\":3815:3816   */\n      dup2\n        /* \"#utility.yul\":3812:3825   */\n      lt\n        /* \"#utility.yul\":3793:4225   */\n      iszero\n      tag_144\n      jumpi\n        /* \"#utility.yul\":3889:3898   */\n      dup5\n        /* \"#utility.yul\":3883:3887   */\n      dup5\n        /* \"#utility.yul\":3879:3899   */\n      sub\n        /* \"#utility.yul\":3874:3877   */\n      dup10\n        /* \"#utility.yul\":3867:3900   */\n      mstore\n        /* \"#utility.yul\":3940:3946   */\n      dup2\n        /* \"#utility.yul\":3934:3947   */\n      mload\n        /* \"#utility.yul\":3968:4076   */\n      tag_145\n        /* \"#utility.yul\":4071:4075   */\n      dup6\n        /* \"#utility.yul\":4056:4069   */\n      dup3\n        /* \"#utility.yul\":3968:4076   */\n      tag_69\n      jump\t// in\n    tag_145:\n        /* \"#utility.yul\":3960:4076   */\n      swap5\n      pop\n        /* \"#utility.yul\":4099:4181   */\n      tag_146\n        /* \"#utility.yul\":4174:4180   */\n      dup4\n        /* \"#utility.yul\":4099:4181   */\n      tag_70\n      jump\t// in\n    tag_146:\n        /* \"#utility.yul\":4089:4181   */\n      swap3\n      pop\n        /* \"#utility.yul\":4210:4214   */\n      0x20\n        /* \"#utility.yul\":4205:4208   */\n      dup11\n        /* \"#utility.yul\":4201:4215   */\n      add\n        /* \"#utility.yul\":4194:4215   */\n      swap10\n      pop\n        /* \"#utility.yul\":3853:4225   */\n      pop\n        /* \"#utility.yul\":3840:3841   */\n      0x01\n        /* \"#utility.yul\":3837:3838   */\n      dup2\n        /* \"#utility.yul\":3833:3842   */\n      add\n        /* \"#utility.yul\":3828:3842   */\n      swap1\n      pop\n        /* \"#utility.yul\":3793:4225   */\n      jump(tag_142)\n    tag_144:\n        /* \"#utility.yul\":3797:3811   */\n      pop\n        /* \"#utility.yul\":4241:4245   */\n      dup3\n        /* \"#utility.yul\":4234:4245   */\n      swap8\n      pop\n        /* \"#utility.yul\":4261:4264   */\n      dup8\n        /* \"#utility.yul\":4254:4264   */\n      swap6\n      pop\n        /* \"#utility.yul\":3351:4270   */\n      pop\n      pop\n      pop\n      pop\n      pop\n        /* \"#utility.yul\":3183:4270   */\n      swap3\n      swap2\n      pop\n      pop\n      jump\t// out\n        /* \"#utility.yul\":4276:4737   */\n    tag_10:\n        /* \"#utility.yul\":4463:4467   */\n      0x00\n        /* \"#utility.yul\":4501:4503   */\n      0x20\n        /* \"#utility.yul\":4490:4499   */\n      dup3\n        /* \"#utility.yul\":4486:4504   */\n      add\n        /* \"#utility.yul\":4478:4504   */\n      swap1\n      pop\n        /* \"#utility.yul\":4550:4559   */\n      dup2\n        /* \"#utility.yul\":4544:4548   */\n      dup2\n        /* \"#utility.yul\":4540:4560   */\n      sub\n        /* \"#utility.yul\":4536:4537   */\n      0x00\n        /* \"#utility.yul\":4525:4534   */\n      dup4\n        /* \"#utility.yul\":4521:4538   */\n      add\n        /* \"#utility.yul\":4514:4561   */\n      mstore\n        /* \"#utility.yul\":4578:4730   */\n      tag_148\n        /* \"#utility.yul\":4725:4729   */\n      dup2\n        /* \"#utility.yul\":4716:4722   */\n      dup5\n        /* \"#utility.yul\":4578:4730   */\n      tag_71\n      jump\t// in\n    tag_148:\n        /* \"#utility.yul\":4570:4730   */\n      swap1\n      pop\n        /* \"#utility.yul\":4276:4737   */\n      swap3\n      swap2\n      pop\n      pop\n      jump\t// out\n        /* \"#utility.yul\":4743:4818   */\n    tag_72:\n        /* \"#utility.yul\":4776:4782   */\n      0x00\n        /* \"#utility.yul\":4809:4811   */\n      0x40\n        /* \"#utility.yul\":4803:4812   */\n      mload\n        /* \"#utility.yul\":4793:4812   */\n      swap1\n      pop\n        /* \"#utility.yul\":4743:4818   */\n      swap1\n      jump\t// out\n        /* \"#utility.yul\":4824:4941   */\n    tag_73:\n        /* \"#utility.yul\":4933:4934   */\n      0x00\n        /* \"#utility.yul\":4930:4931   */\n      dup1\n        /* \"#utility.yul\":4923:4935   */\n      revert\n        /* \"#utility.yul\":4947:5064   */\n    tag_74:\n        /* \"#utility.yul\":5056:5057   */\n      0x00\n        /* \"#utility.yul\":5053:5054   */\n      dup1\n        /* \"#utility.yul\":5046:5058   */\n      revert\n        /* \"#utility.yul\":5070:5192   */\n    tag_75:\n        /* \"#utility.yul\":5143:5167   */\n      tag_153\n        /* \"#utility.yul\":5161:5166   */\n      dup2\n        /* \"#utility.yul\":5143:5167   */\n      tag_66\n      jump\t// in\n    tag_153:\n        /* \"#utility.yul\":5136:5141   */\n      dup2\n        /* \"#utility.yul\":5133:5168   */\n      eq\n        /* \"#utility.yul\":5123:5186   */\n      tag_154\n      jumpi\n        /* \"#utility.yul\":5182:5183   */\n      0x00\n        /* \"#utility.yul\":5179:5180   */\n      dup1\n        /* \"#utility.yul\":5172:5184   */\n      revert\n        /* \"#utility.yul\":5123:5186   */\n    tag_154:\n        /* \"#utility.yul\":5070:5192   */\n      pop\n      jump\t// out\n        /* \"#utility.yul\":5198:5337   */\n    tag_76:\n        /* \"#utility.yul\":5244:5249   */\n      0x00\n        /* \"#utility.yul\":5282:5288   */\n      dup2\n        /* \"#utility.yul\":5269:5289   */\n      calldataload\n        /* \"#utility.yul\":5260:5289   */\n      swap1\n      pop\n        /* \"#utility.yul\":5298:5331   */\n      tag_156\n        /* \"#utility.yul\":5325:5330   */\n      dup2\n        /* \"#utility.yul\":5298:5331   */\n      tag_75\n      jump\t// in\n    tag_156:\n        /* \"#utility.yul\":5198:5337   */\n      swap3\n      swap2\n      pop\n      pop\n      jump\t// out\n        /* \"#utility.yul\":5343:5672   */\n    tag_13:\n        /* \"#utility.yul\":5402:5408   */\n      0x00\n        /* \"#utility.yul\":5451:5453   */\n      0x20\n        /* \"#utility.yul\":5439:5448   */\n      dup3\n        /* \"#utility.yul\":5430:5437   */\n      dup5\n        /* \"#utility.yul\":5426:5449   */\n      sub\n        /* \"#utility.yul\":5422:5454   */\n      slt\n        /* \"#utility.yul\":5419:5538   */\n      iszero\n      tag_158\n      jumpi\n        /* \"#utility.yul\":5457:5536   */\n      tag_159\n      tag_73\n      jump\t// in\n    tag_159:\n        /* \"#utility.yul\":5419:5538   */\n    tag_158:\n        /* \"#utility.yul\":5577:5578   */\n      0x00\n        /* \"#utility.yul\":5602:5655   */\n      tag_160\n        /* \"#utility.yul\":5647:5654   */\n      dup5\n        /* \"#utility.yul\":5638:5644   */\n      dup3\n        /* \"#utility.yul\":5627:5636   */\n      dup6\n        /* \"#utility.yul\":5623:5645   */\n      add\n        /* \"#utility.yul\":5602:5655   */\n      tag_76\n      jump\t// in\n    tag_160:\n        /* \"#utility.yul\":5592:5655   */\n      swap2\n      pop\n        /* \"#utility.yul\":5548:5665   */\n      pop\n        /* \"#utility.yul\":5343:5672   */\n      swap3\n      swap2\n      pop\n      pop\n      jump\t// out\n        /* \"#utility.yul\":5732:6504   */\n    tag_77:\n        /* \"#utility.yul\":5845:5848   */\n      0x00\n        /* \"#utility.yul\":5881:5885   */\n      0x60\n        /* \"#utility.yul\":5876:5879   */\n      dup4\n        /* \"#utility.yul\":5872:5886   */\n      add\n        /* \"#utility.yul\":5968:5972   */\n      0x00\n        /* \"#utility.yul\":5961:5966   */\n      dup4\n        /* \"#utility.yul\":5957:5973   */\n      add\n        /* \"#utility.yul\":5951:5974   */\n      mload\n        /* \"#utility.yul\":6021:6024   */\n      dup5\n        /* \"#utility.yul\":6015:6019   */\n      dup3\n        /* \"#utility.yul\":6011:6025   */\n      sub\n        /* \"#utility.yul\":6004:6008   */\n      0x00\n        /* \"#utility.yul\":5999:6002   */\n      dup7\n        /* \"#utility.yul\":5995:6009   */\n      add\n        /* \"#utility.yul\":5988:6026   */\n      mstore\n        /* \"#utility.yul\":6047:6120   */\n      tag_162\n        /* \"#utility.yul\":6115:6119   */\n      dup3\n        /* \"#utility.yul\":6101:6113   */\n      dup3\n        /* \"#utility.yul\":6047:6120   */\n      tag_63\n      jump\t// in\n    tag_162:\n        /* \"#utility.yul\":6039:6120   */\n      swap2\n      pop\n        /* \"#utility.yul\":5896:6131   */\n      pop\n        /* \"#utility.yul\":6215:6219   */\n      0x20\n        /* \"#utility.yul\":6208:6213   */\n      dup4\n        /* \"#utility.yul\":6204:6220   */\n      add\n        /* \"#utility.yul\":6198:6221   */\n      mload\n        /* \"#utility.yul\":6234:6291   */\n      tag_163\n        /* \"#utility.yul\":6285:6289   */\n      0x20\n        /* \"#utility.yul\":6280:6283   */\n      dup7\n        /* \"#utility.yul\":6276:6290   */\n      add\n        /* \"#utility.yul\":6262:6274   */\n      dup3\n        /* \"#utility.yul\":6234:6291   */\n      tag_65\n      jump\t// in\n    tag_163:\n        /* \"#utility.yul\":6141:6301   */\n      pop\n        /* \"#utility.yul\":6385:6389   */\n      0x40\n        /* \"#utility.yul\":6378:6383   */\n      dup4\n        /* \"#utility.yul\":6374:6390   */\n      add\n        /* \"#utility.yul\":6368:6391   */\n      mload\n        /* \"#utility.yul\":6404:6467   */\n      tag_164\n        /* \"#utility.yul\":6461:6465   */\n      0x40\n        /* \"#utility.yul\":6456:6459   */\n      dup7\n        /* \"#utility.yul\":6452:6466   */\n      add\n        /* \"#utility.yul\":6438:6450   */\n      dup3\n        /* \"#utility.yul\":6404:6467   */\n      tag_67\n      jump\t// in\n    tag_164:\n        /* \"#utility.yul\":6311:6477   */\n      pop\n        /* \"#utility.yul\":6494:6498   */\n      dup1\n        /* \"#utility.yul\":6487:6498   */\n      swap2\n      pop\n        /* \"#utility.yul\":5850:6504   */\n      pop\n        /* \"#utility.yul\":5732:6504   */\n      swap3\n      swap2\n      pop\n      pop\n      jump\t// out\n        /* \"#utility.yul\":6510:6871   */\n    tag_16:\n        /* \"#utility.yul\":6647:6651   */\n      0x00\n        /* \"#utility.yul\":6685:6687   */\n      0x20\n        /* \"#utility.yul\":6674:6683   */\n      dup3\n        /* \"#utility.yul\":6670:6688   */\n      add\n        /* \"#utility.yul\":6662:6688   */\n      swap1\n      pop\n        /* \"#utility.yul\":6734:6743   */\n      dup2\n        /* \"#utility.yul\":6728:6732   */\n      dup2\n        /* \"#utility.yul\":6724:6744   */\n      sub\n        /* \"#utility.yul\":6720:6721   */\n      0x00\n        /* \"#utility.yul\":6709:6718   */\n      dup4\n        /* \"#utility.yul\":6705:6722   */\n      add\n        /* \"#utility.yul\":6698:6745   */\n      mstore\n        /* \"#utility.yul\":6762:6864   */\n      tag_166\n        /* \"#utility.yul\":6859:6863   */\n      dup2\n        /* \"#utility.yul\":6850:6856   */\n      dup5\n        /* \"#utility.yul\":6762:6864   */\n      tag_77\n      jump\t// in\n    tag_166:\n        /* \"#utility.yul\":6754:6864   */\n      swap1\n      pop\n        /* \"#utility.yul\":6510:6871   */\n      swap3\n      swap2\n      pop\n      pop\n      jump\t// out\n        /* \"#utility.yul\":6877:6994   */\n    tag_78:\n        /* \"#utility.yul\":6986:6987   */\n      0x00\n        /* \"#utility.yul\":6983:6984   */\n      dup1\n        /* \"#utility.yul\":6976:6988   */\n      revert\n        /* \"#utility.yul\":7000:7117   */\n    tag_79:\n        /* \"#utility.yul\":7109:7110   */\n      0x00\n        /* \"#utility.yul\":7106:7107   */\n      dup1\n        /* \"#utility.yul\":7099:7111   */\n      revert\n        /* \"#utility.yul\":7123:7303   */\n    tag_80:\n        /* \"#utility.yul\":7171:7248   */\n      0x4e487b7100000000000000000000000000000000000000000000000000000000\n        /* \"#utility.yul\":7168:7169   */\n      0x00\n        /* \"#utility.yul\":7161:7249   */\n      mstore\n        /* \"#utility.yul\":7268:7272   */\n      0x41\n        /* \"#utility.yul\":7265:7266   */\n      0x04\n        /* \"#utility.yul\":7258:7273   */\n      mstore\n        /* \"#utility.yul\":7292:7296   */\n      0x24\n        /* \"#utility.yul\":7289:7290   */\n      0x00\n        /* \"#utility.yul\":7282:7297   */\n      revert\n        /* \"#utility.yul\":7309:7590   */\n    tag_81:\n        /* \"#utility.yul\":7392:7419   */\n      tag_171\n        /* \"#utility.yul\":7414:7418   */\n      dup3\n        /* \"#utility.yul\":7392:7419   */\n      tag_62\n      jump\t// in\n    tag_171:\n        /* \"#utility.yul\":7384:7390   */\n      dup2\n        /* \"#utility.yul\":7380:7420   */\n      add\n        /* \"#utility.yul\":7522:7528   */\n      dup2\n        /* \"#utility.yul\":7510:7520   */\n      dup2\n        /* \"#utility.yul\":7507:7529   */\n      lt\n        /* \"#utility.yul\":7486:7504   */\n      0xffffffffffffffff\n        /* \"#utility.yul\":7474:7484   */\n      dup3\n        /* \"#utility.yul\":7471:7505   */\n      gt\n        /* \"#utility.yul\":7468:7530   */\n      or\n        /* \"#utility.yul\":7465:7553   */\n      iszero\n      tag_172\n      jumpi\n        /* \"#utility.yul\":7533:7551   */\n      tag_173\n      tag_80\n      jump\t// in\n    tag_173:\n        /* \"#utility.yul\":7465:7553   */\n    tag_172:\n        /* \"#utility.yul\":7573:7583   */\n      dup1\n        /* \"#utility.yul\":7569:7571   */\n      0x40\n        /* \"#utility.yul\":7562:7584   */\n      mstore\n        /* \"#utility.yul\":7352:7590   */\n      pop\n        /* \"#utility.yul\":7309:7590   */\n      pop\n      pop\n      jump\t// out\n        /* \"#utility.yul\":7596:7725   */\n    tag_82:\n        /* \"#utility.yul\":7630:7636   */\n      0x00\n        /* \"#utility.yul\":7657:7677   */\n      tag_175\n      tag_72\n      jump\t// in\n    tag_175:\n        /* \"#utility.yul\":7647:7677   */\n      swap1\n      pop\n        /* \"#utility.yul\":7686:7719   */\n      tag_176\n        /* \"#utility.yul\":7714:7718   */\n      dup3\n        /* \"#utility.yul\":7706:7712   */\n      dup3\n        /* \"#utility.yul\":7686:7719   */\n      tag_81\n      jump\t// in\n    tag_176:\n        /* \"#utility.yul\":7596:7725   */\n      swap2\n      swap1\n      pop\n      jump\t// out\n        /* \"#utility.yul\":7731:8039   */\n    tag_83:\n        /* \"#utility.yul\":7793:7797   */\n      0x00\n        /* \"#utility.yul\":7883:7901   */\n      0xffffffffffffffff\n        /* \"#utility.yul\":7875:7881   */\n      dup3\n        /* \"#utility.yul\":7872:7902   */\n      gt\n        /* \"#utility.yul\":7869:7925   */\n      iszero\n      tag_178\n      jumpi\n        /* \"#utility.yul\":7905:7923   */\n      tag_179\n      tag_80\n      jump\t// in\n    tag_179:\n        /* \"#utility.yul\":7869:7925   */\n    tag_178:\n        /* \"#utility.yul\":7943:7972   */\n      tag_180\n        /* \"#utility.yul\":7965:7971   */\n      dup3\n        /* \"#utility.yul\":7943:7972   */\n      tag_62\n      jump\t// in\n    tag_180:\n        /* \"#utility.yul\":7935:7972   */\n      swap1\n      pop\n        /* \"#utility.yul\":8027:8031   */\n      0x20\n        /* \"#utility.yul\":8021:8025   */\n      dup2\n        /* \"#utility.yul\":8017:8032   */\n      add\n        /* \"#utility.yul\":8009:8032   */\n      swap1\n      pop\n        /* \"#utility.yul\":7731:8039   */\n      swap2\n      swap1\n      pop\n      jump\t// out\n        /* \"#utility.yul\":8045:8191   */\n    tag_84:\n        /* \"#utility.yul\":8142:8148   */\n      dup3\n        /* \"#utility.yul\":8137:8140   */\n      dup2\n        /* \"#utility.yul\":8132:8135   */\n      dup4\n        /* \"#utility.yul\":8119:8149   */\n      calldatacopy\n        /* \"#utility.yul\":8183:8184   */\n      0x00\n        /* \"#utility.yul\":8174:8180   */\n      dup4\n        /* \"#utility.yul\":8169:8172   */\n      dup4\n        /* \"#utility.yul\":8165:8181   */\n      add\n        /* \"#utility.yul\":8158:8185   */\n      mstore\n        /* \"#utility.yul\":8045:8191   */\n      pop\n      pop\n      pop\n      jump\t// out\n        /* \"#utility.yul\":8197:8622   */\n    tag_85:\n        /* \"#utility.yul\":8275:8280   */\n      0x00\n        /* \"#utility.yul\":8300:8366   */\n      tag_183\n        /* \"#utility.yul\":8316:8365   */\n      tag_184\n        /* \"#utility.yul\":8358:8364   */\n      dup5\n        /* \"#utility.yul\":8316:8365   */\n      tag_83\n      jump\t// in\n    tag_184:\n        /* \"#utility.yul\":8300:8366   */\n      tag_82\n      jump\t// in\n    tag_183:\n        /* \"#utility.yul\":8291:8366   */\n      swap1\n      pop\n        /* \"#utility.yul\":8389:8395   */\n      dup3\n        /* \"#utility.yul\":8382:8387   */\n      dup2\n        /* \"#utility.yul\":8375:8396   */\n      mstore\n        /* \"#utility.yul\":8427:8431   */\n      0x20\n        /* \"#utility.yul\":8420:8425   */\n      dup2\n        /* \"#utility.yul\":8416:8432   */\n      add\n        /* \"#utility.yul\":8465:8468   */\n      dup5\n        /* \"#utility.yul\":8456:8462   */\n      dup5\n        /* \"#utility.yul\":8451:8454   */\n      dup5\n        /* \"#utility.yul\":8447:8463   */\n      add\n        /* \"#utility.yul\":8444:8469   */\n      gt\n        /* \"#utility.yul\":8441:8553   */\n      iszero\n      tag_185\n      jumpi\n        /* \"#utility.yul\":8472:8551   */\n      tag_186\n      tag_79\n      jump\t// in\n    tag_186:\n        /* \"#utility.yul\":8441:8553   */\n    tag_185:\n        /* \"#utility.yul\":8562:8616   */\n      tag_187\n        /* \"#utility.yul\":8609:8615   */\n      dup5\n        /* \"#utility.yul\":8604:8607   */\n      dup3\n        /* \"#utility.yul\":8599:8602   */\n      dup6\n        /* \"#utility.yul\":8562:8616   */\n      tag_84\n      jump\t// in\n    tag_187:\n        /* \"#utility.yul\":8281:8622   */\n      pop\n        /* \"#utility.yul\":8197:8622   */\n      swap4\n      swap3\n      pop\n      pop\n      pop\n      jump\t// out\n        /* \"#utility.yul\":8642:8982   */\n    tag_86:\n        /* \"#utility.yul\":8698:8703   */\n      0x00\n        /* \"#utility.yul\":8747:8750   */\n      dup3\n        /* \"#utility.yul\":8740:8744   */\n      0x1f\n        /* \"#utility.yul\":8732:8738   */\n      dup4\n        /* \"#utility.yul\":8728:8745   */\n      add\n        /* \"#utility.yul\":8724:8751   */\n      slt\n        /* \"#utility.yul\":8714:8836   */\n      tag_189\n      jumpi\n        /* \"#utility.yul\":8755:8834   */\n      tag_190\n      tag_78\n      jump\t// in\n    tag_190:\n        /* \"#utility.yul\":8714:8836   */\n    tag_189:\n        /* \"#utility.yul\":8872:8878   */\n      dup2\n        /* \"#utility.yul\":8859:8879   */\n      calldataload\n        /* \"#utility.yul\":8897:8976   */\n      tag_191\n        /* \"#utility.yul\":8972:8975   */\n      dup5\n        /* \"#utility.yul\":8964:8970   */\n      dup3\n        /* \"#utility.yul\":8957:8961   */\n      0x20\n        /* \"#utility.yul\":8949:8955   */\n      dup7\n        /* \"#utility.yul\":8945:8962   */\n      add\n        /* \"#utility.yul\":8897:8976   */\n      tag_85\n      jump\t// in\n    tag_191:\n        /* \"#utility.yul\":8888:8976   */\n      swap2\n      pop\n        /* \"#utility.yul\":8704:8982   */\n      pop\n        /* \"#utility.yul\":8642:8982   */\n      swap3\n      swap2\n      pop\n      pop\n      jump\t// out\n        /* \"#utility.yul\":8988:9104   */\n    tag_87:\n        /* \"#utility.yul\":9058:9079   */\n      tag_193\n        /* \"#utility.yul\":9073:9078   */\n      dup2\n        /* \"#utility.yul\":9058:9079   */\n      tag_64\n      jump\t// in\n    tag_193:\n        /* \"#utility.yul\":9051:9056   */\n      dup2\n        /* \"#utility.yul\":9048:9080   */\n      eq\n        /* \"#utility.yul\":9038:9098   */\n      tag_194\n      jumpi\n        /* \"#utility.yul\":9094:9095   */\n      0x00\n        /* \"#utility.yul\":9091:9092   */\n      dup1\n        /* \"#utility.yul\":9084:9096   */\n      revert\n        /* \"#utility.yul\":9038:9098   */\n    tag_194:\n        /* \"#utility.yul\":8988:9104   */\n      pop\n      jump\t// out\n        /* \"#utility.yul\":9110:9243   */\n    tag_88:\n        /* \"#utility.yul\":9153:9158   */\n      0x00\n        /* \"#utility.yul\":9191:9197   */\n      dup2\n        /* \"#utility.yul\":9178:9198   */\n      calldataload\n        /* \"#utility.yul\":9169:9198   */\n      swap1\n      pop\n        /* \"#utility.yul\":9207:9237   */\n      tag_196\n        /* \"#utility.yul\":9231:9236   */\n      dup2\n        /* \"#utility.yul\":9207:9237   */\n      tag_87\n      jump\t// in\n    tag_196:\n        /* \"#utility.yul\":9110:9243   */\n      swap3\n      swap2\n      pop\n      pop\n      jump\t// out\n        /* \"#utility.yul\":9249:10042   */\n    tag_19:\n        /* \"#utility.yul\":9333:9339   */\n      0x00\n        /* \"#utility.yul\":9341:9347   */\n      dup1\n        /* \"#utility.yul\":9349:9355   */\n      0x00\n        /* \"#utility.yul\":9398:9400   */\n      0x60\n        /* \"#utility.yul\":9386:9395   */\n      dup5\n        /* \"#utility.yul\":9377:9384   */\n      dup7\n        /* \"#utility.yul\":9373:9396   */\n      sub\n        /* \"#utility.yul\":9369:9401   */\n      slt\n        /* \"#utility.yul\":9366:9485   */\n      iszero\n      tag_198\n      jumpi\n        /* \"#utility.yul\":9404:9483   */\n      tag_199\n      tag_73\n      jump\t// in\n    tag_199:\n        /* \"#utility.yul\":9366:9485   */\n    tag_198:\n        /* \"#utility.yul\":9552:9553   */\n      0x00\n        /* \"#utility.yul\":9541:9550   */\n      dup5\n        /* \"#utility.yul\":9537:9554   */\n      add\n        /* \"#utility.yul\":9524:9555   */\n      calldataload\n        /* \"#utility.yul\":9582:9600   */\n      0xffffffffffffffff\n        /* \"#utility.yul\":9574:9580   */\n      dup2\n        /* \"#utility.yul\":9571:9601   */\n      gt\n        /* \"#utility.yul\":9568:9685   */\n      iszero\n      tag_200\n      jumpi\n        /* \"#utility.yul\":9604:9683   */\n      tag_201\n      tag_74\n      jump\t// in\n    tag_201:\n        /* \"#utility.yul\":9568:9685   */\n    tag_200:\n        /* \"#utility.yul\":9709:9772   */\n      tag_202\n        /* \"#utility.yul\":9764:9771   */\n      dup7\n        /* \"#utility.yul\":9755:9761   */\n      dup3\n        /* \"#utility.yul\":9744:9753   */\n      dup8\n        /* \"#utility.yul\":9740:9762   */\n      add\n        /* \"#utility.yul\":9709:9772   */\n      tag_86\n      jump\t// in\n    tag_202:\n        /* \"#utility.yul\":9699:9772   */\n      swap4\n      pop\n        /* \"#utility.yul\":9495:9782   */\n      pop\n        /* \"#utility.yul\":9821:9823   */\n      0x20\n        /* \"#utility.yul\":9847:9897   */\n      tag_203\n        /* \"#utility.yul\":9889:9896   */\n      dup7\n        /* \"#utility.yul\":9880:9886   */\n      dup3\n        /* \"#utility.yul\":9869:9878   */\n      dup8\n        /* \"#utility.yul\":9865:9887   */\n      add\n        /* \"#utility.yul\":9847:9897   */\n      tag_88\n      jump\t// in\n    tag_203:\n        /* \"#utility.yul\":9837:9897   */\n      swap3\n      pop\n        /* \"#utility.yul\":9792:9907   */\n      pop\n        /* \"#utility.yul\":9946:9948   */\n      0x40\n        /* \"#utility.yul\":9972:10025   */\n      tag_204\n        /* \"#utility.yul\":10017:10024   */\n      dup7\n        /* \"#utility.yul\":10008:10014   */\n      dup3\n        /* \"#utility.yul\":9997:10006   */\n      dup8\n        /* \"#utility.yul\":9993:10015   */\n      add\n        /* \"#utility.yul\":9972:10025   */\n      tag_76\n      jump\t// in\n    tag_204:\n        /* \"#utility.yul\":9962:10025   */\n      swap2\n      pop\n        /* \"#utility.yul\":9917:10035   */\n      pop\n        /* \"#utility.yul\":9249:10042   */\n      swap3\n      pop\n      swap3\n      pop\n      swap3\n      jump\t// out\n        /* \"#utility.yul\":10048:10165   */\n    tag_89:\n        /* \"#utility.yul\":10157:10158   */\n      0x00\n        /* \"#utility.yul\":10154:10155   */\n      dup1\n        /* \"#utility.yul\":10147:10159   */\n      revert\n        /* \"#utility.yul\":10171:10288   */\n    tag_90:\n        /* \"#utility.yul\":10280:10281   */\n      0x00\n        /* \"#utility.yul\":10277:10278   */\n      dup1\n        /* \"#utility.yul\":10270:10282   */\n      revert\n        /* \"#utility.yul\":10323:11226   */\n    tag_91:\n        /* \"#utility.yul\":10394:10399   */\n      0x00\n        /* \"#utility.yul\":10438:10442   */\n      0x60\n        /* \"#utility.yul\":10426:10435   */\n      dup3\n        /* \"#utility.yul\":10421:10424   */\n      dup5\n        /* \"#utility.yul\":10417:10436   */\n      sub\n        /* \"#utility.yul\":10413:10443   */\n      slt\n        /* \"#utility.yul\":10410:10527   */\n      iszero\n      tag_208\n      jumpi\n        /* \"#utility.yul\":10446:10525   */\n      tag_209\n      tag_89\n      jump\t// in\n    tag_209:\n        /* \"#utility.yul\":10410:10527   */\n    tag_208:\n        /* \"#utility.yul\":10545:10566   */\n      tag_210\n        /* \"#utility.yul\":10561:10565   */\n      0x60\n        /* \"#utility.yul\":10545:10566   */\n      tag_82\n      jump\t// in\n    tag_210:\n        /* \"#utility.yul\":10536:10566   */\n      swap1\n      pop\n        /* \"#utility.yul\":10653:10654   */\n      0x00\n        /* \"#utility.yul\":10642:10651   */\n      dup3\n        /* \"#utility.yul\":10638:10655   */\n      add\n        /* \"#utility.yul\":10625:10656   */\n      calldataload\n        /* \"#utility.yul\":10683:10701   */\n      0xffffffffffffffff\n        /* \"#utility.yul\":10675:10681   */\n      dup2\n        /* \"#utility.yul\":10672:10702   */\n      gt\n        /* \"#utility.yul\":10669:10786   */\n      iszero\n      tag_211\n      jumpi\n        /* \"#utility.yul\":10705:10784   */\n      tag_212\n      tag_90\n      jump\t// in\n    tag_212:\n        /* \"#utility.yul\":10669:10786   */\n    tag_211:\n        /* \"#utility.yul\":10825:10884   */\n      tag_213\n        /* \"#utility.yul\":10880:10883   */\n      dup5\n        /* \"#utility.yul\":10871:10877   */\n      dup3\n        /* \"#utility.yul\":10860:10869   */\n      dup6\n        /* \"#utility.yul\":10856:10878   */\n      add\n        /* \"#utility.yul\":10825:10884   */\n      tag_86\n      jump\t// in\n    tag_213:\n        /* \"#utility.yul\":10818:10822   */\n      0x00\n        /* \"#utility.yul\":10811:10816   */\n      dup4\n        /* \"#utility.yul\":10807:10823   */\n      add\n        /* \"#utility.yul\":10800:10885   */\n      mstore\n        /* \"#utility.yul\":10576:10896   */\n      pop\n        /* \"#utility.yul\":10957:10959   */\n      0x20\n        /* \"#utility.yul\":10998:11044   */\n      tag_214\n        /* \"#utility.yul\":11040:11043   */\n      dup5\n        /* \"#utility.yul\":11031:11037   */\n      dup3\n        /* \"#utility.yul\":11020:11029   */\n      dup6\n        /* \"#utility.yul\":11016:11038   */\n      add\n        /* \"#utility.yul\":10998:11044   */\n      tag_88\n      jump\t// in\n    tag_214:\n        /* \"#utility.yul\":10991:10995   */\n      0x20\n        /* \"#utility.yul\":10984:10989   */\n      dup4\n        /* \"#utility.yul\":10980:10996   */\n      add\n        /* \"#utility.yul\":10973:11045   */\n      mstore\n        /* \"#utility.yul\":10906:11056   */\n      pop\n        /* \"#utility.yul\":11117:11119   */\n      0x40\n        /* \"#utility.yul\":11158:11207   */\n      tag_215\n        /* \"#utility.yul\":11203:11206   */\n      dup5\n        /* \"#utility.yul\":11194:11200   */\n      dup3\n        /* \"#utility.yul\":11183:11192   */\n      dup6\n        /* \"#utility.yul\":11179:11201   */\n      add\n        /* \"#utility.yul\":11158:11207   */\n      tag_76\n      jump\t// in\n    tag_215:\n        /* \"#utility.yul\":11151:11155   */\n      0x40\n        /* \"#utility.yul\":11144:11149   */\n      dup4\n        /* \"#utility.yul\":11140:11156   */\n      add\n        /* \"#utility.yul\":11133:11208   */\n      mstore\n        /* \"#utility.yul\":11066:11219   */\n      pop\n        /* \"#utility.yul\":10323:11226   */\n      swap3\n      swap2\n      pop\n      pop\n      jump\t// out\n        /* \"#utility.yul\":11232:11765   */\n    tag_23:\n        /* \"#utility.yul\":11313:11319   */\n      0x00\n        /* \"#utility.yul\":11362:11364   */\n      0x20\n        /* \"#utility.yul\":11350:11359   */\n      dup3\n        /* \"#utility.yul\":11341:11348   */\n      dup5\n        /* \"#utility.yul\":11337:11360   */\n      sub\n        /* \"#utility.yul\":11333:11365   */\n      slt\n        /* \"#utility.yul\":11330:11449   */\n      iszero\n      tag_217\n      jumpi\n        /* \"#utility.yul\":11368:11447   */\n      tag_218\n      tag_73\n      jump\t// in\n    tag_218:\n        /* \"#utility.yul\":11330:11449   */\n    tag_217:\n        /* \"#utility.yul\":11516:11517   */\n      0x00\n        /* \"#utility.yul\":11505:11514   */\n      dup3\n        /* \"#utility.yul\":11501:11518   */\n      add\n        /* \"#utility.yul\":11488:11519   */\n      calldataload\n        /* \"#utility.yul\":11546:11564   */\n      0xffffffffffffffff\n        /* \"#utility.yul\":11538:11544   */\n      dup2\n        /* \"#utility.yul\":11535:11565   */\n      gt\n        /* \"#utility.yul\":11532:11649   */\n      iszero\n      tag_219\n      jumpi\n        /* \"#utility.yul\":11568:11647   */\n      tag_220\n      tag_74\n      jump\t// in\n    tag_220:\n        /* \"#utility.yul\":11532:11649   */\n    tag_219:\n        /* \"#utility.yul\":11673:11748   */\n      tag_221\n        /* \"#utility.yul\":11740:11747   */\n      dup5\n        /* \"#utility.yul\":11731:11737   */\n      dup3\n        /* \"#utility.yul\":11720:11729   */\n      dup6\n        /* \"#utility.yul\":11716:11738   */\n      add\n        /* \"#utility.yul\":11673:11748   */\n      tag_91\n      jump\t// in\n    tag_221:\n        /* \"#utility.yul\":11663:11748   */\n      swap2\n      pop\n        /* \"#utility.yul\":11459:11758   */\n      pop\n        /* \"#utility.yul\":11232:11765   */\n      swap3\n      swap2\n      pop\n      pop\n      jump\t// out\n        /* \"#utility.yul\":11771:11951   */\n    tag_92:\n        /* \"#utility.yul\":11819:11896   */\n      0x4e487b7100000000000000000000000000000000000000000000000000000000\n        /* \"#utility.yul\":11816:11817   */\n      0x00\n        /* \"#utility.yul\":11809:11897   */\n      mstore\n        /* \"#utility.yul\":11916:11920   */\n      0x22\n        /* \"#utility.yul\":11913:11914   */\n      0x04\n        /* \"#utility.yul\":11906:11921   */\n      mstore\n        /* \"#utility.yul\":11940:11944   */\n      0x24\n        /* \"#utility.yul\":11937:11938   */\n      0x00\n        /* \"#utility.yul\":11930:11945   */\n      revert\n        /* \"#utility.yul\":11957:12277   */\n    tag_30:\n        /* \"#utility.yul\":12001:12007   */\n      0x00\n        /* \"#utility.yul\":12038:12039   */\n      0x02\n        /* \"#utility.yul\":12032:12036   */\n      dup3\n        /* \"#utility.yul\":12028:12040   */\n      div\n        /* \"#utility.yul\":12018:12040   */\n      swap1\n      pop\n        /* \"#utility.yul\":12085:12086   */\n      0x01\n        /* \"#utility.yul\":12079:12083   */\n      dup3\n        /* \"#utility.yul\":12075:12087   */\n      and\n        /* \"#utility.yul\":12106:12124   */\n      dup1\n        /* \"#utility.yul\":12096:12177   */\n      tag_224\n      jumpi\n        /* \"#utility.yul\":12162:12166   */\n      0x7f\n        /* \"#utility.yul\":12154:12160   */\n      dup3\n        /* \"#utility.yul\":12150:12167   */\n      and\n        /* \"#utility.yul\":12140:12167   */\n      swap2\n      pop\n        /* \"#utility.yul\":12096:12177   */\n    tag_224:\n        /* \"#utility.yul\":12224:12226   */\n      0x20\n        /* \"#utility.yul\":12216:12222   */\n      dup3\n        /* \"#utility.yul\":12213:12227   */\n      lt\n        /* \"#utility.yul\":12193:12211   */\n      dup2\n        /* \"#utility.yul\":12190:12228   */\n      sub\n        /* \"#utility.yul\":12187:12271   */\n      tag_225\n      jumpi\n        /* \"#utility.yul\":12243:12261   */\n      tag_226\n      tag_92\n      jump\t// in\n    tag_226:\n        /* \"#utility.yul\":12187:12271   */\n    tag_225:\n        /* \"#utility.yul\":12008:12277   */\n      pop\n        /* \"#utility.yul\":11957:12277   */\n      swap2\n      swap1\n      pop\n      jump\t// out\n        /* \"#utility.yul\":12283:12463   */\n    tag_93:\n        /* \"#utility.yul\":12331:12408   */\n      0x4e487b7100000000000000000000000000000000000000000000000000000000\n        /* \"#utility.yul\":12328:12329   */\n      0x00\n        /* \"#utility.yul\":12321:12409   */\n      mstore\n        /* \"#utility.yul\":12428:12432   */\n      0x11\n        /* \"#utility.yul\":12425:12426   */\n      0x04\n        /* \"#utility.yul\":12418:12433   */\n      mstore\n        /* \"#utility.yul\":12452:12456   */\n      0x24\n        /* \"#utility.yul\":12449:12450   */\n      0x00\n        /* \"#utility.yul\":12442:12457   */\n      revert\n        /* \"#utility.yul\":12469:12663   */\n    tag_39:\n        /* \"#utility.yul\":12509:12513   */\n      0x00\n        /* \"#utility.yul\":12529:12549   */\n      tag_229\n        /* \"#utility.yul\":12547:12548   */\n      dup3\n        /* \"#utility.yul\":12529:12549   */\n      tag_66\n      jump\t// in\n    tag_229:\n        /* \"#utility.yul\":12524:12549   */\n      swap2\n      pop\n        /* \"#utility.yul\":12563:12583   */\n      tag_230\n        /* \"#utility.yul\":12581:12582   */\n      dup4\n        /* \"#utility.yul\":12563:12583   */\n      tag_66\n      jump\t// in\n    tag_230:\n        /* \"#utility.yul\":12558:12583   */\n      swap3\n      pop\n        /* \"#utility.yul\":12607:12608   */\n      dup3\n        /* \"#utility.yul\":12604:12605   */\n      dup3\n        /* \"#utility.yul\":12600:12609   */\n      sub\n        /* \"#utility.yul\":12592:12609   */\n      swap1\n      pop\n        /* \"#utility.yul\":12631:12632   */\n      dup2\n        /* \"#utility.yul\":12625:12629   */\n      dup2\n        /* \"#utility.yul\":12622:12633   */\n      gt\n        /* \"#utility.yul\":12619:12656   */\n      iszero\n      tag_231\n      jumpi\n        /* \"#utility.yul\":12636:12654   */\n      tag_232\n      tag_93\n      jump\t// in\n    tag_232:\n        /* \"#utility.yul\":12619:12656   */\n    tag_231:\n        /* \"#utility.yul\":12469:12663   */\n      swap3\n      swap2\n      pop\n      pop\n      jump\t// out\n        /* \"#utility.yul\":12669:12849   */\n    tag_42:\n        /* \"#utility.yul\":12717:12794   */\n      0x4e487b7100000000000000000000000000000000000000000000000000000000\n        /* \"#utility.yul\":12714:12715   */\n      0x00\n        /* \"#utility.yul\":12707:12795   */\n      mstore\n        /* \"#utility.yul\":12814:12818   */\n      0x32\n        /* \"#utility.yul\":12811:12812   */\n      0x04\n        /* \"#utility.yul\":12804:12819   */\n      mstore\n        /* \"#utility.yul\":12838:12842   */\n      0x24\n        /* \"#utility.yul\":12835:12836   */\n      0x00\n        /* \"#utility.yul\":12828:12843   */\n      revert\n        /* \"#utility.yul\":12855:12996   */\n    tag_94:\n        /* \"#utility.yul\":12904:12908   */\n      0x00\n        /* \"#utility.yul\":12927:12930   */\n      dup2\n        /* \"#utility.yul\":12919:12930   */\n      swap1\n      pop\n        /* \"#utility.yul\":12950:12953   */\n      dup2\n        /* \"#utility.yul\":12947:12948   */\n      0x00\n        /* \"#utility.yul\":12940:12954   */\n      mstore\n        /* \"#utility.yul\":12984:12988   */\n      0x20\n        /* \"#utility.yul\":12981:12982   */\n      0x00\n        /* \"#utility.yul\":12971:12989   */\n      keccak256\n        /* \"#utility.yul\":12963:12989   */\n      swap1\n      pop\n        /* \"#utility.yul\":12855:12996   */\n      swap2\n      swap1\n      pop\n      jump\t// out\n        /* \"#utility.yul\":13002:13095   */\n    tag_95:\n        /* \"#utility.yul\":13039:13045   */\n      0x00\n        /* \"#utility.yul\":13086:13088   */\n      0x20\n        /* \"#utility.yul\":13081:13083   */\n      0x1f\n        /* \"#utility.yul\":13074:13079   */\n      dup4\n        /* \"#utility.yul\":13070:13084   */\n      add\n        /* \"#utility.yul\":13066:13089   */\n      div\n        /* \"#utility.yul\":13056:13089   */\n      swap1\n      pop\n        /* \"#utility.yul\":13002:13095   */\n      swap2\n      swap1\n      pop\n      jump\t// out\n        /* \"#utility.yul\":13101:13208   */\n    tag_96:\n        /* \"#utility.yul\":13145:13153   */\n      0x00\n        /* \"#utility.yul\":13195:13200   */\n      dup3\n        /* \"#utility.yul\":13189:13193   */\n      dup3\n        /* \"#utility.yul\":13185:13201   */\n      shl\n        /* \"#utility.yul\":13164:13201   */\n      swap1\n      pop\n        /* \"#utility.yul\":13101:13208   */\n      swap3\n      swap2\n      pop\n      pop\n      jump\t// out\n        /* \"#utility.yul\":13214:13607   */\n    tag_97:\n        /* \"#utility.yul\":13283:13289   */\n      0x00\n        /* \"#utility.yul\":13333:13334   */\n      0x08\n        /* \"#utility.yul\":13321:13331   */\n      dup4\n        /* \"#utility.yul\":13317:13335   */\n      mul\n        /* \"#utility.yul\":13356:13453   */\n      tag_238\n        /* \"#utility.yul\":13386:13452   */\n      0xffffffffffffffffffffffffffffffffffffffffffffffffffffffffffffffff\n        /* \"#utility.yul\":13375:13384   */\n      dup3\n        /* \"#utility.yul\":13356:13453   */\n      tag_96\n      jump\t// in\n    tag_238:\n        /* \"#utility.yul\":13474:13513   */\n      tag_239\n        /* \"#utility.yul\":13504:13512   */\n      dup7\n        /* \"#utility.yul\":13493:13502   */\n      dup4\n        /* \"#utility.yul\":13474:13513   */\n      tag_96\n      jump\t// in\n    tag_239:\n        /* \"#utility.yul\":13462:13513   */\n      swap6\n      pop\n        /* \"#utility.yul\":13546:13550   */\n      dup1\n        /* \"#utility.yul\":13542:13551   */\n      not\n        /* \"#utility.yul\":13535:13540   */\n      dup5\n        /* \"#utility.yul\":13531:13552   */\n      and\n        /* \"#utility.yul\":13522:13552   */\n      swap4\n      pop\n        /* \"#utility.yul\":13595:13599   */\n      dup1\n        /* \"#utility.yul\":13585:13593   */\n      dup7\n        /* \"#utility.yul\":13581:13600   */\n      and\n        /* \"#utility.yul\":13574:13579   */\n      dup5\n        /* \"#utility.yul\":13571:13601   */\n      or\n        /* \"#utility.yul\":13561:13601   */\n      swap3\n      pop\n        /* \"#utility.yul\":13290:13607   */\n      pop\n      pop\n        /* \"#utility.yul\":13214:13607   */\n      swap4\n      swap3\n      pop\n      pop\n      pop\n      jump\t// out\n        /* \"#utility.yul\":13613:13673   */\n    tag_98:\n        /* \"#utility.yul\":13641:13644   */\n      0x00\n        /* \"#utility.yul\":13662:13667   */\n      dup2\n        /* \"#utility.yul\":13655:13667   */\n      swap1\n      pop\n        /* \"#utility.yul\":13613:13673   */\n      swap2\n      swap1\n      pop\n      jump\t// out\n        /* \"#utility.yul\":13679:13821   */\n    tag_99:\n        /* \"#utility.yul\":13729:13738   */\n      0x00\n        /* \"#utility.yul\":13762:13815   */\n      tag_242\n        /* \"#utility.yul\":13780:13814   */\n      tag_243\n        /* \"#utility.yul\":13789:13813   */\n      tag_244\n        /* \"#utility.yul\":13807:13812   */\n      dup5\n        /* \"#utility.yul\":13789:13813   */\n      tag_66\n      jump\t// in\n    tag_244:\n        /* \"#utility.yul\":13780:13814   */\n      tag_98\n      jump\t// in\n    tag_243:\n        /* \"#utility.yul\":13762:13815   */\n      tag_66\n      jump\t// in\n    tag_242:\n        /* \"#utility.yul\":13749:13815   */\n      swap1\n      pop\n        /* \"#utility.yul\":13679:13821   */\n      swap2\n      swap1\n      pop\n      jump\t// out\n        /* \"#utility.yul\":13827:13902   */\n    tag_100:\n        /* \"#utility.yul\":13870:13873   */\n      0x00\n        /* \"#utility.yul\":13891:13896   */\n      dup2\n        /* \"#utility.yul\":13884:13896   */\n      swap1\n      pop\n        /* \"#utility.yul\":13827:13902   */\n      swap2\n      swap1\n      pop\n      jump\t// out\n        /* \"#utility.yul\":13908:14177   */\n    tag_101:\n        /* \"#utility.yul\":14018:14057   */\n      tag_247\n        /* \"#utility.yul\":14049:14056   */\n      dup4\n        /* \"#utility.yul\":14018:14057   */\n      tag_99\n      jump\t// in\n    tag_247:\n        /* \"#utility.yul\":14079:14170   */\n      tag_248\n        /* \"#utility.yul\":14128:14169   */\n      tag_249\n        /* \"#utility.yul\":14152:14168   */\n      dup3\n        /* \"#utility.yul\":14128:14169   */\n      tag_100\n      jump\t// in\n    tag_249:\n        /* \"#utility.yul\":14120:14126   */\n      dup5\n        /* \"#utility.yul\":14113:14117   */\n      dup5\n        /* \"#utility.yul\":14107:14118   */\n      sload\n        /* \"#utility.yul\":14079:14170   */\n      tag_97\n      jump\t// in\n    tag_248:\n        /* \"#utility.yul\":14073:14077   */\n      dup3\n        /* \"#utility.yul\":14066:14171   */\n      sstore\n        /* \"#utility.yul\":13984:14177   */\n      pop\n        /* \"#utility.yul\":13908:14177   */\n      pop\n      pop\n      pop\n      jump\t// out\n        /* \"#utility.yul\":14183:14256   */\n    tag_102:\n        /* \"#utility.yul\":14228:14231   */\n      0x00\n        /* \"#utility.yul\":14183:14256   */\n      swap1\n      jump\t// out\n        /* \"#utility.yul\":14262:14451   */\n    tag_103:\n        /* \"#utility.yul\":14339:14371   */\n      tag_252\n      tag_102\n      jump\t// in\n    tag_252:\n        /* \"#utility.yul\":14380:14445   */\n      tag_253\n        /* \"#utility.yul\":14438:14444   */\n      dup2\n        /* \"#utility.yul\":14430:14436   */\n      dup5\n        /* \"#utility.yul\":14424:14428   */\n      dup5\n        /* \"#utility.yul\":14380:14445   */\n      tag_101\n      jump\t// in\n    tag_253:\n        /* \"#utility.yul\":14315:14451   */\n      pop\n        /* \"#utility.yul\":14262:14451   */\n      pop\n      pop\n      jump\t// out\n        /* \"#utility.yul\":14457:14643   */\n    tag_104:\n        /* \"#utility.yul\":14517:14637   */\n    tag_255:\n        /* \"#utility.yul\":14534:14537   */\n      dup2\n        /* \"#utility.yul\":14527:14532   */\n      dup2\n        /* \"#utility.yul\":14524:14538   */\n      lt\n        /* \"#utility.yul\":14517:14637   */\n      iszero\n      tag_257\n      jumpi\n        /* \"#utility.yul\":14588:14627   */\n      tag_258\n        /* \"#utility.yul\":14625:14626   */\n      0x00\n        /* \"#utility.yul\":14618:14623   */\n      dup3\n        /* \"#utility.yul\":14588:14627   */\n      tag_103\n      jump\t// in\n    tag_258:\n        /* \"#utility.yul\":14561:14562   */\n      0x01\n        /* \"#utility.yul\":14554:14559   */\n      dup2\n        /* \"#utility.yul\":14550:14563   */\n      add\n        /* \"#utility.yul\":14541:14563   */\n      swap1\n      pop\n        /* \"#utility.yul\":14517:14637   */\n      jump(tag_255)\n    tag_257:\n        /* \"#utility.yul\":14457:14643   */\n      pop\n      pop\n      jump\t// out\n        /* \"#utility.yul\":14649:15192   */\n    tag_105:\n        /* \"#utility.yul\":14750:14752   */\n      0x1f\n        /* \"#utility.yul\":14745:14748   */\n      dup3\n        /* \"#utility.yul\":14742:14753   */\n      gt\n        /* \"#utility.yul\":14739:15185   */\n      iszero\n      tag_260\n      jumpi\n        /* \"#utility.yul\":14784:14822   */\n      tag_261\n        /* \"#utility.yul\":14816:14821   */\n      dup2\n        /* \"#utility.yul\":14784:14822   */\n      tag_94\n      jump\t// in\n    tag_261:\n        /* \"#utility.yul\":14868:14897   */\n      tag_262\n        /* \"#utility.yul\":14886:14896   */\n      dup5\n        /* \"#utility.yul\":14868:14897   */\n      tag_95\n      jump\t// in\n    tag_262:\n        /* \"#utility.yul\":14858:14866   */\n      dup2\n        /* \"#utility.yul\":14854:14898   */\n      add\n        /* \"#utility.yul\":15051:15053   */\n      0x20\n        /* \"#utility.yul\":15039:15049   */\n      dup6\n        /* \"#utility.yul\":15036:15054   */\n      lt\n        /* \"#utility.yul\":15033:15082   */\n      iszero\n      tag_263\n      jumpi\n        /* \"#utility.yul\":15072:15080   */\n      dup2\n        /* \"#utility.yul\":15057:15080   */\n      swap1\n      pop\n        /* \"#utility.yul\":15033:15082   */\n    tag_263:\n        /* \"#utility.yul\":15095:15175   */\n      tag_264\n        /* \"#utility.yul\":15151:15173   */\n      tag_265\n        /* \"#utility.yul\":15169:15172   */\n      dup6\n        /* \"#utility.yul\":15151:15173   */\n      tag_95\n      jump\t// in\n    tag_265:\n        /* \"#utility.yul\":15141:15149   */\n      dup4\n        /* \"#utility.yul\":15137:15174   */\n      add\n        /* \"#utility.yul\":15124:15135   */\n      dup3\n        /* \"#utility.yul\":15095:15175   */\n      tag_104\n      jump\t// in\n    tag_264:\n        /* \"#utility.yul\":14754:15185   */\n      pop\n      pop\n        /* \"#utility.yul\":14739:15185   */\n    tag_260:\n        /* \"#utility.yul\":14649:15192   */\n      pop\n      pop\n      pop\n      jump\t// out\n        /* \"#utility.yul\":15198:15315   */\n    tag_106:\n        /* \"#utility.yul\":15252:15260   */\n      0x00\n        /* \"#utility.yul\":15302:15307   */\n      dup3\n        /* \"#utility.yul\":15296:15300   */\n      dup3\n        /* \"#utility.yul\":15292:15308   */\n      shr\n        /* \"#utility.yul\":15271:15308   */\n      swap1\n      pop\n        /* \"#utility.yul\":15198:15315   */\n      swap3\n      swap2\n      pop\n      pop\n      jump\t// out\n        /* \"#utility.yul\":15321:15490   */\n    tag_107:\n        /* \"#utility.yul\":15365:15371   */\n      0x00\n        /* \"#utility.yul\":15398:15449   */\n      tag_268\n        /* \"#utility.yul\":15446:15447   */\n      0x00\n        /* \"#utility.yul\":15442:15448   */\n      not\n        /* \"#utility.yul\":15434:15439   */\n      dup5\n        /* \"#utility.yul\":15431:15432   */\n      0x08\n        /* \"#utility.yul\":15427:15440   */\n      mul\n        /* \"#utility.yul\":15398:15449   */\n      tag_106\n      jump\t// in\n    tag_268:\n        /* \"#utility.yul\":15394:15450   */\n      not\n        /* \"#utility.yul\":15479:15483   */\n      dup1\n        /* \"#utility.yul\":15473:15477   */\n      dup4\n        /* \"#utility.yul\":15469:15484   */\n      and\n        /* \"#utility.yul\":15459:15484   */\n      swap2\n      pop\n        /* \"#utility.yul\":15372:15490   */\n      pop\n        /* \"#utility.yul\":15321:15490   */\n      swap3\n      swap2\n      pop\n      pop\n      jump\t// out\n        /* \"#utility.yul\":15495:15790   */\n    tag_108:\n        /* \"#utility.yul\":15571:15575   */\n      0x00\n        /* \"#utility.yul\":15717:15746   */\n      tag_270\n        /* \"#utility.yul\":15742:15745   */\n      dup4\n        /* \"#utility.yul\":15736:15740   */\n      dup4\n        /* \"#utility.yul\":15717:15746   */\n      tag_107\n      jump\t// in\n    tag_270:\n        /* \"#utility.yul\":15709:15746   */\n      swap2\n      pop\n        /* \"#utility.yul\":15779:15782   */\n      dup3\n        /* \"#utility.yul\":15776:15777   */\n      0x02\n        /* \"#utility.yul\":15772:15783   */\n      mul\n        /* \"#utility.yul\":15766:15770   */\n      dup3\n        /* \"#utility.yul\":15763:15784   */\n      or\n        /* \"#utility.yul\":15755:15784   */\n      swap1\n      pop\n        /* \"#utility.yul\":15495:15790   */\n      swap3\n      swap2\n      pop\n      pop\n      jump\t// out\n        /* \"#utility.yul\":15795:17190   */\n    tag_52:\n        /* \"#utility.yul\":15912:15949   */\n      tag_272\n        /* \"#utility.yul\":15945:15948   */\n      dup3\n        /* \"#utility.yul\":15912:15949   */\n      tag_59\n      jump\t// in\n    tag_272:\n        /* \"#utility.yul\":16014:16032   */\n      0xffffffffffffffff\n        /* \"#utility.yul\":16006:16012   */\n      dup2\n        /* \"#utility.yul\":16003:16033   */\n      gt\n        /* \"#utility.yul\":16000:16056   */\n      iszero\n      tag_273\n      jumpi\n        /* \"#utility.yul\":16036:16054   */\n      tag_274\n      tag_80\n      jump\t// in\n    tag_274:\n        /* \"#utility.yul\":16000:16056   */\n    tag_273:\n        /* \"#utility.yul\":16080:16118   */\n      tag_275\n        /* \"#utility.yul\":16112:16116   */\n      dup3\n        /* \"#utility.yul\":16106:16117   */\n      sload\n        /* \"#utility.yul\":16080:16118   */\n      tag_30\n      jump\t// in\n    tag_275:\n        /* \"#utility.yul\":16165:16232   */\n      tag_276\n        /* \"#utility.yul\":16225:16231   */\n      dup3\n        /* \"#utility.yul\":16217:16223   */\n      dup3\n        /* \"#utility.yul\":16211:16215   */\n      dup6\n        /* \"#utility.yul\":16165:16232   */\n      tag_105\n      jump\t// in\n    tag_276:\n        /* \"#utility.yul\":16259:16260   */\n      0x00\n        /* \"#utility.yul\":16283:16287   */\n      0x20\n        /* \"#utility.yul\":16270:16287   */\n      swap1\n      pop\n        /* \"#utility.yul\":16315:16317   */\n      0x1f\n        /* \"#utility.yul\":16307:16313   */\n      dup4\n        /* \"#utility.yul\":16304:16318   */\n      gt\n        /* \"#utility.yul\":16332:16333   */\n      0x01\n        /* \"#utility.yul\":16327:16945   */\n      dup2\n      eq\n      tag_278\n      jumpi\n        /* \"#utility.yul\":16989:16990   */\n      0x00\n        /* \"#utility.yul\":17006:17012   */\n      dup5\n        /* \"#utility.yul\":17003:17080   */\n      iszero\n      tag_279\n      jumpi\n        /* \"#utility.yul\":17055:17064   */\n      dup3\n        /* \"#utility.yul\":17050:17053   */\n      dup8\n        /* \"#utility.yul\":17046:17065   */\n      add\n        /* \"#utility.yul\":17040:17066   */\n      mload\n        /* \"#utility.yul\":17031:17066   */\n      swap1\n      pop\n        /* \"#utility.yul\":17003:17080   */\n    tag_279:\n        /* \"#utility.yul\":17106:17173   */\n      tag_280\n        /* \"#utility.yul\":17166:17172   */\n      dup6\n        /* \"#utility.yul\":17159:17164   */\n      dup3\n        /* \"#utility.yul\":17106:17173   */\n      tag_108\n      jump\t// in\n    tag_280:\n        /* \"#utility.yul\":17100:17104   */\n      dup7\n        /* \"#utility.yul\":17093:17174   */\n      sstore\n        /* \"#utility.yul\":16962:17184   */\n      pop\n        /* \"#utility.yul\":16297:17184   */\n      jump(tag_277)\n        /* \"#utility.yul\":16327:16945   */\n    tag_278:\n        /* \"#utility.yul\":16379:16383   */\n      0x1f\n        /* \"#utility.yul\":16375:16384   */\n      not\n        /* \"#utility.yul\":16367:16373   */\n      dup5\n        /* \"#utility.yul\":16363:16385   */\n      and\n        /* \"#utility.yul\":16413:16450   */\n      tag_281\n        /* \"#utility.yul\":16445:16449   */\n      dup7\n        /* \"#utility.yul\":16413:16450   */\n      tag_94\n      jump\t// in\n    tag_281:\n        /* \"#utility.yul\":16472:16473   */\n      0x00\n        /* \"#utility.yul\":16486:16694   */\n    tag_282:\n        /* \"#utility.yul\":16500:16507   */\n      dup3\n        /* \"#utility.yul\":16497:16498   */\n      dup2\n        /* \"#utility.yul\":16494:16508   */\n      lt\n        /* \"#utility.yul\":16486:16694   */\n      iszero\n      tag_284\n      jumpi\n        /* \"#utility.yul\":16579:16588   */\n      dup5\n        /* \"#utility.yul\":16574:16577   */\n      dup10\n        /* \"#utility.yul\":16570:16589   */\n      add\n        /* \"#utility.yul\":16564:16590   */\n      mload\n        /* \"#utility.yul\":16556:16562   */\n      dup3\n        /* \"#utility.yul\":16549:16591   */\n      sstore\n        /* \"#utility.yul\":16630:16631   */\n      0x01\n        /* \"#utility.yul\":16622:16628   */\n      dup3\n        /* \"#utility.yul\":16618:16632   */\n      add\n        /* \"#utility.yul\":16608:16632   */\n      swap2\n      pop\n        /* \"#utility.yul\":16677:16679   */\n      0x20\n        /* \"#utility.yul\":16666:16675   */\n      dup6\n        /* \"#utility.yul\":16662:16680   */\n      add\n        /* \"#utility.yul\":16649:16680   */\n      swap5\n      pop\n        /* \"#utility.yul\":16523:16527   */\n      0x20\n        /* \"#utility.yul\":16520:16521   */\n      dup2\n        /* \"#utility.yul\":16516:16528   */\n      add\n        /* \"#utility.yul\":16511:16528   */\n      swap1\n      pop\n        /* \"#utility.yul\":16486:16694   */\n      jump(tag_282)\n    tag_284:\n        /* \"#utility.yul\":16722:16728   */\n      dup7\n        /* \"#utility.yul\":16713:16720   */\n      dup4\n        /* \"#utility.yul\":16710:16729   */\n      lt\n        /* \"#utility.yul\":16707:16886   */\n      iszero\n      tag_285\n      jumpi\n        /* \"#utility.yul\":16780:16789   */\n      dup5\n        /* \"#utility.yul\":16775:16778   */\n      dup10\n        /* \"#utility.yul\":16771:16790   */\n      add\n        /* \"#utility.yul\":16765:16791   */\n      mload\n        /* \"#utility.yul\":16823:16871   */\n      tag_286\n        /* \"#utility.yul\":16865:16869   */\n      0x1f\n        /* \"#utility.yul\":16857:16863   */\n      dup10\n        /* \"#utility.yul\":16853:16870   */\n      and\n        /* \"#utility.yul\":16842:16851   */\n      dup3\n        /* \"#utility.yul\":16823:16871   */\n      tag_107\n      jump\t// in\n    tag_286:\n        /* \"#utility.yul\":16815:16821   */\n      dup4\n        /* \"#utility.yul\":16808:16872   */\n      sstore\n        /* \"#utility.yul\":16730:16886   */\n      pop\n        /* \"#utility.yul\":16707:16886   */\n    tag_285:\n        /* \"#utility.yul\":16932:16933   */\n      0x01\n        /* \"#utility.yul\":16928:16929   */\n      0x02\n        /* \"#utility.yul\":16920:16926   */\n      dup9\n        /* \"#utility.yul\":16916:16930   */\n      mul\n        /* \"#utility.yul\":16912:16934   */\n      add\n        /* \"#utility.yul\":16906:16910   */\n      dup9\n        /* \"#utility.yul\":16899:16935   */\n      sstore\n        /* \"#utility.yul\":16334:16945   */\n      pop\n      pop\n      pop\n        /* \"#utility.yul\":16297:17184   */\n    tag_277:\n      pop\n        /* \"#utility.yul\":15887:17190   */\n      pop\n      pop\n      pop\n        /* \"#utility.yul\":15795:17190   */\n      pop\n      pop\n      jump\t// out\n\n    auxdata: 0xa26469706673582212205e601370bba9ec5a5cddc27b8b85ac65f7185bbf73bf0a640e8557b28b05fd9f64736f6c63430008160033\n}\n",
				"bytecode": {
					"linkReferences": {},
					"object": "608060405234801561000f575f80fd5b50610cbe8061001d5f395ff3fe608060405234801561000f575f80fd5b506004361061004a575f3560e01c806357e61ea41461004e578063642f91631461006c578063bc84f2131461009c578063f6dfc78b146100b8575b5f80fd5b6100566100d4565b60405161006391906105b1565b60405180910390f35b6100866004803603810190610081919061060c565b6101e2565b6040516100939190610684565b60405180910390f35b6100b660048036038101906100b191906107fa565b6102da565b005b6100d260048036038101906100cd91906108eb565b610362565b005b60605f805480602002602001604051908101604052809291908181526020015f905b828210156101d9578382905f5260205f2090600302016040518060600160405290815f820180546101269061095f565b80601f01602080910402602001604051908101604052809291908181526020018280546101529061095f565b801561019d5780601f106101745761010080835404028352916020019161019d565b820191905f5260205f20905b81548152906001019060200180831161018057829003601f168201915b50505050508152602001600182015f9054906101000a900460ff16151515158152602001600282015481525050815260200190600101906100f6565b50505050905090565b6101ea6103cc565b5f6001836101f891906109bc565b81548110610209576102086109ef565b5b905f5260205f2090600302016040518060600160405290815f8201805461022f9061095f565b80601f016020809104026020016040519081016040528092919081815260200182805461025b9061095f565b80156102a65780601f1061027d576101008083540402835291602001916102a6565b820191905f5260205f20905b81548152906001019060200180831161028957829003601f168201915b50505050508152602001600182015f9054906101000a900460ff161515151581526020016002820154815250509050919050565b5f6040518060600160405280858152602001841515815260200183815250908060018154018082558091505060019003905f5260205f2090600302015f909190919091505f820151815f0190816103319190610bb9565b506020820151816001015f6101000a81548160ff021916908315150217905550604082015181600201555050505050565b5f81908060018154018082558091505060019003905f5260205f2090600302015f909190919091505f820151815f01908161039d9190610bb9565b506020820151816001015f6101000a81548160ff02191690831515021790555060408201518160020155505050565b6040518060600160405280606081526020015f151581526020015f81525090565b5f81519050919050565b5f82825260208201905092915050565b5f819050602082019050919050565b5f81519050919050565b5f82825260208201905092915050565b5f5b8381101561044d578082015181840152602081019050610432565b5f8484015250505050565b5f601f19601f8301169050919050565b5f61047282610416565b61047c8185610420565b935061048c818560208601610430565b61049581610458565b840191505092915050565b5f8115159050919050565b6104b4816104a0565b82525050565b5f819050919050565b6104cc816104ba565b82525050565b5f606083015f8301518482035f8601526104ec8282610468565b915050602083015161050160208601826104ab565b50604083015161051460408601826104c3565b508091505092915050565b5f61052a83836104d2565b905092915050565b5f602082019050919050565b5f610548826103ed565b61055281856103f7565b93508360208202850161056485610407565b805f5b8581101561059f5784840389528151610580858261051f565b945061058b83610532565b925060208a01995050600181019050610567565b50829750879550505050505092915050565b5f6020820190508181035f8301526105c9818461053e565b905092915050565b5f604051905090565b5f80fd5b5f80fd5b6105eb816104ba565b81146105f5575f80fd5b50565b5f81359050610606816105e2565b92915050565b5f60208284031215610621576106206105da565b5b5f61062e848285016105f8565b91505092915050565b5f606083015f8301518482035f8601526106518282610468565b915050602083015161066660208601826104ab565b50604083015161067960408601826104c3565b508091505092915050565b5f6020820190508181035f83015261069c8184610637565b905092915050565b5f80fd5b5f80fd5b7f4e487b71000000000000000000000000000000000000000000000000000000005f52604160045260245ffd5b6106e282610458565b810181811067ffffffffffffffff82111715610701576107006106ac565b5b80604052505050565b5f6107136105d1565b905061071f82826106d9565b919050565b5f67ffffffffffffffff82111561073e5761073d6106ac565b5b61074782610458565b9050602081019050919050565b828183375f83830152505050565b5f61077461076f84610724565b61070a565b9050828152602081018484840111156107905761078f6106a8565b5b61079b848285610754565b509392505050565b5f82601f8301126107b7576107b66106a4565b5b81356107c7848260208601610762565b91505092915050565b6107d9816104a0565b81146107e3575f80fd5b50565b5f813590506107f4816107d0565b92915050565b5f805f60608486031215610811576108106105da565b5b5f84013567ffffffffffffffff81111561082e5761082d6105de565b5b61083a868287016107a3565b935050602061084b868287016107e6565b925050604061085c868287016105f8565b9150509250925092565b5f80fd5b5f80fd5b5f6060828403121561088357610882610866565b5b61088d606061070a565b90505f82013567ffffffffffffffff8111156108ac576108ab61086a565b5b6108b8848285016107a3565b5f8301525060206108cb848285016107e6565b60208301525060406108df848285016105f8565b60408301525092915050565b5f60208284031215610900576108ff6105da565b5b5f82013567ffffffffffffffff81111561091d5761091c6105de565b5b6109298482850161086e565b91505092915050565b7f4e487b71000000000000000000000000000000000000000000000000000000005f52602260045260245ffd5b5f600282049050600182168061097657607f821691505b60208210810361098957610988610932565b5b50919050565b7f4e487b71000000000000000000000000000000000000000000000000000000005f52601160045260245ffd5b5f6109c6826104ba565b91506109d1836104ba565b92508282039050818111156109e9576109e861098f565b5b92915050565b7f4e487b71000000000000000000000000000000000000000000000000000000005f52603260045260245ffd5b5f819050815f5260205f209050919050565b5f6020601f8301049050919050565b5f82821b905092915050565b5f60088302610a787fffffffffffffffffffffffffffffffffffffffffffffffffffffffffffffffff82610a3d565b610a828683610a3d565b95508019841693508086168417925050509392505050565b5f819050919050565b5f610abd610ab8610ab3846104ba565b610a9a565b6104ba565b9050919050565b5f819050919050565b610ad683610aa3565b610aea610ae282610ac4565b848454610a49565b825550505050565b5f90565b610afe610af2565b610b09818484610acd565b505050565b5b81811015610b2c57610b215f82610af6565b600181019050610b0f565b5050565b601f821115610b7157610b4281610a1c565b610b4b84610a2e565b81016020851015610b5a578190505b610b6e610b6685610a2e565b830182610b0e565b50505b505050565b5f82821c905092915050565b5f610b915f1984600802610b76565b1980831691505092915050565b5f610ba98383610b82565b9150826002028217905092915050565b610bc282610416565b67ffffffffffffffff811115610bdb57610bda6106ac565b5b610be5825461095f565b610bf0828285610b30565b5f60209050601f831160018114610c21575f8415610c0f578287015190505b610c198582610b9e565b865550610c80565b601f198416610c2f86610a1c565b5f5b82811015610c5657848901518255600182019150602085019450602081019050610c31565b86831015610c735784890151610c6f601f891682610b82565b8355505b6001600288020188555050505b50505050505056fea26469706673582212205e601370bba9ec5a5cddc27b8b85ac65f7185bbf73bf0a640e8557b28b05fd9f64736f6c63430008160033",
					"opcodes": "PUSH1 0x80 PUSH1 0x40 MSTORE CALLVALUE DUP1 ISZERO PUSH2 0xF JUMPI PUSH0 DUP1 REVERT JUMPDEST POP PUSH2 0xCBE DUP1 PUSH2 0x1D PUSH0 CODECOPY PUSH0 RETURN INVALID PUSH1 0x80 PUSH1 0x40 MSTORE CALLVALUE DUP1 ISZERO PUSH2 0xF JUMPI PUSH0 DUP1 REVERT JUMPDEST POP PUSH1 0x4 CALLDATASIZE LT PUSH2 0x4A JUMPI PUSH0 CALLDATALOAD PUSH1 0xE0 SHR DUP1 PUSH4 0x57E61EA4 EQ PUSH2 0x4E JUMPI DUP1 PUSH4 0x642F9163 EQ PUSH2 0x6C JUMPI DUP1 PUSH4 0xBC84F213 EQ PUSH2 0x9C JUMPI DUP1 PUSH4 0xF6DFC78B EQ PUSH2 0xB8 JUMPI JUMPDEST PUSH0 DUP1 REVERT JUMPDEST PUSH2 0x56 PUSH2 0xD4 JUMP JUMPDEST PUSH1 0x40 MLOAD PUSH2 0x63 SWAP2 SWAP1 PUSH2 0x5B1 JUMP JUMPDEST PUSH1 0x40 MLOAD DUP1 SWAP2 SUB SWAP1 RETURN JUMPDEST PUSH2 0x86 PUSH1 0x4 DUP1 CALLDATASIZE SUB DUP2 ADD SWAP1 PUSH2 0x81 SWAP2 SWAP1 PUSH2 0x60C JUMP JUMPDEST PUSH2 0x1E2 JUMP JUMPDEST PUSH1 0x40 MLOAD PUSH2 0x93 SWAP2 SWAP1 PUSH2 0x684 JUMP JUMPDEST PUSH1 0x40 MLOAD DUP1 SWAP2 SUB SWAP1 RETURN JUMPDEST PUSH2 0xB6 PUSH1 0x4 DUP1 CALLDATASIZE SUB DUP2 ADD SWAP1 PUSH2 0xB1 SWAP2 SWAP1 PUSH2 0x7FA JUMP JUMPDEST PUSH2 0x2DA JUMP JUMPDEST STOP JUMPDEST PUSH2 0xD2 PUSH1 0x4 DUP1 CALLDATASIZE SUB DUP2 ADD SWAP1 PUSH2 0xCD SWAP2 SWAP1 PUSH2 0x8EB JUMP JUMPDEST PUSH2 0x362 JUMP JUMPDEST STOP JUMPDEST PUSH1 0x60 PUSH0 DUP1 SLOAD DUP1 PUSH1 0x20 MUL PUSH1 0x20 ADD PUSH1 0x40 MLOAD SWAP1 DUP2 ADD PUSH1 0x40 MSTORE DUP1 SWAP3 SWAP2 SWAP1 DUP2 DUP2 MSTORE PUSH1 0x20 ADD PUSH0 SWAP1 JUMPDEST DUP3 DUP3 LT ISZERO PUSH2 0x1D9 JUMPI DUP4 DUP3 SWAP1 PUSH0 MSTORE PUSH1 0x20 PUSH0 KECCAK256 SWAP1 PUSH1 0x3 MUL ADD PUSH1 0x40 MLOAD DUP1 PUSH1 0x60 ADD PUSH1 0x40 MSTORE SWAP1 DUP2 PUSH0 DUP3 ADD DUP1 SLOAD PUSH2 0x126 SWAP1 PUSH2 0x95F JUMP JUMPDEST DUP1 PUSH1 0x1F ADD PUSH1 0x20 DUP1 SWAP2 DIV MUL PUSH1 0x20 ADD PUSH1 0x40 MLOAD SWAP1 DUP2 ADD PUSH1 0x40 MSTORE DUP1 SWAP3 SWAP2 SWAP1 DUP2 DUP2 MSTORE PUSH1 0x20 ADD DUP3 DUP1 SLOAD PUSH2 0x152 SWAP1 PUSH2 0x95F JUMP JUMPDEST DUP1 ISZERO PUSH2 0x19D JUMPI DUP1 PUSH1 0x1F LT PUSH2 0x174 JUMPI PUSH2 0x100 DUP1 DUP4 SLOAD DIV MUL DUP4 MSTORE SWAP2 PUSH1 0x20 ADD SWAP2 PUSH2 0x19D JUMP JUMPDEST DUP3 ADD SWAP2 SWAP1 PUSH0 MSTORE PUSH1 0x20 PUSH0 KECCAK256 SWAP1 JUMPDEST DUP2 SLOAD DUP2 MSTORE SWAP1 PUSH1 0x1 ADD SWAP1 PUSH1 0x20 ADD DUP1 DUP4 GT PUSH2 0x180 JUMPI DUP3 SWAP1 SUB PUSH1 0x1F AND DUP3 ADD SWAP2 JUMPDEST POP POP POP POP POP DUP2 MSTORE PUSH1 0x20 ADD PUSH1 0x1 DUP3 ADD PUSH0 SWAP1 SLOAD SWAP1 PUSH2 0x100 EXP SWAP1 DIV PUSH1 0xFF AND ISZERO ISZERO ISZERO ISZERO DUP2 MSTORE PUSH1 0x20 ADD PUSH1 0x2 DUP3 ADD SLOAD DUP2 MSTORE POP POP DUP2 MSTORE PUSH1 0x20 ADD SWAP1 PUSH1 0x1 ADD SWAP1 PUSH2 0xF6 JUMP JUMPDEST POP POP POP POP SWAP1 POP SWAP1 JUMP JUMPDEST PUSH2 0x1EA PUSH2 0x3CC JUMP JUMPDEST PUSH0 PUSH1 0x1 DUP4 PUSH2 0x1F8 SWAP2 SWAP1 PUSH2 0x9BC JUMP JUMPDEST DUP2 SLOAD DUP2 LT PUSH2 0x209 JUMPI PUSH2 0x208 PUSH2 0x9EF JUMP JUMPDEST JUMPDEST SWAP1 PUSH0 MSTORE PUSH1 0x20 PUSH0 KECCAK256 SWAP1 PUSH1 0x3 MUL ADD PUSH1 0x40 MLOAD DUP1 PUSH1 0x60 ADD PUSH1 0x40 MSTORE SWAP1 DUP2 PUSH0 DUP3 ADD DUP1 SLOAD PUSH2 0x22F SWAP1 PUSH2 0x95F JUMP JUMPDEST DUP1 PUSH1 0x1F ADD PUSH1 0x20 DUP1 SWAP2 DIV MUL PUSH1 0x20 ADD PUSH1 0x40 MLOAD SWAP1 DUP2 ADD PUSH1 0x40 MSTORE DUP1 SWAP3 SWAP2 SWAP1 DUP2 DUP2 MSTORE PUSH1 0x20 ADD DUP3 DUP1 SLOAD PUSH2 0x25B SWAP1 PUSH2 0x95F JUMP JUMPDEST DUP1 ISZERO PUSH2 0x2A6 JUMPI DUP1 PUSH1 0x1F LT PUSH2 0x27D JUMPI PUSH2 0x100 DUP1 DUP4 SLOAD DIV MUL DUP4 MSTORE SWAP2 PUSH1 0x20 ADD SWAP2 PUSH2 0x2A6 JUMP JUMPDEST DUP3 ADD SWAP2 SWAP1 PUSH0 MSTORE PUSH1 0x20 PUSH0 KECCAK256 SWAP1 JUMPDEST DUP2 SLOAD DUP2 MSTORE SWAP1 PUSH1 0x1 ADD SWAP1 PUSH1 0x20 ADD DUP1 DUP4 GT PUSH2 0x289 JUMPI DUP3 SWAP1 SUB PUSH1 0x1F AND DUP3 ADD SWAP2 JUMPDEST POP POP POP POP POP DUP2 MSTORE PUSH1 0x20 ADD PUSH1 0x1 DUP3 ADD PUSH0 SWAP1 SLOAD SWAP1 PUSH2 0x100 EXP SWAP1 DIV PUSH1 0xFF AND ISZERO ISZERO ISZERO ISZERO DUP2 MSTORE PUSH1 0x20 ADD PUSH1 0x2 DUP3 ADD SLOAD DUP2 MSTORE POP POP SWAP1 POP SWAP2 SWAP1 POP JUMP JUMPDEST PUSH0 PUSH1 0x40 MLOAD DUP1 PUSH1 0x60 ADD PUSH1 0x40 MSTORE DUP1 DUP6 DUP2 MSTORE PUSH1 0x20 ADD DUP5 ISZERO ISZERO DUP2 MSTORE PUSH1 0x20 ADD DUP4 DUP2 MSTORE POP SWAP1 DUP1 PUSH1 0x1 DUP2 SLOAD ADD DUP1 DUP3 SSTORE DUP1 SWAP2 POP POP PUSH1 0x1 SWAP1 SUB SWAP1 PUSH0 MSTORE PUSH1 0x20 PUSH0 KECCAK256 SWAP1 PUSH1 0x3 MUL ADD PUSH0 SWAP1 SWAP2 SWAP1 SWAP2 SWAP1 SWAP2 POP PUSH0 DUP3 ADD MLOAD DUP2 PUSH0 ADD SWAP1 DUP2 PUSH2 0x331 SWAP2 SWAP1 PUSH2 0xBB9 JUMP JUMPDEST POP PUSH1 0x20 DUP3 ADD MLOAD DUP2 PUSH1 0x1 ADD PUSH0 PUSH2 0x100 EXP DUP2 SLOAD DUP2 PUSH1 0xFF MUL NOT AND SWAP1 DUP4 ISZERO ISZERO MUL OR SWAP1 SSTORE POP PUSH1 0x40 DUP3 ADD MLOAD DUP2 PUSH1 0x2 ADD SSTORE POP POP POP POP POP JUMP JUMPDEST PUSH0 DUP2 SWAP1 DUP1 PUSH1 0x1 DUP2 SLOAD ADD DUP1 DUP3 SSTORE DUP1 SWAP2 POP POP PUSH1 0x1 SWAP1 SUB SWAP1 PUSH0 MSTORE PUSH1 0x20 PUSH0 KECCAK256 SWAP1 PUSH1 0x3 MUL ADD PUSH0 SWAP1 SWAP2 SWAP1 SWAP2 SWAP1 SWAP2 POP PUSH0 DUP3 ADD MLOAD DUP2 PUSH0 ADD SWAP1 DUP2 PUSH2 0x39D SWAP2 SWAP1 PUSH2 0xBB9 JUMP JUMPDEST POP PUSH1 0x20 DUP3 ADD MLOAD DUP2 PUSH1 0x1 ADD PUSH0 PUSH2 0x100 EXP DUP2 SLOAD DUP2 PUSH1 0xFF MUL NOT AND SWAP1 DUP4 ISZERO ISZERO MUL OR SWAP1 SSTORE POP PUSH1 0x40 DUP3 ADD MLOAD DUP2 PUSH1 0x2 ADD SSTORE POP POP POP JUMP JUMPDEST PUSH1 0x40 MLOAD DUP1 PUSH1 0x60 ADD PUSH1 0x40 MSTORE DUP1 PUSH1 0x60 DUP2 MSTORE PUSH1 0x20 ADD PUSH0 ISZERO ISZERO DUP2 MSTORE PUSH1 0x20 ADD PUSH0 DUP2 MSTORE POP SWAP1 JUMP JUMPDEST PUSH0 DUP2 MLOAD SWAP1 POP SWAP2 SWAP1 POP JUMP JUMPDEST PUSH0 DUP3 DUP3 MSTORE PUSH1 0x20 DUP3 ADD SWAP1 POP SWAP3 SWAP2 POP POP JUMP JUMPDEST PUSH0 DUP2 SWAP1 POP PUSH1 0x20 DUP3 ADD SWAP1 POP SWAP2 SWAP1 POP JUMP JUMPDEST PUSH0 DUP2 MLOAD SWAP1 POP SWAP2 SWAP1 POP JUMP JUMPDEST PUSH0 DUP3 DUP3 MSTORE PUSH1 0x20 DUP3 ADD SWAP1 POP SWAP3 SWAP2 POP POP JUMP JUMPDEST PUSH0 JUMPDEST DUP4 DUP2 LT ISZERO PUSH2 0x44D JUMPI DUP1 DUP3 ADD MLOAD DUP2 DUP5 ADD MSTORE PUSH1 0x20 DUP2 ADD SWAP1 POP PUSH2 0x432 JUMP JUMPDEST PUSH0 DUP5 DUP5 ADD MSTORE POP POP POP POP JUMP JUMPDEST PUSH0 PUSH1 0x1F NOT PUSH1 0x1F DUP4 ADD AND SWAP1 POP SWAP2 SWAP1 POP JUMP JUMPDEST PUSH0 PUSH2 0x472 DUP3 PUSH2 0x416 JUMP JUMPDEST PUSH2 0x47C DUP2 DUP6 PUSH2 0x420 JUMP JUMPDEST SWAP4 POP PUSH2 0x48C DUP2 DUP6 PUSH1 0x20 DUP7 ADD PUSH2 0x430 JUMP JUMPDEST PUSH2 0x495 DUP2 PUSH2 0x458 JUMP JUMPDEST DUP5 ADD SWAP2 POP POP SWAP3 SWAP2 POP POP JUMP JUMPDEST PUSH0 DUP2 ISZERO ISZERO SWAP1 POP SWAP2 SWAP1 POP JUMP JUMPDEST PUSH2 0x4B4 DUP2 PUSH2 0x4A0 JUMP JUMPDEST DUP3 MSTORE POP POP JUMP JUMPDEST PUSH0 DUP2 SWAP1 POP SWAP2 SWAP1 POP JUMP JUMPDEST PUSH2 0x4CC DUP2 PUSH2 0x4BA JUMP JUMPDEST DUP3 MSTORE POP POP JUMP JUMPDEST PUSH0 PUSH1 0x60 DUP4 ADD PUSH0 DUP4 ADD MLOAD DUP5 DUP3 SUB PUSH0 DUP7 ADD MSTORE PUSH2 0x4EC DUP3 DUP3 PUSH2 0x468 JUMP JUMPDEST SWAP2 POP POP PUSH1 0x20 DUP4 ADD MLOAD PUSH2 0x501 PUSH1 0x20 DUP7 ADD DUP3 PUSH2 0x4AB JUMP JUMPDEST POP PUSH1 0x40 DUP4 ADD MLOAD PUSH2 0x514 PUSH1 0x40 DUP7 ADD DUP3 PUSH2 0x4C3 JUMP JUMPDEST POP DUP1 SWAP2 POP POP SWAP3 SWAP2 POP POP JUMP JUMPDEST PUSH0 PUSH2 0x52A DUP4 DUP4 PUSH2 0x4D2 JUMP JUMPDEST SWAP1 POP SWAP3 SWAP2 POP POP JUMP JUMPDEST PUSH0 PUSH1 0x20 DUP3 ADD SWAP1 POP SWAP2 SWAP1 POP JUMP JUMPDEST PUSH0 PUSH2 0x548 DUP3 PUSH2 0x3ED JUMP JUMPDEST PUSH2 0x552 DUP2 DUP6 PUSH2 0x3F7 JUMP JUMPDEST SWAP4 POP DUP4 PUSH1 0x20 DUP3 MUL DUP6 ADD PUSH2 0x564 DUP6 PUSH2 0x407 JUMP JUMPDEST DUP1 PUSH0 JUMPDEST DUP6 DUP2 LT ISZERO PUSH2 0x59F JUMPI DUP5 DUP5 SUB DUP10 MSTORE DUP2 MLOAD PUSH2 0x580 DUP6 DUP3 PUSH2 0x51F JUMP JUMPDEST SWAP5 POP PUSH2 0x58B DUP4 PUSH2 0x532 JUMP JUMPDEST SWAP3 POP PUSH1 0x20 DUP11 ADD SWAP10 POP POP PUSH1 0x1 DUP2 ADD SWAP1 POP PUSH2 0x567 JUMP JUMPDEST POP DUP3 SWAP8 POP DUP8 SWAP6 POP POP POP POP POP POP SWAP3 SWAP2 POP POP JUMP JUMPDEST PUSH0 PUSH1 0x20 DUP3 ADD SWAP1 POP DUP2 DUP2 SUB PUSH0 DUP4 ADD MSTORE PUSH2 0x5C9 DUP2 DUP5 PUSH2 0x53E JUMP JUMPDEST SWAP1 POP SWAP3 SWAP2 POP POP JUMP JUMPDEST PUSH0 PUSH1 0x40 MLOAD SWAP1 POP SWAP1 JUMP JUMPDEST PUSH0 DUP1 REVERT JUMPDEST PUSH0 DUP1 REVERT JUMPDEST PUSH2 0x5EB DUP2 PUSH2 0x4BA JUMP JUMPDEST DUP2 EQ PUSH2 0x5F5 JUMPI PUSH0 DUP1 REVERT JUMPDEST POP JUMP JUMPDEST PUSH0 DUP2 CALLDATALOAD SWAP1 POP PUSH2 0x606 DUP2 PUSH2 0x5E2 JUMP JUMPDEST SWAP3 SWAP2 POP POP JUMP JUMPDEST PUSH0 PUSH1 0x20 DUP3 DUP5 SUB SLT ISZERO PUSH2 0x621 JUMPI PUSH2 0x620 PUSH2 0x5DA JUMP JUMPDEST JUMPDEST PUSH0 PUSH2 0x62E DUP5 DUP3 DUP6 ADD PUSH2 0x5F8 JUMP JUMPDEST SWAP2 POP POP SWAP3 SWAP2 POP POP JUMP JUMPDEST PUSH0 PUSH1 0x60 DUP4 ADD PUSH0 DUP4 ADD MLOAD DUP5 DUP3 SUB PUSH0 DUP7 ADD MSTORE PUSH2 0x651 DUP3 DUP3 PUSH2 0x468 JUMP JUMPDEST SWAP2 POP POP PUSH1 0x20 DUP4 ADD MLOAD PUSH2 0x666 PUSH1 0x20 DUP7 ADD DUP3 PUSH2 0x4AB JUMP JUMPDEST POP PUSH1 0x40 DUP4 ADD MLOAD PUSH2 0x679 PUSH1 0x40 DUP7 ADD DUP3 PUSH2 0x4C3 JUMP JUMPDEST POP DUP1 SWAP2 POP POP SWAP3 SWAP2 POP POP JUMP JUMPDEST PUSH0 PUSH1 0x20 DUP3 ADD SWAP1 POP DUP2 DUP2 SUB PUSH0 DUP4 ADD MSTORE PUSH2 0x69C DUP2 DUP5 PUSH2 0x637 JUMP JUMPDEST SWAP1 POP SWAP3 SWAP2 POP POP JUMP JUMPDEST PUSH0 DUP1 REVERT JUMPDEST PUSH0 DUP1 REVERT JUMPDEST PUSH32 0x4E487B7100000000000000000000000000000000000000000000000000000000 PUSH0 MSTORE PUSH1 0x41 PUSH1 0x4 MSTORE PUSH1 0x24 PUSH0 REVERT JUMPDEST PUSH2 0x6E2 DUP3 PUSH2 0x458 JUMP JUMPDEST DUP2 ADD DUP2 DUP2 LT PUSH8 0xFFFFFFFFFFFFFFFF DUP3 GT OR ISZERO PUSH2 0x701 JUMPI PUSH2 0x700 PUSH2 0x6AC JUMP JUMPDEST JUMPDEST DUP1 PUSH1 0x40 MSTORE POP POP POP JUMP JUMPDEST PUSH0 PUSH2 0x713 PUSH2 0x5D1 JUMP JUMPDEST SWAP1 POP PUSH2 0x71F DUP3 DUP3 PUSH2 0x6D9 JUMP JUMPDEST SWAP2 SWAP1 POP JUMP JUMPDEST PUSH0 PUSH8 0xFFFFFFFFFFFFFFFF DUP3 GT ISZERO PUSH2 0x73E JUMPI PUSH2 0x73D PUSH2 0x6AC JUMP JUMPDEST JUMPDEST PUSH2 0x747 DUP3 PUSH2 0x458 JUMP JUMPDEST SWAP1 POP PUSH1 0x20 DUP2 ADD SWAP1 POP SWAP2 SWAP1 POP JUMP JUMPDEST DUP3 DUP2 DUP4 CALLDATACOPY PUSH0 DUP4 DUP4 ADD MSTORE POP POP POP JUMP JUMPDEST PUSH0 PUSH2 0x774 PUSH2 0x76F DUP5 PUSH2 0x724 JUMP JUMPDEST PUSH2 0x70A JUMP JUMPDEST SWAP1 POP DUP3 DUP2 MSTORE PUSH1 0x20 DUP2 ADD DUP5 DUP5 DUP5 ADD GT ISZERO PUSH2 0x790 JUMPI PUSH2 0x78F PUSH2 0x6A8 JUMP JUMPDEST JUMPDEST PUSH2 0x79B DUP5 DUP3 DUP6 PUSH2 0x754 JUMP JUMPDEST POP SWAP4 SWAP3 POP POP POP JUMP JUMPDEST PUSH0 DUP3 PUSH1 0x1F DUP4 ADD SLT PUSH2 0x7B7 JUMPI PUSH2 0x7B6 PUSH2 0x6A4 JUMP JUMPDEST JUMPDEST DUP2 CALLDATALOAD PUSH2 0x7C7 DUP5 DUP3 PUSH1 0x20 DUP7 ADD PUSH2 0x762 JUMP JUMPDEST SWAP2 POP POP SWAP3 SWAP2 POP POP JUMP JUMPDEST PUSH2 0x7D9 DUP2 PUSH2 0x4A0 JUMP JUMPDEST DUP2 EQ PUSH2 0x7E3 JUMPI PUSH0 DUP1 REVERT JUMPDEST POP JUMP JUMPDEST PUSH0 DUP2 CALLDATALOAD SWAP1 POP PUSH2 0x7F4 DUP2 PUSH2 0x7D0 JUMP JUMPDEST SWAP3 SWAP2 POP POP JUMP JUMPDEST PUSH0 DUP1 PUSH0 PUSH1 0x60 DUP5 DUP7 SUB SLT ISZERO PUSH2 0x811 JUMPI PUSH2 0x810 PUSH2 0x5DA JUMP JUMPDEST JUMPDEST PUSH0 DUP5 ADD CALLDATALOAD PUSH8 0xFFFFFFFFFFFFFFFF DUP2 GT ISZERO PUSH2 0x82E JUMPI PUSH2 0x82D PUSH2 0x5DE JUMP JUMPDEST JUMPDEST PUSH2 0x83A DUP7 DUP3 DUP8 ADD PUSH2 0x7A3 JUMP JUMPDEST SWAP4 POP POP PUSH1 0x20 PUSH2 0x84B DUP7 DUP3 DUP8 ADD PUSH2 0x7E6 JUMP JUMPDEST SWAP3 POP POP PUSH1 0x40 PUSH2 0x85C DUP7 DUP3 DUP8 ADD PUSH2 0x5F8 JUMP JUMPDEST SWAP2 POP POP SWAP3 POP SWAP3 POP SWAP3 JUMP JUMPDEST PUSH0 DUP1 REVERT JUMPDEST PUSH0 DUP1 REVERT JUMPDEST PUSH0 PUSH1 0x60 DUP3 DUP5 SUB SLT ISZERO PUSH2 0x883 JUMPI PUSH2 0x882 PUSH2 0x866 JUMP JUMPDEST JUMPDEST PUSH2 0x88D PUSH1 0x60 PUSH2 0x70A JUMP JUMPDEST SWAP1 POP PUSH0 DUP3 ADD CALLDATALOAD PUSH8 0xFFFFFFFFFFFFFFFF DUP2 GT ISZERO PUSH2 0x8AC JUMPI PUSH2 0x8AB PUSH2 0x86A JUMP JUMPDEST JUMPDEST PUSH2 0x8B8 DUP5 DUP3 DUP6 ADD PUSH2 0x7A3 JUMP JUMPDEST PUSH0 DUP4 ADD MSTORE POP PUSH1 0x20 PUSH2 0x8CB DUP5 DUP3 DUP6 ADD PUSH2 0x7E6 JUMP JUMPDEST PUSH1 0x20 DUP4 ADD MSTORE POP PUSH1 0x40 PUSH2 0x8DF DUP5 DUP3 DUP6 ADD PUSH2 0x5F8 JUMP JUMPDEST PUSH1 0x40 DUP4 ADD MSTORE POP SWAP3 SWAP2 POP POP JUMP JUMPDEST PUSH0 PUSH1 0x20 DUP3 DUP5 SUB SLT ISZERO PUSH2 0x900 JUMPI PUSH2 0x8FF PUSH2 0x5DA JUMP JUMPDEST JUMPDEST PUSH0 DUP3 ADD CALLDATALOAD PUSH8 0xFFFFFFFFFFFFFFFF DUP2 GT ISZERO PUSH2 0x91D JUMPI PUSH2 0x91C PUSH2 0x5DE JUMP JUMPDEST JUMPDEST PUSH2 0x929 DUP5 DUP3 DUP6 ADD PUSH2 0x86E JUMP JUMPDEST SWAP2 POP POP SWAP3 SWAP2 POP POP JUMP JUMPDEST PUSH32 0x4E487B7100000000000000000000000000000000000000000000000000000000 PUSH0 MSTORE PUSH1 0x22 PUSH1 0x4 MSTORE PUSH1 0x24 PUSH0 REVERT JUMPDEST PUSH0 PUSH1 0x2 DUP3 DIV SWAP1 POP PUSH1 0x1 DUP3 AND DUP1 PUSH2 0x976 JUMPI PUSH1 0x7F DUP3 AND SWAP2 POP JUMPDEST PUSH1 0x20 DUP3 LT DUP2 SUB PUSH2 0x989 JUMPI PUSH2 0x988 PUSH2 0x932 JUMP JUMPDEST JUMPDEST POP SWAP2 SWAP1 POP JUMP JUMPDEST PUSH32 0x4E487B7100000000000000000000000000000000000000000000000000000000 PUSH0 MSTORE PUSH1 0x11 PUSH1 0x4 MSTORE PUSH1 0x24 PUSH0 REVERT JUMPDEST PUSH0 PUSH2 0x9C6 DUP3 PUSH2 0x4BA JUMP JUMPDEST SWAP2 POP PUSH2 0x9D1 DUP4 PUSH2 0x4BA JUMP JUMPDEST SWAP3 POP DUP3 DUP3 SUB SWAP1 POP DUP2 DUP2 GT ISZERO PUSH2 0x9E9 JUMPI PUSH2 0x9E8 PUSH2 0x98F JUMP JUMPDEST JUMPDEST SWAP3 SWAP2 POP POP JUMP JUMPDEST PUSH32 0x4E487B7100000000000000000000000000000000000000000000000000000000 PUSH0 MSTORE PUSH1 0x32 PUSH1 0x4 MSTORE PUSH1 0x24 PUSH0 REVERT JUMPDEST PUSH0 DUP2 SWAP1 POP DUP2 PUSH0 MSTORE PUSH1 0x20 PUSH0 KECCAK256 SWAP1 POP SWAP2 SWAP1 POP JUMP JUMPDEST PUSH0 PUSH1 0x20 PUSH1 0x1F DUP4 ADD DIV SWAP1 POP SWAP2 SWAP1 POP JUMP JUMPDEST PUSH0 DUP3 DUP3 SHL SWAP1 POP SWAP3 SWAP2 POP POP JUMP JUMPDEST PUSH0 PUSH1 0x8 DUP4 MUL PUSH2 0xA78 PUSH32 0xFFFFFFFFFFFFFFFFFFFFFFFFFFFFFFFFFFFFFFFFFFFFFFFFFFFFFFFFFFFFFFFF DUP3 PUSH2 0xA3D JUMP JUMPDEST PUSH2 0xA82 DUP7 DUP4 PUSH2 0xA3D JUMP JUMPDEST SWAP6 POP DUP1 NOT DUP5 AND SWAP4 POP DUP1 DUP7 AND DUP5 OR SWAP3 POP POP POP SWAP4 SWAP3 POP POP POP JUMP JUMPDEST PUSH0 DUP2 SWAP1 POP SWAP2 SWAP1 POP JUMP JUMPDEST PUSH0 PUSH2 0xABD PUSH2 0xAB8 PUSH2 0xAB3 DUP5 PUSH2 0x4BA JUMP JUMPDEST PUSH2 0xA9A JUMP JUMPDEST PUSH2 0x4BA JUMP JUMPDEST SWAP1 POP SWAP2 SWAP1 POP JUMP JUMPDEST PUSH0 DUP2 SWAP1 POP SWAP2 SWAP1 POP JUMP JUMPDEST PUSH2 0xAD6 DUP4 PUSH2 0xAA3 JUMP JUMPDEST PUSH2 0xAEA PUSH2 0xAE2 DUP3 PUSH2 0xAC4 JUMP JUMPDEST DUP5 DUP5 SLOAD PUSH2 0xA49 JUMP JUMPDEST DUP3 SSTORE POP POP POP POP JUMP JUMPDEST PUSH0 SWAP1 JUMP JUMPDEST PUSH2 0xAFE PUSH2 0xAF2 JUMP JUMPDEST PUSH2 0xB09 DUP2 DUP5 DUP5 PUSH2 0xACD JUMP JUMPDEST POP POP POP JUMP JUMPDEST JUMPDEST DUP2 DUP2 LT ISZERO PUSH2 0xB2C JUMPI PUSH2 0xB21 PUSH0 DUP3 PUSH2 0xAF6 JUMP JUMPDEST PUSH1 0x1 DUP2 ADD SWAP1 POP PUSH2 0xB0F JUMP JUMPDEST POP POP JUMP JUMPDEST PUSH1 0x1F DUP3 GT ISZERO PUSH2 0xB71 JUMPI PUSH2 0xB42 DUP2 PUSH2 0xA1C JUMP JUMPDEST PUSH2 0xB4B DUP5 PUSH2 0xA2E JUMP JUMPDEST DUP2 ADD PUSH1 0x20 DUP6 LT ISZERO PUSH2 0xB5A JUMPI DUP2 SWAP1 POP JUMPDEST PUSH2 0xB6E PUSH2 0xB66 DUP6 PUSH2 0xA2E JUMP JUMPDEST DUP4 ADD DUP3 PUSH2 0xB0E JUMP JUMPDEST POP POP JUMPDEST POP POP POP JUMP JUMPDEST PUSH0 DUP3 DUP3 SHR SWAP1 POP SWAP3 SWAP2 POP POP JUMP JUMPDEST PUSH0 PUSH2 0xB91 PUSH0 NOT DUP5 PUSH1 0x8 MUL PUSH2 0xB76 JUMP JUMPDEST NOT DUP1 DUP4 AND SWAP2 POP POP SWAP3 SWAP2 POP POP JUMP JUMPDEST PUSH0 PUSH2 0xBA9 DUP4 DUP4 PUSH2 0xB82 JUMP JUMPDEST SWAP2 POP DUP3 PUSH1 0x2 MUL DUP3 OR SWAP1 POP SWAP3 SWAP2 POP POP JUMP JUMPDEST PUSH2 0xBC2 DUP3 PUSH2 0x416 JUMP JUMPDEST PUSH8 0xFFFFFFFFFFFFFFFF DUP2 GT ISZERO PUSH2 0xBDB JUMPI PUSH2 0xBDA PUSH2 0x6AC JUMP JUMPDEST JUMPDEST PUSH2 0xBE5 DUP3 SLOAD PUSH2 0x95F JUMP JUMPDEST PUSH2 0xBF0 DUP3 DUP3 DUP6 PUSH2 0xB30 JUMP JUMPDEST PUSH0 PUSH1 0x20 SWAP1 POP PUSH1 0x1F DUP4 GT PUSH1 0x1 DUP2 EQ PUSH2 0xC21 JUMPI PUSH0 DUP5 ISZERO PUSH2 0xC0F JUMPI DUP3 DUP8 ADD MLOAD SWAP1 POP JUMPDEST PUSH2 0xC19 DUP6 DUP3 PUSH2 0xB9E JUMP JUMPDEST DUP7 SSTORE POP PUSH2 0xC80 JUMP JUMPDEST PUSH1 0x1F NOT DUP5 AND PUSH2 0xC2F DUP7 PUSH2 0xA1C JUMP JUMPDEST PUSH0 JUMPDEST DUP3 DUP2 LT ISZERO PUSH2 0xC56 JUMPI DUP5 DUP10 ADD MLOAD DUP3 SSTORE PUSH1 0x1 DUP3 ADD SWAP2 POP PUSH1 0x20 DUP6 ADD SWAP5 POP PUSH1 0x20 DUP2 ADD SWAP1 POP PUSH2 0xC31 JUMP JUMPDEST DUP7 DUP4 LT ISZERO PUSH2 0xC73 JUMPI DUP5 DUP10 ADD MLOAD PUSH2 0xC6F PUSH1 0x1F DUP10 AND DUP3 PUSH2 0xB82 JUMP JUMPDEST DUP4 SSTORE POP JUMPDEST PUSH1 0x1 PUSH1 0x2 DUP9 MUL ADD DUP9 SSTORE POP POP POP JUMPDEST POP POP POP POP POP POP JUMP INVALID LOG2 PUSH5 0x6970667358 0x22 SLT KECCAK256 0x5E PUSH1 0x13 PUSH17 0xBBA9EC5A5CDDC27B8B85AC65F7185BBF73 0xBF EXP PUSH5 0xE8557B28B SDIV REVERT SWAP16 PUSH5 0x736F6C6343 STOP ADDMOD AND STOP CALLER "
				},
				"gasEstimates": {
					"creation": {
						"codeDepositCost": "652400",
						"executionCost": "681",
						"totalCost": "653081"
					},
					"external": {
						"getClass()": "infinite",
						"getStudent(uint256)": "infinite",
						"pushStudent(string,bool,uint256)": "infinite",
						"pushStudent2((string,bool,uint256))": "infinite"
					}
				},
				"methodIdentifiers": {
					"getClass()": "57e61ea4",
					"getStudent(uint256)": "642f9163",
					"pushStudent(string,bool,uint256)": "bc84f213",
					"pushStudent2((string,bool,uint256))": "f6dfc78b"
				}
			},
			"storageLayout": {
				"storage": [
					{
						"astId": 12,
						"contract": "contracts/struct2.sol:STRUCT",
						"label": "class",
						"offset": 0,
						"slot": "0",
						"type": "t_array(t_struct(Student)8_storage)dyn_storage"
					}
				],
				"types": {
					"t_array(t_struct(Student)8_storage)dyn_storage": {
						"base": "t_struct(Student)8_storage",
						"encoding": "dynamic_array",
						"label": "struct STRUCT.Student[]",
						"numberOfBytes": "32"
					},
					"t_bool": {
						"encoding": "inplace",
						"label": "bool",
						"numberOfBytes": "1"
					},
					"t_string_storage": {
						"encoding": "bytes",
						"label": "string",
						"numberOfBytes": "32"
					},
					"t_struct(Student)8_storage": {
						"encoding": "inplace",
						"label": "struct STRUCT.Student",
						"members": [
							{
								"astId": 3,
								"contract": "contracts/struct2.sol:STRUCT",
								"label": "name",
								"offset": 0,
								"slot": "0",
								"type": "t_string_storage"
							},
							{
								"astId": 5,
								"contract": "contracts/struct2.sol:STRUCT",
								"label": "isMale",
								"offset": 0,
								"slot": "1",
								"type": "t_bool"
							},
							{
								"astId": 7,
								"contract": "contracts/struct2.sol:STRUCT",
								"label": "number",
								"offset": 0,
								"slot": "2",
								"type": "t_uint256"
							}
						],
						"numberOfBytes": "96"
					},
					"t_uint256": {
						"encoding": "inplace",
						"label": "uint256",
						"numberOfBytes": "32"
					}
				}
			},
			"userdoc": {
				"kind": "user",
				"methods": {},
				"version": 1
			}
		}
	}
}