{
	"contracts/struct.sol": {
		"STRUCT": {
			"abi": [
				{
					"inputs": [],
					"name": "getS",
					"outputs": [
						{
							"components": [
								{
									"internalType": "string",
									"name": "name",
									"type": "string"
								},
								{
									"internalType": "bool",
									"name": "isMale",
									"type": "bool"
								},
								{
									"internalType": "uint256",
									"name": "number",
									"type": "uint256"
								}
							],
							"internalType": "struct STRUCT.Student",
							"name": "",
							"type": "tuple"
						}
					],
					"stateMutability": "view",
					"type": "function"
				},
				{
					"inputs": [],
					"name": "getSS",
					"outputs": [
						{
							"internalType": "uint256",
							"name": "",
							"type": "uint256"
						}
					],
					"stateMutability": "view",
					"type": "function"
				},
				{
					"inputs": [
						{
							"internalType": "string",
							"name": "_name",
							"type": "string"
						},
						{
							"internalType": "bool",
							"name": "_isMale",
							"type": "bool"
						},
						{
							"internalType": "uint256",
							"name": "_number",
							"type": "uint256"
						}
					],
					"name": "setS",
					"outputs": [],
					"stateMutability": "nonpayable",
					"type": "function"
				}
			],
			"devdoc": {
				"kind": "dev",
				"methods": {},
				"version": 1
			},
			"evm": {
				"assembly": "    /* \"contracts/struct.sol\":62:742  contract STRUCT{... */\n  mstore(0x40, 0x80)\n  callvalue\n  dup1\n  iszero\n  tag_1\n  jumpi\n  0x00\n  dup1\n  revert\ntag_1:\n  pop\n  dataSize(sub_0)\n  dup1\n  dataOffset(sub_0)\n  0x00\n  codecopy\n  0x00\n  return\nstop\n\nsub_0: assembly {\n        /* \"contracts/struct.sol\":62:742  contract STRUCT{... */\n      mstore(0x40, 0x80)\n      callvalue\n      dup1\n      iszero\n      tag_1\n      jumpi\n      0x00\n      dup1\n      revert\n    tag_1:\n      pop\n      jumpi(tag_2, lt(calldatasize, 0x04))\n      shr(0xe0, calldataload(0x00))\n      dup1\n      0x29ec0b2b\n      eq\n      tag_3\n      jumpi\n      dup1\n      0x6061d561\n      eq\n      tag_4\n      jumpi\n      dup1\n      0xe93314ab\n      eq\n      tag_5\n      jumpi\n    tag_2:\n      0x00\n      dup1\n      revert\n        /* \"contracts/struct.sol\":459:577  function setS(string memory _name,bool _isMale,uint _number)public {... */\n    tag_3:\n      tag_6\n      0x04\n      dup1\n      calldatasize\n      sub\n      dup2\n      add\n      swap1\n      tag_7\n      swap2\n      swap1\n      tag_8\n      jump\t// in\n    tag_7:\n      tag_9\n      jump\t// in\n    tag_6:\n      stop\n        /* \"contracts/struct.sol\":665:740  function getSS() public view returns (uint){... */\n    tag_4:\n      tag_10\n      tag_11\n      jump\t// in\n    tag_10:\n      mload(0x40)\n      tag_12\n      swap2\n      swap1\n      tag_13\n      jump\t// in\n    tag_12:\n      mload(0x40)\n      dup1\n      swap2\n      sub\n      swap1\n      return\n        /* \"contracts/struct.sol\":582:659  function getS ()public view returns (Student memory){... */\n    tag_5:\n      tag_14\n      tag_15\n      jump\t// in\n    tag_14:\n      mload(0x40)\n      tag_16\n      swap2\n      swap1\n      tag_17\n      jump\t// in\n    tag_16:\n      mload(0x40)\n      dup1\n      swap2\n      sub\n      swap1\n      return\n        /* \"contracts/struct.sol\":459:577  function setS(string memory _name,bool _isMale,uint _number)public {... */\n    tag_9:\n        /* \"contracts/struct.sol\":540:570  Student(_name,_isMale,_number) */\n      mload(0x40)\n      dup1\n      0x60\n      add\n      0x40\n      mstore\n      dup1\n        /* \"contracts/struct.sol\":548:553  _name */\n      dup5\n        /* \"contracts/struct.sol\":540:570  Student(_name,_isMale,_number) */\n      dup2\n      mstore\n      0x20\n      add\n        /* \"contracts/struct.sol\":554:561  _isMale */\n      dup4\n        /* \"contracts/struct.sol\":540:570  Student(_name,_isMale,_number) */\n      iszero\n      iszero\n      dup2\n      mstore\n      0x20\n      add\n        /* \"contracts/struct.sol\":562:569  _number */\n      dup3\n        /* \"contracts/struct.sol\":540:570  Student(_name,_isMale,_number) */\n      dup2\n      mstore\n      pop\n        /* \"contracts/struct.sol\":536:537  s */\n      0x00\n        /* \"contracts/struct.sol\":536:570  s = Student(_name,_isMale,_number) */\n      dup1\n      dup3\n      add\n      mload\n      dup2\n      0x00\n      add\n      swap1\n      dup2\n      tag_19\n      swap2\n      swap1\n      tag_20\n      jump\t// in\n    tag_19:\n      pop\n      0x20\n      dup3\n      add\n      mload\n      dup2\n      0x01\n      add\n      exp(0x0100, 0x00)\n      dup2\n      sload\n      dup2\n      0xff\n      mul\n      not\n      and\n      swap1\n      dup4\n      iszero\n      iszero\n      mul\n      or\n      swap1\n      sstore\n      pop\n      0x40\n      dup3\n      add\n      mload\n      dup2\n      0x02\n      add\n      sstore\n      swap1\n      pop\n      pop\n        /* \"contracts/struct.sol\":459:577  function setS(string memory _name,bool _isMale,uint _number)public {... */\n      pop\n      pop\n      pop\n      jump\t// out\n        /* \"contracts/struct.sol\":665:740  function getSS() public view returns (uint){... */\n    tag_11:\n        /* \"contracts/struct.sol\":703:707  uint */\n      0x00\n        /* \"contracts/struct.sol\":725:726  s */\n      dup1\n        /* \"contracts/struct.sol\":725:733  s.number */\n      0x02\n      add\n      sload\n        /* \"contracts/struct.sol\":718:733  return s.number */\n      swap1\n      pop\n        /* \"contracts/struct.sol\":665:740  function getSS() public view returns (uint){... */\n      swap1\n      jump\t// out\n        /* \"contracts/struct.sol\":582:659  function getS ()public view returns (Student memory){... */\n    tag_15:\n        /* \"contracts/struct.sol\":619:633  Student memory */\n      tag_22\n      tag_23\n      jump\t// in\n    tag_22:\n        /* \"contracts/struct.sol\":651:652  s */\n      0x00\n        /* \"contracts/struct.sol\":644:652  return s */\n      mload(0x40)\n      dup1\n      0x60\n      add\n      0x40\n      mstore\n      swap1\n      dup2\n      0x00\n      dup3\n      add\n      dup1\n      sload\n      tag_25\n      swap1\n      tag_26\n      jump\t// in\n    tag_25:\n      dup1\n      0x1f\n      add\n      0x20\n      dup1\n      swap2\n      div\n      mul\n      0x20\n      add\n      mload(0x40)\n      swap1\n      dup2\n      add\n      0x40\n      mstore\n      dup1\n      swap3\n      swap2\n      swap1\n      dup2\n      dup2\n      mstore\n      0x20\n      add\n      dup3\n      dup1\n      sload\n      tag_27\n      swap1\n      tag_26\n      jump\t// in\n    tag_27:\n      dup1\n      iszero\n      tag_28\n      jumpi\n      dup1\n      0x1f\n      lt\n      tag_29\n      jumpi\n      0x0100\n      dup1\n      dup4\n      sload\n      div\n      mul\n      dup4\n      mstore\n      swap2\n      0x20\n      add\n      swap2\n      jump(tag_28)\n    tag_29:\n      dup3\n      add\n      swap2\n      swap1\n      0x00\n      mstore\n      keccak256(0x00, 0x20)\n      swap1\n    tag_30:\n      dup2\n      sload\n      dup2\n      mstore\n      swap1\n      0x01\n      add\n      swap1\n      0x20\n      add\n      dup1\n      dup4\n      gt\n      tag_30\n      jumpi\n      dup3\n      swap1\n      sub\n      0x1f\n      and\n      dup3\n      add\n      swap2\n    tag_28:\n      pop\n      pop\n      pop\n      pop\n      pop\n      dup2\n      mstore\n      0x20\n      add\n      0x01\n      dup3\n      add\n      0x00\n      swap1\n      sload\n      swap1\n      0x0100\n      exp\n      swap1\n      div\n      0xff\n      and\n      iszero\n      iszero\n      iszero\n      iszero\n      dup2\n      mstore\n      0x20\n      add\n      0x02\n      dup3\n      add\n      sload\n      dup2\n      mstore\n      pop\n      pop\n      swap1\n      pop\n        /* \"contracts/struct.sol\":582:659  function getS ()public view returns (Student memory){... */\n      swap1\n      jump\t// out\n    tag_23:\n      mload(0x40)\n      dup1\n      0x60\n      add\n      0x40\n      mstore\n      dup1\n      0x60\n      dup2\n      mstore\n      0x20\n      add\n      iszero(iszero(0x00))\n      dup2\n      mstore\n      0x20\n      add\n      0x00\n      dup2\n      mstore\n      pop\n      swap1\n      jump\t// out\n        /* \"#utility.yul\":7:82   */\n    tag_31:\n        /* \"#utility.yul\":40:46   */\n      0x00\n        /* \"#utility.yul\":73:75   */\n      0x40\n        /* \"#utility.yul\":67:76   */\n      mload\n        /* \"#utility.yul\":57:76   */\n      swap1\n      pop\n        /* \"#utility.yul\":7:82   */\n      swap1\n      jump\t// out\n        /* \"#utility.yul\":88:205   */\n    tag_32:\n        /* \"#utility.yul\":197:198   */\n      0x00\n        /* \"#utility.yul\":194:195   */\n      dup1\n        /* \"#utility.yul\":187:199   */\n      revert\n        /* \"#utility.yul\":211:328   */\n    tag_33:\n        /* \"#utility.yul\":320:321   */\n      0x00\n        /* \"#utility.yul\":317:318   */\n      dup1\n        /* \"#utility.yul\":310:322   */\n      revert\n        /* \"#utility.yul\":334:451   */\n    tag_34:\n        /* \"#utility.yul\":443:444   */\n      0x00\n        /* \"#utility.yul\":440:441   */\n      dup1\n        /* \"#utility.yul\":433:445   */\n      revert\n        /* \"#utility.yul\":457:574   */\n    tag_35:\n        /* \"#utility.yul\":566:567   */\n      0x00\n        /* \"#utility.yul\":563:564   */\n      dup1\n        /* \"#utility.yul\":556:568   */\n      revert\n        /* \"#utility.yul\":580:682   */\n    tag_36:\n        /* \"#utility.yul\":621:627   */\n      0x00\n        /* \"#utility.yul\":672:674   */\n      0x1f\n        /* \"#utility.yul\":668:675   */\n      not\n        /* \"#utility.yul\":663:665   */\n      0x1f\n        /* \"#utility.yul\":656:661   */\n      dup4\n        /* \"#utility.yul\":652:666   */\n      add\n        /* \"#utility.yul\":648:676   */\n      and\n        /* \"#utility.yul\":638:676   */\n      swap1\n      pop\n        /* \"#utility.yul\":580:682   */\n      swap2\n      swap1\n      pop\n      jump\t// out\n        /* \"#utility.yul\":688:868   */\n    tag_37:\n        /* \"#utility.yul\":736:813   */\n      0x4e487b7100000000000000000000000000000000000000000000000000000000\n        /* \"#utility.yul\":733:734   */\n      0x00\n        /* \"#utility.yul\":726:814   */\n      mstore\n        /* \"#utility.yul\":833:837   */\n      0x41\n        /* \"#utility.yul\":830:831   */\n      0x04\n        /* \"#utility.yul\":823:838   */\n      mstore\n        /* \"#utility.yul\":857:861   */\n      0x24\n        /* \"#utility.yul\":854:855   */\n      0x00\n        /* \"#utility.yul\":847:862   */\n      revert\n        /* \"#utility.yul\":874:1155   */\n    tag_38:\n        /* \"#utility.yul\":957:984   */\n      tag_83\n        /* \"#utility.yul\":979:983   */\n      dup3\n        /* \"#utility.yul\":957:984   */\n      tag_36\n      jump\t// in\n    tag_83:\n        /* \"#utility.yul\":949:955   */\n      dup2\n        /* \"#utility.yul\":945:985   */\n      add\n        /* \"#utility.yul\":1087:1093   */\n      dup2\n        /* \"#utility.yul\":1075:1085   */\n      dup2\n        /* \"#utility.yul\":1072:1094   */\n      lt\n        /* \"#utility.yul\":1051:1069   */\n      0xffffffffffffffff\n        /* \"#utility.yul\":1039:1049   */\n      dup3\n        /* \"#utility.yul\":1036:1070   */\n      gt\n        /* \"#utility.yul\":1033:1095   */\n      or\n        /* \"#utility.yul\":1030:1118   */\n      iszero\n      tag_84\n      jumpi\n        /* \"#utility.yul\":1098:1116   */\n      tag_85\n      tag_37\n      jump\t// in\n    tag_85:\n        /* \"#utility.yul\":1030:1118   */\n    tag_84:\n        /* \"#utility.yul\":1138:1148   */\n      dup1\n        /* \"#utility.yul\":1134:1136   */\n      0x40\n        /* \"#utility.yul\":1127:1149   */\n      mstore\n        /* \"#utility.yul\":917:1155   */\n      pop\n        /* \"#utility.yul\":874:1155   */\n      pop\n      pop\n      jump\t// out\n        /* \"#utility.yul\":1161:1290   */\n    tag_39:\n        /* \"#utility.yul\":1195:1201   */\n      0x00\n        /* \"#utility.yul\":1222:1242   */\n      tag_87\n      tag_31\n      jump\t// in\n    tag_87:\n        /* \"#utility.yul\":1212:1242   */\n      swap1\n      pop\n        /* \"#utility.yul\":1251:1284   */\n      tag_88\n        /* \"#utility.yul\":1279:1283   */\n      dup3\n        /* \"#utility.yul\":1271:1277   */\n      dup3\n        /* \"#utility.yul\":1251:1284   */\n      tag_38\n      jump\t// in\n    tag_88:\n        /* \"#utility.yul\":1161:1290   */\n      swap2\n      swap1\n      pop\n      jump\t// out\n        /* \"#utility.yul\":1296:1604   */\n    tag_40:\n        /* \"#utility.yul\":1358:1362   */\n      0x00\n        /* \"#utility.yul\":1448:1466   */\n      0xffffffffffffffff\n        /* \"#utility.yul\":1440:1446   */\n      dup3\n        /* \"#utility.yul\":1437:1467   */\n      gt\n        /* \"#utility.yul\":1434:1490   */\n      iszero\n      tag_90\n      jumpi\n        /* \"#utility.yul\":1470:1488   */\n      tag_91\n      tag_37\n      jump\t// in\n    tag_91:\n        /* \"#utility.yul\":1434:1490   */\n    tag_90:\n        /* \"#utility.yul\":1508:1537   */\n      tag_92\n        /* \"#utility.yul\":1530:1536   */\n      dup3\n        /* \"#utility.yul\":1508:1537   */\n      tag_36\n      jump\t// in\n    tag_92:\n        /* \"#utility.yul\":1500:1537   */\n      swap1\n      pop\n        /* \"#utility.yul\":1592:1596   */\n      0x20\n        /* \"#utility.yul\":1586:1590   */\n      dup2\n        /* \"#utility.yul\":1582:1597   */\n      add\n        /* \"#utility.yul\":1574:1597   */\n      swap1\n      pop\n        /* \"#utility.yul\":1296:1604   */\n      swap2\n      swap1\n      pop\n      jump\t// out\n        /* \"#utility.yul\":1610:1756   */\n    tag_41:\n        /* \"#utility.yul\":1707:1713   */\n      dup3\n        /* \"#utility.yul\":1702:1705   */\n      dup2\n        /* \"#utility.yul\":1697:1700   */\n      dup4\n        /* \"#utility.yul\":1684:1714   */\n      calldatacopy\n        /* \"#utility.yul\":1748:1749   */\n      0x00\n        /* \"#utility.yul\":1739:1745   */\n      dup4\n        /* \"#utility.yul\":1734:1737   */\n      dup4\n        /* \"#utility.yul\":1730:1746   */\n      add\n        /* \"#utility.yul\":1723:1750   */\n      mstore\n        /* \"#utility.yul\":1610:1756   */\n      pop\n      pop\n      pop\n      jump\t// out\n        /* \"#utility.yul\":1762:2187   */\n    tag_42:\n        /* \"#utility.yul\":1840:1845   */\n      0x00\n        /* \"#utility.yul\":1865:1931   */\n      tag_95\n        /* \"#utility.yul\":1881:1930   */\n      tag_96\n        /* \"#utility.yul\":1923:1929   */\n      dup5\n        /* \"#utility.yul\":1881:1930   */\n      tag_40\n      jump\t// in\n    tag_96:\n        /* \"#utility.yul\":1865:1931   */\n      tag_39\n      jump\t// in\n    tag_95:\n        /* \"#utility.yul\":1856:1931   */\n      swap1\n      pop\n        /* \"#utility.yul\":1954:1960   */\n      dup3\n        /* \"#utility.yul\":1947:1952   */\n      dup2\n        /* \"#utility.yul\":1940:1961   */\n      mstore\n        /* \"#utility.yul\":1992:1996   */\n      0x20\n        /* \"#utility.yul\":1985:1990   */\n      dup2\n        /* \"#utility.yul\":1981:1997   */\n      add\n        /* \"#utility.yul\":2030:2033   */\n      dup5\n        /* \"#utility.yul\":2021:2027   */\n      dup5\n        /* \"#utility.yul\":2016:2019   */\n      dup5\n        /* \"#utility.yul\":2012:2028   */\n      add\n        /* \"#utility.yul\":2009:2034   */\n      gt\n        /* \"#utility.yul\":2006:2118   */\n      iszero\n      tag_97\n      jumpi\n        /* \"#utility.yul\":2037:2116   */\n      tag_98\n      tag_35\n      jump\t// in\n    tag_98:\n        /* \"#utility.yul\":2006:2118   */\n    tag_97:\n        /* \"#utility.yul\":2127:2181   */\n      tag_99\n        /* \"#utility.yul\":2174:2180   */\n      dup5\n        /* \"#utility.yul\":2169:2172   */\n      dup3\n        /* \"#utility.yul\":2164:2167   */\n      dup6\n        /* \"#utility.yul\":2127:2181   */\n      tag_41\n      jump\t// in\n    tag_99:\n        /* \"#utility.yul\":1846:2187   */\n      pop\n        /* \"#utility.yul\":1762:2187   */\n      swap4\n      swap3\n      pop\n      pop\n      pop\n      jump\t// out\n        /* \"#utility.yul\":2207:2547   */\n    tag_43:\n        /* \"#utility.yul\":2263:2268   */\n      0x00\n        /* \"#utility.yul\":2312:2315   */\n      dup3\n        /* \"#utility.yul\":2305:2309   */\n      0x1f\n        /* \"#utility.yul\":2297:2303   */\n      dup4\n        /* \"#utility.yul\":2293:2310   */\n      add\n        /* \"#utility.yul\":2289:2316   */\n      slt\n        /* \"#utility.yul\":2279:2401   */\n      tag_101\n      jumpi\n        /* \"#utility.yul\":2320:2399   */\n      tag_102\n      tag_34\n      jump\t// in\n    tag_102:\n        /* \"#utility.yul\":2279:2401   */\n    tag_101:\n        /* \"#utility.yul\":2437:2443   */\n      dup2\n        /* \"#utility.yul\":2424:2444   */\n      calldataload\n        /* \"#utility.yul\":2462:2541   */\n      tag_103\n        /* \"#utility.yul\":2537:2540   */\n      dup5\n        /* \"#utility.yul\":2529:2535   */\n      dup3\n        /* \"#utility.yul\":2522:2526   */\n      0x20\n        /* \"#utility.yul\":2514:2520   */\n      dup7\n        /* \"#utility.yul\":2510:2527   */\n      add\n        /* \"#utility.yul\":2462:2541   */\n      tag_42\n      jump\t// in\n    tag_103:\n        /* \"#utility.yul\":2453:2541   */\n      swap2\n      pop\n        /* \"#utility.yul\":2269:2547   */\n      pop\n        /* \"#utility.yul\":2207:2547   */\n      swap3\n      swap2\n      pop\n      pop\n      jump\t// out\n        /* \"#utility.yul\":2553:2643   */\n    tag_44:\n        /* \"#utility.yul\":2587:2594   */\n      0x00\n        /* \"#utility.yul\":2630:2635   */\n      dup2\n        /* \"#utility.yul\":2623:2636   */\n      iszero\n        /* \"#utility.yul\":2616:2637   */\n      iszero\n        /* \"#utility.yul\":2605:2637   */\n      swap1\n      pop\n        /* \"#utility.yul\":2553:2643   */\n      swap2\n      swap1\n      pop\n      jump\t// out\n        /* \"#utility.yul\":2649:2765   */\n    tag_45:\n        /* \"#utility.yul\":2719:2740   */\n      tag_106\n        /* \"#utility.yul\":2734:2739   */\n      dup2\n        /* \"#utility.yul\":2719:2740   */\n      tag_44\n      jump\t// in\n    tag_106:\n        /* \"#utility.yul\":2712:2717   */\n      dup2\n        /* \"#utility.yul\":2709:2741   */\n      eq\n        /* \"#utility.yul\":2699:2759   */\n      tag_107\n      jumpi\n        /* \"#utility.yul\":2755:2756   */\n      0x00\n        /* \"#utility.yul\":2752:2753   */\n      dup1\n        /* \"#utility.yul\":2745:2757   */\n      revert\n        /* \"#utility.yul\":2699:2759   */\n    tag_107:\n        /* \"#utility.yul\":2649:2765   */\n      pop\n      jump\t// out\n        /* \"#utility.yul\":2771:2904   */\n    tag_46:\n        /* \"#utility.yul\":2814:2819   */\n      0x00\n        /* \"#utility.yul\":2852:2858   */\n      dup2\n        /* \"#utility.yul\":2839:2859   */\n      calldataload\n        /* \"#utility.yul\":2830:2859   */\n      swap1\n      pop\n        /* \"#utility.yul\":2868:2898   */\n      tag_109\n        /* \"#utility.yul\":2892:2897   */\n      dup2\n        /* \"#utility.yul\":2868:2898   */\n      tag_45\n      jump\t// in\n    tag_109:\n        /* \"#utility.yul\":2771:2904   */\n      swap3\n      swap2\n      pop\n      pop\n      jump\t// out\n        /* \"#utility.yul\":2910:2987   */\n    tag_47:\n        /* \"#utility.yul\":2947:2954   */\n      0x00\n        /* \"#utility.yul\":2976:2981   */\n      dup2\n        /* \"#utility.yul\":2965:2981   */\n      swap1\n      pop\n        /* \"#utility.yul\":2910:2987   */\n      swap2\n      swap1\n      pop\n      jump\t// out\n        /* \"#utility.yul\":2993:3115   */\n    tag_48:\n        /* \"#utility.yul\":3066:3090   */\n      tag_112\n        /* \"#utility.yul\":3084:3089   */\n      dup2\n        /* \"#utility.yul\":3066:3090   */\n      tag_47\n      jump\t// in\n    tag_112:\n        /* \"#utility.yul\":3059:3064   */\n      dup2\n        /* \"#utility.yul\":3056:3091   */\n      eq\n        /* \"#utility.yul\":3046:3109   */\n      tag_113\n      jumpi\n        /* \"#utility.yul\":3105:3106   */\n      0x00\n        /* \"#utility.yul\":3102:3103   */\n      dup1\n        /* \"#utility.yul\":3095:3107   */\n      revert\n        /* \"#utility.yul\":3046:3109   */\n    tag_113:\n        /* \"#utility.yul\":2993:3115   */\n      pop\n      jump\t// out\n        /* \"#utility.yul\":3121:3260   */\n    tag_49:\n        /* \"#utility.yul\":3167:3172   */\n      0x00\n        /* \"#utility.yul\":3205:3211   */\n      dup2\n        /* \"#utility.yul\":3192:3212   */\n      calldataload\n        /* \"#utility.yul\":3183:3212   */\n      swap1\n      pop\n        /* \"#utility.yul\":3221:3254   */\n      tag_115\n        /* \"#utility.yul\":3248:3253   */\n      dup2\n        /* \"#utility.yul\":3221:3254   */\n      tag_48\n      jump\t// in\n    tag_115:\n        /* \"#utility.yul\":3121:3260   */\n      swap3\n      swap2\n      pop\n      pop\n      jump\t// out\n        /* \"#utility.yul\":3266:4059   */\n    tag_8:\n        /* \"#utility.yul\":3350:3356   */\n      0x00\n        /* \"#utility.yul\":3358:3364   */\n      dup1\n        /* \"#utility.yul\":3366:3372   */\n      0x00\n        /* \"#utility.yul\":3415:3417   */\n      0x60\n        /* \"#utility.yul\":3403:3412   */\n      dup5\n        /* \"#utility.yul\":3394:3401   */\n      dup7\n        /* \"#utility.yul\":3390:3413   */\n      sub\n        /* \"#utility.yul\":3386:3418   */\n      slt\n        /* \"#utility.yul\":3383:3502   */\n      iszero\n      tag_117\n      jumpi\n        /* \"#utility.yul\":3421:3500   */\n      tag_118\n      tag_32\n      jump\t// in\n    tag_118:\n        /* \"#utility.yul\":3383:3502   */\n    tag_117:\n        /* \"#utility.yul\":3569:3570   */\n      0x00\n        /* \"#utility.yul\":3558:3567   */\n      dup5\n        /* \"#utility.yul\":3554:3571   */\n      add\n        /* \"#utility.yul\":3541:3572   */\n      calldataload\n        /* \"#utility.yul\":3599:3617   */\n      0xffffffffffffffff\n        /* \"#utility.yul\":3591:3597   */\n      dup2\n        /* \"#utility.yul\":3588:3618   */\n      gt\n        /* \"#utility.yul\":3585:3702   */\n      iszero\n      tag_119\n      jumpi\n        /* \"#utility.yul\":3621:3700   */\n      tag_120\n      tag_33\n      jump\t// in\n    tag_120:\n        /* \"#utility.yul\":3585:3702   */\n    tag_119:\n        /* \"#utility.yul\":3726:3789   */\n      tag_121\n        /* \"#utility.yul\":3781:3788   */\n      dup7\n        /* \"#utility.yul\":3772:3778   */\n      dup3\n        /* \"#utility.yul\":3761:3770   */\n      dup8\n        /* \"#utility.yul\":3757:3779   */\n      add\n        /* \"#utility.yul\":3726:3789   */\n      tag_43\n      jump\t// in\n    tag_121:\n        /* \"#utility.yul\":3716:3789   */\n      swap4\n      pop\n        /* \"#utility.yul\":3512:3799   */\n      pop\n        /* \"#utility.yul\":3838:3840   */\n      0x20\n        /* \"#utility.yul\":3864:3914   */\n      tag_122\n        /* \"#utility.yul\":3906:3913   */\n      dup7\n        /* \"#utility.yul\":3897:3903   */\n      dup3\n        /* \"#utility.yul\":3886:3895   */\n      dup8\n        /* \"#utility.yul\":3882:3904   */\n      add\n        /* \"#utility.yul\":3864:3914   */\n      tag_46\n      jump\t// in\n    tag_122:\n        /* \"#utility.yul\":3854:3914   */\n      swap3\n      pop\n        /* \"#utility.yul\":3809:3924   */\n      pop\n        /* \"#utility.yul\":3963:3965   */\n      0x40\n        /* \"#utility.yul\":3989:4042   */\n      tag_123\n        /* \"#utility.yul\":4034:4041   */\n      dup7\n        /* \"#utility.yul\":4025:4031   */\n      dup3\n        /* \"#utility.yul\":4014:4023   */\n      dup8\n        /* \"#utility.yul\":4010:4032   */\n      add\n        /* \"#utility.yul\":3989:4042   */\n      tag_49\n      jump\t// in\n    tag_123:\n        /* \"#utility.yul\":3979:4042   */\n      swap2\n      pop\n        /* \"#utility.yul\":3934:4052   */\n      pop\n        /* \"#utility.yul\":3266:4059   */\n      swap3\n      pop\n      swap3\n      pop\n      swap3\n      jump\t// out\n        /* \"#utility.yul\":4065:4183   */\n    tag_50:\n        /* \"#utility.yul\":4152:4176   */\n      tag_125\n        /* \"#utility.yul\":4170:4175   */\n      dup2\n        /* \"#utility.yul\":4152:4176   */\n      tag_47\n      jump\t// in\n    tag_125:\n        /* \"#utility.yul\":4147:4150   */\n      dup3\n        /* \"#utility.yul\":4140:4177   */\n      mstore\n        /* \"#utility.yul\":4065:4183   */\n      pop\n      pop\n      jump\t// out\n        /* \"#utility.yul\":4189:4411   */\n    tag_13:\n        /* \"#utility.yul\":4282:4286   */\n      0x00\n        /* \"#utility.yul\":4320:4322   */\n      0x20\n        /* \"#utility.yul\":4309:4318   */\n      dup3\n        /* \"#utility.yul\":4305:4323   */\n      add\n        /* \"#utility.yul\":4297:4323   */\n      swap1\n      pop\n        /* \"#utility.yul\":4333:4404   */\n      tag_127\n        /* \"#utility.yul\":4401:4402   */\n      0x00\n        /* \"#utility.yul\":4390:4399   */\n      dup4\n        /* \"#utility.yul\":4386:4403   */\n      add\n        /* \"#utility.yul\":4377:4383   */\n      dup5\n        /* \"#utility.yul\":4333:4404   */\n      tag_50\n      jump\t// in\n    tag_127:\n        /* \"#utility.yul\":4189:4411   */\n      swap3\n      swap2\n      pop\n      pop\n      jump\t// out\n        /* \"#utility.yul\":4417:4516   */\n    tag_51:\n        /* \"#utility.yul\":4469:4475   */\n      0x00\n        /* \"#utility.yul\":4503:4508   */\n      dup2\n        /* \"#utility.yul\":4497:4509   */\n      mload\n        /* \"#utility.yul\":4487:4509   */\n      swap1\n      pop\n        /* \"#utility.yul\":4417:4516   */\n      swap2\n      swap1\n      pop\n      jump\t// out\n        /* \"#utility.yul\":4522:4681   */\n    tag_52:\n        /* \"#utility.yul\":4596:4607   */\n      0x00\n        /* \"#utility.yul\":4630:4636   */\n      dup3\n        /* \"#utility.yul\":4625:4628   */\n      dup3\n        /* \"#utility.yul\":4618:4637   */\n      mstore\n        /* \"#utility.yul\":4670:4674   */\n      0x20\n        /* \"#utility.yul\":4665:4668   */\n      dup3\n        /* \"#utility.yul\":4661:4675   */\n      add\n        /* \"#utility.yul\":4646:4675   */\n      swap1\n      pop\n        /* \"#utility.yul\":4522:4681   */\n      swap3\n      swap2\n      pop\n      pop\n      jump\t// out\n        /* \"#utility.yul\":4687:4933   */\n    tag_53:\n        /* \"#utility.yul\":4768:4769   */\n      0x00\n        /* \"#utility.yul\":4778:4891   */\n    tag_131:\n        /* \"#utility.yul\":4792:4798   */\n      dup4\n        /* \"#utility.yul\":4789:4790   */\n      dup2\n        /* \"#utility.yul\":4786:4799   */\n      lt\n        /* \"#utility.yul\":4778:4891   */\n      iszero\n      tag_133\n      jumpi\n        /* \"#utility.yul\":4877:4878   */\n      dup1\n        /* \"#utility.yul\":4872:4875   */\n      dup3\n        /* \"#utility.yul\":4868:4879   */\n      add\n        /* \"#utility.yul\":4862:4880   */\n      mload\n        /* \"#utility.yul\":4858:4859   */\n      dup2\n        /* \"#utility.yul\":4853:4856   */\n      dup5\n        /* \"#utility.yul\":4849:4860   */\n      add\n        /* \"#utility.yul\":4842:4881   */\n      mstore\n        /* \"#utility.yul\":4814:4816   */\n      0x20\n        /* \"#utility.yul\":4811:4812   */\n      dup2\n        /* \"#utility.yul\":4807:4817   */\n      add\n        /* \"#utility.yul\":4802:4817   */\n      swap1\n      pop\n        /* \"#utility.yul\":4778:4891   */\n      jump(tag_131)\n    tag_133:\n        /* \"#utility.yul\":4925:4926   */\n      0x00\n        /* \"#utility.yul\":4916:4922   */\n      dup5\n        /* \"#utility.yul\":4911:4914   */\n      dup5\n        /* \"#utility.yul\":4907:4923   */\n      add\n        /* \"#utility.yul\":4900:4927   */\n      mstore\n        /* \"#utility.yul\":4749:4933   */\n      pop\n        /* \"#utility.yul\":4687:4933   */\n      pop\n      pop\n      pop\n      jump\t// out\n        /* \"#utility.yul\":4939:5296   */\n    tag_54:\n        /* \"#utility.yul\":5017:5020   */\n      0x00\n        /* \"#utility.yul\":5045:5084   */\n      tag_135\n        /* \"#utility.yul\":5078:5083   */\n      dup3\n        /* \"#utility.yul\":5045:5084   */\n      tag_51\n      jump\t// in\n    tag_135:\n        /* \"#utility.yul\":5100:5161   */\n      tag_136\n        /* \"#utility.yul\":5154:5160   */\n      dup2\n        /* \"#utility.yul\":5149:5152   */\n      dup6\n        /* \"#utility.yul\":5100:5161   */\n      tag_52\n      jump\t// in\n    tag_136:\n        /* \"#utility.yul\":5093:5161   */\n      swap4\n      pop\n        /* \"#utility.yul\":5170:5235   */\n      tag_137\n        /* \"#utility.yul\":5228:5234   */\n      dup2\n        /* \"#utility.yul\":5223:5226   */\n      dup6\n        /* \"#utility.yul\":5216:5220   */\n      0x20\n        /* \"#utility.yul\":5209:5214   */\n      dup7\n        /* \"#utility.yul\":5205:5221   */\n      add\n        /* \"#utility.yul\":5170:5235   */\n      tag_53\n      jump\t// in\n    tag_137:\n        /* \"#utility.yul\":5260:5289   */\n      tag_138\n        /* \"#utility.yul\":5282:5288   */\n      dup2\n        /* \"#utility.yul\":5260:5289   */\n      tag_36\n      jump\t// in\n    tag_138:\n        /* \"#utility.yul\":5255:5258   */\n      dup5\n        /* \"#utility.yul\":5251:5290   */\n      add\n        /* \"#utility.yul\":5244:5290   */\n      swap2\n      pop\n        /* \"#utility.yul\":5021:5296   */\n      pop\n        /* \"#utility.yul\":4939:5296   */\n      swap3\n      swap2\n      pop\n      pop\n      jump\t// out\n        /* \"#utility.yul\":5302:5401   */\n    tag_55:\n        /* \"#utility.yul\":5373:5394   */\n      tag_140\n        /* \"#utility.yul\":5388:5393   */\n      dup2\n        /* \"#utility.yul\":5373:5394   */\n      tag_44\n      jump\t// in\n    tag_140:\n        /* \"#utility.yul\":5368:5371   */\n      dup3\n        /* \"#utility.yul\":5361:5395   */\n      mstore\n        /* \"#utility.yul\":5302:5401   */\n      pop\n      pop\n      jump\t// out\n        /* \"#utility.yul\":5407:5515   */\n    tag_56:\n        /* \"#utility.yul\":5484:5508   */\n      tag_142\n        /* \"#utility.yul\":5502:5507   */\n      dup2\n        /* \"#utility.yul\":5484:5508   */\n      tag_47\n      jump\t// in\n    tag_142:\n        /* \"#utility.yul\":5479:5482   */\n      dup3\n        /* \"#utility.yul\":5472:5509   */\n      mstore\n        /* \"#utility.yul\":5407:5515   */\n      pop\n      pop\n      jump\t// out\n        /* \"#utility.yul\":5575:6347   */\n    tag_57:\n        /* \"#utility.yul\":5688:5691   */\n      0x00\n        /* \"#utility.yul\":5724:5728   */\n      0x60\n        /* \"#utility.yul\":5719:5722   */\n      dup4\n        /* \"#utility.yul\":5715:5729   */\n      add\n        /* \"#utility.yul\":5811:5815   */\n      0x00\n        /* \"#utility.yul\":5804:5809   */\n      dup4\n        /* \"#utility.yul\":5800:5816   */\n      add\n        /* \"#utility.yul\":5794:5817   */\n      mload\n        /* \"#utility.yul\":5864:5867   */\n      dup5\n        /* \"#utility.yul\":5858:5862   */\n      dup3\n        /* \"#utility.yul\":5854:5868   */\n      sub\n        /* \"#utility.yul\":5847:5851   */\n      0x00\n        /* \"#utility.yul\":5842:5845   */\n      dup7\n        /* \"#utility.yul\":5838:5852   */\n      add\n        /* \"#utility.yul\":5831:5869   */\n      mstore\n        /* \"#utility.yul\":5890:5963   */\n      tag_144\n        /* \"#utility.yul\":5958:5962   */\n      dup3\n        /* \"#utility.yul\":5944:5956   */\n      dup3\n        /* \"#utility.yul\":5890:5963   */\n      tag_54\n      jump\t// in\n    tag_144:\n        /* \"#utility.yul\":5882:5963   */\n      swap2\n      pop\n        /* \"#utility.yul\":5739:5974   */\n      pop\n        /* \"#utility.yul\":6058:6062   */\n      0x20\n        /* \"#utility.yul\":6051:6056   */\n      dup4\n        /* \"#utility.yul\":6047:6063   */\n      add\n        /* \"#utility.yul\":6041:6064   */\n      mload\n        /* \"#utility.yul\":6077:6134   */\n      tag_145\n        /* \"#utility.yul\":6128:6132   */\n      0x20\n        /* \"#utility.yul\":6123:6126   */\n      dup7\n        /* \"#utility.yul\":6119:6133   */\n      add\n        /* \"#utility.yul\":6105:6117   */\n      dup3\n        /* \"#utility.yul\":6077:6134   */\n      tag_55\n      jump\t// in\n    tag_145:\n        /* \"#utility.yul\":5984:6144   */\n      pop\n        /* \"#utility.yul\":6228:6232   */\n      0x40\n        /* \"#utility.yul\":6221:6226   */\n      dup4\n        /* \"#utility.yul\":6217:6233   */\n      add\n        /* \"#utility.yul\":6211:6234   */\n      mload\n        /* \"#utility.yul\":6247:6310   */\n      tag_146\n        /* \"#utility.yul\":6304:6308   */\n      0x40\n        /* \"#utility.yul\":6299:6302   */\n      dup7\n        /* \"#utility.yul\":6295:6309   */\n      add\n        /* \"#utility.yul\":6281:6293   */\n      dup3\n        /* \"#utility.yul\":6247:6310   */\n      tag_56\n      jump\t// in\n    tag_146:\n        /* \"#utility.yul\":6154:6320   */\n      pop\n        /* \"#utility.yul\":6337:6341   */\n      dup1\n        /* \"#utility.yul\":6330:6341   */\n      swap2\n      pop\n        /* \"#utility.yul\":5693:6347   */\n      pop\n        /* \"#utility.yul\":5575:6347   */\n      swap3\n      swap2\n      pop\n      pop\n      jump\t// out\n        /* \"#utility.yul\":6353:6714   */\n    tag_17:\n        /* \"#utility.yul\":6490:6494   */\n      0x00\n        /* \"#utility.yul\":6528:6530   */\n      0x20\n        /* \"#utility.yul\":6517:6526   */\n      dup3\n        /* \"#utility.yul\":6513:6531   */\n      add\n        /* \"#utility.yul\":6505:6531   */\n      swap1\n      pop\n        /* \"#utility.yul\":6577:6586   */\n      dup2\n        /* \"#utility.yul\":6571:6575   */\n      dup2\n        /* \"#utility.yul\":6567:6587   */\n      sub\n        /* \"#utility.yul\":6563:6564   */\n      0x00\n        /* \"#utility.yul\":6552:6561   */\n      dup4\n        /* \"#utility.yul\":6548:6565   */\n      add\n        /* \"#utility.yul\":6541:6588   */\n      mstore\n        /* \"#utility.yul\":6605:6707   */\n      tag_148\n        /* \"#utility.yul\":6702:6706   */\n      dup2\n        /* \"#utility.yul\":6693:6699   */\n      dup5\n        /* \"#utility.yul\":6605:6707   */\n      tag_57\n      jump\t// in\n    tag_148:\n        /* \"#utility.yul\":6597:6707   */\n      swap1\n      pop\n        /* \"#utility.yul\":6353:6714   */\n      swap3\n      swap2\n      pop\n      pop\n      jump\t// out\n        /* \"#utility.yul\":6720:6900   */\n    tag_58:\n        /* \"#utility.yul\":6768:6845   */\n      0x4e487b7100000000000000000000000000000000000000000000000000000000\n        /* \"#utility.yul\":6765:6766   */\n      0x00\n        /* \"#utility.yul\":6758:6846   */\n      mstore\n        /* \"#utility.yul\":6865:6869   */\n      0x22\n        /* \"#utility.yul\":6862:6863   */\n      0x04\n        /* \"#utility.yul\":6855:6870   */\n      mstore\n        /* \"#utility.yul\":6889:6893   */\n      0x24\n        /* \"#utility.yul\":6886:6887   */\n      0x00\n        /* \"#utility.yul\":6879:6894   */\n      revert\n        /* \"#utility.yul\":6906:7226   */\n    tag_26:\n        /* \"#utility.yul\":6950:6956   */\n      0x00\n        /* \"#utility.yul\":6987:6988   */\n      0x02\n        /* \"#utility.yul\":6981:6985   */\n      dup3\n        /* \"#utility.yul\":6977:6989   */\n      div\n        /* \"#utility.yul\":6967:6989   */\n      swap1\n      pop\n        /* \"#utility.yul\":7034:7035   */\n      0x01\n        /* \"#utility.yul\":7028:7032   */\n      dup3\n        /* \"#utility.yul\":7024:7036   */\n      and\n        /* \"#utility.yul\":7055:7073   */\n      dup1\n        /* \"#utility.yul\":7045:7126   */\n      tag_151\n      jumpi\n        /* \"#utility.yul\":7111:7115   */\n      0x7f\n        /* \"#utility.yul\":7103:7109   */\n      dup3\n        /* \"#utility.yul\":7099:7116   */\n      and\n        /* \"#utility.yul\":7089:7116   */\n      swap2\n      pop\n        /* \"#utility.yul\":7045:7126   */\n    tag_151:\n        /* \"#utility.yul\":7173:7175   */\n      0x20\n        /* \"#utility.yul\":7165:7171   */\n      dup3\n        /* \"#utility.yul\":7162:7176   */\n      lt\n        /* \"#utility.yul\":7142:7160   */\n      dup2\n        /* \"#utility.yul\":7139:7177   */\n      sub\n        /* \"#utility.yul\":7136:7220   */\n      tag_152\n      jumpi\n        /* \"#utility.yul\":7192:7210   */\n      tag_153\n      tag_58\n      jump\t// in\n    tag_153:\n        /* \"#utility.yul\":7136:7220   */\n    tag_152:\n        /* \"#utility.yul\":6957:7226   */\n      pop\n        /* \"#utility.yul\":6906:7226   */\n      swap2\n      swap1\n      pop\n      jump\t// out\n        /* \"#utility.yul\":7232:7373   */\n    tag_59:\n        /* \"#utility.yul\":7281:7285   */\n      0x00\n        /* \"#utility.yul\":7304:7307   */\n      dup2\n        /* \"#utility.yul\":7296:7307   */\n      swap1\n      pop\n        /* \"#utility.yul\":7327:7330   */\n      dup2\n        /* \"#utility.yul\":7324:7325   */\n      0x00\n        /* \"#utility.yul\":7317:7331   */\n      mstore\n        /* \"#utility.yul\":7361:7365   */\n      0x20\n        /* \"#utility.yul\":7358:7359   */\n      0x00\n        /* \"#utility.yul\":7348:7366   */\n      keccak256\n        /* \"#utility.yul\":7340:7366   */\n      swap1\n      pop\n        /* \"#utility.yul\":7232:7373   */\n      swap2\n      swap1\n      pop\n      jump\t// out\n        /* \"#utility.yul\":7379:7472   */\n    tag_60:\n        /* \"#utility.yul\":7416:7422   */\n      0x00\n        /* \"#utility.yul\":7463:7465   */\n      0x20\n        /* \"#utility.yul\":7458:7460   */\n      0x1f\n        /* \"#utility.yul\":7451:7456   */\n      dup4\n        /* \"#utility.yul\":7447:7461   */\n      add\n        /* \"#utility.yul\":7443:7466   */\n      div\n        /* \"#utility.yul\":7433:7466   */\n      swap1\n      pop\n        /* \"#utility.yul\":7379:7472   */\n      swap2\n      swap1\n      pop\n      jump\t// out\n        /* \"#utility.yul\":7478:7585   */\n    tag_61:\n        /* \"#utility.yul\":7522:7530   */\n      0x00\n        /* \"#utility.yul\":7572:7577   */\n      dup3\n        /* \"#utility.yul\":7566:7570   */\n      dup3\n        /* \"#utility.yul\":7562:7578   */\n      shl\n        /* \"#utility.yul\":7541:7578   */\n      swap1\n      pop\n        /* \"#utility.yul\":7478:7585   */\n      swap3\n      swap2\n      pop\n      pop\n      jump\t// out\n        /* \"#utility.yul\":7591:7984   */\n    tag_62:\n        /* \"#utility.yul\":7660:7666   */\n      0x00\n        /* \"#utility.yul\":7710:7711   */\n      0x08\n        /* \"#utility.yul\":7698:7708   */\n      dup4\n        /* \"#utility.yul\":7694:7712   */\n      mul\n        /* \"#utility.yul\":7733:7830   */\n      tag_158\n        /* \"#utility.yul\":7763:7829   */\n      0xffffffffffffffffffffffffffffffffffffffffffffffffffffffffffffffff\n        /* \"#utility.yul\":7752:7761   */\n      dup3\n        /* \"#utility.yul\":7733:7830   */\n      tag_61\n      jump\t// in\n    tag_158:\n        /* \"#utility.yul\":7851:7890   */\n      tag_159\n        /* \"#utility.yul\":7881:7889   */\n      dup7\n        /* \"#utility.yul\":7870:7879   */\n      dup4\n        /* \"#utility.yul\":7851:7890   */\n      tag_61\n      jump\t// in\n    tag_159:\n        /* \"#utility.yul\":7839:7890   */\n      swap6\n      pop\n        /* \"#utility.yul\":7923:7927   */\n      dup1\n        /* \"#utility.yul\":7919:7928   */\n      not\n        /* \"#utility.yul\":7912:7917   */\n      dup5\n        /* \"#utility.yul\":7908:7929   */\n      and\n        /* \"#utility.yul\":7899:7929   */\n      swap4\n      pop\n        /* \"#utility.yul\":7972:7976   */\n      dup1\n        /* \"#utility.yul\":7962:7970   */\n      dup7\n        /* \"#utility.yul\":7958:7977   */\n      and\n        /* \"#utility.yul\":7951:7956   */\n      dup5\n        /* \"#utility.yul\":7948:7978   */\n      or\n        /* \"#utility.yul\":7938:7978   */\n      swap3\n      pop\n        /* \"#utility.yul\":7667:7984   */\n      pop\n      pop\n        /* \"#utility.yul\":7591:7984   */\n      swap4\n      swap3\n      pop\n      pop\n      pop\n      jump\t// out\n        /* \"#utility.yul\":7990:8050   */\n    tag_63:\n        /* \"#utility.yul\":8018:8021   */\n      0x00\n        /* \"#utility.yul\":8039:8044   */\n      dup2\n        /* \"#utility.yul\":8032:8044   */\n      swap1\n      pop\n        /* \"#utility.yul\":7990:8050   */\n      swap2\n      swap1\n      pop\n      jump\t// out\n        /* \"#utility.yul\":8056:8198   */\n    tag_64:\n        /* \"#utility.yul\":8106:8115   */\n      0x00\n        /* \"#utility.yul\":8139:8192   */\n      tag_162\n        /* \"#utility.yul\":8157:8191   */\n      tag_163\n        /* \"#utility.yul\":8166:8190   */\n      tag_164\n        /* \"#utility.yul\":8184:8189   */\n      dup5\n        /* \"#utility.yul\":8166:8190   */\n      tag_47\n      jump\t// in\n    tag_164:\n        /* \"#utility.yul\":8157:8191   */\n      tag_63\n      jump\t// in\n    tag_163:\n        /* \"#utility.yul\":8139:8192   */\n      tag_47\n      jump\t// in\n    tag_162:\n        /* \"#utility.yul\":8126:8192   */\n      swap1\n      pop\n        /* \"#utility.yul\":8056:8198   */\n      swap2\n      swap1\n      pop\n      jump\t// out\n        /* \"#utility.yul\":8204:8279   */\n    tag_65:\n        /* \"#utility.yul\":8247:8250   */\n      0x00\n        /* \"#utility.yul\":8268:8273   */\n      dup2\n        /* \"#utility.yul\":8261:8273   */\n      swap1\n      pop\n        /* \"#utility.yul\":8204:8279   */\n      swap2\n      swap1\n      pop\n      jump\t// out\n        /* \"#utility.yul\":8285:8554   */\n    tag_66:\n        /* \"#utility.yul\":8395:8434   */\n      tag_167\n        /* \"#utility.yul\":8426:8433   */\n      dup4\n        /* \"#utility.yul\":8395:8434   */\n      tag_64\n      jump\t// in\n    tag_167:\n        /* \"#utility.yul\":8456:8547   */\n      tag_168\n        /* \"#utility.yul\":8505:8546   */\n      tag_169\n        /* \"#utility.yul\":8529:8545   */\n      dup3\n        /* \"#utility.yul\":8505:8546   */\n      tag_65\n      jump\t// in\n    tag_169:\n        /* \"#utility.yul\":8497:8503   */\n      dup5\n        /* \"#utility.yul\":8490:8494   */\n      dup5\n        /* \"#utility.yul\":8484:8495   */\n      sload\n        /* \"#utility.yul\":8456:8547   */\n      tag_62\n      jump\t// in\n    tag_168:\n        /* \"#utility.yul\":8450:8454   */\n      dup3\n        /* \"#utility.yul\":8443:8548   */\n      sstore\n        /* \"#utility.yul\":8361:8554   */\n      pop\n        /* \"#utility.yul\":8285:8554   */\n      pop\n      pop\n      pop\n      jump\t// out\n        /* \"#utility.yul\":8560:8633   */\n    tag_67:\n        /* \"#utility.yul\":8605:8608   */\n      0x00\n        /* \"#utility.yul\":8560:8633   */\n      swap1\n      jump\t// out\n        /* \"#utility.yul\":8639:8828   */\n    tag_68:\n        /* \"#utility.yul\":8716:8748   */\n      tag_172\n      tag_67\n      jump\t// in\n    tag_172:\n        /* \"#utility.yul\":8757:8822   */\n      tag_173\n        /* \"#utility.yul\":8815:8821   */\n      dup2\n        /* \"#utility.yul\":8807:8813   */\n      dup5\n        /* \"#utility.yul\":8801:8805   */\n      dup5\n        /* \"#utility.yul\":8757:8822   */\n      tag_66\n      jump\t// in\n    tag_173:\n        /* \"#utility.yul\":8692:8828   */\n      pop\n        /* \"#utility.yul\":8639:8828   */\n      pop\n      pop\n      jump\t// out\n        /* \"#utility.yul\":8834:9020   */\n    tag_69:\n        /* \"#utility.yul\":8894:9014   */\n    tag_175:\n        /* \"#utility.yul\":8911:8914   */\n      dup2\n        /* \"#utility.yul\":8904:8909   */\n      dup2\n        /* \"#utility.yul\":8901:8915   */\n      lt\n        /* \"#utility.yul\":8894:9014   */\n      iszero\n      tag_177\n      jumpi\n        /* \"#utility.yul\":8965:9004   */\n      tag_178\n        /* \"#utility.yul\":9002:9003   */\n      0x00\n        /* \"#utility.yul\":8995:9000   */\n      dup3\n        /* \"#utility.yul\":8965:9004   */\n      tag_68\n      jump\t// in\n    tag_178:\n        /* \"#utility.yul\":8938:8939   */\n      0x01\n        /* \"#utility.yul\":8931:8936   */\n      dup2\n        /* \"#utility.yul\":8927:8940   */\n      add\n        /* \"#utility.yul\":8918:8940   */\n      swap1\n      pop\n        /* \"#utility.yul\":8894:9014   */\n      jump(tag_175)\n    tag_177:\n        /* \"#utility.yul\":8834:9020   */\n      pop\n      pop\n      jump\t// out\n        /* \"#utility.yul\":9026:9569   */\n    tag_70:\n        /* \"#utility.yul\":9127:9129   */\n      0x1f\n        /* \"#utility.yul\":9122:9125   */\n      dup3\n        /* \"#utility.yul\":9119:9130   */\n      gt\n        /* \"#utility.yul\":9116:9562   */\n      iszero\n      tag_180\n      jumpi\n        /* \"#utility.yul\":9161:9199   */\n      tag_181\n        /* \"#utility.yul\":9193:9198   */\n      dup2\n        /* \"#utility.yul\":9161:9199   */\n      tag_59\n      jump\t// in\n    tag_181:\n        /* \"#utility.yul\":9245:9274   */\n      tag_182\n        /* \"#utility.yul\":9263:9273   */\n      dup5\n        /* \"#utility.yul\":9245:9274   */\n      tag_60\n      jump\t// in\n    tag_182:\n        /* \"#utility.yul\":9235:9243   */\n      dup2\n        /* \"#utility.yul\":9231:9275   */\n      add\n        /* \"#utility.yul\":9428:9430   */\n      0x20\n        /* \"#utility.yul\":9416:9426   */\n      dup6\n        /* \"#utility.yul\":9413:9431   */\n      lt\n        /* \"#utility.yul\":9410:9459   */\n      iszero\n      tag_183\n      jumpi\n        /* \"#utility.yul\":9449:9457   */\n      dup2\n        /* \"#utility.yul\":9434:9457   */\n      swap1\n      pop\n        /* \"#utility.yul\":9410:9459   */\n    tag_183:\n        /* \"#utility.yul\":9472:9552   */\n      tag_184\n        /* \"#utility.yul\":9528:9550   */\n      tag_185\n        /* \"#utility.yul\":9546:9549   */\n      dup6\n        /* \"#utility.yul\":9528:9550   */\n      tag_60\n      jump\t// in\n    tag_185:\n        /* \"#utility.yul\":9518:9526   */\n      dup4\n        /* \"#utility.yul\":9514:9551   */\n      add\n        /* \"#utility.yul\":9501:9512   */\n      dup3\n        /* \"#utility.yul\":9472:9552   */\n      tag_69\n      jump\t// in\n    tag_184:\n        /* \"#utility.yul\":9131:9562   */\n      pop\n      pop\n        /* \"#utility.yul\":9116:9562   */\n    tag_180:\n        /* \"#utility.yul\":9026:9569   */\n      pop\n      pop\n      pop\n      jump\t// out\n        /* \"#utility.yul\":9575:9692   */\n    tag_71:\n        /* \"#utility.yul\":9629:9637   */\n      0x00\n        /* \"#utility.yul\":9679:9684   */\n      dup3\n        /* \"#utility.yul\":9673:9677   */\n      dup3\n        /* \"#utility.yul\":9669:9685   */\n      shr\n        /* \"#utility.yul\":9648:9685   */\n      swap1\n      pop\n        /* \"#utility.yul\":9575:9692   */\n      swap3\n      swap2\n      pop\n      pop\n      jump\t// out\n        /* \"#utility.yul\":9698:9867   */\n    tag_72:\n        /* \"#utility.yul\":9742:9748   */\n      0x00\n        /* \"#utility.yul\":9775:9826   */\n      tag_188\n        /* \"#utility.yul\":9823:9824   */\n      0x00\n        /* \"#utility.yul\":9819:9825   */\n      not\n        /* \"#utility.yul\":9811:9816   */\n      dup5\n        /* \"#utility.yul\":9808:9809   */\n      0x08\n        /* \"#utility.yul\":9804:9817   */\n      mul\n        /* \"#utility.yul\":9775:9826   */\n      tag_71\n      jump\t// in\n    tag_188:\n        /* \"#utility.yul\":9771:9827   */\n      not\n        /* \"#utility.yul\":9856:9860   */\n      dup1\n        /* \"#utility.yul\":9850:9854   */\n      dup4\n        /* \"#utility.yul\":9846:9861   */\n      and\n        /* \"#utility.yul\":9836:9861   */\n      swap2\n      pop\n        /* \"#utility.yul\":9749:9867   */\n      pop\n        /* \"#utility.yul\":9698:9867   */\n      swap3\n      swap2\n      pop\n      pop\n      jump\t// out\n        /* \"#utility.yul\":9872:10167   */\n    tag_73:\n        /* \"#utility.yul\":9948:9952   */\n      0x00\n        /* \"#utility.yul\":10094:10123   */\n      tag_190\n        /* \"#utility.yul\":10119:10122   */\n      dup4\n        /* \"#utility.yul\":10113:10117   */\n      dup4\n        /* \"#utility.yul\":10094:10123   */\n      tag_72\n      jump\t// in\n    tag_190:\n        /* \"#utility.yul\":10086:10123   */\n      swap2\n      pop\n        /* \"#utility.yul\":10156:10159   */\n      dup3\n        /* \"#utility.yul\":10153:10154   */\n      0x02\n        /* \"#utility.yul\":10149:10160   */\n      mul\n        /* \"#utility.yul\":10143:10147   */\n      dup3\n        /* \"#utility.yul\":10140:10161   */\n      or\n        /* \"#utility.yul\":10132:10161   */\n      swap1\n      pop\n        /* \"#utility.yul\":9872:10167   */\n      swap3\n      swap2\n      pop\n      pop\n      jump\t// out\n        /* \"#utility.yul\":10172:11567   */\n    tag_20:\n        /* \"#utility.yul\":10289:10326   */\n      tag_192\n        /* \"#utility.yul\":10322:10325   */\n      dup3\n        /* \"#utility.yul\":10289:10326   */\n      tag_51\n      jump\t// in\n    tag_192:\n        /* \"#utility.yul\":10391:10409   */\n      0xffffffffffffffff\n        /* \"#utility.yul\":10383:10389   */\n      dup2\n        /* \"#utility.yul\":10380:10410   */\n      gt\n        /* \"#utility.yul\":10377:10433   */\n      iszero\n      tag_193\n      jumpi\n        /* \"#utility.yul\":10413:10431   */\n      tag_194\n      tag_37\n      jump\t// in\n    tag_194:\n        /* \"#utility.yul\":10377:10433   */\n    tag_193:\n        /* \"#utility.yul\":10457:10495   */\n      tag_195\n        /* \"#utility.yul\":10489:10493   */\n      dup3\n        /* \"#utility.yul\":10483:10494   */\n      sload\n        /* \"#utility.yul\":10457:10495   */\n      tag_26\n      jump\t// in\n    tag_195:\n        /* \"#utility.yul\":10542:10609   */\n      tag_196\n        /* \"#utility.yul\":10602:10608   */\n      dup3\n        /* \"#utility.yul\":10594:10600   */\n      dup3\n        /* \"#utility.yul\":10588:10592   */\n      dup6\n        /* \"#utility.yul\":10542:10609   */\n      tag_70\n      jump\t// in\n    tag_196:\n        /* \"#utility.yul\":10636:10637   */\n      0x00\n        /* \"#utility.yul\":10660:10664   */\n      0x20\n        /* \"#utility.yul\":10647:10664   */\n      swap1\n      pop\n        /* \"#utility.yul\":10692:10694   */\n      0x1f\n        /* \"#utility.yul\":10684:10690   */\n      dup4\n        /* \"#utility.yul\":10681:10695   */\n      gt\n        /* \"#utility.yul\":10709:10710   */\n      0x01\n        /* \"#utility.yul\":10704:11322   */\n      dup2\n      eq\n      tag_198\n      jumpi\n        /* \"#utility.yul\":11366:11367   */\n      0x00\n        /* \"#utility.yul\":11383:11389   */\n      dup5\n        /* \"#utility.yul\":11380:11457   */\n      iszero\n      tag_199\n      jumpi\n        /* \"#utility.yul\":11432:11441   */\n      dup3\n        /* \"#utility.yul\":11427:11430   */\n      dup8\n        /* \"#utility.yul\":11423:11442   */\n      add\n        /* \"#utility.yul\":11417:11443   */\n      mload\n        /* \"#utility.yul\":11408:11443   */\n      swap1\n      pop\n        /* \"#utility.yul\":11380:11457   */\n    tag_199:\n        /* \"#utility.yul\":11483:11550   */\n      tag_200\n        /* \"#utility.yul\":11543:11549   */\n      dup6\n        /* \"#utility.yul\":11536:11541   */\n      dup3\n        /* \"#utility.yul\":11483:11550   */\n      tag_73\n      jump\t// in\n    tag_200:\n        /* \"#utility.yul\":11477:11481   */\n      dup7\n        /* \"#utility.yul\":11470:11551   */\n      sstore\n        /* \"#utility.yul\":11339:11561   */\n      pop\n        /* \"#utility.yul\":10674:11561   */\n      jump(tag_197)\n        /* \"#utility.yul\":10704:11322   */\n    tag_198:\n        /* \"#utility.yul\":10756:10760   */\n      0x1f\n        /* \"#utility.yul\":10752:10761   */\n      not\n        /* \"#utility.yul\":10744:10750   */\n      dup5\n        /* \"#utility.yul\":10740:10762   */\n      and\n        /* \"#utility.yul\":10790:10827   */\n      tag_201\n        /* \"#utility.yul\":10822:10826   */\n      dup7\n        /* \"#utility.yul\":10790:10827   */\n      tag_59\n      jump\t// in\n    tag_201:\n        /* \"#utility.yul\":10849:10850   */\n      0x00\n        /* \"#utility.yul\":10863:11071   */\n    tag_202:\n        /* \"#utility.yul\":10877:10884   */\n      dup3\n        /* \"#utility.yul\":10874:10875   */\n      dup2\n        /* \"#utility.yul\":10871:10885   */\n      lt\n        /* \"#utility.yul\":10863:11071   */\n      iszero\n      tag_204\n      jumpi\n        /* \"#utility.yul\":10956:10965   */\n      dup5\n        /* \"#utility.yul\":10951:10954   */\n      dup10\n        /* \"#utility.yul\":10947:10966   */\n      add\n        /* \"#utility.yul\":10941:10967   */\n      mload\n        /* \"#utility.yul\":10933:10939   */\n      dup3\n        /* \"#utility.yul\":10926:10968   */\n      sstore\n        /* \"#utility.yul\":11007:11008   */\n      0x01\n        /* \"#utility.yul\":10999:11005   */\n      dup3\n        /* \"#utility.yul\":10995:11009   */\n      add\n        /* \"#utility.yul\":10985:11009   */\n      swap2\n      pop\n        /* \"#utility.yul\":11054:11056   */\n      0x20\n        /* \"#utility.yul\":11043:11052   */\n      dup6\n        /* \"#utility.yul\":11039:11057   */\n      add\n        /* \"#utility.yul\":11026:11057   */\n      swap5\n      pop\n        /* \"#utility.yul\":10900:10904   */\n      0x20\n        /* \"#utility.yul\":10897:10898   */\n      dup2\n        /* \"#utility.yul\":10893:10905   */\n      add\n        /* \"#utility.yul\":10888:10905   */\n      swap1\n      pop\n        /* \"#utility.yul\":10863:11071   */\n      jump(tag_202)\n    tag_204:\n        /* \"#utility.yul\":11099:11105   */\n      dup7\n        /* \"#utility.yul\":11090:11097   */\n      dup4\n        /* \"#utility.yul\":11087:11106   */\n      lt\n        /* \"#utility.yul\":11084:11263   */\n      iszero\n      tag_205\n      jumpi\n        /* \"#utility.yul\":11157:11166   */\n      dup5\n        /* \"#utility.yul\":11152:11155   */\n      dup10\n        /* \"#utility.yul\":11148:11167   */\n      add\n        /* \"#utility.yul\":11142:11168   */\n      mload\n        /* \"#utility.yul\":11200:11248   */\n      tag_206\n        /* \"#utility.yul\":11242:11246   */\n      0x1f\n        /* \"#utility.yul\":11234:11240   */\n      dup10\n        /* \"#utility.yul\":11230:11247   */\n      and\n        /* \"#utility.yul\":11219:11228   */\n      dup3\n        /* \"#utility.yul\":11200:11248   */\n      tag_72\n      jump\t// in\n    tag_206:\n        /* \"#utility.yul\":11192:11198   */\n      dup4\n        /* \"#utility.yul\":11185:11249   */\n      sstore\n        /* \"#utility.yul\":11107:11263   */\n      pop\n        /* \"#utility.yul\":11084:11263   */\n    tag_205:\n        /* \"#utility.yul\":11309:11310   */\n      0x01\n        /* \"#utility.yul\":11305:11306   */\n      0x02\n        /* \"#utility.yul\":11297:11303   */\n      dup9\n        /* \"#utility.yul\":11293:11307   */\n      mul\n        /* \"#utility.yul\":11289:11311   */\n      add\n        /* \"#utility.yul\":11283:11287   */\n      dup9\n        /* \"#utility.yul\":11276:11312   */\n      sstore\n        /* \"#utility.yul\":10711:11322   */\n      pop\n      pop\n      pop\n        /* \"#utility.yul\":10674:11561   */\n    tag_197:\n      pop\n        /* \"#utility.yul\":10264:11567   */\n      pop\n      pop\n      pop\n        /* \"#utility.yul\":10172:11567   */\n      pop\n      pop\n      jump\t// out\n\n    auxdata: 0xa2646970667358221220515f41d4f30818e1a21dcc80eb62cc22352a86e9912821c003f117fb6630350564736f6c63430008160033\n}\n",
				"bytecode": {
					"linkReferences": {},
					"object": "608060405234801561000f575f80fd5b506108438061001d5f395ff3fe608060405234801561000f575f80fd5b506004361061003f575f3560e01c806329ec0b2b146100435780636061d5611461005f578063e93314ab1461007d575b5f80fd5b61005d600480360381019061005891906103ab565b61009b565b005b6100676100fe565b6040516100749190610426565b60405180910390f35b610085610109565b6040516100929190610524565b60405180910390f35b60405180606001604052808481526020018315158152602001828152505f80820151815f0190816100cc919061073e565b506020820151816001015f6101000a81548160ff02191690831515021790555060408201518160020155905050505050565b5f8060020154905090565b6101116101d5565b5f6040518060600160405290815f8201805461012c90610571565b80601f016020809104026020016040519081016040528092919081815260200182805461015890610571565b80156101a35780601f1061017a576101008083540402835291602001916101a3565b820191905f5260205f20905b81548152906001019060200180831161018657829003601f168201915b50505050508152602001600182015f9054906101000a900460ff16151515158152602001600282015481525050905090565b6040518060600160405280606081526020015f151581526020015f81525090565b5f604051905090565b5f80fd5b5f80fd5b5f80fd5b5f80fd5b5f601f19601f8301169050919050565b7f4e487b71000000000000000000000000000000000000000000000000000000005f52604160045260245ffd5b6102558261020f565b810181811067ffffffffffffffff821117156102745761027361021f565b5b80604052505050565b5f6102866101f6565b9050610292828261024c565b919050565b5f67ffffffffffffffff8211156102b1576102b061021f565b5b6102ba8261020f565b9050602081019050919050565b828183375f83830152505050565b5f6102e76102e284610297565b61027d565b9050828152602081018484840111156103035761030261020b565b5b61030e8482856102c7565b509392505050565b5f82601f83011261032a57610329610207565b5b813561033a8482602086016102d5565b91505092915050565b5f8115159050919050565b61035781610343565b8114610361575f80fd5b50565b5f813590506103728161034e565b92915050565b5f819050919050565b61038a81610378565b8114610394575f80fd5b50565b5f813590506103a581610381565b92915050565b5f805f606084860312156103c2576103c16101ff565b5b5f84013567ffffffffffffffff8111156103df576103de610203565b5b6103eb86828701610316565b93505060206103fc86828701610364565b925050604061040d86828701610397565b9150509250925092565b61042081610378565b82525050565b5f6020820190506104395f830184610417565b92915050565b5f81519050919050565b5f82825260208201905092915050565b5f5b8381101561047657808201518184015260208101905061045b565b5f8484015250505050565b5f61048b8261043f565b6104958185610449565b93506104a5818560208601610459565b6104ae8161020f565b840191505092915050565b6104c281610343565b82525050565b6104d181610378565b82525050565b5f606083015f8301518482035f8601526104f18282610481565b915050602083015161050660208601826104b9565b50604083015161051960408601826104c8565b508091505092915050565b5f6020820190508181035f83015261053c81846104d7565b905092915050565b7f4e487b71000000000000000000000000000000000000000000000000000000005f52602260045260245ffd5b5f600282049050600182168061058857607f821691505b60208210810361059b5761059a610544565b5b50919050565b5f819050815f5260205f209050919050565b5f6020601f8301049050919050565b5f82821b905092915050565b5f600883026105fd7fffffffffffffffffffffffffffffffffffffffffffffffffffffffffffffffff826105c2565b61060786836105c2565b95508019841693508086168417925050509392505050565b5f819050919050565b5f61064261063d61063884610378565b61061f565b610378565b9050919050565b5f819050919050565b61065b83610628565b61066f61066782610649565b8484546105ce565b825550505050565b5f90565b610683610677565b61068e818484610652565b505050565b5b818110156106b1576106a65f8261067b565b600181019050610694565b5050565b601f8211156106f6576106c7816105a1565b6106d0846105b3565b810160208510156106df578190505b6106f36106eb856105b3565b830182610693565b50505b505050565b5f82821c905092915050565b5f6107165f19846008026106fb565b1980831691505092915050565b5f61072e8383610707565b9150826002028217905092915050565b6107478261043f565b67ffffffffffffffff8111156107605761075f61021f565b5b61076a8254610571565b6107758282856106b5565b5f60209050601f8311600181146107a6575f8415610794578287015190505b61079e8582610723565b865550610805565b601f1984166107b4866105a1565b5f5b828110156107db578489015182556001820191506020850194506020810190506107b6565b868310156107f857848901516107f4601f891682610707565b8355505b6001600288020188555050505b50505050505056fea2646970667358221220515f41d4f30818e1a21dcc80eb62cc22352a86e9912821c003f117fb6630350564736f6c63430008160033",
					"opcodes": "PUSH1 0x80 PUSH1 0x40 MSTORE CALLVALUE DUP1 ISZERO PUSH2 0xF JUMPI PUSH0 DUP1 REVERT JUMPDEST POP PUSH2 0x843 DUP1 PUSH2 0x1D PUSH0 CODECOPY PUSH0 RETURN INVALID PUSH1 0x80 PUSH1 0x40 MSTORE CALLVALUE DUP1 ISZERO PUSH2 0xF JUMPI PUSH0 DUP1 REVERT JUMPDEST POP PUSH1 0x4 CALLDATASIZE LT PUSH2 0x3F JUMPI PUSH0 CALLDATALOAD PUSH1 0xE0 SHR DUP1 PUSH4 0x29EC0B2B EQ PUSH2 0x43 JUMPI DUP1 PUSH4 0x6061D561 EQ PUSH2 0x5F JUMPI DUP1 PUSH4 0xE93314AB EQ PUSH2 0x7D JUMPI JUMPDEST PUSH0 DUP1 REVERT JUMPDEST PUSH2 0x5D PUSH1 0x4 DUP1 CALLDATASIZE SUB DUP2 ADD SWAP1 PUSH2 0x58 SWAP2 SWAP1 PUSH2 0x3AB JUMP JUMPDEST PUSH2 0x9B JUMP JUMPDEST STOP JUMPDEST PUSH2 0x67 PUSH2 0xFE JUMP JUMPDEST PUSH1 0x40 MLOAD PUSH2 0x74 SWAP2 SWAP1 PUSH2 0x426 JUMP JUMPDEST PUSH1 0x40 MLOAD DUP1 SWAP2 SUB SWAP1 RETURN JUMPDEST PUSH2 0x85 PUSH2 0x109 JUMP JUMPDEST PUSH1 0x40 MLOAD PUSH2 0x92 SWAP2 SWAP1 PUSH2 0x524 JUMP JUMPDEST PUSH1 0x40 MLOAD DUP1 SWAP2 SUB SWAP1 RETURN JUMPDEST PUSH1 0x40 MLOAD DUP1 PUSH1 0x60 ADD PUSH1 0x40 MSTORE DUP1 DUP5 DUP2 MSTORE PUSH1 0x20 ADD DUP4 ISZERO ISZERO DUP2 MSTORE PUSH1 0x20 ADD DUP3 DUP2 MSTORE POP PUSH0 DUP1 DUP3 ADD MLOAD DUP2 PUSH0 ADD SWAP1 DUP2 PUSH2 0xCC SWAP2 SWAP1 PUSH2 0x73E JUMP JUMPDEST POP PUSH1 0x20 DUP3 ADD MLOAD DUP2 PUSH1 0x1 ADD PUSH0 PUSH2 0x100 EXP DUP2 SLOAD DUP2 PUSH1 0xFF MUL NOT AND SWAP1 DUP4 ISZERO ISZERO MUL OR SWAP1 SSTORE POP PUSH1 0x40 DUP3 ADD MLOAD DUP2 PUSH1 0x2 ADD SSTORE SWAP1 POP POP POP POP POP JUMP JUMPDEST PUSH0 DUP1 PUSH1 0x2 ADD SLOAD SWAP1 POP SWAP1 JUMP JUMPDEST PUSH2 0x111 PUSH2 0x1D5 JUMP JUMPDEST PUSH0 PUSH1 0x40 MLOAD DUP1 PUSH1 0x60 ADD PUSH1 0x40 MSTORE SWAP1 DUP2 PUSH0 DUP3 ADD DUP1 SLOAD PUSH2 0x12C SWAP1 PUSH2 0x571 JUMP JUMPDEST DUP1 PUSH1 0x1F ADD PUSH1 0x20 DUP1 SWAP2 DIV MUL PUSH1 0x20 ADD PUSH1 0x40 MLOAD SWAP1 DUP2 ADD PUSH1 0x40 MSTORE DUP1 SWAP3 SWAP2 SWAP1 DUP2 DUP2 MSTORE PUSH1 0x20 ADD DUP3 DUP1 SLOAD PUSH2 0x158 SWAP1 PUSH2 0x571 JUMP JUMPDEST DUP1 ISZERO PUSH2 0x1A3 JUMPI DUP1 PUSH1 0x1F LT PUSH2 0x17A JUMPI PUSH2 0x100 DUP1 DUP4 SLOAD DIV MUL DUP4 MSTORE SWAP2 PUSH1 0x20 ADD SWAP2 PUSH2 0x1A3 JUMP JUMPDEST DUP3 ADD SWAP2 SWAP1 PUSH0 MSTORE PUSH1 0x20 PUSH0 KECCAK256 SWAP1 JUMPDEST DUP2 SLOAD DUP2 MSTORE SWAP1 PUSH1 0x1 ADD SWAP1 PUSH1 0x20 ADD DUP1 DUP4 GT PUSH2 0x186 JUMPI DUP3 SWAP1 SUB PUSH1 0x1F AND DUP3 ADD SWAP2 JUMPDEST POP POP POP POP POP DUP2 MSTORE PUSH1 0x20 ADD PUSH1 0x1 DUP3 ADD PUSH0 SWAP1 SLOAD SWAP1 PUSH2 0x100 EXP SWAP1 DIV PUSH1 0xFF AND ISZERO ISZERO ISZERO ISZERO DUP2 MSTORE PUSH1 0x20 ADD PUSH1 0x2 DUP3 ADD SLOAD DUP2 MSTORE POP POP SWAP1 POP SWAP1 JUMP JUMPDEST PUSH1 0x40 MLOAD DUP1 PUSH1 0x60 ADD PUSH1 0x40 MSTORE DUP1 PUSH1 0x60 DUP2 MSTORE PUSH1 0x20 ADD PUSH0 ISZERO ISZERO DUP2 MSTORE PUSH1 0x20 ADD PUSH0 DUP2 MSTORE POP SWAP1 JUMP JUMPDEST PUSH0 PUSH1 0x40 MLOAD SWAP1 POP SWAP1 JUMP JUMPDEST PUSH0 DUP1 REVERT JUMPDEST PUSH0 DUP1 REVERT JUMPDEST PUSH0 DUP1 REVERT JUMPDEST PUSH0 DUP1 REVERT JUMPDEST PUSH0 PUSH1 0x1F NOT PUSH1 0x1F DUP4 ADD AND SWAP1 POP SWAP2 SWAP1 POP JUMP JUMPDEST PUSH32 0x4E487B7100000000000000000000000000000000000000000000000000000000 PUSH0 MSTORE PUSH1 0x41 PUSH1 0x4 MSTORE PUSH1 0x24 PUSH0 REVERT JUMPDEST PUSH2 0x255 DUP3 PUSH2 0x20F JUMP JUMPDEST DUP2 ADD DUP2 DUP2 LT PUSH8 0xFFFFFFFFFFFFFFFF DUP3 GT OR ISZERO PUSH2 0x274 JUMPI PUSH2 0x273 PUSH2 0x21F JUMP JUMPDEST JUMPDEST DUP1 PUSH1 0x40 MSTORE POP POP POP JUMP JUMPDEST PUSH0 PUSH2 0x286 PUSH2 0x1F6 JUMP JUMPDEST SWAP1 POP PUSH2 0x292 DUP3 DUP3 PUSH2 0x24C JUMP JUMPDEST SWAP2 SWAP1 POP JUMP JUMPDEST PUSH0 PUSH8 0xFFFFFFFFFFFFFFFF DUP3 GT ISZERO PUSH2 0x2B1 JUMPI PUSH2 0x2B0 PUSH2 0x21F JUMP JUMPDEST JUMPDEST PUSH2 0x2BA DUP3 PUSH2 0x20F JUMP JUMPDEST SWAP1 POP PUSH1 0x20 DUP2 ADD SWAP1 POP SWAP2 SWAP1 POP JUMP JUMPDEST DUP3 DUP2 DUP4 CALLDATACOPY PUSH0 DUP4 DUP4 ADD MSTORE POP POP POP JUMP JUMPDEST PUSH0 PUSH2 0x2E7 PUSH2 0x2E2 DUP5 PUSH2 0x297 JUMP JUMPDEST PUSH2 0x27D JUMP JUMPDEST SWAP1 POP DUP3 DUP2 MSTORE PUSH1 0x20 DUP2 ADD DUP5 DUP5 DUP5 ADD GT ISZERO PUSH2 0x303 JUMPI PUSH2 0x302 PUSH2 0x20B JUMP JUMPDEST JUMPDEST PUSH2 0x30E DUP5 DUP3 DUP6 PUSH2 0x2C7 JUMP JUMPDEST POP SWAP4 SWAP3 POP POP POP JUMP JUMPDEST PUSH0 DUP3 PUSH1 0x1F DUP4 ADD SLT PUSH2 0x32A JUMPI PUSH2 0x329 PUSH2 0x207 JUMP JUMPDEST JUMPDEST DUP2 CALLDATALOAD PUSH2 0x33A DUP5 DUP3 PUSH1 0x20 DUP7 ADD PUSH2 0x2D5 JUMP JUMPDEST SWAP2 POP POP SWAP3 SWAP2 POP POP JUMP JUMPDEST PUSH0 DUP2 ISZERO ISZERO SWAP1 POP SWAP2 SWAP1 POP JUMP JUMPDEST PUSH2 0x357 DUP2 PUSH2 0x343 JUMP JUMPDEST DUP2 EQ PUSH2 0x361 JUMPI PUSH0 DUP1 REVERT JUMPDEST POP JUMP JUMPDEST PUSH0 DUP2 CALLDATALOAD SWAP1 POP PUSH2 0x372 DUP2 PUSH2 0x34E JUMP JUMPDEST SWAP3 SWAP2 POP POP JUMP JUMPDEST PUSH0 DUP2 SWAP1 POP SWAP2 SWAP1 POP JUMP JUMPDEST PUSH2 0x38A DUP2 PUSH2 0x378 JUMP JUMPDEST DUP2 EQ PUSH2 0x394 JUMPI PUSH0 DUP1 REVERT JUMPDEST POP JUMP JUMPDEST PUSH0 DUP2 CALLDATALOAD SWAP1 POP PUSH2 0x3A5 DUP2 PUSH2 0x381 JUMP JUMPDEST SWAP3 SWAP2 POP POP JUMP JUMPDEST PUSH0 DUP1 PUSH0 PUSH1 0x60 DUP5 DUP7 SUB SLT ISZERO PUSH2 0x3C2 JUMPI PUSH2 0x3C1 PUSH2 0x1FF JUMP JUMPDEST JUMPDEST PUSH0 DUP5 ADD CALLDATALOAD PUSH8 0xFFFFFFFFFFFFFFFF DUP2 GT ISZERO PUSH2 0x3DF JUMPI PUSH2 0x3DE PUSH2 0x203 JUMP JUMPDEST JUMPDEST PUSH2 0x3EB DUP7 DUP3 DUP8 ADD PUSH2 0x316 JUMP JUMPDEST SWAP4 POP POP PUSH1 0x20 PUSH2 0x3FC DUP7 DUP3 DUP8 ADD PUSH2 0x364 JUMP JUMPDEST SWAP3 POP POP PUSH1 0x40 PUSH2 0x40D DUP7 DUP3 DUP8 ADD PUSH2 0x397 JUMP JUMPDEST SWAP2 POP POP SWAP3 POP SWAP3 POP SWAP3 JUMP JUMPDEST PUSH2 0x420 DUP2 PUSH2 0x378 JUMP JUMPDEST DUP3 MSTORE POP POP JUMP JUMPDEST PUSH0 PUSH1 0x20 DUP3 ADD SWAP1 POP PUSH2 0x439 PUSH0 DUP4 ADD DUP5 PUSH2 0x417 JUMP JUMPDEST SWAP3 SWAP2 POP POP JUMP JUMPDEST PUSH0 DUP2 MLOAD SWAP1 POP SWAP2 SWAP1 POP JUMP JUMPDEST PUSH0 DUP3 DUP3 MSTORE PUSH1 0x20 DUP3 ADD SWAP1 POP SWAP3 SWAP2 POP POP JUMP JUMPDEST PUSH0 JUMPDEST DUP4 DUP2 LT ISZERO PUSH2 0x476 JUMPI DUP1 DUP3 ADD MLOAD DUP2 DUP5 ADD MSTORE PUSH1 0x20 DUP2 ADD SWAP1 POP PUSH2 0x45B JUMP JUMPDEST PUSH0 DUP5 DUP5 ADD MSTORE POP POP POP POP JUMP JUMPDEST PUSH0 PUSH2 0x48B DUP3 PUSH2 0x43F JUMP JUMPDEST PUSH2 0x495 DUP2 DUP6 PUSH2 0x449 JUMP JUMPDEST SWAP4 POP PUSH2 0x4A5 DUP2 DUP6 PUSH1 0x20 DUP7 ADD PUSH2 0x459 JUMP JUMPDEST PUSH2 0x4AE DUP2 PUSH2 0x20F JUMP JUMPDEST DUP5 ADD SWAP2 POP POP SWAP3 SWAP2 POP POP JUMP JUMPDEST PUSH2 0x4C2 DUP2 PUSH2 0x343 JUMP JUMPDEST DUP3 MSTORE POP POP JUMP JUMPDEST PUSH2 0x4D1 DUP2 PUSH2 0x378 JUMP JUMPDEST DUP3 MSTORE POP POP JUMP JUMPDEST PUSH0 PUSH1 0x60 DUP4 ADD PUSH0 DUP4 ADD MLOAD DUP5 DUP3 SUB PUSH0 DUP7 ADD MSTORE PUSH2 0x4F1 DUP3 DUP3 PUSH2 0x481 JUMP JUMPDEST SWAP2 POP POP PUSH1 0x20 DUP4 ADD MLOAD PUSH2 0x506 PUSH1 0x20 DUP7 ADD DUP3 PUSH2 0x4B9 JUMP JUMPDEST POP PUSH1 0x40 DUP4 ADD MLOAD PUSH2 0x519 PUSH1 0x40 DUP7 ADD DUP3 PUSH2 0x4C8 JUMP JUMPDEST POP DUP1 SWAP2 POP POP SWAP3 SWAP2 POP POP JUMP JUMPDEST PUSH0 PUSH1 0x20 DUP3 ADD SWAP1 POP DUP2 DUP2 SUB PUSH0 DUP4 ADD MSTORE PUSH2 0x53C DUP2 DUP5 PUSH2 0x4D7 JUMP JUMPDEST SWAP1 POP SWAP3 SWAP2 POP POP JUMP JUMPDEST PUSH32 0x4E487B7100000000000000000000000000000000000000000000000000000000 PUSH0 MSTORE PUSH1 0x22 PUSH1 0x4 MSTORE PUSH1 0x24 PUSH0 REVERT JUMPDEST PUSH0 PUSH1 0x2 DUP3 DIV SWAP1 POP PUSH1 0x1 DUP3 AND DUP1 PUSH2 0x588 JUMPI PUSH1 0x7F DUP3 AND SWAP2 POP JUMPDEST PUSH1 0x20 DUP3 LT DUP2 SUB PUSH2 0x59B JUMPI PUSH2 0x59A PUSH2 0x544 JUMP JUMPDEST JUMPDEST POP SWAP2 SWAP1 POP JUMP JUMPDEST PUSH0 DUP2 SWAP1 POP DUP2 PUSH0 MSTORE PUSH1 0x20 PUSH0 KECCAK256 SWAP1 POP SWAP2 SWAP1 POP JUMP JUMPDEST PUSH0 PUSH1 0x20 PUSH1 0x1F DUP4 ADD DIV SWAP1 POP SWAP2 SWAP1 POP JUMP JUMPDEST PUSH0 DUP3 DUP3 SHL SWAP1 POP SWAP3 SWAP2 POP POP JUMP JUMPDEST PUSH0 PUSH1 0x8 DUP4 MUL PUSH2 0x5FD PUSH32 0xFFFFFFFFFFFFFFFFFFFFFFFFFFFFFFFFFFFFFFFFFFFFFFFFFFFFFFFFFFFFFFFF DUP3 PUSH2 0x5C2 JUMP JUMPDEST PUSH2 0x607 DUP7 DUP4 PUSH2 0x5C2 JUMP JUMPDEST SWAP6 POP DUP1 NOT DUP5 AND SWAP4 POP DUP1 DUP7 AND DUP5 OR SWAP3 POP POP POP SWAP4 SWAP3 POP POP POP JUMP JUMPDEST PUSH0 DUP2 SWAP1 POP SWAP2 SWAP1 POP JUMP JUMPDEST PUSH0 PUSH2 0x642 PUSH2 0x63D PUSH2 0x638 DUP5 PUSH2 0x378 JUMP JUMPDEST PUSH2 0x61F JUMP JUMPDEST PUSH2 0x378 JUMP JUMPDEST SWAP1 POP SWAP2 SWAP1 POP JUMP JUMPDEST PUSH0 DUP2 SWAP1 POP SWAP2 SWAP1 POP JUMP JUMPDEST PUSH2 0x65B DUP4 PUSH2 0x628 JUMP JUMPDEST PUSH2 0x66F PUSH2 0x667 DUP3 PUSH2 0x649 JUMP JUMPDEST DUP5 DUP5 SLOAD PUSH2 0x5CE JUMP JUMPDEST DUP3 SSTORE POP POP POP POP JUMP JUMPDEST PUSH0 SWAP1 JUMP JUMPDEST PUSH2 0x683 PUSH2 0x677 JUMP JUMPDEST PUSH2 0x68E DUP2 DUP5 DUP5 PUSH2 0x652 JUMP JUMPDEST POP POP POP JUMP JUMPDEST JUMPDEST DUP2 DUP2 LT ISZERO PUSH2 0x6B1 JUMPI PUSH2 0x6A6 PUSH0 DUP3 PUSH2 0x67B JUMP JUMPDEST PUSH1 0x1 DUP2 ADD SWAP1 POP PUSH2 0x694 JUMP JUMPDEST POP POP JUMP JUMPDEST PUSH1 0x1F DUP3 GT ISZERO PUSH2 0x6F6 JUMPI PUSH2 0x6C7 DUP2 PUSH2 0x5A1 JUMP JUMPDEST PUSH2 0x6D0 DUP5 PUSH2 0x5B3 JUMP JUMPDEST DUP2 ADD PUSH1 0x20 DUP6 LT ISZERO PUSH2 0x6DF JUMPI DUP2 SWAP1 POP JUMPDEST PUSH2 0x6F3 PUSH2 0x6EB DUP6 PUSH2 0x5B3 JUMP JUMPDEST DUP4 ADD DUP3 PUSH2 0x693 JUMP JUMPDEST POP POP JUMPDEST POP POP POP JUMP JUMPDEST PUSH0 DUP3 DUP3 SHR SWAP1 POP SWAP3 SWAP2 POP POP JUMP JUMPDEST PUSH0 PUSH2 0x716 PUSH0 NOT DUP5 PUSH1 0x8 MUL PUSH2 0x6FB JUMP JUMPDEST NOT DUP1 DUP4 AND SWAP2 POP POP SWAP3 SWAP2 POP POP JUMP JUMPDEST PUSH0 PUSH2 0x72E DUP4 DUP4 PUSH2 0x707 JUMP JUMPDEST SWAP2 POP DUP3 PUSH1 0x2 MUL DUP3 OR SWAP1 POP SWAP3 SWAP2 POP POP JUMP JUMPDEST PUSH2 0x747 DUP3 PUSH2 0x43F JUMP JUMPDEST PUSH8 0xFFFFFFFFFFFFFFFF DUP2 GT ISZERO PUSH2 0x760 JUMPI PUSH2 0x75F PUSH2 0x21F JUMP JUMPDEST JUMPDEST PUSH2 0x76A DUP3 SLOAD PUSH2 0x571 JUMP JUMPDEST PUSH2 0x775 DUP3 DUP3 DUP6 PUSH2 0x6B5 JUMP JUMPDEST PUSH0 PUSH1 0x20 SWAP1 POP PUSH1 0x1F DUP4 GT PUSH1 0x1 DUP2 EQ PUSH2 0x7A6 JUMPI PUSH0 DUP5 ISZERO PUSH2 0x794 JUMPI DUP3 DUP8 ADD MLOAD SWAP1 POP JUMPDEST PUSH2 0x79E DUP6 DUP3 PUSH2 0x723 JUMP JUMPDEST DUP7 SSTORE POP PUSH2 0x805 JUMP JUMPDEST PUSH1 0x1F NOT DUP5 AND PUSH2 0x7B4 DUP7 PUSH2 0x5A1 JUMP JUMPDEST PUSH0 JUMPDEST DUP3 DUP2 LT ISZERO PUSH2 0x7DB JUMPI DUP5 DUP10 ADD MLOAD DUP3 SSTORE PUSH1 0x1 DUP3 ADD SWAP2 POP PUSH1 0x20 DUP6 ADD SWAP5 POP PUSH1 0x20 DUP2 ADD SWAP1 POP PUSH2 0x7B6 JUMP JUMPDEST DUP7 DUP4 LT ISZERO PUSH2 0x7F8 JUMPI DUP5 DUP10 ADD MLOAD PUSH2 0x7F4 PUSH1 0x1F DUP10 AND DUP3 PUSH2 0x707 JUMP JUMPDEST DUP4 SSTORE POP JUMPDEST PUSH1 0x1 PUSH1 0x2 DUP9 MUL ADD DUP9 SSTORE POP POP POP JUMPDEST POP POP POP POP POP POP JUMP INVALID LOG2 PUSH5 0x6970667358 0x22 SLT KECCAK256 MLOAD PUSH0 COINBASE 0xD4 RETURN ADDMOD XOR 0xE1 LOG2 SAR 0xCC DUP1 0xEB PUSH3 0xCC2235 0x2A DUP7 0xE9 SWAP2 0x28 0x21 0xC0 SUB CALL OR 0xFB PUSH7 0x30350564736F6C PUSH4 0x43000816 STOP CALLER "
				},
				"gasEstimates": {
					"creation": {
						"codeDepositCost": "423000",
						"executionCost": "459",
						"totalCost": "423459"
					},
					"external": {
						"getS()": "infinite",
						"getSS()": "2438",
						"setS(string,bool,uint256)": "infinite"
					}
				},
				"methodIdentifiers": {
					"getS()": "e93314ab",
					"getSS()": "6061d561",
					"setS(string,bool,uint256)": "29ec0b2b"
				}
			},
			"storageLayout": {
				"storage": [
					{
						"astId": 11,
						"contract": "contracts/struct.sol:STRUCT",
						"label": "s",
						"offset": 0,
						"slot": "0",
						"type": "t_struct(Student)8_storage"
					}
				],
				"types": {
					"t_bool": {
						"encoding": "inplace",
						"label": "bool",
						"numberOfBytes": "1"
					},
					"t_string_storage": {
						"encoding": "bytes",
						"label": "string",
						"numberOfBytes": "32"
					},
					"t_struct(Student)8_storage": {
						"encoding": "inplace",
						"label": "struct STRUCT.Student",
						"members": [
							{
								"astId": 3,
								"contract": "contracts/struct.sol:STRUCT",
								"label": "name",
								"offset": 0,
								"slot": "0",
								"type": "t_string_storage"
							},
							{
								"astId": 5,
								"contract": "contracts/struct.sol:STRUCT",
								"label": "isMale",
								"offset": 0,
								"slot": "1",
								"type": "t_bool"
							},
							{
								"astId": 7,
								"contract": "contracts/struct.sol:STRUCT",
								"label": "number",
								"offset": 0,
								"slot": "2",
								"type": "t_uint256"
							}
						],
						"numberOfBytes": "96"
					},
					"t_uint256": {
						"encoding": "inplace",
						"label": "uint256",
						"numberOfBytes": "32"
					}
				}
			},
			"userdoc": {
				"kind": "user",
				"methods": {},
				"version": 1
			}
		}
	}
}