{
	"contracts/basic2.sol": {
		"BASIC2": {
			"abi": [
				{
					"inputs": [
						{
							"internalType": "uint256",
							"name": "_a",
							"type": "uint256"
						},
						{
							"internalType": "uint256",
							"name": "_b",
							"type": "uint256"
						}
					],
					"name": "add",
					"outputs": [
						{
							"internalType": "uint256",
							"name": "",
							"type": "uint256"
						}
					],
					"stateMutability": "pure",
					"type": "function"
				},
				{
					"inputs": [
						{
							"internalType": "uint256",
							"name": "_a",
							"type": "uint256"
						},
						{
							"internalType": "uint256",
							"name": "_b",
							"type": "uint256"
						}
					],
					"name": "div",
					"outputs": [
						{
							"internalType": "uint256",
							"name": "",
							"type": "uint256"
						}
					],
					"stateMutability": "pure",
					"type": "function"
				},
				{
					"inputs": [
						{
							"internalType": "uint256",
							"name": "_a",
							"type": "uint256"
						},
						{
							"internalType": "uint256",
							"name": "_b",
							"type": "uint256"
						}
					],
					"name": "div2",
					"outputs": [
						{
							"internalType": "uint256",
							"name": "",
							"type": "uint256"
						}
					],
					"stateMutability": "pure",
					"type": "function"
				},
				{
					"inputs": [
						{
							"internalType": "uint256",
							"name": "_a",
							"type": "uint256"
						},
						{
							"internalType": "uint256",
							"name": "_b",
							"type": "uint256"
						}
					],
					"name": "multiply",
					"outputs": [
						{
							"internalType": "uint256",
							"name": "",
							"type": "uint256"
						}
					],
					"stateMutability": "pure",
					"type": "function"
				},
				{
					"inputs": [
						{
							"internalType": "uint256",
							"name": "_a",
							"type": "uint256"
						},
						{
							"internalType": "uint256",
							"name": "_b",
							"type": "uint256"
						}
					],
					"name": "sub",
					"outputs": [
						{
							"internalType": "uint256",
							"name": "",
							"type": "uint256"
						}
					],
					"stateMutability": "pure",
					"type": "function"
				},
				{
					"inputs": [
						{
							"internalType": "int256",
							"name": "_a",
							"type": "int256"
						},
						{
							"internalType": "int256",
							"name": "_b",
							"type": "int256"
						}
					],
					"name": "sub2",
					"outputs": [
						{
							"internalType": "int256",
							"name": "",
							"type": "int256"
						}
					],
					"stateMutability": "pure",
					"type": "function"
				}
			],
			"devdoc": {
				"kind": "dev",
				"methods": {},
				"version": 1
			},
			"evm": {
				"assembly": "    /* \"contracts/basic2.sol\":61:893  contract BASIC2 {... */\n  mstore(0x40, 0x80)\n  callvalue\n  dup1\n  iszero\n  tag_1\n  jumpi\n  0x00\n  dup1\n  revert\ntag_1:\n  pop\n  dataSize(sub_0)\n  dup1\n  dataOffset(sub_0)\n  0x00\n  codecopy\n  0x00\n  return\nstop\n\nsub_0: assembly {\n        /* \"contracts/basic2.sol\":61:893  contract BASIC2 {... */\n      mstore(0x40, 0x80)\n      callvalue\n      dup1\n      iszero\n      tag_1\n      jumpi\n      0x00\n      dup1\n      revert\n    tag_1:\n      pop\n      jumpi(tag_2, lt(calldatasize, 0x04))\n      shr(0xe0, calldataload(0x00))\n      dup1\n      0x0cfbf7b5\n      eq\n      tag_3\n      jumpi\n      dup1\n      0x165c4a16\n      eq\n      tag_4\n      jumpi\n      dup1\n      0x771602f7\n      eq\n      tag_5\n      jumpi\n      dup1\n      0xa391c15b\n      eq\n      tag_6\n      jumpi\n      dup1\n      0xb67d77c5\n      eq\n      tag_7\n      jumpi\n      dup1\n      0xef3eeaba\n      eq\n      tag_8\n      jumpi\n    tag_2:\n      0x00\n      dup1\n      revert\n        /* \"contracts/basic2.sol\":804:890  function div2 (uint _a, uint _b)public pure returns(uint){... */\n    tag_3:\n      tag_9\n      0x04\n      dup1\n      calldatasize\n      sub\n      dup2\n      add\n      swap1\n      tag_10\n      swap2\n      swap1\n      tag_11\n      jump\t// in\n    tag_10:\n      tag_12\n      jump\t// in\n    tag_9:\n      mload(0x40)\n      tag_13\n      swap2\n      swap1\n      tag_14\n      jump\t// in\n    tag_13:\n      mload(0x40)\n      dup1\n      swap2\n      sub\n      swap1\n      return\n        /* \"contracts/basic2.sol\":426:519  function multiply (uint _a,uint _b) public pure returns (uint){... */\n    tag_4:\n      tag_15\n      0x04\n      dup1\n      calldatasize\n      sub\n      dup2\n      add\n      swap1\n      tag_16\n      swap2\n      swap1\n      tag_11\n      jump\t// in\n    tag_16:\n      tag_17\n      jump\t// in\n    tag_15:\n      mload(0x40)\n      tag_18\n      swap2\n      swap1\n      tag_14\n      jump\t// in\n    tag_18:\n      mload(0x40)\n      dup1\n      swap2\n      sub\n      swap1\n      return\n        /* \"contracts/basic2.sol\":336:421  function add (uint _a,uint _b) public pure returns(uint){... */\n    tag_5:\n      tag_19\n      0x04\n      dup1\n      calldatasize\n      sub\n      dup2\n      add\n      swap1\n      tag_20\n      swap2\n      swap1\n      tag_11\n      jump\t// in\n    tag_20:\n      tag_21\n      jump\t// in\n    tag_19:\n      mload(0x40)\n      tag_22\n      swap2\n      swap1\n      tag_14\n      jump\t// in\n    tag_22:\n      mload(0x40)\n      dup1\n      swap2\n      sub\n      swap1\n      return\n        /* \"contracts/basic2.sol\":712:799  function div (uint _a, uint _b)public pure returns(uint){... */\n    tag_6:\n      tag_23\n      0x04\n      dup1\n      calldatasize\n      sub\n      dup2\n      add\n      swap1\n      tag_24\n      swap2\n      swap1\n      tag_11\n      jump\t// in\n    tag_24:\n      tag_25\n      jump\t// in\n    tag_23:\n      mload(0x40)\n      tag_26\n      swap2\n      swap1\n      tag_14\n      jump\t// in\n    tag_26:\n      mload(0x40)\n      dup1\n      swap2\n      sub\n      swap1\n      return\n        /* \"contracts/basic2.sol\":524:614  function sub (uint _a , uint _b)public pure returns (uint) {... */\n    tag_7:\n      tag_27\n      0x04\n      dup1\n      calldatasize\n      sub\n      dup2\n      add\n      swap1\n      tag_28\n      swap2\n      swap1\n      tag_11\n      jump\t// in\n    tag_28:\n      tag_29\n      jump\t// in\n    tag_27:\n      mload(0x40)\n      tag_30\n      swap2\n      swap1\n      tag_14\n      jump\t// in\n    tag_30:\n      mload(0x40)\n      dup1\n      swap2\n      sub\n      swap1\n      return\n        /* \"contracts/basic2.sol\":619:707  function sub2 (int _a , int _b)public pure returns(int) {... */\n    tag_8:\n      tag_31\n      0x04\n      dup1\n      calldatasize\n      sub\n      dup2\n      add\n      swap1\n      tag_32\n      swap2\n      swap1\n      tag_33\n      jump\t// in\n    tag_32:\n      tag_34\n      jump\t// in\n    tag_31:\n      mload(0x40)\n      tag_35\n      swap2\n      swap1\n      tag_36\n      jump\t// in\n    tag_35:\n      mload(0x40)\n      dup1\n      swap2\n      sub\n      swap1\n      return\n        /* \"contracts/basic2.sol\":804:890  function div2 (uint _a, uint _b)public pure returns(uint){... */\n    tag_12:\n        /* \"contracts/basic2.sol\":856:860  uint */\n      0x00\n        /* \"contracts/basic2.sol\":881:883  _b */\n      dup2\n        /* \"contracts/basic2.sol\":878:880  _a */\n      dup4\n        /* \"contracts/basic2.sol\":878:883  _a%_b */\n      tag_38\n      swap2\n      swap1\n      tag_39\n      jump\t// in\n    tag_38:\n        /* \"contracts/basic2.sol\":871:883  return _a%_b */\n      swap1\n      pop\n        /* \"contracts/basic2.sol\":804:890  function div2 (uint _a, uint _b)public pure returns(uint){... */\n      swap3\n      swap2\n      pop\n      pop\n      jump\t// out\n        /* \"contracts/basic2.sol\":426:519  function multiply (uint _a,uint _b) public pure returns (uint){... */\n    tag_17:\n        /* \"contracts/basic2.sol\":483:487  uint */\n      0x00\n        /* \"contracts/basic2.sol\":510:512  _b */\n      dup2\n        /* \"contracts/basic2.sol\":505:507  _a */\n      dup4\n        /* \"contracts/basic2.sol\":505:512  _a * _b */\n      tag_41\n      swap2\n      swap1\n      tag_42\n      jump\t// in\n    tag_41:\n        /* \"contracts/basic2.sol\":498:512  return _a * _b */\n      swap1\n      pop\n        /* \"contracts/basic2.sol\":426:519  function multiply (uint _a,uint _b) public pure returns (uint){... */\n      swap3\n      swap2\n      pop\n      pop\n      jump\t// out\n        /* \"contracts/basic2.sol\":336:421  function add (uint _a,uint _b) public pure returns(uint){... */\n    tag_21:\n        /* \"contracts/basic2.sol\":387:391  uint */\n      0x00\n        /* \"contracts/basic2.sol\":412:414  _b */\n      dup2\n        /* \"contracts/basic2.sol\":409:411  _a */\n      dup4\n        /* \"contracts/basic2.sol\":409:414  _a+_b */\n      tag_44\n      swap2\n      swap1\n      tag_45\n      jump\t// in\n    tag_44:\n        /* \"contracts/basic2.sol\":402:414  return _a+_b */\n      swap1\n      pop\n        /* \"contracts/basic2.sol\":336:421  function add (uint _a,uint _b) public pure returns(uint){... */\n      swap3\n      swap2\n      pop\n      pop\n      jump\t// out\n        /* \"contracts/basic2.sol\":712:799  function div (uint _a, uint _b)public pure returns(uint){... */\n    tag_25:\n        /* \"contracts/basic2.sol\":763:767  uint */\n      0x00\n        /* \"contracts/basic2.sol\":790:792  _b */\n      dup2\n        /* \"contracts/basic2.sol\":785:787  _a */\n      dup4\n        /* \"contracts/basic2.sol\":785:792  _a / _b */\n      tag_47\n      swap2\n      swap1\n      tag_48\n      jump\t// in\n    tag_47:\n        /* \"contracts/basic2.sol\":778:792  return _a / _b */\n      swap1\n      pop\n        /* \"contracts/basic2.sol\":712:799  function div (uint _a, uint _b)public pure returns(uint){... */\n      swap3\n      swap2\n      pop\n      pop\n      jump\t// out\n        /* \"contracts/basic2.sol\":524:614  function sub (uint _a , uint _b)public pure returns (uint) {... */\n    tag_29:\n        /* \"contracts/basic2.sol\":577:581  uint */\n      0x00\n        /* \"contracts/basic2.sol\":605:607  _b */\n      dup2\n        /* \"contracts/basic2.sol\":600:602  _a */\n      dup4\n        /* \"contracts/basic2.sol\":600:607  _a - _b */\n      tag_50\n      swap2\n      swap1\n      tag_51\n      jump\t// in\n    tag_50:\n        /* \"contracts/basic2.sol\":593:607  return _a - _b */\n      swap1\n      pop\n        /* \"contracts/basic2.sol\":524:614  function sub (uint _a , uint _b)public pure returns (uint) {... */\n      swap3\n      swap2\n      pop\n      pop\n      jump\t// out\n        /* \"contracts/basic2.sol\":619:707  function sub2 (int _a , int _b)public pure returns(int) {... */\n    tag_34:\n        /* \"contracts/basic2.sol\":670:673  int */\n      0x00\n        /* \"contracts/basic2.sol\":697:699  _b */\n      dup2\n        /* \"contracts/basic2.sol\":692:694  _a */\n      dup4\n        /* \"contracts/basic2.sol\":692:699  _a - _b */\n      tag_53\n      swap2\n      swap1\n      tag_54\n      jump\t// in\n    tag_53:\n        /* \"contracts/basic2.sol\":685:699  return _a - _b */\n      swap1\n      pop\n        /* \"contracts/basic2.sol\":619:707  function sub2 (int _a , int _b)public pure returns(int) {... */\n      swap3\n      swap2\n      pop\n      pop\n      jump\t// out\n        /* \"#utility.yul\":88:205   */\n    tag_56:\n        /* \"#utility.yul\":197:198   */\n      0x00\n        /* \"#utility.yul\":194:195   */\n      dup1\n        /* \"#utility.yul\":187:199   */\n      revert\n        /* \"#utility.yul\":334:411   */\n    tag_58:\n        /* \"#utility.yul\":371:378   */\n      0x00\n        /* \"#utility.yul\":400:405   */\n      dup2\n        /* \"#utility.yul\":389:405   */\n      swap1\n      pop\n        /* \"#utility.yul\":334:411   */\n      swap2\n      swap1\n      pop\n      jump\t// out\n        /* \"#utility.yul\":417:539   */\n    tag_59:\n        /* \"#utility.yul\":490:514   */\n      tag_74\n        /* \"#utility.yul\":508:513   */\n      dup2\n        /* \"#utility.yul\":490:514   */\n      tag_58\n      jump\t// in\n    tag_74:\n        /* \"#utility.yul\":483:488   */\n      dup2\n        /* \"#utility.yul\":480:515   */\n      eq\n        /* \"#utility.yul\":470:533   */\n      tag_75\n      jumpi\n        /* \"#utility.yul\":529:530   */\n      0x00\n        /* \"#utility.yul\":526:527   */\n      dup1\n        /* \"#utility.yul\":519:531   */\n      revert\n        /* \"#utility.yul\":470:533   */\n    tag_75:\n        /* \"#utility.yul\":417:539   */\n      pop\n      jump\t// out\n        /* \"#utility.yul\":545:684   */\n    tag_60:\n        /* \"#utility.yul\":591:596   */\n      0x00\n        /* \"#utility.yul\":629:635   */\n      dup2\n        /* \"#utility.yul\":616:636   */\n      calldataload\n        /* \"#utility.yul\":607:636   */\n      swap1\n      pop\n        /* \"#utility.yul\":645:678   */\n      tag_77\n        /* \"#utility.yul\":672:677   */\n      dup2\n        /* \"#utility.yul\":645:678   */\n      tag_59\n      jump\t// in\n    tag_77:\n        /* \"#utility.yul\":545:684   */\n      swap3\n      swap2\n      pop\n      pop\n      jump\t// out\n        /* \"#utility.yul\":690:1164   */\n    tag_11:\n        /* \"#utility.yul\":758:764   */\n      0x00\n        /* \"#utility.yul\":766:772   */\n      dup1\n        /* \"#utility.yul\":815:817   */\n      0x40\n        /* \"#utility.yul\":803:812   */\n      dup4\n        /* \"#utility.yul\":794:801   */\n      dup6\n        /* \"#utility.yul\":790:813   */\n      sub\n        /* \"#utility.yul\":786:818   */\n      slt\n        /* \"#utility.yul\":783:902   */\n      iszero\n      tag_79\n      jumpi\n        /* \"#utility.yul\":821:900   */\n      tag_80\n      tag_56\n      jump\t// in\n    tag_80:\n        /* \"#utility.yul\":783:902   */\n    tag_79:\n        /* \"#utility.yul\":941:942   */\n      0x00\n        /* \"#utility.yul\":966:1019   */\n      tag_81\n        /* \"#utility.yul\":1011:1018   */\n      dup6\n        /* \"#utility.yul\":1002:1008   */\n      dup3\n        /* \"#utility.yul\":991:1000   */\n      dup7\n        /* \"#utility.yul\":987:1009   */\n      add\n        /* \"#utility.yul\":966:1019   */\n      tag_60\n      jump\t// in\n    tag_81:\n        /* \"#utility.yul\":956:1019   */\n      swap3\n      pop\n        /* \"#utility.yul\":912:1029   */\n      pop\n        /* \"#utility.yul\":1068:1070   */\n      0x20\n        /* \"#utility.yul\":1094:1147   */\n      tag_82\n        /* \"#utility.yul\":1139:1146   */\n      dup6\n        /* \"#utility.yul\":1130:1136   */\n      dup3\n        /* \"#utility.yul\":1119:1128   */\n      dup7\n        /* \"#utility.yul\":1115:1137   */\n      add\n        /* \"#utility.yul\":1094:1147   */\n      tag_60\n      jump\t// in\n    tag_82:\n        /* \"#utility.yul\":1084:1147   */\n      swap2\n      pop\n        /* \"#utility.yul\":1039:1157   */\n      pop\n        /* \"#utility.yul\":690:1164   */\n      swap3\n      pop\n      swap3\n      swap1\n      pop\n      jump\t// out\n        /* \"#utility.yul\":1170:1288   */\n    tag_61:\n        /* \"#utility.yul\":1257:1281   */\n      tag_84\n        /* \"#utility.yul\":1275:1280   */\n      dup2\n        /* \"#utility.yul\":1257:1281   */\n      tag_58\n      jump\t// in\n    tag_84:\n        /* \"#utility.yul\":1252:1255   */\n      dup3\n        /* \"#utility.yul\":1245:1282   */\n      mstore\n        /* \"#utility.yul\":1170:1288   */\n      pop\n      pop\n      jump\t// out\n        /* \"#utility.yul\":1294:1516   */\n    tag_14:\n        /* \"#utility.yul\":1387:1391   */\n      0x00\n        /* \"#utility.yul\":1425:1427   */\n      0x20\n        /* \"#utility.yul\":1414:1423   */\n      dup3\n        /* \"#utility.yul\":1410:1428   */\n      add\n        /* \"#utility.yul\":1402:1428   */\n      swap1\n      pop\n        /* \"#utility.yul\":1438:1509   */\n      tag_86\n        /* \"#utility.yul\":1506:1507   */\n      0x00\n        /* \"#utility.yul\":1495:1504   */\n      dup4\n        /* \"#utility.yul\":1491:1508   */\n      add\n        /* \"#utility.yul\":1482:1488   */\n      dup5\n        /* \"#utility.yul\":1438:1509   */\n      tag_61\n      jump\t// in\n    tag_86:\n        /* \"#utility.yul\":1294:1516   */\n      swap3\n      swap2\n      pop\n      pop\n      jump\t// out\n        /* \"#utility.yul\":1522:1598   */\n    tag_62:\n        /* \"#utility.yul\":1558:1565   */\n      0x00\n        /* \"#utility.yul\":1587:1592   */\n      dup2\n        /* \"#utility.yul\":1576:1592   */\n      swap1\n      pop\n        /* \"#utility.yul\":1522:1598   */\n      swap2\n      swap1\n      pop\n      jump\t// out\n        /* \"#utility.yul\":1604:1724   */\n    tag_63:\n        /* \"#utility.yul\":1676:1699   */\n      tag_89\n        /* \"#utility.yul\":1693:1698   */\n      dup2\n        /* \"#utility.yul\":1676:1699   */\n      tag_62\n      jump\t// in\n    tag_89:\n        /* \"#utility.yul\":1669:1674   */\n      dup2\n        /* \"#utility.yul\":1666:1700   */\n      eq\n        /* \"#utility.yul\":1656:1718   */\n      tag_90\n      jumpi\n        /* \"#utility.yul\":1714:1715   */\n      0x00\n        /* \"#utility.yul\":1711:1712   */\n      dup1\n        /* \"#utility.yul\":1704:1716   */\n      revert\n        /* \"#utility.yul\":1656:1718   */\n    tag_90:\n        /* \"#utility.yul\":1604:1724   */\n      pop\n      jump\t// out\n        /* \"#utility.yul\":1730:1867   */\n    tag_64:\n        /* \"#utility.yul\":1775:1780   */\n      0x00\n        /* \"#utility.yul\":1813:1819   */\n      dup2\n        /* \"#utility.yul\":1800:1820   */\n      calldataload\n        /* \"#utility.yul\":1791:1820   */\n      swap1\n      pop\n        /* \"#utility.yul\":1829:1861   */\n      tag_92\n        /* \"#utility.yul\":1855:1860   */\n      dup2\n        /* \"#utility.yul\":1829:1861   */\n      tag_63\n      jump\t// in\n    tag_92:\n        /* \"#utility.yul\":1730:1867   */\n      swap3\n      swap2\n      pop\n      pop\n      jump\t// out\n        /* \"#utility.yul\":1873:2343   */\n    tag_33:\n        /* \"#utility.yul\":1939:1945   */\n      0x00\n        /* \"#utility.yul\":1947:1953   */\n      dup1\n        /* \"#utility.yul\":1996:1998   */\n      0x40\n        /* \"#utility.yul\":1984:1993   */\n      dup4\n        /* \"#utility.yul\":1975:1982   */\n      dup6\n        /* \"#utility.yul\":1971:1994   */\n      sub\n        /* \"#utility.yul\":1967:1999   */\n      slt\n        /* \"#utility.yul\":1964:2083   */\n      iszero\n      tag_94\n      jumpi\n        /* \"#utility.yul\":2002:2081   */\n      tag_95\n      tag_56\n      jump\t// in\n    tag_95:\n        /* \"#utility.yul\":1964:2083   */\n    tag_94:\n        /* \"#utility.yul\":2122:2123   */\n      0x00\n        /* \"#utility.yul\":2147:2199   */\n      tag_96\n        /* \"#utility.yul\":2191:2198   */\n      dup6\n        /* \"#utility.yul\":2182:2188   */\n      dup3\n        /* \"#utility.yul\":2171:2180   */\n      dup7\n        /* \"#utility.yul\":2167:2189   */\n      add\n        /* \"#utility.yul\":2147:2199   */\n      tag_64\n      jump\t// in\n    tag_96:\n        /* \"#utility.yul\":2137:2199   */\n      swap3\n      pop\n        /* \"#utility.yul\":2093:2209   */\n      pop\n        /* \"#utility.yul\":2248:2250   */\n      0x20\n        /* \"#utility.yul\":2274:2326   */\n      tag_97\n        /* \"#utility.yul\":2318:2325   */\n      dup6\n        /* \"#utility.yul\":2309:2315   */\n      dup3\n        /* \"#utility.yul\":2298:2307   */\n      dup7\n        /* \"#utility.yul\":2294:2316   */\n      add\n        /* \"#utility.yul\":2274:2326   */\n      tag_64\n      jump\t// in\n    tag_97:\n        /* \"#utility.yul\":2264:2326   */\n      swap2\n      pop\n        /* \"#utility.yul\":2219:2336   */\n      pop\n        /* \"#utility.yul\":1873:2343   */\n      swap3\n      pop\n      swap3\n      swap1\n      pop\n      jump\t// out\n        /* \"#utility.yul\":2349:2464   */\n    tag_65:\n        /* \"#utility.yul\":2434:2457   */\n      tag_99\n        /* \"#utility.yul\":2451:2456   */\n      dup2\n        /* \"#utility.yul\":2434:2457   */\n      tag_62\n      jump\t// in\n    tag_99:\n        /* \"#utility.yul\":2429:2432   */\n      dup3\n        /* \"#utility.yul\":2422:2458   */\n      mstore\n        /* \"#utility.yul\":2349:2464   */\n      pop\n      pop\n      jump\t// out\n        /* \"#utility.yul\":2470:2688   */\n    tag_36:\n        /* \"#utility.yul\":2561:2565   */\n      0x00\n        /* \"#utility.yul\":2599:2601   */\n      0x20\n        /* \"#utility.yul\":2588:2597   */\n      dup3\n        /* \"#utility.yul\":2584:2602   */\n      add\n        /* \"#utility.yul\":2576:2602   */\n      swap1\n      pop\n        /* \"#utility.yul\":2612:2681   */\n      tag_101\n        /* \"#utility.yul\":2678:2679   */\n      0x00\n        /* \"#utility.yul\":2667:2676   */\n      dup4\n        /* \"#utility.yul\":2663:2680   */\n      add\n        /* \"#utility.yul\":2654:2660   */\n      dup5\n        /* \"#utility.yul\":2612:2681   */\n      tag_65\n      jump\t// in\n    tag_101:\n        /* \"#utility.yul\":2470:2688   */\n      swap3\n      swap2\n      pop\n      pop\n      jump\t// out\n        /* \"#utility.yul\":2694:2874   */\n    tag_66:\n        /* \"#utility.yul\":2742:2819   */\n      0x4e487b7100000000000000000000000000000000000000000000000000000000\n        /* \"#utility.yul\":2739:2740   */\n      0x00\n        /* \"#utility.yul\":2732:2820   */\n      mstore\n        /* \"#utility.yul\":2839:2843   */\n      0x12\n        /* \"#utility.yul\":2836:2837   */\n      0x04\n        /* \"#utility.yul\":2829:2844   */\n      mstore\n        /* \"#utility.yul\":2863:2867   */\n      0x24\n        /* \"#utility.yul\":2860:2861   */\n      0x00\n        /* \"#utility.yul\":2853:2868   */\n      revert\n        /* \"#utility.yul\":2880:3056   */\n    tag_39:\n        /* \"#utility.yul\":2912:2913   */\n      0x00\n        /* \"#utility.yul\":2929:2949   */\n      tag_104\n        /* \"#utility.yul\":2947:2948   */\n      dup3\n        /* \"#utility.yul\":2929:2949   */\n      tag_58\n      jump\t// in\n    tag_104:\n        /* \"#utility.yul\":2924:2949   */\n      swap2\n      pop\n        /* \"#utility.yul\":2963:2983   */\n      tag_105\n        /* \"#utility.yul\":2981:2982   */\n      dup4\n        /* \"#utility.yul\":2963:2983   */\n      tag_58\n      jump\t// in\n    tag_105:\n        /* \"#utility.yul\":2958:2983   */\n      swap3\n      pop\n        /* \"#utility.yul\":3002:3003   */\n      dup3\n        /* \"#utility.yul\":2992:3027   */\n      tag_106\n      jumpi\n        /* \"#utility.yul\":3007:3025   */\n      tag_107\n      tag_66\n      jump\t// in\n    tag_107:\n        /* \"#utility.yul\":2992:3027   */\n    tag_106:\n        /* \"#utility.yul\":3048:3049   */\n      dup3\n        /* \"#utility.yul\":3045:3046   */\n      dup3\n        /* \"#utility.yul\":3041:3050   */\n      mod\n        /* \"#utility.yul\":3036:3050   */\n      swap1\n      pop\n        /* \"#utility.yul\":2880:3056   */\n      swap3\n      swap2\n      pop\n      pop\n      jump\t// out\n        /* \"#utility.yul\":3062:3242   */\n    tag_67:\n        /* \"#utility.yul\":3110:3187   */\n      0x4e487b7100000000000000000000000000000000000000000000000000000000\n        /* \"#utility.yul\":3107:3108   */\n      0x00\n        /* \"#utility.yul\":3100:3188   */\n      mstore\n        /* \"#utility.yul\":3207:3211   */\n      0x11\n        /* \"#utility.yul\":3204:3205   */\n      0x04\n        /* \"#utility.yul\":3197:3212   */\n      mstore\n        /* \"#utility.yul\":3231:3235   */\n      0x24\n        /* \"#utility.yul\":3228:3229   */\n      0x00\n        /* \"#utility.yul\":3221:3236   */\n      revert\n        /* \"#utility.yul\":3248:3658   */\n    tag_42:\n        /* \"#utility.yul\":3288:3295   */\n      0x00\n        /* \"#utility.yul\":3311:3331   */\n      tag_110\n        /* \"#utility.yul\":3329:3330   */\n      dup3\n        /* \"#utility.yul\":3311:3331   */\n      tag_58\n      jump\t// in\n    tag_110:\n        /* \"#utility.yul\":3306:3331   */\n      swap2\n      pop\n        /* \"#utility.yul\":3345:3365   */\n      tag_111\n        /* \"#utility.yul\":3363:3364   */\n      dup4\n        /* \"#utility.yul\":3345:3365   */\n      tag_58\n      jump\t// in\n    tag_111:\n        /* \"#utility.yul\":3340:3365   */\n      swap3\n      pop\n        /* \"#utility.yul\":3400:3401   */\n      dup3\n        /* \"#utility.yul\":3397:3398   */\n      dup3\n        /* \"#utility.yul\":3393:3402   */\n      mul\n        /* \"#utility.yul\":3422:3452   */\n      tag_112\n        /* \"#utility.yul\":3440:3451   */\n      dup2\n        /* \"#utility.yul\":3422:3452   */\n      tag_58\n      jump\t// in\n    tag_112:\n        /* \"#utility.yul\":3411:3452   */\n      swap2\n      pop\n        /* \"#utility.yul\":3601:3602   */\n      dup3\n        /* \"#utility.yul\":3592:3599   */\n      dup3\n        /* \"#utility.yul\":3588:3603   */\n      div\n        /* \"#utility.yul\":3585:3586   */\n      dup5\n        /* \"#utility.yul\":3582:3604   */\n      eq\n        /* \"#utility.yul\":3562:3563   */\n      dup4\n        /* \"#utility.yul\":3555:3564   */\n      iszero\n        /* \"#utility.yul\":3535:3618   */\n      or\n        /* \"#utility.yul\":3512:3651   */\n      tag_113\n      jumpi\n        /* \"#utility.yul\":3631:3649   */\n      tag_114\n      tag_67\n      jump\t// in\n    tag_114:\n        /* \"#utility.yul\":3512:3651   */\n    tag_113:\n        /* \"#utility.yul\":3296:3658   */\n      pop\n        /* \"#utility.yul\":3248:3658   */\n      swap3\n      swap2\n      pop\n      pop\n      jump\t// out\n        /* \"#utility.yul\":3664:3855   */\n    tag_45:\n        /* \"#utility.yul\":3704:3707   */\n      0x00\n        /* \"#utility.yul\":3723:3743   */\n      tag_116\n        /* \"#utility.yul\":3741:3742   */\n      dup3\n        /* \"#utility.yul\":3723:3743   */\n      tag_58\n      jump\t// in\n    tag_116:\n        /* \"#utility.yul\":3718:3743   */\n      swap2\n      pop\n        /* \"#utility.yul\":3757:3777   */\n      tag_117\n        /* \"#utility.yul\":3775:3776   */\n      dup4\n        /* \"#utility.yul\":3757:3777   */\n      tag_58\n      jump\t// in\n    tag_117:\n        /* \"#utility.yul\":3752:3777   */\n      swap3\n      pop\n        /* \"#utility.yul\":3800:3801   */\n      dup3\n        /* \"#utility.yul\":3797:3798   */\n      dup3\n        /* \"#utility.yul\":3793:3802   */\n      add\n        /* \"#utility.yul\":3786:3802   */\n      swap1\n      pop\n        /* \"#utility.yul\":3821:3824   */\n      dup1\n        /* \"#utility.yul\":3818:3819   */\n      dup3\n        /* \"#utility.yul\":3815:3825   */\n      gt\n        /* \"#utility.yul\":3812:3848   */\n      iszero\n      tag_118\n      jumpi\n        /* \"#utility.yul\":3828:3846   */\n      tag_119\n      tag_67\n      jump\t// in\n    tag_119:\n        /* \"#utility.yul\":3812:3848   */\n    tag_118:\n        /* \"#utility.yul\":3664:3855   */\n      swap3\n      swap2\n      pop\n      pop\n      jump\t// out\n        /* \"#utility.yul\":3861:4046   */\n    tag_48:\n        /* \"#utility.yul\":3901:3902   */\n      0x00\n        /* \"#utility.yul\":3918:3938   */\n      tag_121\n        /* \"#utility.yul\":3936:3937   */\n      dup3\n        /* \"#utility.yul\":3918:3938   */\n      tag_58\n      jump\t// in\n    tag_121:\n        /* \"#utility.yul\":3913:3938   */\n      swap2\n      pop\n        /* \"#utility.yul\":3952:3972   */\n      tag_122\n        /* \"#utility.yul\":3970:3971   */\n      dup4\n        /* \"#utility.yul\":3952:3972   */\n      tag_58\n      jump\t// in\n    tag_122:\n        /* \"#utility.yul\":3947:3972   */\n      swap3\n      pop\n        /* \"#utility.yul\":3991:3992   */\n      dup3\n        /* \"#utility.yul\":3981:4016   */\n      tag_123\n      jumpi\n        /* \"#utility.yul\":3996:4014   */\n      tag_124\n      tag_66\n      jump\t// in\n    tag_124:\n        /* \"#utility.yul\":3981:4016   */\n    tag_123:\n        /* \"#utility.yul\":4038:4039   */\n      dup3\n        /* \"#utility.yul\":4035:4036   */\n      dup3\n        /* \"#utility.yul\":4031:4040   */\n      div\n        /* \"#utility.yul\":4026:4040   */\n      swap1\n      pop\n        /* \"#utility.yul\":3861:4046   */\n      swap3\n      swap2\n      pop\n      pop\n      jump\t// out\n        /* \"#utility.yul\":4052:4246   */\n    tag_51:\n        /* \"#utility.yul\":4092:4096   */\n      0x00\n        /* \"#utility.yul\":4112:4132   */\n      tag_126\n        /* \"#utility.yul\":4130:4131   */\n      dup3\n        /* \"#utility.yul\":4112:4132   */\n      tag_58\n      jump\t// in\n    tag_126:\n        /* \"#utility.yul\":4107:4132   */\n      swap2\n      pop\n        /* \"#utility.yul\":4146:4166   */\n      tag_127\n        /* \"#utility.yul\":4164:4165   */\n      dup4\n        /* \"#utility.yul\":4146:4166   */\n      tag_58\n      jump\t// in\n    tag_127:\n        /* \"#utility.yul\":4141:4166   */\n      swap3\n      pop\n        /* \"#utility.yul\":4190:4191   */\n      dup3\n        /* \"#utility.yul\":4187:4188   */\n      dup3\n        /* \"#utility.yul\":4183:4192   */\n      sub\n        /* \"#utility.yul\":4175:4192   */\n      swap1\n      pop\n        /* \"#utility.yul\":4214:4215   */\n      dup2\n        /* \"#utility.yul\":4208:4212   */\n      dup2\n        /* \"#utility.yul\":4205:4216   */\n      gt\n        /* \"#utility.yul\":4202:4239   */\n      iszero\n      tag_128\n      jumpi\n        /* \"#utility.yul\":4219:4237   */\n      tag_129\n      tag_67\n      jump\t// in\n    tag_129:\n        /* \"#utility.yul\":4202:4239   */\n    tag_128:\n        /* \"#utility.yul\":4052:4246   */\n      swap3\n      swap2\n      pop\n      pop\n      jump\t// out\n        /* \"#utility.yul\":4252:4624   */\n    tag_54:\n        /* \"#utility.yul\":4291:4295   */\n      0x00\n        /* \"#utility.yul\":4311:4330   */\n      tag_131\n        /* \"#utility.yul\":4328:4329   */\n      dup3\n        /* \"#utility.yul\":4311:4330   */\n      tag_62\n      jump\t// in\n    tag_131:\n        /* \"#utility.yul\":4306:4330   */\n      swap2\n      pop\n        /* \"#utility.yul\":4344:4363   */\n      tag_132\n        /* \"#utility.yul\":4361:4362   */\n      dup4\n        /* \"#utility.yul\":4344:4363   */\n      tag_62\n      jump\t// in\n    tag_132:\n        /* \"#utility.yul\":4339:4363   */\n      swap3\n      pop\n        /* \"#utility.yul\":4387:4388   */\n      dup3\n        /* \"#utility.yul\":4384:4385   */\n      dup3\n        /* \"#utility.yul\":4380:4389   */\n      sub\n        /* \"#utility.yul\":4372:4389   */\n      swap1\n      pop\n        /* \"#utility.yul\":4581:4582   */\n      dup2\n        /* \"#utility.yul\":4575:4579   */\n      dup2\n        /* \"#utility.yul\":4571:4583   */\n      slt\n        /* \"#utility.yul\":4567:4568   */\n      0x00\n        /* \"#utility.yul\":4564:4565   */\n      dup5\n        /* \"#utility.yul\":4560:4569   */\n      slt\n        /* \"#utility.yul\":4556:4584   */\n      and\n        /* \"#utility.yul\":4539:4540   */\n      dup3\n        /* \"#utility.yul\":4533:4537   */\n      dup3\n        /* \"#utility.yul\":4529:4541   */\n      sgt\n        /* \"#utility.yul\":4524:4525   */\n      0x00\n        /* \"#utility.yul\":4521:4522   */\n      dup6\n        /* \"#utility.yul\":4517:4526   */\n      slt\n        /* \"#utility.yul\":4510:4527   */\n      iszero\n        /* \"#utility.yul\":4506:4542   */\n      and\n        /* \"#utility.yul\":4490:4594   */\n      or\n        /* \"#utility.yul\":4487:4617   */\n      iszero\n      tag_133\n      jumpi\n        /* \"#utility.yul\":4597:4615   */\n      tag_134\n      tag_67\n      jump\t// in\n    tag_134:\n        /* \"#utility.yul\":4487:4617   */\n    tag_133:\n        /* \"#utility.yul\":4252:4624   */\n      swap3\n      swap2\n      pop\n      pop\n      jump\t// out\n\n    auxdata: 0xa264697066735822122003ca02d1d6b4d9bb3d341971316426b3bfaf291698c771486243946b49166b8b64736f6c63430008160033\n}\n",
				"bytecode": {
					"linkReferences": {},
					"object": "608060405234801561000f575f80fd5b5061050f8061001d5f395ff3fe608060405234801561000f575f80fd5b5060043610610060575f3560e01c80630cfbf7b514610064578063165c4a1614610094578063771602f7146100c4578063a391c15b146100f4578063b67d77c514610124578063ef3eeaba14610154575b5f80fd5b61007e60048036038101906100799190610239565b610184565b60405161008b9190610286565b60405180910390f35b6100ae60048036038101906100a99190610239565b610199565b6040516100bb9190610286565b60405180910390f35b6100de60048036038101906100d99190610239565b6101ae565b6040516100eb9190610286565b60405180910390f35b61010e60048036038101906101099190610239565b6101c3565b60405161011b9190610286565b60405180910390f35b61013e60048036038101906101399190610239565b6101d8565b60405161014b9190610286565b60405180910390f35b61016e600480360381019061016991906102d2565b6101ed565b60405161017b919061031f565b60405180910390f35b5f81836101919190610365565b905092915050565b5f81836101a691906103c2565b905092915050565b5f81836101bb9190610403565b905092915050565b5f81836101d09190610436565b905092915050565b5f81836101e59190610466565b905092915050565b5f81836101fa9190610499565b905092915050565b5f80fd5b5f819050919050565b61021881610206565b8114610222575f80fd5b50565b5f813590506102338161020f565b92915050565b5f806040838503121561024f5761024e610202565b5b5f61025c85828601610225565b925050602061026d85828601610225565b9150509250929050565b61028081610206565b82525050565b5f6020820190506102995f830184610277565b92915050565b5f819050919050565b6102b18161029f565b81146102bb575f80fd5b50565b5f813590506102cc816102a8565b92915050565b5f80604083850312156102e8576102e7610202565b5b5f6102f5858286016102be565b9250506020610306858286016102be565b9150509250929050565b6103198161029f565b82525050565b5f6020820190506103325f830184610310565b92915050565b7f4e487b71000000000000000000000000000000000000000000000000000000005f52601260045260245ffd5b5f61036f82610206565b915061037a83610206565b92508261038a57610389610338565b5b828206905092915050565b7f4e487b71000000000000000000000000000000000000000000000000000000005f52601160045260245ffd5b5f6103cc82610206565b91506103d783610206565b92508282026103e581610206565b915082820484148315176103fc576103fb610395565b5b5092915050565b5f61040d82610206565b915061041883610206565b92508282019050808211156104305761042f610395565b5b92915050565b5f61044082610206565b915061044b83610206565b92508261045b5761045a610338565b5b828204905092915050565b5f61047082610206565b915061047b83610206565b925082820390508181111561049357610492610395565b5b92915050565b5f6104a38261029f565b91506104ae8361029f565b925082820390508181125f8412168282135f8512151617156104d3576104d2610395565b5b9291505056fea264697066735822122003ca02d1d6b4d9bb3d341971316426b3bfaf291698c771486243946b49166b8b64736f6c63430008160033",
					"opcodes": "PUSH1 0x80 PUSH1 0x40 MSTORE CALLVALUE DUP1 ISZERO PUSH2 0xF JUMPI PUSH0 DUP1 REVERT JUMPDEST POP PUSH2 0x50F DUP1 PUSH2 0x1D PUSH0 CODECOPY PUSH0 RETURN INVALID PUSH1 0x80 PUSH1 0x40 MSTORE CALLVALUE DUP1 ISZERO PUSH2 0xF JUMPI PUSH0 DUP1 REVERT JUMPDEST POP PUSH1 0x4 CALLDATASIZE LT PUSH2 0x60 JUMPI PUSH0 CALLDATALOAD PUSH1 0xE0 SHR DUP1 PUSH4 0xCFBF7B5 EQ PUSH2 0x64 JUMPI DUP1 PUSH4 0x165C4A16 EQ PUSH2 0x94 JUMPI DUP1 PUSH4 0x771602F7 EQ PUSH2 0xC4 JUMPI DUP1 PUSH4 0xA391C15B EQ PUSH2 0xF4 JUMPI DUP1 PUSH4 0xB67D77C5 EQ PUSH2 0x124 JUMPI DUP1 PUSH4 0xEF3EEABA EQ PUSH2 0x154 JUMPI JUMPDEST PUSH0 DUP1 REVERT JUMPDEST PUSH2 0x7E PUSH1 0x4 DUP1 CALLDATASIZE SUB DUP2 ADD SWAP1 PUSH2 0x79 SWAP2 SWAP1 PUSH2 0x239 JUMP JUMPDEST PUSH2 0x184 JUMP JUMPDEST PUSH1 0x40 MLOAD PUSH2 0x8B SWAP2 SWAP1 PUSH2 0x286 JUMP JUMPDEST PUSH1 0x40 MLOAD DUP1 SWAP2 SUB SWAP1 RETURN JUMPDEST PUSH2 0xAE PUSH1 0x4 DUP1 CALLDATASIZE SUB DUP2 ADD SWAP1 PUSH2 0xA9 SWAP2 SWAP1 PUSH2 0x239 JUMP JUMPDEST PUSH2 0x199 JUMP JUMPDEST PUSH1 0x40 MLOAD PUSH2 0xBB SWAP2 SWAP1 PUSH2 0x286 JUMP JUMPDEST PUSH1 0x40 MLOAD DUP1 SWAP2 SUB SWAP1 RETURN JUMPDEST PUSH2 0xDE PUSH1 0x4 DUP1 CALLDATASIZE SUB DUP2 ADD SWAP1 PUSH2 0xD9 SWAP2 SWAP1 PUSH2 0x239 JUMP JUMPDEST PUSH2 0x1AE JUMP JUMPDEST PUSH1 0x40 MLOAD PUSH2 0xEB SWAP2 SWAP1 PUSH2 0x286 JUMP JUMPDEST PUSH1 0x40 MLOAD DUP1 SWAP2 SUB SWAP1 RETURN JUMPDEST PUSH2 0x10E PUSH1 0x4 DUP1 CALLDATASIZE SUB DUP2 ADD SWAP1 PUSH2 0x109 SWAP2 SWAP1 PUSH2 0x239 JUMP JUMPDEST PUSH2 0x1C3 JUMP JUMPDEST PUSH1 0x40 MLOAD PUSH2 0x11B SWAP2 SWAP1 PUSH2 0x286 JUMP JUMPDEST PUSH1 0x40 MLOAD DUP1 SWAP2 SUB SWAP1 RETURN JUMPDEST PUSH2 0x13E PUSH1 0x4 DUP1 CALLDATASIZE SUB DUP2 ADD SWAP1 PUSH2 0x139 SWAP2 SWAP1 PUSH2 0x239 JUMP JUMPDEST PUSH2 0x1D8 JUMP JUMPDEST PUSH1 0x40 MLOAD PUSH2 0x14B SWAP2 SWAP1 PUSH2 0x286 JUMP JUMPDEST PUSH1 0x40 MLOAD DUP1 SWAP2 SUB SWAP1 RETURN JUMPDEST PUSH2 0x16E PUSH1 0x4 DUP1 CALLDATASIZE SUB DUP2 ADD SWAP1 PUSH2 0x169 SWAP2 SWAP1 PUSH2 0x2D2 JUMP JUMPDEST PUSH2 0x1ED JUMP JUMPDEST PUSH1 0x40 MLOAD PUSH2 0x17B SWAP2 SWAP1 PUSH2 0x31F JUMP JUMPDEST PUSH1 0x40 MLOAD DUP1 SWAP2 SUB SWAP1 RETURN JUMPDEST PUSH0 DUP2 DUP4 PUSH2 0x191 SWAP2 SWAP1 PUSH2 0x365 JUMP JUMPDEST SWAP1 POP SWAP3 SWAP2 POP POP JUMP JUMPDEST PUSH0 DUP2 DUP4 PUSH2 0x1A6 SWAP2 SWAP1 PUSH2 0x3C2 JUMP JUMPDEST SWAP1 POP SWAP3 SWAP2 POP POP JUMP JUMPDEST PUSH0 DUP2 DUP4 PUSH2 0x1BB SWAP2 SWAP1 PUSH2 0x403 JUMP JUMPDEST SWAP1 POP SWAP3 SWAP2 POP POP JUMP JUMPDEST PUSH0 DUP2 DUP4 PUSH2 0x1D0 SWAP2 SWAP1 PUSH2 0x436 JUMP JUMPDEST SWAP1 POP SWAP3 SWAP2 POP POP JUMP JUMPDEST PUSH0 DUP2 DUP4 PUSH2 0x1E5 SWAP2 SWAP1 PUSH2 0x466 JUMP JUMPDEST SWAP1 POP SWAP3 SWAP2 POP POP JUMP JUMPDEST PUSH0 DUP2 DUP4 PUSH2 0x1FA SWAP2 SWAP1 PUSH2 0x499 JUMP JUMPDEST SWAP1 POP SWAP3 SWAP2 POP POP JUMP JUMPDEST PUSH0 DUP1 REVERT JUMPDEST PUSH0 DUP2 SWAP1 POP SWAP2 SWAP1 POP JUMP JUMPDEST PUSH2 0x218 DUP2 PUSH2 0x206 JUMP JUMPDEST DUP2 EQ PUSH2 0x222 JUMPI PUSH0 DUP1 REVERT JUMPDEST POP JUMP JUMPDEST PUSH0 DUP2 CALLDATALOAD SWAP1 POP PUSH2 0x233 DUP2 PUSH2 0x20F JUMP JUMPDEST SWAP3 SWAP2 POP POP JUMP JUMPDEST PUSH0 DUP1 PUSH1 0x40 DUP4 DUP6 SUB SLT ISZERO PUSH2 0x24F JUMPI PUSH2 0x24E PUSH2 0x202 JUMP JUMPDEST JUMPDEST PUSH0 PUSH2 0x25C DUP6 DUP3 DUP7 ADD PUSH2 0x225 JUMP JUMPDEST SWAP3 POP POP PUSH1 0x20 PUSH2 0x26D DUP6 DUP3 DUP7 ADD PUSH2 0x225 JUMP JUMPDEST SWAP2 POP POP SWAP3 POP SWAP3 SWAP1 POP JUMP JUMPDEST PUSH2 0x280 DUP2 PUSH2 0x206 JUMP JUMPDEST DUP3 MSTORE POP POP JUMP JUMPDEST PUSH0 PUSH1 0x20 DUP3 ADD SWAP1 POP PUSH2 0x299 PUSH0 DUP4 ADD DUP5 PUSH2 0x277 JUMP JUMPDEST SWAP3 SWAP2 POP POP JUMP JUMPDEST PUSH0 DUP2 SWAP1 POP SWAP2 SWAP1 POP JUMP JUMPDEST PUSH2 0x2B1 DUP2 PUSH2 0x29F JUMP JUMPDEST DUP2 EQ PUSH2 0x2BB JUMPI PUSH0 DUP1 REVERT JUMPDEST POP JUMP JUMPDEST PUSH0 DUP2 CALLDATALOAD SWAP1 POP PUSH2 0x2CC DUP2 PUSH2 0x2A8 JUMP JUMPDEST SWAP3 SWAP2 POP POP JUMP JUMPDEST PUSH0 DUP1 PUSH1 0x40 DUP4 DUP6 SUB SLT ISZERO PUSH2 0x2E8 JUMPI PUSH2 0x2E7 PUSH2 0x202 JUMP JUMPDEST JUMPDEST PUSH0 PUSH2 0x2F5 DUP6 DUP3 DUP7 ADD PUSH2 0x2BE JUMP JUMPDEST SWAP3 POP POP PUSH1 0x20 PUSH2 0x306 DUP6 DUP3 DUP7 ADD PUSH2 0x2BE JUMP JUMPDEST SWAP2 POP POP SWAP3 POP SWAP3 SWAP1 POP JUMP JUMPDEST PUSH2 0x319 DUP2 PUSH2 0x29F JUMP JUMPDEST DUP3 MSTORE POP POP JUMP JUMPDEST PUSH0 PUSH1 0x20 DUP3 ADD SWAP1 POP PUSH2 0x332 PUSH0 DUP4 ADD DUP5 PUSH2 0x310 JUMP JUMPDEST SWAP3 SWAP2 POP POP JUMP JUMPDEST PUSH32 0x4E487B7100000000000000000000000000000000000000000000000000000000 PUSH0 MSTORE PUSH1 0x12 PUSH1 0x4 MSTORE PUSH1 0x24 PUSH0 REVERT JUMPDEST PUSH0 PUSH2 0x36F DUP3 PUSH2 0x206 JUMP JUMPDEST SWAP2 POP PUSH2 0x37A DUP4 PUSH2 0x206 JUMP JUMPDEST SWAP3 POP DUP3 PUSH2 0x38A JUMPI PUSH2 0x389 PUSH2 0x338 JUMP JUMPDEST JUMPDEST DUP3 DUP3 MOD SWAP1 POP SWAP3 SWAP2 POP POP JUMP JUMPDEST PUSH32 0x4E487B7100000000000000000000000000000000000000000000000000000000 PUSH0 MSTORE PUSH1 0x11 PUSH1 0x4 MSTORE PUSH1 0x24 PUSH0 REVERT JUMPDEST PUSH0 PUSH2 0x3CC DUP3 PUSH2 0x206 JUMP JUMPDEST SWAP2 POP PUSH2 0x3D7 DUP4 PUSH2 0x206 JUMP JUMPDEST SWAP3 POP DUP3 DUP3 MUL PUSH2 0x3E5 DUP2 PUSH2 0x206 JUMP JUMPDEST SWAP2 POP DUP3 DUP3 DIV DUP5 EQ DUP4 ISZERO OR PUSH2 0x3FC JUMPI PUSH2 0x3FB PUSH2 0x395 JUMP JUMPDEST JUMPDEST POP SWAP3 SWAP2 POP POP JUMP JUMPDEST PUSH0 PUSH2 0x40D DUP3 PUSH2 0x206 JUMP JUMPDEST SWAP2 POP PUSH2 0x418 DUP4 PUSH2 0x206 JUMP JUMPDEST SWAP3 POP DUP3 DUP3 ADD SWAP1 POP DUP1 DUP3 GT ISZERO PUSH2 0x430 JUMPI PUSH2 0x42F PUSH2 0x395 JUMP JUMPDEST JUMPDEST SWAP3 SWAP2 POP POP JUMP JUMPDEST PUSH0 PUSH2 0x440 DUP3 PUSH2 0x206 JUMP JUMPDEST SWAP2 POP PUSH2 0x44B DUP4 PUSH2 0x206 JUMP JUMPDEST SWAP3 POP DUP3 PUSH2 0x45B JUMPI PUSH2 0x45A PUSH2 0x338 JUMP JUMPDEST JUMPDEST DUP3 DUP3 DIV SWAP1 POP SWAP3 SWAP2 POP POP JUMP JUMPDEST PUSH0 PUSH2 0x470 DUP3 PUSH2 0x206 JUMP JUMPDEST SWAP2 POP PUSH2 0x47B DUP4 PUSH2 0x206 JUMP JUMPDEST SWAP3 POP DUP3 DUP3 SUB SWAP1 POP DUP2 DUP2 GT ISZERO PUSH2 0x493 JUMPI PUSH2 0x492 PUSH2 0x395 JUMP JUMPDEST JUMPDEST SWAP3 SWAP2 POP POP JUMP JUMPDEST PUSH0 PUSH2 0x4A3 DUP3 PUSH2 0x29F JUMP JUMPDEST SWAP2 POP PUSH2 0x4AE DUP4 PUSH2 0x29F JUMP JUMPDEST SWAP3 POP DUP3 DUP3 SUB SWAP1 POP DUP2 DUP2 SLT PUSH0 DUP5 SLT AND DUP3 DUP3 SGT PUSH0 DUP6 SLT ISZERO AND OR ISZERO PUSH2 0x4D3 JUMPI PUSH2 0x4D2 PUSH2 0x395 JUMP JUMPDEST JUMPDEST SWAP3 SWAP2 POP POP JUMP INVALID LOG2 PUSH5 0x6970667358 0x22 SLT KECCAK256 SUB 0xCA MUL 0xD1 0xD6 0xB4 0xD9 0xBB RETURNDATASIZE CALLVALUE NOT PUSH18 0x316426B3BFAF291698C771486243946B4916 PUSH12 0x8B64736F6C63430008160033 "
				},
				"gasEstimates": {
					"creation": {
						"codeDepositCost": "259000",
						"executionCost": "298",
						"totalCost": "259298"
					},
					"external": {
						"add(uint256,uint256)": "infinite",
						"div(uint256,uint256)": "infinite",
						"div2(uint256,uint256)": "infinite",
						"multiply(uint256,uint256)": "infinite",
						"sub(uint256,uint256)": "infinite",
						"sub2(int256,int256)": "infinite"
					}
				},
				"methodIdentifiers": {
					"add(uint256,uint256)": "771602f7",
					"div(uint256,uint256)": "a391c15b",
					"div2(uint256,uint256)": "0cfbf7b5",
					"multiply(uint256,uint256)": "165c4a16",
					"sub(uint256,uint256)": "b67d77c5",
					"sub2(int256,int256)": "ef3eeaba"
				}
			},
			"storageLayout": {
				"storage": [],
				"types": null
			},
			"userdoc": {
				"kind": "user",
				"methods": {},
				"version": 1
			}
		}
	}
}