{
	"contracts/if.sol": {
		"IF": {
			"abi": [
				{
					"inputs": [
						{
							"internalType": "uint256",
							"name": "_a",
							"type": "uint256"
						}
					],
					"name": "answery",
					"outputs": [
						{
							"internalType": "string",
							"name": "",
							"type": "string"
						}
					],
					"stateMutability": "pure",
					"type": "function"
				},
				{
					"inputs": [
						{
							"internalType": "uint256",
							"name": "_a",
							"type": "uint256"
						}
					],
					"name": "div",
					"outputs": [
						{
							"internalType": "string",
							"name": "",
							"type": "string"
						}
					],
					"stateMutability": "pure",
					"type": "function"
				},
				{
					"inputs": [
						{
							"internalType": "uint256",
							"name": "_score",
							"type": "uint256"
						}
					],
					"name": "grade",
					"outputs": [
						{
							"internalType": "string",
							"name": "",
							"type": "string"
						}
					],
					"stateMutability": "pure",
					"type": "function"
				}
			],
			"devdoc": {
				"kind": "dev",
				"methods": {},
				"version": 1
			},
			"evm": {
				"assembly": "    /* \"contracts/if.sol\":61:950  contract IF {... */\n  mstore(0x40, 0x80)\n  callvalue\n  dup1\n  iszero\n  tag_1\n  jumpi\n  0x00\n  dup1\n  revert\ntag_1:\n  pop\n  dataSize(sub_0)\n  dup1\n  dataOffset(sub_0)\n  0x00\n  codecopy\n  0x00\n  return\nstop\n\nsub_0: assembly {\n        /* \"contracts/if.sol\":61:950  contract IF {... */\n      mstore(0x40, 0x80)\n      callvalue\n      dup1\n      iszero\n      tag_1\n      jumpi\n      0x00\n      dup1\n      revert\n    tag_1:\n      pop\n      jumpi(tag_2, lt(calldatasize, 0x04))\n      shr(0xe0, calldataload(0x00))\n      dup1\n      0x11ae1579\n      eq\n      tag_3\n      jumpi\n      dup1\n      0x73f135a7\n      eq\n      tag_4\n      jumpi\n      dup1\n      0xeba31cc4\n      eq\n      tag_5\n      jumpi\n    tag_2:\n      0x00\n      dup1\n      revert\n        /* \"contracts/if.sol\":79:355  function grade(uint _score) public pure returns(string memory){... */\n    tag_3:\n      tag_6\n      0x04\n      dup1\n      calldatasize\n      sub\n      dup2\n      add\n      swap1\n      tag_7\n      swap2\n      swap1\n      tag_8\n      jump\t// in\n    tag_7:\n      tag_9\n      jump\t// in\n    tag_6:\n      mload(0x40)\n      tag_10\n      swap2\n      swap1\n      tag_11\n      jump\t// in\n    tag_10:\n      mload(0x40)\n      dup1\n      swap2\n      sub\n      swap1\n      return\n        /* \"contracts/if.sol\":622:948  function answery(uint _a)public pure returns(string memory){... */\n    tag_4:\n      tag_12\n      0x04\n      dup1\n      calldatasize\n      sub\n      dup2\n      add\n      swap1\n      tag_13\n      swap2\n      swap1\n      tag_8\n      jump\t// in\n    tag_13:\n      tag_14\n      jump\t// in\n    tag_12:\n      mload(0x40)\n      tag_15\n      swap2\n      swap1\n      tag_11\n      jump\t// in\n    tag_15:\n      mload(0x40)\n      dup1\n      swap2\n      sub\n      swap1\n      return\n        /* \"contracts/if.sol\":359:617  function div(uint _a) public pure returns(string memory){... */\n    tag_5:\n      tag_16\n      0x04\n      dup1\n      calldatasize\n      sub\n      dup2\n      add\n      swap1\n      tag_17\n      swap2\n      swap1\n      tag_8\n      jump\t// in\n    tag_17:\n      tag_18\n      jump\t// in\n    tag_16:\n      mload(0x40)\n      tag_19\n      swap2\n      swap1\n      tag_11\n      jump\t// in\n    tag_19:\n      mload(0x40)\n      dup1\n      swap2\n      sub\n      swap1\n      return\n        /* \"contracts/if.sol\":79:355  function grade(uint _score) public pure returns(string memory){... */\n    tag_9:\n        /* \"contracts/if.sol\":127:140  string memory */\n      0x60\n        /* \"contracts/if.sol\":162:164  90 */\n      0x5a\n        /* \"contracts/if.sol\":154:160  _score */\n      dup3\n        /* \"contracts/if.sol\":154:164  _score>=90 */\n      lt\n        /* \"contracts/if.sol\":151:349  if(_score>=90){... */\n      tag_21\n      jumpi\n        /* \"contracts/if.sol\":179:189  return \"A\" */\n      mload(0x40)\n      dup1\n      0x40\n      add\n      0x40\n      mstore\n      dup1\n      0x01\n      dup2\n      mstore\n      0x20\n      add\n      0x4100000000000000000000000000000000000000000000000000000000000000\n      dup2\n      mstore\n      pop\n      swap1\n      pop\n      jump(tag_20)\n        /* \"contracts/if.sol\":151:349  if(_score>=90){... */\n    tag_21:\n        /* \"contracts/if.sol\":217:219  80 */\n      0x50\n        /* \"contracts/if.sol\":209:215  _score */\n      dup3\n        /* \"contracts/if.sol\":209:219  _score>=80 */\n      lt\n        /* \"contracts/if.sol\":205:349  if (_score>=80){... */\n      tag_23\n      jumpi\n        /* \"contracts/if.sol\":234:244  return \"B\" */\n      mload(0x40)\n      dup1\n      0x40\n      add\n      0x40\n      mstore\n      dup1\n      0x01\n      dup2\n      mstore\n      0x20\n      add\n      0x4200000000000000000000000000000000000000000000000000000000000000\n      dup2\n      mstore\n      pop\n      swap1\n      pop\n      jump(tag_20)\n        /* \"contracts/if.sol\":205:349  if (_score>=80){... */\n    tag_23:\n        /* \"contracts/if.sol\":272:274  70 */\n      0x46\n        /* \"contracts/if.sol\":264:270  _score */\n      dup3\n        /* \"contracts/if.sol\":264:274  _score>=70 */\n      lt\n        /* \"contracts/if.sol\":260:349  if (_score>=70){... */\n      tag_25\n      jumpi\n        /* \"contracts/if.sol\":289:299  return \"C\" */\n      mload(0x40)\n      dup1\n      0x40\n      add\n      0x40\n      mstore\n      dup1\n      0x01\n      dup2\n      mstore\n      0x20\n      add\n      0x4300000000000000000000000000000000000000000000000000000000000000\n      dup2\n      mstore\n      pop\n      swap1\n      pop\n      jump(tag_20)\n        /* \"contracts/if.sol\":260:349  if (_score>=70){... */\n    tag_25:\n        /* \"contracts/if.sol\":328:338  return \"D\" */\n      mload(0x40)\n      dup1\n      0x40\n      add\n      0x40\n      mstore\n      dup1\n      0x01\n      dup2\n      mstore\n      0x20\n      add\n      0x4400000000000000000000000000000000000000000000000000000000000000\n      dup2\n      mstore\n      pop\n      swap1\n      pop\n        /* \"contracts/if.sol\":79:355  function grade(uint _score) public pure returns(string memory){... */\n    tag_20:\n      swap2\n      swap1\n      pop\n      jump\t// out\n        /* \"contracts/if.sol\":622:948  function answery(uint _a)public pure returns(string memory){... */\n    tag_14:\n        /* \"contracts/if.sol\":667:680  string memory */\n      0x60\n        /* \"contracts/if.sol\":701:702  0 */\n      0x00\n        /* \"contracts/if.sol\":698:699  2 */\n      0x02\n        /* \"contracts/if.sol\":695:697  _a */\n      dup4\n        /* \"contracts/if.sol\":695:699  _a%2 */\n      tag_28\n      swap2\n      swap1\n      tag_29\n      jump\t// in\n    tag_28:\n        /* \"contracts/if.sol\":695:702  _a%2==0 */\n      eq\n        /* \"contracts/if.sol\":695:712  _a%2==0 && _a >40 */\n      dup1\n      iszero\n      tag_30\n      jumpi\n      pop\n        /* \"contracts/if.sol\":710:712  40 */\n      0x28\n        /* \"contracts/if.sol\":706:708  _a */\n      dup3\n        /* \"contracts/if.sol\":706:712  _a >40 */\n      gt\n        /* \"contracts/if.sol\":695:712  _a%2==0 && _a >40 */\n    tag_30:\n        /* \"contracts/if.sol\":695:722  _a%2==0 && _a >40 || _a <20 */\n      dup1\n      tag_31\n      jumpi\n      pop\n        /* \"contracts/if.sol\":720:722  20 */\n      0x14\n        /* \"contracts/if.sol\":716:718  _a */\n      dup3\n        /* \"contracts/if.sol\":716:722  _a <20 */\n      lt\n        /* \"contracts/if.sol\":695:722  _a%2==0 && _a >40 || _a <20 */\n    tag_31:\n        /* \"contracts/if.sol\":691:943  if (_a%2==0 && _a >40 || _a <20 ){... */\n      iszero\n      tag_32\n      jumpi\n        /* \"contracts/if.sol\":738:748  return \"A\" */\n      mload(0x40)\n      dup1\n      0x40\n      add\n      0x40\n      mstore\n      dup1\n      0x01\n      dup2\n      mstore\n      0x20\n      add\n      0x4100000000000000000000000000000000000000000000000000000000000000\n      dup2\n      mstore\n      pop\n      swap1\n      pop\n      jump(tag_27)\n        /* \"contracts/if.sol\":691:943  if (_a%2==0 && _a >40 || _a <20 ){... */\n    tag_32:\n        /* \"contracts/if.sol\":772:774  40 */\n      0x28\n        /* \"contracts/if.sol\":767:769  _a */\n      dup3\n        /* \"contracts/if.sol\":767:774  _a <=40 */\n      gt\n      iszero\n        /* \"contracts/if.sol\":767:784  _a <=40 && _a>=20 */\n      dup1\n      iszero\n      tag_34\n      jumpi\n      pop\n        /* \"contracts/if.sol\":782:784  20 */\n      0x14\n        /* \"contracts/if.sol\":778:780  _a */\n      dup3\n        /* \"contracts/if.sol\":778:784  _a>=20 */\n      lt\n      iszero\n        /* \"contracts/if.sol\":767:784  _a <=40 && _a>=20 */\n    tag_34:\n        /* \"contracts/if.sol\":767:795  _a <=40 && _a>=20 && _a%2!=0 */\n      dup1\n      iszero\n      tag_35\n      jumpi\n      pop\n        /* \"contracts/if.sol\":794:795  0 */\n      0x00\n        /* \"contracts/if.sol\":791:792  2 */\n      0x02\n        /* \"contracts/if.sol\":788:790  _a */\n      dup4\n        /* \"contracts/if.sol\":788:792  _a%2 */\n      tag_36\n      swap2\n      swap1\n      tag_29\n      jump\t// in\n    tag_36:\n        /* \"contracts/if.sol\":788:795  _a%2!=0 */\n      eq\n      iszero\n        /* \"contracts/if.sol\":767:795  _a <=40 && _a>=20 && _a%2!=0 */\n    tag_35:\n        /* \"contracts/if.sol\":764:943  if(_a <=40 && _a>=20 && _a%2!=0){... */\n      iszero\n      tag_37\n      jumpi\n        /* \"contracts/if.sol\":810:820  return \"B\" */\n      mload(0x40)\n      dup1\n      0x40\n      add\n      0x40\n      mstore\n      dup1\n      0x01\n      dup2\n      mstore\n      0x20\n      add\n      0x4200000000000000000000000000000000000000000000000000000000000000\n      dup2\n      mstore\n      pop\n      swap1\n      pop\n      jump(tag_27)\n        /* \"contracts/if.sol\":764:943  if(_a <=40 && _a>=20 && _a%2!=0){... */\n    tag_37:\n        /* \"contracts/if.sol\":843:845  40 */\n      0x28\n        /* \"contracts/if.sol\":839:841  _a */\n      dup3\n        /* \"contracts/if.sol\":839:845  _a<=40 */\n      gt\n      iszero\n        /* \"contracts/if.sol\":839:856  _a<=40 && _a >=20 */\n      dup1\n      iszero\n      tag_39\n      jumpi\n      pop\n        /* \"contracts/if.sol\":854:856  20 */\n      0x14\n        /* \"contracts/if.sol\":849:851  _a */\n      dup3\n        /* \"contracts/if.sol\":849:856  _a >=20 */\n      lt\n      iszero\n        /* \"contracts/if.sol\":839:856  _a<=40 && _a >=20 */\n    tag_39:\n        /* \"contracts/if.sol\":839:867  _a<=40 && _a >=20 && _a%2!=0 */\n      dup1\n      iszero\n      tag_40\n      jumpi\n      pop\n        /* \"contracts/if.sol\":866:867  0 */\n      0x00\n        /* \"contracts/if.sol\":863:864  2 */\n      0x02\n        /* \"contracts/if.sol\":860:862  _a */\n      dup4\n        /* \"contracts/if.sol\":860:864  _a%2 */\n      tag_41\n      swap2\n      swap1\n      tag_29\n      jump\t// in\n    tag_41:\n        /* \"contracts/if.sol\":860:867  _a%2!=0 */\n      eq\n      iszero\n        /* \"contracts/if.sol\":839:867  _a<=40 && _a >=20 && _a%2!=0 */\n    tag_40:\n        /* \"contracts/if.sol\":836:943  if(_a<=40 && _a >=20 && _a%2!=0){... */\n      iszero\n      tag_42\n      jumpi\n        /* \"contracts/if.sol\":882:892  return \"C\" */\n      mload(0x40)\n      dup1\n      0x40\n      add\n      0x40\n      mstore\n      dup1\n      0x01\n      dup2\n      mstore\n      0x20\n      add\n      0x4300000000000000000000000000000000000000000000000000000000000000\n      dup2\n      mstore\n      pop\n      swap1\n      pop\n      jump(tag_27)\n        /* \"contracts/if.sol\":836:943  if(_a<=40 && _a >=20 && _a%2!=0){... */\n    tag_42:\n        /* \"contracts/if.sol\":922:932  return \"D\" */\n      mload(0x40)\n      dup1\n      0x40\n      add\n      0x40\n      mstore\n      dup1\n      0x01\n      dup2\n      mstore\n      0x20\n      add\n      0x4400000000000000000000000000000000000000000000000000000000000000\n      dup2\n      mstore\n      pop\n      swap1\n      pop\n        /* \"contracts/if.sol\":622:948  function answery(uint _a)public pure returns(string memory){... */\n    tag_27:\n      swap2\n      swap1\n      pop\n      jump\t// out\n        /* \"contracts/if.sol\":359:617  function div(uint _a) public pure returns(string memory){... */\n    tag_18:\n        /* \"contracts/if.sol\":401:414  string memory */\n      0x60\n        /* \"contracts/if.sol\":434:435  0 */\n      0x00\n        /* \"contracts/if.sol\":431:432  2 */\n      0x02\n        /* \"contracts/if.sol\":428:430  _a */\n      dup4\n        /* \"contracts/if.sol\":428:432  _a%2 */\n      tag_45\n      swap2\n      swap1\n      tag_29\n      jump\t// in\n    tag_45:\n        /* \"contracts/if.sol\":428:435  _a%2==0 */\n      sub\n        /* \"contracts/if.sol\":425:612  if(_a%2==0){... */\n      tag_46\n      jumpi\n        /* \"contracts/if.sol\":450:460  return \"A\" */\n      mload(0x40)\n      dup1\n      0x40\n      add\n      0x40\n      mstore\n      dup1\n      0x01\n      dup2\n      mstore\n      0x20\n      add\n      0x4100000000000000000000000000000000000000000000000000000000000000\n      dup2\n      mstore\n      pop\n      swap1\n      pop\n      jump(tag_44)\n        /* \"contracts/if.sol\":425:612  if(_a%2==0){... */\n    tag_46:\n        /* \"contracts/if.sol\":485:486  0 */\n      0x00\n        /* \"contracts/if.sol\":482:483  3 */\n      0x03\n        /* \"contracts/if.sol\":479:481  _a */\n      dup4\n        /* \"contracts/if.sol\":479:483  _a%3 */\n      tag_48\n      swap2\n      swap1\n      tag_29\n      jump\t// in\n    tag_48:\n        /* \"contracts/if.sol\":479:486  _a%3==0 */\n      sub\n        /* \"contracts/if.sol\":476:612  if(_a%3==0){... */\n      tag_49\n      jumpi\n        /* \"contracts/if.sol\":501:511  return \"B\" */\n      mload(0x40)\n      dup1\n      0x40\n      add\n      0x40\n      mstore\n      dup1\n      0x01\n      dup2\n      mstore\n      0x20\n      add\n      0x4200000000000000000000000000000000000000000000000000000000000000\n      dup2\n      mstore\n      pop\n      swap1\n      pop\n      jump(tag_44)\n        /* \"contracts/if.sol\":476:612  if(_a%3==0){... */\n    tag_49:\n        /* \"contracts/if.sol\":536:537  0 */\n      0x00\n        /* \"contracts/if.sol\":533:534  5 */\n      0x05\n        /* \"contracts/if.sol\":530:532  _a */\n      dup4\n        /* \"contracts/if.sol\":530:534  _a%5 */\n      tag_51\n      swap2\n      swap1\n      tag_29\n      jump\t// in\n    tag_51:\n        /* \"contracts/if.sol\":530:537  _a%5==0 */\n      sub\n        /* \"contracts/if.sol\":527:612  if(_a%5==0){... */\n      tag_52\n      jumpi\n        /* \"contracts/if.sol\":552:562  return \"C\" */\n      mload(0x40)\n      dup1\n      0x40\n      add\n      0x40\n      mstore\n      dup1\n      0x01\n      dup2\n      mstore\n      0x20\n      add\n      0x4300000000000000000000000000000000000000000000000000000000000000\n      dup2\n      mstore\n      pop\n      swap1\n      pop\n      jump(tag_44)\n        /* \"contracts/if.sol\":527:612  if(_a%5==0){... */\n    tag_52:\n        /* \"contracts/if.sol\":591:601  return \"D\" */\n      mload(0x40)\n      dup1\n      0x40\n      add\n      0x40\n      mstore\n      dup1\n      0x01\n      dup2\n      mstore\n      0x20\n      add\n      0x4400000000000000000000000000000000000000000000000000000000000000\n      dup2\n      mstore\n      pop\n      swap1\n      pop\n        /* \"contracts/if.sol\":359:617  function div(uint _a) public pure returns(string memory){... */\n    tag_44:\n      swap2\n      swap1\n      pop\n      jump\t// out\n        /* \"#utility.yul\":88:205   */\n    tag_55:\n        /* \"#utility.yul\":197:198   */\n      0x00\n        /* \"#utility.yul\":194:195   */\n      dup1\n        /* \"#utility.yul\":187:199   */\n      revert\n        /* \"#utility.yul\":334:411   */\n    tag_57:\n        /* \"#utility.yul\":371:378   */\n      0x00\n        /* \"#utility.yul\":400:405   */\n      dup2\n        /* \"#utility.yul\":389:405   */\n      swap1\n      pop\n        /* \"#utility.yul\":334:411   */\n      swap2\n      swap1\n      pop\n      jump\t// out\n        /* \"#utility.yul\":417:539   */\n    tag_58:\n        /* \"#utility.yul\":490:514   */\n      tag_72\n        /* \"#utility.yul\":508:513   */\n      dup2\n        /* \"#utility.yul\":490:514   */\n      tag_57\n      jump\t// in\n    tag_72:\n        /* \"#utility.yul\":483:488   */\n      dup2\n        /* \"#utility.yul\":480:515   */\n      eq\n        /* \"#utility.yul\":470:533   */\n      tag_73\n      jumpi\n        /* \"#utility.yul\":529:530   */\n      0x00\n        /* \"#utility.yul\":526:527   */\n      dup1\n        /* \"#utility.yul\":519:531   */\n      revert\n        /* \"#utility.yul\":470:533   */\n    tag_73:\n        /* \"#utility.yul\":417:539   */\n      pop\n      jump\t// out\n        /* \"#utility.yul\":545:684   */\n    tag_59:\n        /* \"#utility.yul\":591:596   */\n      0x00\n        /* \"#utility.yul\":629:635   */\n      dup2\n        /* \"#utility.yul\":616:636   */\n      calldataload\n        /* \"#utility.yul\":607:636   */\n      swap1\n      pop\n        /* \"#utility.yul\":645:678   */\n      tag_75\n        /* \"#utility.yul\":672:677   */\n      dup2\n        /* \"#utility.yul\":645:678   */\n      tag_58\n      jump\t// in\n    tag_75:\n        /* \"#utility.yul\":545:684   */\n      swap3\n      swap2\n      pop\n      pop\n      jump\t// out\n        /* \"#utility.yul\":690:1019   */\n    tag_8:\n        /* \"#utility.yul\":749:755   */\n      0x00\n        /* \"#utility.yul\":798:800   */\n      0x20\n        /* \"#utility.yul\":786:795   */\n      dup3\n        /* \"#utility.yul\":777:784   */\n      dup5\n        /* \"#utility.yul\":773:796   */\n      sub\n        /* \"#utility.yul\":769:801   */\n      slt\n        /* \"#utility.yul\":766:885   */\n      iszero\n      tag_77\n      jumpi\n        /* \"#utility.yul\":804:883   */\n      tag_78\n      tag_55\n      jump\t// in\n    tag_78:\n        /* \"#utility.yul\":766:885   */\n    tag_77:\n        /* \"#utility.yul\":924:925   */\n      0x00\n        /* \"#utility.yul\":949:1002   */\n      tag_79\n        /* \"#utility.yul\":994:1001   */\n      dup5\n        /* \"#utility.yul\":985:991   */\n      dup3\n        /* \"#utility.yul\":974:983   */\n      dup6\n        /* \"#utility.yul\":970:992   */\n      add\n        /* \"#utility.yul\":949:1002   */\n      tag_59\n      jump\t// in\n    tag_79:\n        /* \"#utility.yul\":939:1002   */\n      swap2\n      pop\n        /* \"#utility.yul\":895:1012   */\n      pop\n        /* \"#utility.yul\":690:1019   */\n      swap3\n      swap2\n      pop\n      pop\n      jump\t// out\n        /* \"#utility.yul\":1025:1124   */\n    tag_60:\n        /* \"#utility.yul\":1077:1083   */\n      0x00\n        /* \"#utility.yul\":1111:1116   */\n      dup2\n        /* \"#utility.yul\":1105:1117   */\n      mload\n        /* \"#utility.yul\":1095:1117   */\n      swap1\n      pop\n        /* \"#utility.yul\":1025:1124   */\n      swap2\n      swap1\n      pop\n      jump\t// out\n        /* \"#utility.yul\":1130:1299   */\n    tag_61:\n        /* \"#utility.yul\":1214:1225   */\n      0x00\n        /* \"#utility.yul\":1248:1254   */\n      dup3\n        /* \"#utility.yul\":1243:1246   */\n      dup3\n        /* \"#utility.yul\":1236:1255   */\n      mstore\n        /* \"#utility.yul\":1288:1292   */\n      0x20\n        /* \"#utility.yul\":1283:1286   */\n      dup3\n        /* \"#utility.yul\":1279:1293   */\n      add\n        /* \"#utility.yul\":1264:1293   */\n      swap1\n      pop\n        /* \"#utility.yul\":1130:1299   */\n      swap3\n      swap2\n      pop\n      pop\n      jump\t// out\n        /* \"#utility.yul\":1305:1551   */\n    tag_62:\n        /* \"#utility.yul\":1386:1387   */\n      0x00\n        /* \"#utility.yul\":1396:1509   */\n    tag_83:\n        /* \"#utility.yul\":1410:1416   */\n      dup4\n        /* \"#utility.yul\":1407:1408   */\n      dup2\n        /* \"#utility.yul\":1404:1417   */\n      lt\n        /* \"#utility.yul\":1396:1509   */\n      iszero\n      tag_85\n      jumpi\n        /* \"#utility.yul\":1495:1496   */\n      dup1\n        /* \"#utility.yul\":1490:1493   */\n      dup3\n        /* \"#utility.yul\":1486:1497   */\n      add\n        /* \"#utility.yul\":1480:1498   */\n      mload\n        /* \"#utility.yul\":1476:1477   */\n      dup2\n        /* \"#utility.yul\":1471:1474   */\n      dup5\n        /* \"#utility.yul\":1467:1478   */\n      add\n        /* \"#utility.yul\":1460:1499   */\n      mstore\n        /* \"#utility.yul\":1432:1434   */\n      0x20\n        /* \"#utility.yul\":1429:1430   */\n      dup2\n        /* \"#utility.yul\":1425:1435   */\n      add\n        /* \"#utility.yul\":1420:1435   */\n      swap1\n      pop\n        /* \"#utility.yul\":1396:1509   */\n      jump(tag_83)\n    tag_85:\n        /* \"#utility.yul\":1543:1544   */\n      0x00\n        /* \"#utility.yul\":1534:1540   */\n      dup5\n        /* \"#utility.yul\":1529:1532   */\n      dup5\n        /* \"#utility.yul\":1525:1541   */\n      add\n        /* \"#utility.yul\":1518:1545   */\n      mstore\n        /* \"#utility.yul\":1367:1551   */\n      pop\n        /* \"#utility.yul\":1305:1551   */\n      pop\n      pop\n      pop\n      jump\t// out\n        /* \"#utility.yul\":1557:1659   */\n    tag_63:\n        /* \"#utility.yul\":1598:1604   */\n      0x00\n        /* \"#utility.yul\":1649:1651   */\n      0x1f\n        /* \"#utility.yul\":1645:1652   */\n      not\n        /* \"#utility.yul\":1640:1642   */\n      0x1f\n        /* \"#utility.yul\":1633:1638   */\n      dup4\n        /* \"#utility.yul\":1629:1643   */\n      add\n        /* \"#utility.yul\":1625:1653   */\n      and\n        /* \"#utility.yul\":1615:1653   */\n      swap1\n      pop\n        /* \"#utility.yul\":1557:1659   */\n      swap2\n      swap1\n      pop\n      jump\t// out\n        /* \"#utility.yul\":1665:2042   */\n    tag_64:\n        /* \"#utility.yul\":1753:1756   */\n      0x00\n        /* \"#utility.yul\":1781:1820   */\n      tag_88\n        /* \"#utility.yul\":1814:1819   */\n      dup3\n        /* \"#utility.yul\":1781:1820   */\n      tag_60\n      jump\t// in\n    tag_88:\n        /* \"#utility.yul\":1836:1907   */\n      tag_89\n        /* \"#utility.yul\":1900:1906   */\n      dup2\n        /* \"#utility.yul\":1895:1898   */\n      dup6\n        /* \"#utility.yul\":1836:1907   */\n      tag_61\n      jump\t// in\n    tag_89:\n        /* \"#utility.yul\":1829:1907   */\n      swap4\n      pop\n        /* \"#utility.yul\":1916:1981   */\n      tag_90\n        /* \"#utility.yul\":1974:1980   */\n      dup2\n        /* \"#utility.yul\":1969:1972   */\n      dup6\n        /* \"#utility.yul\":1962:1966   */\n      0x20\n        /* \"#utility.yul\":1955:1960   */\n      dup7\n        /* \"#utility.yul\":1951:1967   */\n      add\n        /* \"#utility.yul\":1916:1981   */\n      tag_62\n      jump\t// in\n    tag_90:\n        /* \"#utility.yul\":2006:2035   */\n      tag_91\n        /* \"#utility.yul\":2028:2034   */\n      dup2\n        /* \"#utility.yul\":2006:2035   */\n      tag_63\n      jump\t// in\n    tag_91:\n        /* \"#utility.yul\":2001:2004   */\n      dup5\n        /* \"#utility.yul\":1997:2036   */\n      add\n        /* \"#utility.yul\":1990:2036   */\n      swap2\n      pop\n        /* \"#utility.yul\":1757:2042   */\n      pop\n        /* \"#utility.yul\":1665:2042   */\n      swap3\n      swap2\n      pop\n      pop\n      jump\t// out\n        /* \"#utility.yul\":2048:2361   */\n    tag_11:\n        /* \"#utility.yul\":2161:2165   */\n      0x00\n        /* \"#utility.yul\":2199:2201   */\n      0x20\n        /* \"#utility.yul\":2188:2197   */\n      dup3\n        /* \"#utility.yul\":2184:2202   */\n      add\n        /* \"#utility.yul\":2176:2202   */\n      swap1\n      pop\n        /* \"#utility.yul\":2248:2257   */\n      dup2\n        /* \"#utility.yul\":2242:2246   */\n      dup2\n        /* \"#utility.yul\":2238:2258   */\n      sub\n        /* \"#utility.yul\":2234:2235   */\n      0x00\n        /* \"#utility.yul\":2223:2232   */\n      dup4\n        /* \"#utility.yul\":2219:2236   */\n      add\n        /* \"#utility.yul\":2212:2259   */\n      mstore\n        /* \"#utility.yul\":2276:2354   */\n      tag_93\n        /* \"#utility.yul\":2349:2353   */\n      dup2\n        /* \"#utility.yul\":2340:2346   */\n      dup5\n        /* \"#utility.yul\":2276:2354   */\n      tag_64\n      jump\t// in\n    tag_93:\n        /* \"#utility.yul\":2268:2354   */\n      swap1\n      pop\n        /* \"#utility.yul\":2048:2361   */\n      swap3\n      swap2\n      pop\n      pop\n      jump\t// out\n        /* \"#utility.yul\":2367:2547   */\n    tag_65:\n        /* \"#utility.yul\":2415:2492   */\n      0x4e487b7100000000000000000000000000000000000000000000000000000000\n        /* \"#utility.yul\":2412:2413   */\n      0x00\n        /* \"#utility.yul\":2405:2493   */\n      mstore\n        /* \"#utility.yul\":2512:2516   */\n      0x12\n        /* \"#utility.yul\":2509:2510   */\n      0x04\n        /* \"#utility.yul\":2502:2517   */\n      mstore\n        /* \"#utility.yul\":2536:2540   */\n      0x24\n        /* \"#utility.yul\":2533:2534   */\n      0x00\n        /* \"#utility.yul\":2526:2541   */\n      revert\n        /* \"#utility.yul\":2553:2729   */\n    tag_29:\n        /* \"#utility.yul\":2585:2586   */\n      0x00\n        /* \"#utility.yul\":2602:2622   */\n      tag_96\n        /* \"#utility.yul\":2620:2621   */\n      dup3\n        /* \"#utility.yul\":2602:2622   */\n      tag_57\n      jump\t// in\n    tag_96:\n        /* \"#utility.yul\":2597:2622   */\n      swap2\n      pop\n        /* \"#utility.yul\":2636:2656   */\n      tag_97\n        /* \"#utility.yul\":2654:2655   */\n      dup4\n        /* \"#utility.yul\":2636:2656   */\n      tag_57\n      jump\t// in\n    tag_97:\n        /* \"#utility.yul\":2631:2656   */\n      swap3\n      pop\n        /* \"#utility.yul\":2675:2676   */\n      dup3\n        /* \"#utility.yul\":2665:2700   */\n      tag_98\n      jumpi\n        /* \"#utility.yul\":2680:2698   */\n      tag_99\n      tag_65\n      jump\t// in\n    tag_99:\n        /* \"#utility.yul\":2665:2700   */\n    tag_98:\n        /* \"#utility.yul\":2721:2722   */\n      dup3\n        /* \"#utility.yul\":2718:2719   */\n      dup3\n        /* \"#utility.yul\":2714:2723   */\n      mod\n        /* \"#utility.yul\":2709:2723   */\n      swap1\n      pop\n        /* \"#utility.yul\":2553:2729   */\n      swap3\n      swap2\n      pop\n      pop\n      jump\t// out\n\n    auxdata: 0xa26469706673582212207fd0dc74a26518674d10dc23f6d1a74fe8c7e9d6ab0ee4c79ec1def518e31f6c64736f6c63430008160033\n}\n",
				"bytecode": {
					"linkReferences": {},
					"object": "608060405234801561000f575f80fd5b506106318061001d5f395ff3fe608060405234801561000f575f80fd5b506004361061003f575f3560e01c806311ae15791461004357806373f135a714610073578063eba31cc4146100a3575b5f80fd5b61005d600480360381019061005891906104c9565b6100d3565b60405161006a919061057e565b60405180910390f35b61008d600480360381019061008891906104c9565b6101e2565b60405161009a919061057e565b60405180910390f35b6100bd60048036038101906100b891906104c9565b610362565b6040516100ca919061057e565b60405180910390f35b6060605a821061011a576040518060400160405280600181526020017f410000000000000000000000000000000000000000000000000000000000000081525090506101dd565b6050821061015f576040518060400160405280600181526020017f420000000000000000000000000000000000000000000000000000000000000081525090506101dd565b604682106101a4576040518060400160405280600181526020017f430000000000000000000000000000000000000000000000000000000000000081525090506101dd565b6040518060400160405280600181526020017f440000000000000000000000000000000000000000000000000000000000000081525090505b919050565b60605f6002836101f291906105cb565b1480156101ff5750602882115b8061020a5750601482105b1561024c576040518060400160405280600181526020017f4100000000000000000000000000000000000000000000000000000000000000815250905061035d565b6028821115801561025e575060148210155b801561027657505f60028361027391906105cb565b14155b156102b8576040518060400160405280600181526020017f4200000000000000000000000000000000000000000000000000000000000000815250905061035d565b602882111580156102ca575060148210155b80156102e257505f6002836102df91906105cb565b14155b15610324576040518060400160405280600181526020017f4300000000000000000000000000000000000000000000000000000000000000815250905061035d565b6040518060400160405280600181526020017f440000000000000000000000000000000000000000000000000000000000000081525090505b919050565b60605f60028361037291906105cb565b036103b4576040518060400160405280600181526020017f4100000000000000000000000000000000000000000000000000000000000000815250905061048d565b5f6003836103c291906105cb565b03610404576040518060400160405280600181526020017f4200000000000000000000000000000000000000000000000000000000000000815250905061048d565b5f60058361041291906105cb565b03610454576040518060400160405280600181526020017f4300000000000000000000000000000000000000000000000000000000000000815250905061048d565b6040518060400160405280600181526020017f440000000000000000000000000000000000000000000000000000000000000081525090505b919050565b5f80fd5b5f819050919050565b6104a881610496565b81146104b2575f80fd5b50565b5f813590506104c38161049f565b92915050565b5f602082840312156104de576104dd610492565b5b5f6104eb848285016104b5565b91505092915050565b5f81519050919050565b5f82825260208201905092915050565b5f5b8381101561052b578082015181840152602081019050610510565b5f8484015250505050565b5f601f19601f8301169050919050565b5f610550826104f4565b61055a81856104fe565b935061056a81856020860161050e565b61057381610536565b840191505092915050565b5f6020820190508181035f8301526105968184610546565b905092915050565b7f4e487b71000000000000000000000000000000000000000000000000000000005f52601260045260245ffd5b5f6105d582610496565b91506105e083610496565b9250826105f0576105ef61059e565b5b82820690509291505056fea26469706673582212207fd0dc74a26518674d10dc23f6d1a74fe8c7e9d6ab0ee4c79ec1def518e31f6c64736f6c63430008160033",
					"opcodes": "PUSH1 0x80 PUSH1 0x40 MSTORE CALLVALUE DUP1 ISZERO PUSH2 0xF JUMPI PUSH0 DUP1 REVERT JUMPDEST POP PUSH2 0x631 DUP1 PUSH2 0x1D PUSH0 CODECOPY PUSH0 RETURN INVALID PUSH1 0x80 PUSH1 0x40 MSTORE CALLVALUE DUP1 ISZERO PUSH2 0xF JUMPI PUSH0 DUP1 REVERT JUMPDEST POP PUSH1 0x4 CALLDATASIZE LT PUSH2 0x3F JUMPI PUSH0 CALLDATALOAD PUSH1 0xE0 SHR DUP1 PUSH4 0x11AE1579 EQ PUSH2 0x43 JUMPI DUP1 PUSH4 0x73F135A7 EQ PUSH2 0x73 JUMPI DUP1 PUSH4 0xEBA31CC4 EQ PUSH2 0xA3 JUMPI JUMPDEST PUSH0 DUP1 REVERT JUMPDEST PUSH2 0x5D PUSH1 0x4 DUP1 CALLDATASIZE SUB DUP2 ADD SWAP1 PUSH2 0x58 SWAP2 SWAP1 PUSH2 0x4C9 JUMP JUMPDEST PUSH2 0xD3 JUMP JUMPDEST PUSH1 0x40 MLOAD PUSH2 0x6A SWAP2 SWAP1 PUSH2 0x57E JUMP JUMPDEST PUSH1 0x40 MLOAD DUP1 SWAP2 SUB SWAP1 RETURN JUMPDEST PUSH2 0x8D PUSH1 0x4 DUP1 CALLDATASIZE SUB DUP2 ADD SWAP1 PUSH2 0x88 SWAP2 SWAP1 PUSH2 0x4C9 JUMP JUMPDEST PUSH2 0x1E2 JUMP JUMPDEST PUSH1 0x40 MLOAD PUSH2 0x9A SWAP2 SWAP1 PUSH2 0x57E JUMP JUMPDEST PUSH1 0x40 MLOAD DUP1 SWAP2 SUB SWAP1 RETURN JUMPDEST PUSH2 0xBD PUSH1 0x4 DUP1 CALLDATASIZE SUB DUP2 ADD SWAP1 PUSH2 0xB8 SWAP2 SWAP1 PUSH2 0x4C9 JUMP JUMPDEST PUSH2 0x362 JUMP JUMPDEST PUSH1 0x40 MLOAD PUSH2 0xCA SWAP2 SWAP1 PUSH2 0x57E JUMP JUMPDEST PUSH1 0x40 MLOAD DUP1 SWAP2 SUB SWAP1 RETURN JUMPDEST PUSH1 0x60 PUSH1 0x5A DUP3 LT PUSH2 0x11A JUMPI PUSH1 0x40 MLOAD DUP1 PUSH1 0x40 ADD PUSH1 0x40 MSTORE DUP1 PUSH1 0x1 DUP2 MSTORE PUSH1 0x20 ADD PUSH32 0x4100000000000000000000000000000000000000000000000000000000000000 DUP2 MSTORE POP SWAP1 POP PUSH2 0x1DD JUMP JUMPDEST PUSH1 0x50 DUP3 LT PUSH2 0x15F JUMPI PUSH1 0x40 MLOAD DUP1 PUSH1 0x40 ADD PUSH1 0x40 MSTORE DUP1 PUSH1 0x1 DUP2 MSTORE PUSH1 0x20 ADD PUSH32 0x4200000000000000000000000000000000000000000000000000000000000000 DUP2 MSTORE POP SWAP1 POP PUSH2 0x1DD JUMP JUMPDEST PUSH1 0x46 DUP3 LT PUSH2 0x1A4 JUMPI PUSH1 0x40 MLOAD DUP1 PUSH1 0x40 ADD PUSH1 0x40 MSTORE DUP1 PUSH1 0x1 DUP2 MSTORE PUSH1 0x20 ADD PUSH32 0x4300000000000000000000000000000000000000000000000000000000000000 DUP2 MSTORE POP SWAP1 POP PUSH2 0x1DD JUMP JUMPDEST PUSH1 0x40 MLOAD DUP1 PUSH1 0x40 ADD PUSH1 0x40 MSTORE DUP1 PUSH1 0x1 DUP2 MSTORE PUSH1 0x20 ADD PUSH32 0x4400000000000000000000000000000000000000000000000000000000000000 DUP2 MSTORE POP SWAP1 POP JUMPDEST SWAP2 SWAP1 POP JUMP JUMPDEST PUSH1 0x60 PUSH0 PUSH1 0x2 DUP4 PUSH2 0x1F2 SWAP2 SWAP1 PUSH2 0x5CB JUMP JUMPDEST EQ DUP1 ISZERO PUSH2 0x1FF JUMPI POP PUSH1 0x28 DUP3 GT JUMPDEST DUP1 PUSH2 0x20A JUMPI POP PUSH1 0x14 DUP3 LT JUMPDEST ISZERO PUSH2 0x24C JUMPI PUSH1 0x40 MLOAD DUP1 PUSH1 0x40 ADD PUSH1 0x40 MSTORE DUP1 PUSH1 0x1 DUP2 MSTORE PUSH1 0x20 ADD PUSH32 0x4100000000000000000000000000000000000000000000000000000000000000 DUP2 MSTORE POP SWAP1 POP PUSH2 0x35D JUMP JUMPDEST PUSH1 0x28 DUP3 GT ISZERO DUP1 ISZERO PUSH2 0x25E JUMPI POP PUSH1 0x14 DUP3 LT ISZERO JUMPDEST DUP1 ISZERO PUSH2 0x276 JUMPI POP PUSH0 PUSH1 0x2 DUP4 PUSH2 0x273 SWAP2 SWAP1 PUSH2 0x5CB JUMP JUMPDEST EQ ISZERO JUMPDEST ISZERO PUSH2 0x2B8 JUMPI PUSH1 0x40 MLOAD DUP1 PUSH1 0x40 ADD PUSH1 0x40 MSTORE DUP1 PUSH1 0x1 DUP2 MSTORE PUSH1 0x20 ADD PUSH32 0x4200000000000000000000000000000000000000000000000000000000000000 DUP2 MSTORE POP SWAP1 POP PUSH2 0x35D JUMP JUMPDEST PUSH1 0x28 DUP3 GT ISZERO DUP1 ISZERO PUSH2 0x2CA JUMPI POP PUSH1 0x14 DUP3 LT ISZERO JUMPDEST DUP1 ISZERO PUSH2 0x2E2 JUMPI POP PUSH0 PUSH1 0x2 DUP4 PUSH2 0x2DF SWAP2 SWAP1 PUSH2 0x5CB JUMP JUMPDEST EQ ISZERO JUMPDEST ISZERO PUSH2 0x324 JUMPI PUSH1 0x40 MLOAD DUP1 PUSH1 0x40 ADD PUSH1 0x40 MSTORE DUP1 PUSH1 0x1 DUP2 MSTORE PUSH1 0x20 ADD PUSH32 0x4300000000000000000000000000000000000000000000000000000000000000 DUP2 MSTORE POP SWAP1 POP PUSH2 0x35D JUMP JUMPDEST PUSH1 0x40 MLOAD DUP1 PUSH1 0x40 ADD PUSH1 0x40 MSTORE DUP1 PUSH1 0x1 DUP2 MSTORE PUSH1 0x20 ADD PUSH32 0x4400000000000000000000000000000000000000000000000000000000000000 DUP2 MSTORE POP SWAP1 POP JUMPDEST SWAP2 SWAP1 POP JUMP JUMPDEST PUSH1 0x60 PUSH0 PUSH1 0x2 DUP4 PUSH2 0x372 SWAP2 SWAP1 PUSH2 0x5CB JUMP JUMPDEST SUB PUSH2 0x3B4 JUMPI PUSH1 0x40 MLOAD DUP1 PUSH1 0x40 ADD PUSH1 0x40 MSTORE DUP1 PUSH1 0x1 DUP2 MSTORE PUSH1 0x20 ADD PUSH32 0x4100000000000000000000000000000000000000000000000000000000000000 DUP2 MSTORE POP SWAP1 POP PUSH2 0x48D JUMP JUMPDEST PUSH0 PUSH1 0x3 DUP4 PUSH2 0x3C2 SWAP2 SWAP1 PUSH2 0x5CB JUMP JUMPDEST SUB PUSH2 0x404 JUMPI PUSH1 0x40 MLOAD DUP1 PUSH1 0x40 ADD PUSH1 0x40 MSTORE DUP1 PUSH1 0x1 DUP2 MSTORE PUSH1 0x20 ADD PUSH32 0x4200000000000000000000000000000000000000000000000000000000000000 DUP2 MSTORE POP SWAP1 POP PUSH2 0x48D JUMP JUMPDEST PUSH0 PUSH1 0x5 DUP4 PUSH2 0x412 SWAP2 SWAP1 PUSH2 0x5CB JUMP JUMPDEST SUB PUSH2 0x454 JUMPI PUSH1 0x40 MLOAD DUP1 PUSH1 0x40 ADD PUSH1 0x40 MSTORE DUP1 PUSH1 0x1 DUP2 MSTORE PUSH1 0x20 ADD PUSH32 0x4300000000000000000000000000000000000000000000000000000000000000 DUP2 MSTORE POP SWAP1 POP PUSH2 0x48D JUMP JUMPDEST PUSH1 0x40 MLOAD DUP1 PUSH1 0x40 ADD PUSH1 0x40 MSTORE DUP1 PUSH1 0x1 DUP2 MSTORE PUSH1 0x20 ADD PUSH32 0x4400000000000000000000000000000000000000000000000000000000000000 DUP2 MSTORE POP SWAP1 POP JUMPDEST SWAP2 SWAP1 POP JUMP JUMPDEST PUSH0 DUP1 REVERT JUMPDEST PUSH0 DUP2 SWAP1 POP SWAP2 SWAP1 POP JUMP JUMPDEST PUSH2 0x4A8 DUP2 PUSH2 0x496 JUMP JUMPDEST DUP2 EQ PUSH2 0x4B2 JUMPI PUSH0 DUP1 REVERT JUMPDEST POP JUMP JUMPDEST PUSH0 DUP2 CALLDATALOAD SWAP1 POP PUSH2 0x4C3 DUP2 PUSH2 0x49F JUMP JUMPDEST SWAP3 SWAP2 POP POP JUMP JUMPDEST PUSH0 PUSH1 0x20 DUP3 DUP5 SUB SLT ISZERO PUSH2 0x4DE JUMPI PUSH2 0x4DD PUSH2 0x492 JUMP JUMPDEST JUMPDEST PUSH0 PUSH2 0x4EB DUP5 DUP3 DUP6 ADD PUSH2 0x4B5 JUMP JUMPDEST SWAP2 POP POP SWAP3 SWAP2 POP POP JUMP JUMPDEST PUSH0 DUP2 MLOAD SWAP1 POP SWAP2 SWAP1 POP JUMP JUMPDEST PUSH0 DUP3 DUP3 MSTORE PUSH1 0x20 DUP3 ADD SWAP1 POP SWAP3 SWAP2 POP POP JUMP JUMPDEST PUSH0 JUMPDEST DUP4 DUP2 LT ISZERO PUSH2 0x52B JUMPI DUP1 DUP3 ADD MLOAD DUP2 DUP5 ADD MSTORE PUSH1 0x20 DUP2 ADD SWAP1 POP PUSH2 0x510 JUMP JUMPDEST PUSH0 DUP5 DUP5 ADD MSTORE POP POP POP POP JUMP JUMPDEST PUSH0 PUSH1 0x1F NOT PUSH1 0x1F DUP4 ADD AND SWAP1 POP SWAP2 SWAP1 POP JUMP JUMPDEST PUSH0 PUSH2 0x550 DUP3 PUSH2 0x4F4 JUMP JUMPDEST PUSH2 0x55A DUP2 DUP6 PUSH2 0x4FE JUMP JUMPDEST SWAP4 POP PUSH2 0x56A DUP2 DUP6 PUSH1 0x20 DUP7 ADD PUSH2 0x50E JUMP JUMPDEST PUSH2 0x573 DUP2 PUSH2 0x536 JUMP JUMPDEST DUP5 ADD SWAP2 POP POP SWAP3 SWAP2 POP POP JUMP JUMPDEST PUSH0 PUSH1 0x20 DUP3 ADD SWAP1 POP DUP2 DUP2 SUB PUSH0 DUP4 ADD MSTORE PUSH2 0x596 DUP2 DUP5 PUSH2 0x546 JUMP JUMPDEST SWAP1 POP SWAP3 SWAP2 POP POP JUMP JUMPDEST PUSH32 0x4E487B7100000000000000000000000000000000000000000000000000000000 PUSH0 MSTORE PUSH1 0x12 PUSH1 0x4 MSTORE PUSH1 0x24 PUSH0 REVERT JUMPDEST PUSH0 PUSH2 0x5D5 DUP3 PUSH2 0x496 JUMP JUMPDEST SWAP2 POP PUSH2 0x5E0 DUP4 PUSH2 0x496 JUMP JUMPDEST SWAP3 POP DUP3 PUSH2 0x5F0 JUMPI PUSH2 0x5EF PUSH2 0x59E JUMP JUMPDEST JUMPDEST DUP3 DUP3 MOD SWAP1 POP SWAP3 SWAP2 POP POP JUMP INVALID LOG2 PUSH5 0x6970667358 0x22 SLT KECCAK256 PUSH32 0xD0DC74A26518674D10DC23F6D1A74FE8C7E9D6AB0EE4C79EC1DEF518E31F6C64 PUSH20 0x6F6C634300081600330000000000000000000000 "
				},
				"gasEstimates": {
					"creation": {
						"codeDepositCost": "317000",
						"executionCost": "353",
						"totalCost": "317353"
					},
					"external": {
						"answery(uint256)": "infinite",
						"div(uint256)": "infinite",
						"grade(uint256)": "infinite"
					}
				},
				"methodIdentifiers": {
					"answery(uint256)": "73f135a7",
					"div(uint256)": "eba31cc4",
					"grade(uint256)": "11ae1579"
				}
			},
			"storageLayout": {
				"storage": [],
				"types": null
			},
			"userdoc": {
				"kind": "user",
				"methods": {},
				"version": 1
			}
		}
	}
}