{
	"contracts/mapping3.sol": {
		"MAPPING": {
			"abi": [
				{
					"inputs": [
						{
							"internalType": "string",
							"name": "_teacher",
							"type": "string"
						}
					],
					"name": "getTeacherStudent1",
					"outputs": [
						{
							"components": [
								{
									"internalType": "string",
									"name": "name",
									"type": "string"
								},
								{
									"internalType": "uint256",
									"name": "number",
									"type": "uint256"
								}
							],
							"internalType": "struct MAPPING.Student",
							"name": "",
							"type": "tuple"
						}
					],
					"stateMutability": "view",
					"type": "function"
				},
				{
					"inputs": [
						{
							"internalType": "string",
							"name": "_teacher",
							"type": "string"
						}
					],
					"name": "getTeacherStudent2",
					"outputs": [
						{
							"components": [
								{
									"internalType": "string",
									"name": "name",
									"type": "string"
								},
								{
									"internalType": "uint256",
									"name": "number",
									"type": "uint256"
								}
							],
							"internalType": "struct MAPPING.Student[]",
							"name": "",
							"type": "tuple[]"
						}
					],
					"stateMutability": "view",
					"type": "function"
				},
				{
					"inputs": [
						{
							"internalType": "string",
							"name": "_teacher",
							"type": "string"
						},
						{
							"components": [
								{
									"internalType": "string",
									"name": "name",
									"type": "string"
								},
								{
									"internalType": "uint256",
									"name": "number",
									"type": "uint256"
								}
							],
							"internalType": "struct MAPPING.Student",
							"name": "_s1",
							"type": "tuple"
						}
					],
					"name": "setTeacherStudent1",
					"outputs": [],
					"stateMutability": "nonpayable",
					"type": "function"
				},
				{
					"inputs": [
						{
							"internalType": "string",
							"name": "_teacher",
							"type": "string"
						},
						{
							"components": [
								{
									"internalType": "string",
									"name": "name",
									"type": "string"
								},
								{
									"internalType": "uint256",
									"name": "number",
									"type": "uint256"
								}
							],
							"internalType": "struct MAPPING.Student",
							"name": "_s2",
							"type": "tuple"
						}
					],
					"name": "setTeacherStudent2",
					"outputs": [],
					"stateMutability": "nonpayable",
					"type": "function"
				}
			],
			"devdoc": {
				"kind": "dev",
				"methods": {},
				"version": 1
			},
			"evm": {
				"assembly": "    /* \"contracts/mapping3.sol\":61:795  contract MAPPING{... */\n  mstore(0x40, 0x80)\n  callvalue\n  dup1\n  iszero\n  tag_1\n  jumpi\n  0x00\n  dup1\n  revert\ntag_1:\n  pop\n  dataSize(sub_0)\n  dup1\n  dataOffset(sub_0)\n  0x00\n  codecopy\n  0x00\n  return\nstop\n\nsub_0: assembly {\n        /* \"contracts/mapping3.sol\":61:795  contract MAPPING{... */\n      mstore(0x40, 0x80)\n      callvalue\n      dup1\n      iszero\n      tag_1\n      jumpi\n      0x00\n      dup1\n      revert\n    tag_1:\n      pop\n      jumpi(tag_2, lt(calldatasize, 0x04))\n      shr(0xe0, calldataload(0x00))\n      dup1\n      0x25f94ab4\n      eq\n      tag_3\n      jumpi\n      dup1\n      0x3b91f030\n      eq\n      tag_4\n      jumpi\n      dup1\n      0xd49fadae\n      eq\n      tag_5\n      jumpi\n      dup1\n      0xeedb76dd\n      eq\n      tag_6\n      jumpi\n    tag_2:\n      0x00\n      dup1\n      revert\n        /* \"contracts/mapping3.sol\":525:653  function getTeacherStudent1(string memory _teacher)public view returns(Student memory){... */\n    tag_3:\n      tag_7\n      0x04\n      dup1\n      calldatasize\n      sub\n      dup2\n      add\n      swap1\n      tag_8\n      swap2\n      swap1\n      tag_9\n      jump\t// in\n    tag_8:\n      tag_10\n      jump\t// in\n    tag_7:\n      mload(0x40)\n      tag_11\n      swap2\n      swap1\n      tag_12\n      jump\t// in\n    tag_11:\n      mload(0x40)\n      dup1\n      swap2\n      sub\n      swap1\n      return\n        /* \"contracts/mapping3.sol\":660:791  function getTeacherStudent2(string memory _teacher)public view returns(Student[] memory){... */\n    tag_4:\n      tag_13\n      0x04\n      dup1\n      calldatasize\n      sub\n      dup2\n      add\n      swap1\n      tag_14\n      swap2\n      swap1\n      tag_9\n      jump\t// in\n    tag_14:\n      tag_15\n      jump\t// in\n    tag_13:\n      mload(0x40)\n      tag_16\n      swap2\n      swap1\n      tag_17\n      jump\t// in\n    tag_16:\n      mload(0x40)\n      dup1\n      swap2\n      sub\n      swap1\n      return\n        /* \"contracts/mapping3.sol\":275:392  function setTeacherStudent1(string memory _teacher,Student memory _s1)public {... */\n    tag_5:\n      tag_18\n      0x04\n      dup1\n      calldatasize\n      sub\n      dup2\n      add\n      swap1\n      tag_19\n      swap2\n      swap1\n      tag_20\n      jump\t// in\n    tag_19:\n      tag_21\n      jump\t// in\n    tag_18:\n      stop\n        /* \"contracts/mapping3.sol\":397:519  function setTeacherStudent2(string memory _teacher,Student memory _s2)public{... */\n    tag_6:\n      tag_22\n      0x04\n      dup1\n      calldatasize\n      sub\n      dup2\n      add\n      swap1\n      tag_23\n      swap2\n      swap1\n      tag_20\n      jump\t// in\n    tag_23:\n      tag_24\n      jump\t// in\n    tag_22:\n      stop\n        /* \"contracts/mapping3.sol\":525:653  function getTeacherStudent1(string memory _teacher)public view returns(Student memory){... */\n    tag_10:\n        /* \"contracts/mapping3.sol\":596:610  Student memory */\n      tag_25\n      tag_26\n      jump\t// in\n    tag_25:\n        /* \"contracts/mapping3.sol\":627:636  students1 */\n      0x00\n        /* \"contracts/mapping3.sol\":637:645  _teacher */\n      dup3\n        /* \"contracts/mapping3.sol\":627:646  students1[_teacher] */\n      mload(0x40)\n      tag_28\n      swap2\n      swap1\n      tag_29\n      jump\t// in\n    tag_28:\n      swap1\n      dup2\n      mstore\n      0x20\n      add\n      mload(0x40)\n      dup1\n      swap2\n      sub\n      swap1\n      keccak256\n        /* \"contracts/mapping3.sol\":620:646  return students1[_teacher] */\n      mload(0x40)\n      dup1\n      0x40\n      add\n      0x40\n      mstore\n      swap1\n      dup2\n      0x00\n      dup3\n      add\n      dup1\n      sload\n      tag_30\n      swap1\n      tag_31\n      jump\t// in\n    tag_30:\n      dup1\n      0x1f\n      add\n      0x20\n      dup1\n      swap2\n      div\n      mul\n      0x20\n      add\n      mload(0x40)\n      swap1\n      dup2\n      add\n      0x40\n      mstore\n      dup1\n      swap3\n      swap2\n      swap1\n      dup2\n      dup2\n      mstore\n      0x20\n      add\n      dup3\n      dup1\n      sload\n      tag_32\n      swap1\n      tag_31\n      jump\t// in\n    tag_32:\n      dup1\n      iszero\n      tag_33\n      jumpi\n      dup1\n      0x1f\n      lt\n      tag_34\n      jumpi\n      0x0100\n      dup1\n      dup4\n      sload\n      div\n      mul\n      dup4\n      mstore\n      swap2\n      0x20\n      add\n      swap2\n      jump(tag_33)\n    tag_34:\n      dup3\n      add\n      swap2\n      swap1\n      0x00\n      mstore\n      keccak256(0x00, 0x20)\n      swap1\n    tag_35:\n      dup2\n      sload\n      dup2\n      mstore\n      swap1\n      0x01\n      add\n      swap1\n      0x20\n      add\n      dup1\n      dup4\n      gt\n      tag_35\n      jumpi\n      dup3\n      swap1\n      sub\n      0x1f\n      and\n      dup3\n      add\n      swap2\n    tag_33:\n      pop\n      pop\n      pop\n      pop\n      pop\n      dup2\n      mstore\n      0x20\n      add\n      0x01\n      dup3\n      add\n      sload\n      dup2\n      mstore\n      pop\n      pop\n      swap1\n      pop\n        /* \"contracts/mapping3.sol\":525:653  function getTeacherStudent1(string memory _teacher)public view returns(Student memory){... */\n      swap2\n      swap1\n      pop\n      jump\t// out\n        /* \"contracts/mapping3.sol\":660:791  function getTeacherStudent2(string memory _teacher)public view returns(Student[] memory){... */\n    tag_15:\n        /* \"contracts/mapping3.sol\":731:747  Student[] memory */\n      0x60\n        /* \"contracts/mapping3.sol\":765:774  students2 */\n      0x01\n        /* \"contracts/mapping3.sol\":775:783  _teacher */\n      dup3\n        /* \"contracts/mapping3.sol\":765:784  students2[_teacher] */\n      mload(0x40)\n      tag_37\n      swap2\n      swap1\n      tag_29\n      jump\t// in\n    tag_37:\n      swap1\n      dup2\n      mstore\n      0x20\n      add\n      mload(0x40)\n      dup1\n      swap2\n      sub\n      swap1\n      keccak256\n        /* \"contracts/mapping3.sol\":757:784  return  students2[_teacher] */\n      dup1\n      sload\n      dup1\n      0x20\n      mul\n      0x20\n      add\n      mload(0x40)\n      swap1\n      dup2\n      add\n      0x40\n      mstore\n      dup1\n      swap3\n      swap2\n      swap1\n      dup2\n      dup2\n      mstore\n      0x20\n      add\n      0x00\n      swap1\n    tag_38:\n      dup3\n      dup3\n      lt\n      iszero\n      tag_39\n      jumpi\n      dup4\n      dup3\n      swap1\n      0x00\n      mstore\n      keccak256(0x00, 0x20)\n      swap1\n      0x02\n      mul\n      add\n      mload(0x40)\n      dup1\n      0x40\n      add\n      0x40\n      mstore\n      swap1\n      dup2\n      0x00\n      dup3\n      add\n      dup1\n      sload\n      tag_41\n      swap1\n      tag_31\n      jump\t// in\n    tag_41:\n      dup1\n      0x1f\n      add\n      0x20\n      dup1\n      swap2\n      div\n      mul\n      0x20\n      add\n      mload(0x40)\n      swap1\n      dup2\n      add\n      0x40\n      mstore\n      dup1\n      swap3\n      swap2\n      swap1\n      dup2\n      dup2\n      mstore\n      0x20\n      add\n      dup3\n      dup1\n      sload\n      tag_42\n      swap1\n      tag_31\n      jump\t// in\n    tag_42:\n      dup1\n      iszero\n      tag_43\n      jumpi\n      dup1\n      0x1f\n      lt\n      tag_44\n      jumpi\n      0x0100\n      dup1\n      dup4\n      sload\n      div\n      mul\n      dup4\n      mstore\n      swap2\n      0x20\n      add\n      swap2\n      jump(tag_43)\n    tag_44:\n      dup3\n      add\n      swap2\n      swap1\n      0x00\n      mstore\n      keccak256(0x00, 0x20)\n      swap1\n    tag_45:\n      dup2\n      sload\n      dup2\n      mstore\n      swap1\n      0x01\n      add\n      swap1\n      0x20\n      add\n      dup1\n      dup4\n      gt\n      tag_45\n      jumpi\n      dup3\n      swap1\n      sub\n      0x1f\n      and\n      dup3\n      add\n      swap2\n    tag_43:\n      pop\n      pop\n      pop\n      pop\n      pop\n      dup2\n      mstore\n      0x20\n      add\n      0x01\n      dup3\n      add\n      sload\n      dup2\n      mstore\n      pop\n      pop\n      dup2\n      mstore\n      0x20\n      add\n      swap1\n      0x01\n      add\n      swap1\n      jump(tag_38)\n    tag_39:\n      pop\n      pop\n      pop\n      pop\n      swap1\n      pop\n        /* \"contracts/mapping3.sol\":660:791  function getTeacherStudent2(string memory _teacher)public view returns(Student[] memory){... */\n      swap2\n      swap1\n      pop\n      jump\t// out\n        /* \"contracts/mapping3.sol\":275:392  function setTeacherStudent1(string memory _teacher,Student memory _s1)public {... */\n    tag_21:\n        /* \"contracts/mapping3.sol\":382:385  _s1 */\n      dup1\n        /* \"contracts/mapping3.sol\":362:371  students1 */\n      0x00\n        /* \"contracts/mapping3.sol\":372:380  _teacher */\n      dup4\n        /* \"contracts/mapping3.sol\":362:381  students1[_teacher] */\n      mload(0x40)\n      tag_47\n      swap2\n      swap1\n      tag_29\n      jump\t// in\n    tag_47:\n      swap1\n      dup2\n      mstore\n      0x20\n      add\n      mload(0x40)\n      dup1\n      swap2\n      sub\n      swap1\n      keccak256\n        /* \"contracts/mapping3.sol\":362:385  students1[_teacher]=_s1 */\n      0x00\n      dup3\n      add\n      mload\n      dup2\n      0x00\n      add\n      swap1\n      dup2\n      tag_48\n      swap2\n      swap1\n      tag_49\n      jump\t// in\n    tag_48:\n      pop\n      0x20\n      dup3\n      add\n      mload\n      dup2\n      0x01\n      add\n      sstore\n      swap1\n      pop\n      pop\n        /* \"contracts/mapping3.sol\":275:392  function setTeacherStudent1(string memory _teacher,Student memory _s1)public {... */\n      pop\n      pop\n      jump\t// out\n        /* \"contracts/mapping3.sol\":397:519  function setTeacherStudent2(string memory _teacher,Student memory _s2)public{... */\n    tag_24:\n        /* \"contracts/mapping3.sol\":483:492  students2 */\n      0x01\n        /* \"contracts/mapping3.sol\":493:501  _teacher */\n      dup3\n        /* \"contracts/mapping3.sol\":483:502  students2[_teacher] */\n      mload(0x40)\n      tag_51\n      swap2\n      swap1\n      tag_29\n      jump\t// in\n    tag_51:\n      swap1\n      dup2\n      mstore\n      0x20\n      add\n      mload(0x40)\n      dup1\n      swap2\n      sub\n      swap1\n      keccak256\n        /* \"contracts/mapping3.sol\":508:511  _s2 */\n      dup2\n        /* \"contracts/mapping3.sol\":483:512  students2[_teacher].push(_s2) */\n      swap1\n      dup1\n      0x01\n      dup2\n      sload\n      add\n      dup1\n      dup3\n      sstore\n      dup1\n      swap2\n      pop\n      pop\n      0x01\n      swap1\n      sub\n      swap1\n      0x00\n      mstore\n      keccak256(0x00, 0x20)\n      swap1\n      0x02\n      mul\n      add\n      0x00\n      swap1\n      swap2\n      swap1\n      swap2\n      swap1\n      swap2\n      pop\n      0x00\n      dup3\n      add\n      mload\n      dup2\n      0x00\n      add\n      swap1\n      dup2\n      tag_53\n      swap2\n      swap1\n      tag_49\n      jump\t// in\n    tag_53:\n      pop\n      0x20\n      dup3\n      add\n      mload\n      dup2\n      0x01\n      add\n      sstore\n      pop\n      pop\n        /* \"contracts/mapping3.sol\":397:519  function setTeacherStudent2(string memory _teacher,Student memory _s2)public{... */\n      pop\n      pop\n      jump\t// out\n    tag_26:\n      mload(0x40)\n      dup1\n      0x40\n      add\n      0x40\n      mstore\n      dup1\n      0x60\n      dup2\n      mstore\n      0x20\n      add\n      0x00\n      dup2\n      mstore\n      pop\n      swap1\n      jump\t// out\n        /* \"#utility.yul\":7:82   */\n    tag_54:\n        /* \"#utility.yul\":40:46   */\n      0x00\n        /* \"#utility.yul\":73:75   */\n      0x40\n        /* \"#utility.yul\":67:76   */\n      mload\n        /* \"#utility.yul\":57:76   */\n      swap1\n      pop\n        /* \"#utility.yul\":7:82   */\n      swap1\n      jump\t// out\n        /* \"#utility.yul\":88:205   */\n    tag_55:\n        /* \"#utility.yul\":197:198   */\n      0x00\n        /* \"#utility.yul\":194:195   */\n      dup1\n        /* \"#utility.yul\":187:199   */\n      revert\n        /* \"#utility.yul\":211:328   */\n    tag_56:\n        /* \"#utility.yul\":320:321   */\n      0x00\n        /* \"#utility.yul\":317:318   */\n      dup1\n        /* \"#utility.yul\":310:322   */\n      revert\n        /* \"#utility.yul\":334:451   */\n    tag_57:\n        /* \"#utility.yul\":443:444   */\n      0x00\n        /* \"#utility.yul\":440:441   */\n      dup1\n        /* \"#utility.yul\":433:445   */\n      revert\n        /* \"#utility.yul\":457:574   */\n    tag_58:\n        /* \"#utility.yul\":566:567   */\n      0x00\n        /* \"#utility.yul\":563:564   */\n      dup1\n        /* \"#utility.yul\":556:568   */\n      revert\n        /* \"#utility.yul\":580:682   */\n    tag_59:\n        /* \"#utility.yul\":621:627   */\n      0x00\n        /* \"#utility.yul\":672:674   */\n      0x1f\n        /* \"#utility.yul\":668:675   */\n      not\n        /* \"#utility.yul\":663:665   */\n      0x1f\n        /* \"#utility.yul\":656:661   */\n      dup4\n        /* \"#utility.yul\":652:666   */\n      add\n        /* \"#utility.yul\":648:676   */\n      and\n        /* \"#utility.yul\":638:676   */\n      swap1\n      pop\n        /* \"#utility.yul\":580:682   */\n      swap2\n      swap1\n      pop\n      jump\t// out\n        /* \"#utility.yul\":688:868   */\n    tag_60:\n        /* \"#utility.yul\":736:813   */\n      0x4e487b7100000000000000000000000000000000000000000000000000000000\n        /* \"#utility.yul\":733:734   */\n      0x00\n        /* \"#utility.yul\":726:814   */\n      mstore\n        /* \"#utility.yul\":833:837   */\n      0x41\n        /* \"#utility.yul\":830:831   */\n      0x04\n        /* \"#utility.yul\":823:838   */\n      mstore\n        /* \"#utility.yul\":857:861   */\n      0x24\n        /* \"#utility.yul\":854:855   */\n      0x00\n        /* \"#utility.yul\":847:862   */\n      revert\n        /* \"#utility.yul\":874:1155   */\n    tag_61:\n        /* \"#utility.yul\":957:984   */\n      tag_113\n        /* \"#utility.yul\":979:983   */\n      dup3\n        /* \"#utility.yul\":957:984   */\n      tag_59\n      jump\t// in\n    tag_113:\n        /* \"#utility.yul\":949:955   */\n      dup2\n        /* \"#utility.yul\":945:985   */\n      add\n        /* \"#utility.yul\":1087:1093   */\n      dup2\n        /* \"#utility.yul\":1075:1085   */\n      dup2\n        /* \"#utility.yul\":1072:1094   */\n      lt\n        /* \"#utility.yul\":1051:1069   */\n      0xffffffffffffffff\n        /* \"#utility.yul\":1039:1049   */\n      dup3\n        /* \"#utility.yul\":1036:1070   */\n      gt\n        /* \"#utility.yul\":1033:1095   */\n      or\n        /* \"#utility.yul\":1030:1118   */\n      iszero\n      tag_114\n      jumpi\n        /* \"#utility.yul\":1098:1116   */\n      tag_115\n      tag_60\n      jump\t// in\n    tag_115:\n        /* \"#utility.yul\":1030:1118   */\n    tag_114:\n        /* \"#utility.yul\":1138:1148   */\n      dup1\n        /* \"#utility.yul\":1134:1136   */\n      0x40\n        /* \"#utility.yul\":1127:1149   */\n      mstore\n        /* \"#utility.yul\":917:1155   */\n      pop\n        /* \"#utility.yul\":874:1155   */\n      pop\n      pop\n      jump\t// out\n        /* \"#utility.yul\":1161:1290   */\n    tag_62:\n        /* \"#utility.yul\":1195:1201   */\n      0x00\n        /* \"#utility.yul\":1222:1242   */\n      tag_117\n      tag_54\n      jump\t// in\n    tag_117:\n        /* \"#utility.yul\":1212:1242   */\n      swap1\n      pop\n        /* \"#utility.yul\":1251:1284   */\n      tag_118\n        /* \"#utility.yul\":1279:1283   */\n      dup3\n        /* \"#utility.yul\":1271:1277   */\n      dup3\n        /* \"#utility.yul\":1251:1284   */\n      tag_61\n      jump\t// in\n    tag_118:\n        /* \"#utility.yul\":1161:1290   */\n      swap2\n      swap1\n      pop\n      jump\t// out\n        /* \"#utility.yul\":1296:1604   */\n    tag_63:\n        /* \"#utility.yul\":1358:1362   */\n      0x00\n        /* \"#utility.yul\":1448:1466   */\n      0xffffffffffffffff\n        /* \"#utility.yul\":1440:1446   */\n      dup3\n        /* \"#utility.yul\":1437:1467   */\n      gt\n        /* \"#utility.yul\":1434:1490   */\n      iszero\n      tag_120\n      jumpi\n        /* \"#utility.yul\":1470:1488   */\n      tag_121\n      tag_60\n      jump\t// in\n    tag_121:\n        /* \"#utility.yul\":1434:1490   */\n    tag_120:\n        /* \"#utility.yul\":1508:1537   */\n      tag_122\n        /* \"#utility.yul\":1530:1536   */\n      dup3\n        /* \"#utility.yul\":1508:1537   */\n      tag_59\n      jump\t// in\n    tag_122:\n        /* \"#utility.yul\":1500:1537   */\n      swap1\n      pop\n        /* \"#utility.yul\":1592:1596   */\n      0x20\n        /* \"#utility.yul\":1586:1590   */\n      dup2\n        /* \"#utility.yul\":1582:1597   */\n      add\n        /* \"#utility.yul\":1574:1597   */\n      swap1\n      pop\n        /* \"#utility.yul\":1296:1604   */\n      swap2\n      swap1\n      pop\n      jump\t// out\n        /* \"#utility.yul\":1610:1756   */\n    tag_64:\n        /* \"#utility.yul\":1707:1713   */\n      dup3\n        /* \"#utility.yul\":1702:1705   */\n      dup2\n        /* \"#utility.yul\":1697:1700   */\n      dup4\n        /* \"#utility.yul\":1684:1714   */\n      calldatacopy\n        /* \"#utility.yul\":1748:1749   */\n      0x00\n        /* \"#utility.yul\":1739:1745   */\n      dup4\n        /* \"#utility.yul\":1734:1737   */\n      dup4\n        /* \"#utility.yul\":1730:1746   */\n      add\n        /* \"#utility.yul\":1723:1750   */\n      mstore\n        /* \"#utility.yul\":1610:1756   */\n      pop\n      pop\n      pop\n      jump\t// out\n        /* \"#utility.yul\":1762:2187   */\n    tag_65:\n        /* \"#utility.yul\":1840:1845   */\n      0x00\n        /* \"#utility.yul\":1865:1931   */\n      tag_125\n        /* \"#utility.yul\":1881:1930   */\n      tag_126\n        /* \"#utility.yul\":1923:1929   */\n      dup5\n        /* \"#utility.yul\":1881:1930   */\n      tag_63\n      jump\t// in\n    tag_126:\n        /* \"#utility.yul\":1865:1931   */\n      tag_62\n      jump\t// in\n    tag_125:\n        /* \"#utility.yul\":1856:1931   */\n      swap1\n      pop\n        /* \"#utility.yul\":1954:1960   */\n      dup3\n        /* \"#utility.yul\":1947:1952   */\n      dup2\n        /* \"#utility.yul\":1940:1961   */\n      mstore\n        /* \"#utility.yul\":1992:1996   */\n      0x20\n        /* \"#utility.yul\":1985:1990   */\n      dup2\n        /* \"#utility.yul\":1981:1997   */\n      add\n        /* \"#utility.yul\":2030:2033   */\n      dup5\n        /* \"#utility.yul\":2021:2027   */\n      dup5\n        /* \"#utility.yul\":2016:2019   */\n      dup5\n        /* \"#utility.yul\":2012:2028   */\n      add\n        /* \"#utility.yul\":2009:2034   */\n      gt\n        /* \"#utility.yul\":2006:2118   */\n      iszero\n      tag_127\n      jumpi\n        /* \"#utility.yul\":2037:2116   */\n      tag_128\n      tag_58\n      jump\t// in\n    tag_128:\n        /* \"#utility.yul\":2006:2118   */\n    tag_127:\n        /* \"#utility.yul\":2127:2181   */\n      tag_129\n        /* \"#utility.yul\":2174:2180   */\n      dup5\n        /* \"#utility.yul\":2169:2172   */\n      dup3\n        /* \"#utility.yul\":2164:2167   */\n      dup6\n        /* \"#utility.yul\":2127:2181   */\n      tag_64\n      jump\t// in\n    tag_129:\n        /* \"#utility.yul\":1846:2187   */\n      pop\n        /* \"#utility.yul\":1762:2187   */\n      swap4\n      swap3\n      pop\n      pop\n      pop\n      jump\t// out\n        /* \"#utility.yul\":2207:2547   */\n    tag_66:\n        /* \"#utility.yul\":2263:2268   */\n      0x00\n        /* \"#utility.yul\":2312:2315   */\n      dup3\n        /* \"#utility.yul\":2305:2309   */\n      0x1f\n        /* \"#utility.yul\":2297:2303   */\n      dup4\n        /* \"#utility.yul\":2293:2310   */\n      add\n        /* \"#utility.yul\":2289:2316   */\n      slt\n        /* \"#utility.yul\":2279:2401   */\n      tag_131\n      jumpi\n        /* \"#utility.yul\":2320:2399   */\n      tag_132\n      tag_57\n      jump\t// in\n    tag_132:\n        /* \"#utility.yul\":2279:2401   */\n    tag_131:\n        /* \"#utility.yul\":2437:2443   */\n      dup2\n        /* \"#utility.yul\":2424:2444   */\n      calldataload\n        /* \"#utility.yul\":2462:2541   */\n      tag_133\n        /* \"#utility.yul\":2537:2540   */\n      dup5\n        /* \"#utility.yul\":2529:2535   */\n      dup3\n        /* \"#utility.yul\":2522:2526   */\n      0x20\n        /* \"#utility.yul\":2514:2520   */\n      dup7\n        /* \"#utility.yul\":2510:2527   */\n      add\n        /* \"#utility.yul\":2462:2541   */\n      tag_65\n      jump\t// in\n    tag_133:\n        /* \"#utility.yul\":2453:2541   */\n      swap2\n      pop\n        /* \"#utility.yul\":2269:2547   */\n      pop\n        /* \"#utility.yul\":2207:2547   */\n      swap3\n      swap2\n      pop\n      pop\n      jump\t// out\n        /* \"#utility.yul\":2553:3062   */\n    tag_9:\n        /* \"#utility.yul\":2622:2628   */\n      0x00\n        /* \"#utility.yul\":2671:2673   */\n      0x20\n        /* \"#utility.yul\":2659:2668   */\n      dup3\n        /* \"#utility.yul\":2650:2657   */\n      dup5\n        /* \"#utility.yul\":2646:2669   */\n      sub\n        /* \"#utility.yul\":2642:2674   */\n      slt\n        /* \"#utility.yul\":2639:2758   */\n      iszero\n      tag_135\n      jumpi\n        /* \"#utility.yul\":2677:2756   */\n      tag_136\n      tag_55\n      jump\t// in\n    tag_136:\n        /* \"#utility.yul\":2639:2758   */\n    tag_135:\n        /* \"#utility.yul\":2825:2826   */\n      0x00\n        /* \"#utility.yul\":2814:2823   */\n      dup3\n        /* \"#utility.yul\":2810:2827   */\n      add\n        /* \"#utility.yul\":2797:2828   */\n      calldataload\n        /* \"#utility.yul\":2855:2873   */\n      0xffffffffffffffff\n        /* \"#utility.yul\":2847:2853   */\n      dup2\n        /* \"#utility.yul\":2844:2874   */\n      gt\n        /* \"#utility.yul\":2841:2958   */\n      iszero\n      tag_137\n      jumpi\n        /* \"#utility.yul\":2877:2956   */\n      tag_138\n      tag_56\n      jump\t// in\n    tag_138:\n        /* \"#utility.yul\":2841:2958   */\n    tag_137:\n        /* \"#utility.yul\":2982:3045   */\n      tag_139\n        /* \"#utility.yul\":3037:3044   */\n      dup5\n        /* \"#utility.yul\":3028:3034   */\n      dup3\n        /* \"#utility.yul\":3017:3026   */\n      dup6\n        /* \"#utility.yul\":3013:3035   */\n      add\n        /* \"#utility.yul\":2982:3045   */\n      tag_66\n      jump\t// in\n    tag_139:\n        /* \"#utility.yul\":2972:3045   */\n      swap2\n      pop\n        /* \"#utility.yul\":2768:3055   */\n      pop\n        /* \"#utility.yul\":2553:3062   */\n      swap3\n      swap2\n      pop\n      pop\n      jump\t// out\n        /* \"#utility.yul\":3068:3167   */\n    tag_67:\n        /* \"#utility.yul\":3120:3126   */\n      0x00\n        /* \"#utility.yul\":3154:3159   */\n      dup2\n        /* \"#utility.yul\":3148:3160   */\n      mload\n        /* \"#utility.yul\":3138:3160   */\n      swap1\n      pop\n        /* \"#utility.yul\":3068:3167   */\n      swap2\n      swap1\n      pop\n      jump\t// out\n        /* \"#utility.yul\":3173:3332   */\n    tag_68:\n        /* \"#utility.yul\":3247:3258   */\n      0x00\n        /* \"#utility.yul\":3281:3287   */\n      dup3\n        /* \"#utility.yul\":3276:3279   */\n      dup3\n        /* \"#utility.yul\":3269:3288   */\n      mstore\n        /* \"#utility.yul\":3321:3325   */\n      0x20\n        /* \"#utility.yul\":3316:3319   */\n      dup3\n        /* \"#utility.yul\":3312:3326   */\n      add\n        /* \"#utility.yul\":3297:3326   */\n      swap1\n      pop\n        /* \"#utility.yul\":3173:3332   */\n      swap3\n      swap2\n      pop\n      pop\n      jump\t// out\n        /* \"#utility.yul\":3338:3584   */\n    tag_69:\n        /* \"#utility.yul\":3419:3420   */\n      0x00\n        /* \"#utility.yul\":3429:3542   */\n    tag_143:\n        /* \"#utility.yul\":3443:3449   */\n      dup4\n        /* \"#utility.yul\":3440:3441   */\n      dup2\n        /* \"#utility.yul\":3437:3450   */\n      lt\n        /* \"#utility.yul\":3429:3542   */\n      iszero\n      tag_145\n      jumpi\n        /* \"#utility.yul\":3528:3529   */\n      dup1\n        /* \"#utility.yul\":3523:3526   */\n      dup3\n        /* \"#utility.yul\":3519:3530   */\n      add\n        /* \"#utility.yul\":3513:3531   */\n      mload\n        /* \"#utility.yul\":3509:3510   */\n      dup2\n        /* \"#utility.yul\":3504:3507   */\n      dup5\n        /* \"#utility.yul\":3500:3511   */\n      add\n        /* \"#utility.yul\":3493:3532   */\n      mstore\n        /* \"#utility.yul\":3465:3467   */\n      0x20\n        /* \"#utility.yul\":3462:3463   */\n      dup2\n        /* \"#utility.yul\":3458:3468   */\n      add\n        /* \"#utility.yul\":3453:3468   */\n      swap1\n      pop\n        /* \"#utility.yul\":3429:3542   */\n      jump(tag_143)\n    tag_145:\n        /* \"#utility.yul\":3576:3577   */\n      0x00\n        /* \"#utility.yul\":3567:3573   */\n      dup5\n        /* \"#utility.yul\":3562:3565   */\n      dup5\n        /* \"#utility.yul\":3558:3574   */\n      add\n        /* \"#utility.yul\":3551:3578   */\n      mstore\n        /* \"#utility.yul\":3400:3584   */\n      pop\n        /* \"#utility.yul\":3338:3584   */\n      pop\n      pop\n      pop\n      jump\t// out\n        /* \"#utility.yul\":3590:3947   */\n    tag_70:\n        /* \"#utility.yul\":3668:3671   */\n      0x00\n        /* \"#utility.yul\":3696:3735   */\n      tag_147\n        /* \"#utility.yul\":3729:3734   */\n      dup3\n        /* \"#utility.yul\":3696:3735   */\n      tag_67\n      jump\t// in\n    tag_147:\n        /* \"#utility.yul\":3751:3812   */\n      tag_148\n        /* \"#utility.yul\":3805:3811   */\n      dup2\n        /* \"#utility.yul\":3800:3803   */\n      dup6\n        /* \"#utility.yul\":3751:3812   */\n      tag_68\n      jump\t// in\n    tag_148:\n        /* \"#utility.yul\":3744:3812   */\n      swap4\n      pop\n        /* \"#utility.yul\":3821:3886   */\n      tag_149\n        /* \"#utility.yul\":3879:3885   */\n      dup2\n        /* \"#utility.yul\":3874:3877   */\n      dup6\n        /* \"#utility.yul\":3867:3871   */\n      0x20\n        /* \"#utility.yul\":3860:3865   */\n      dup7\n        /* \"#utility.yul\":3856:3872   */\n      add\n        /* \"#utility.yul\":3821:3886   */\n      tag_69\n      jump\t// in\n    tag_149:\n        /* \"#utility.yul\":3911:3940   */\n      tag_150\n        /* \"#utility.yul\":3933:3939   */\n      dup2\n        /* \"#utility.yul\":3911:3940   */\n      tag_59\n      jump\t// in\n    tag_150:\n        /* \"#utility.yul\":3906:3909   */\n      dup5\n        /* \"#utility.yul\":3902:3941   */\n      add\n        /* \"#utility.yul\":3895:3941   */\n      swap2\n      pop\n        /* \"#utility.yul\":3672:3947   */\n      pop\n        /* \"#utility.yul\":3590:3947   */\n      swap3\n      swap2\n      pop\n      pop\n      jump\t// out\n        /* \"#utility.yul\":3953:4030   */\n    tag_71:\n        /* \"#utility.yul\":3990:3997   */\n      0x00\n        /* \"#utility.yul\":4019:4024   */\n      dup2\n        /* \"#utility.yul\":4008:4024   */\n      swap1\n      pop\n        /* \"#utility.yul\":3953:4030   */\n      swap2\n      swap1\n      pop\n      jump\t// out\n        /* \"#utility.yul\":4036:4144   */\n    tag_72:\n        /* \"#utility.yul\":4113:4137   */\n      tag_153\n        /* \"#utility.yul\":4131:4136   */\n      dup2\n        /* \"#utility.yul\":4113:4137   */\n      tag_71\n      jump\t// in\n    tag_153:\n        /* \"#utility.yul\":4108:4111   */\n      dup3\n        /* \"#utility.yul\":4101:4138   */\n      mstore\n        /* \"#utility.yul\":4036:4144   */\n      pop\n      pop\n      jump\t// out\n        /* \"#utility.yul\":4206:4808   */\n    tag_73:\n        /* \"#utility.yul\":4319:4322   */\n      0x00\n        /* \"#utility.yul\":4355:4359   */\n      0x40\n        /* \"#utility.yul\":4350:4353   */\n      dup4\n        /* \"#utility.yul\":4346:4360   */\n      add\n        /* \"#utility.yul\":4442:4446   */\n      0x00\n        /* \"#utility.yul\":4435:4440   */\n      dup4\n        /* \"#utility.yul\":4431:4447   */\n      add\n        /* \"#utility.yul\":4425:4448   */\n      mload\n        /* \"#utility.yul\":4495:4498   */\n      dup5\n        /* \"#utility.yul\":4489:4493   */\n      dup3\n        /* \"#utility.yul\":4485:4499   */\n      sub\n        /* \"#utility.yul\":4478:4482   */\n      0x00\n        /* \"#utility.yul\":4473:4476   */\n      dup7\n        /* \"#utility.yul\":4469:4483   */\n      add\n        /* \"#utility.yul\":4462:4500   */\n      mstore\n        /* \"#utility.yul\":4521:4594   */\n      tag_155\n        /* \"#utility.yul\":4589:4593   */\n      dup3\n        /* \"#utility.yul\":4575:4587   */\n      dup3\n        /* \"#utility.yul\":4521:4594   */\n      tag_70\n      jump\t// in\n    tag_155:\n        /* \"#utility.yul\":4513:4594   */\n      swap2\n      pop\n        /* \"#utility.yul\":4370:4605   */\n      pop\n        /* \"#utility.yul\":4689:4693   */\n      0x20\n        /* \"#utility.yul\":4682:4687   */\n      dup4\n        /* \"#utility.yul\":4678:4694   */\n      add\n        /* \"#utility.yul\":4672:4695   */\n      mload\n        /* \"#utility.yul\":4708:4771   */\n      tag_156\n        /* \"#utility.yul\":4765:4769   */\n      0x20\n        /* \"#utility.yul\":4760:4763   */\n      dup7\n        /* \"#utility.yul\":4756:4770   */\n      add\n        /* \"#utility.yul\":4742:4754   */\n      dup3\n        /* \"#utility.yul\":4708:4771   */\n      tag_72\n      jump\t// in\n    tag_156:\n        /* \"#utility.yul\":4615:4781   */\n      pop\n        /* \"#utility.yul\":4798:4802   */\n      dup1\n        /* \"#utility.yul\":4791:4802   */\n      swap2\n      pop\n        /* \"#utility.yul\":4324:4808   */\n      pop\n        /* \"#utility.yul\":4206:4808   */\n      swap3\n      swap2\n      pop\n      pop\n      jump\t// out\n        /* \"#utility.yul\":4814:5175   */\n    tag_12:\n        /* \"#utility.yul\":4951:4955   */\n      0x00\n        /* \"#utility.yul\":4989:4991   */\n      0x20\n        /* \"#utility.yul\":4978:4987   */\n      dup3\n        /* \"#utility.yul\":4974:4992   */\n      add\n        /* \"#utility.yul\":4966:4992   */\n      swap1\n      pop\n        /* \"#utility.yul\":5038:5047   */\n      dup2\n        /* \"#utility.yul\":5032:5036   */\n      dup2\n        /* \"#utility.yul\":5028:5048   */\n      sub\n        /* \"#utility.yul\":5024:5025   */\n      0x00\n        /* \"#utility.yul\":5013:5022   */\n      dup4\n        /* \"#utility.yul\":5009:5026   */\n      add\n        /* \"#utility.yul\":5002:5049   */\n      mstore\n        /* \"#utility.yul\":5066:5168   */\n      tag_158\n        /* \"#utility.yul\":5163:5167   */\n      dup2\n        /* \"#utility.yul\":5154:5160   */\n      dup5\n        /* \"#utility.yul\":5066:5168   */\n      tag_73\n      jump\t// in\n    tag_158:\n        /* \"#utility.yul\":5058:5168   */\n      swap1\n      pop\n        /* \"#utility.yul\":4814:5175   */\n      swap3\n      swap2\n      pop\n      pop\n      jump\t// out\n        /* \"#utility.yul\":5181:5317   */\n    tag_74:\n        /* \"#utility.yul\":5270:5276   */\n      0x00\n        /* \"#utility.yul\":5304:5309   */\n      dup2\n        /* \"#utility.yul\":5298:5310   */\n      mload\n        /* \"#utility.yul\":5288:5310   */\n      swap1\n      pop\n        /* \"#utility.yul\":5181:5317   */\n      swap2\n      swap1\n      pop\n      jump\t// out\n        /* \"#utility.yul\":5323:5529   */\n    tag_75:\n        /* \"#utility.yul\":5444:5455   */\n      0x00\n        /* \"#utility.yul\":5478:5484   */\n      dup3\n        /* \"#utility.yul\":5473:5476   */\n      dup3\n        /* \"#utility.yul\":5466:5485   */\n      mstore\n        /* \"#utility.yul\":5518:5522   */\n      0x20\n        /* \"#utility.yul\":5513:5516   */\n      dup3\n        /* \"#utility.yul\":5509:5523   */\n      add\n        /* \"#utility.yul\":5494:5523   */\n      swap1\n      pop\n        /* \"#utility.yul\":5323:5529   */\n      swap3\n      swap2\n      pop\n      pop\n      jump\t// out\n        /* \"#utility.yul\":5535:5689   */\n    tag_76:\n        /* \"#utility.yul\":5624:5628   */\n      0x00\n        /* \"#utility.yul\":5647:5650   */\n      dup2\n        /* \"#utility.yul\":5639:5650   */\n      swap1\n      pop\n        /* \"#utility.yul\":5677:5681   */\n      0x20\n        /* \"#utility.yul\":5672:5675   */\n      dup3\n        /* \"#utility.yul\":5668:5682   */\n      add\n        /* \"#utility.yul\":5660:5682   */\n      swap1\n      pop\n        /* \"#utility.yul\":5535:5689   */\n      swap2\n      swap1\n      pop\n      jump\t// out\n        /* \"#utility.yul\":5751:6343   */\n    tag_77:\n        /* \"#utility.yul\":5854:5857   */\n      0x00\n        /* \"#utility.yul\":5890:5894   */\n      0x40\n        /* \"#utility.yul\":5885:5888   */\n      dup4\n        /* \"#utility.yul\":5881:5895   */\n      add\n        /* \"#utility.yul\":5977:5981   */\n      0x00\n        /* \"#utility.yul\":5970:5975   */\n      dup4\n        /* \"#utility.yul\":5966:5982   */\n      add\n        /* \"#utility.yul\":5960:5983   */\n      mload\n        /* \"#utility.yul\":6030:6033   */\n      dup5\n        /* \"#utility.yul\":6024:6028   */\n      dup3\n        /* \"#utility.yul\":6020:6034   */\n      sub\n        /* \"#utility.yul\":6013:6017   */\n      0x00\n        /* \"#utility.yul\":6008:6011   */\n      dup7\n        /* \"#utility.yul\":6004:6018   */\n      add\n        /* \"#utility.yul\":5997:6035   */\n      mstore\n        /* \"#utility.yul\":6056:6129   */\n      tag_163\n        /* \"#utility.yul\":6124:6128   */\n      dup3\n        /* \"#utility.yul\":6110:6122   */\n      dup3\n        /* \"#utility.yul\":6056:6129   */\n      tag_70\n      jump\t// in\n    tag_163:\n        /* \"#utility.yul\":6048:6129   */\n      swap2\n      pop\n        /* \"#utility.yul\":5905:6140   */\n      pop\n        /* \"#utility.yul\":6224:6228   */\n      0x20\n        /* \"#utility.yul\":6217:6222   */\n      dup4\n        /* \"#utility.yul\":6213:6229   */\n      add\n        /* \"#utility.yul\":6207:6230   */\n      mload\n        /* \"#utility.yul\":6243:6306   */\n      tag_164\n        /* \"#utility.yul\":6300:6304   */\n      0x20\n        /* \"#utility.yul\":6295:6298   */\n      dup7\n        /* \"#utility.yul\":6291:6305   */\n      add\n        /* \"#utility.yul\":6277:6289   */\n      dup3\n        /* \"#utility.yul\":6243:6306   */\n      tag_72\n      jump\t// in\n    tag_164:\n        /* \"#utility.yul\":6150:6316   */\n      pop\n        /* \"#utility.yul\":6333:6337   */\n      dup1\n        /* \"#utility.yul\":6326:6337   */\n      swap2\n      pop\n        /* \"#utility.yul\":5859:6343   */\n      pop\n        /* \"#utility.yul\":5751:6343   */\n      swap3\n      swap2\n      pop\n      pop\n      jump\t// out\n        /* \"#utility.yul\":6349:6593   */\n    tag_78:\n        /* \"#utility.yul\":6462:6472   */\n      0x00\n        /* \"#utility.yul\":6497:6587   */\n      tag_166\n        /* \"#utility.yul\":6583:6586   */\n      dup4\n        /* \"#utility.yul\":6575:6581   */\n      dup4\n        /* \"#utility.yul\":6497:6587   */\n      tag_77\n      jump\t// in\n    tag_166:\n        /* \"#utility.yul\":6483:6587   */\n      swap1\n      pop\n        /* \"#utility.yul\":6349:6593   */\n      swap3\n      swap2\n      pop\n      pop\n      jump\t// out\n        /* \"#utility.yul\":6599:6734   */\n    tag_79:\n        /* \"#utility.yul\":6691:6695   */\n      0x00\n        /* \"#utility.yul\":6723:6727   */\n      0x20\n        /* \"#utility.yul\":6718:6721   */\n      dup3\n        /* \"#utility.yul\":6714:6728   */\n      add\n        /* \"#utility.yul\":6706:6728   */\n      swap1\n      pop\n        /* \"#utility.yul\":6599:6734   */\n      swap2\n      swap1\n      pop\n      jump\t// out\n        /* \"#utility.yul\":6800:7887   */\n    tag_80:\n        /* \"#utility.yul\":6963:6966   */\n      0x00\n        /* \"#utility.yul\":6992:7068   */\n      tag_169\n        /* \"#utility.yul\":7062:7067   */\n      dup3\n        /* \"#utility.yul\":6992:7068   */\n      tag_74\n      jump\t// in\n    tag_169:\n        /* \"#utility.yul\":7084:7192   */\n      tag_170\n        /* \"#utility.yul\":7185:7191   */\n      dup2\n        /* \"#utility.yul\":7180:7183   */\n      dup6\n        /* \"#utility.yul\":7084:7192   */\n      tag_75\n      jump\t// in\n    tag_170:\n        /* \"#utility.yul\":7077:7192   */\n      swap4\n      pop\n        /* \"#utility.yul\":7218:7221   */\n      dup4\n        /* \"#utility.yul\":7263:7267   */\n      0x20\n        /* \"#utility.yul\":7255:7261   */\n      dup3\n        /* \"#utility.yul\":7251:7268   */\n      mul\n        /* \"#utility.yul\":7246:7249   */\n      dup6\n        /* \"#utility.yul\":7242:7269   */\n      add\n        /* \"#utility.yul\":7293:7371   */\n      tag_171\n        /* \"#utility.yul\":7365:7370   */\n      dup6\n        /* \"#utility.yul\":7293:7371   */\n      tag_76\n      jump\t// in\n    tag_171:\n        /* \"#utility.yul\":7394:7401   */\n      dup1\n        /* \"#utility.yul\":7425:7426   */\n      0x00\n        /* \"#utility.yul\":7410:7842   */\n    tag_172:\n        /* \"#utility.yul\":7435:7441   */\n      dup6\n        /* \"#utility.yul\":7432:7433   */\n      dup2\n        /* \"#utility.yul\":7429:7442   */\n      lt\n        /* \"#utility.yul\":7410:7842   */\n      iszero\n      tag_174\n      jumpi\n        /* \"#utility.yul\":7506:7515   */\n      dup5\n        /* \"#utility.yul\":7500:7504   */\n      dup5\n        /* \"#utility.yul\":7496:7516   */\n      sub\n        /* \"#utility.yul\":7491:7494   */\n      dup10\n        /* \"#utility.yul\":7484:7517   */\n      mstore\n        /* \"#utility.yul\":7557:7563   */\n      dup2\n        /* \"#utility.yul\":7551:7564   */\n      mload\n        /* \"#utility.yul\":7585:7693   */\n      tag_175\n        /* \"#utility.yul\":7688:7692   */\n      dup6\n        /* \"#utility.yul\":7673:7686   */\n      dup3\n        /* \"#utility.yul\":7585:7693   */\n      tag_78\n      jump\t// in\n    tag_175:\n        /* \"#utility.yul\":7577:7693   */\n      swap5\n      pop\n        /* \"#utility.yul\":7716:7798   */\n      tag_176\n        /* \"#utility.yul\":7791:7797   */\n      dup4\n        /* \"#utility.yul\":7716:7798   */\n      tag_79\n      jump\t// in\n    tag_176:\n        /* \"#utility.yul\":7706:7798   */\n      swap3\n      pop\n        /* \"#utility.yul\":7827:7831   */\n      0x20\n        /* \"#utility.yul\":7822:7825   */\n      dup11\n        /* \"#utility.yul\":7818:7832   */\n      add\n        /* \"#utility.yul\":7811:7832   */\n      swap10\n      pop\n        /* \"#utility.yul\":7470:7842   */\n      pop\n        /* \"#utility.yul\":7457:7458   */\n      0x01\n        /* \"#utility.yul\":7454:7455   */\n      dup2\n        /* \"#utility.yul\":7450:7459   */\n      add\n        /* \"#utility.yul\":7445:7459   */\n      swap1\n      pop\n        /* \"#utility.yul\":7410:7842   */\n      jump(tag_172)\n    tag_174:\n        /* \"#utility.yul\":7414:7428   */\n      pop\n        /* \"#utility.yul\":7858:7862   */\n      dup3\n        /* \"#utility.yul\":7851:7862   */\n      swap8\n      pop\n        /* \"#utility.yul\":7878:7881   */\n      dup8\n        /* \"#utility.yul\":7871:7881   */\n      swap6\n      pop\n        /* \"#utility.yul\":6968:7887   */\n      pop\n      pop\n      pop\n      pop\n      pop\n        /* \"#utility.yul\":6800:7887   */\n      swap3\n      swap2\n      pop\n      pop\n      jump\t// out\n        /* \"#utility.yul\":7893:8354   */\n    tag_17:\n        /* \"#utility.yul\":8080:8084   */\n      0x00\n        /* \"#utility.yul\":8118:8120   */\n      0x20\n        /* \"#utility.yul\":8107:8116   */\n      dup3\n        /* \"#utility.yul\":8103:8121   */\n      add\n        /* \"#utility.yul\":8095:8121   */\n      swap1\n      pop\n        /* \"#utility.yul\":8167:8176   */\n      dup2\n        /* \"#utility.yul\":8161:8165   */\n      dup2\n        /* \"#utility.yul\":8157:8177   */\n      sub\n        /* \"#utility.yul\":8153:8154   */\n      0x00\n        /* \"#utility.yul\":8142:8151   */\n      dup4\n        /* \"#utility.yul\":8138:8155   */\n      add\n        /* \"#utility.yul\":8131:8178   */\n      mstore\n        /* \"#utility.yul\":8195:8347   */\n      tag_178\n        /* \"#utility.yul\":8342:8346   */\n      dup2\n        /* \"#utility.yul\":8333:8339   */\n      dup5\n        /* \"#utility.yul\":8195:8347   */\n      tag_80\n      jump\t// in\n    tag_178:\n        /* \"#utility.yul\":8187:8347   */\n      swap1\n      pop\n        /* \"#utility.yul\":7893:8354   */\n      swap3\n      swap2\n      pop\n      pop\n      jump\t// out\n        /* \"#utility.yul\":8360:8477   */\n    tag_81:\n        /* \"#utility.yul\":8469:8470   */\n      0x00\n        /* \"#utility.yul\":8466:8467   */\n      dup1\n        /* \"#utility.yul\":8459:8471   */\n      revert\n        /* \"#utility.yul\":8483:8600   */\n    tag_82:\n        /* \"#utility.yul\":8592:8593   */\n      0x00\n        /* \"#utility.yul\":8589:8590   */\n      dup1\n        /* \"#utility.yul\":8582:8594   */\n      revert\n        /* \"#utility.yul\":8606:8728   */\n    tag_83:\n        /* \"#utility.yul\":8679:8703   */\n      tag_182\n        /* \"#utility.yul\":8697:8702   */\n      dup2\n        /* \"#utility.yul\":8679:8703   */\n      tag_71\n      jump\t// in\n    tag_182:\n        /* \"#utility.yul\":8672:8677   */\n      dup2\n        /* \"#utility.yul\":8669:8704   */\n      eq\n        /* \"#utility.yul\":8659:8722   */\n      tag_183\n      jumpi\n        /* \"#utility.yul\":8718:8719   */\n      0x00\n        /* \"#utility.yul\":8715:8716   */\n      dup1\n        /* \"#utility.yul\":8708:8720   */\n      revert\n        /* \"#utility.yul\":8659:8722   */\n    tag_183:\n        /* \"#utility.yul\":8606:8728   */\n      pop\n      jump\t// out\n        /* \"#utility.yul\":8734:8873   */\n    tag_84:\n        /* \"#utility.yul\":8780:8785   */\n      0x00\n        /* \"#utility.yul\":8818:8824   */\n      dup2\n        /* \"#utility.yul\":8805:8825   */\n      calldataload\n        /* \"#utility.yul\":8796:8825   */\n      swap1\n      pop\n        /* \"#utility.yul\":8834:8867   */\n      tag_185\n        /* \"#utility.yul\":8861:8866   */\n      dup2\n        /* \"#utility.yul\":8834:8867   */\n      tag_83\n      jump\t// in\n    tag_185:\n        /* \"#utility.yul\":8734:8873   */\n      swap3\n      swap2\n      pop\n      pop\n      jump\t// out\n        /* \"#utility.yul\":8909:9652   */\n    tag_85:\n        /* \"#utility.yul\":8980:8985   */\n      0x00\n        /* \"#utility.yul\":9024:9028   */\n      0x40\n        /* \"#utility.yul\":9012:9021   */\n      dup3\n        /* \"#utility.yul\":9007:9010   */\n      dup5\n        /* \"#utility.yul\":9003:9022   */\n      sub\n        /* \"#utility.yul\":8999:9029   */\n      slt\n        /* \"#utility.yul\":8996:9113   */\n      iszero\n      tag_187\n      jumpi\n        /* \"#utility.yul\":9032:9111   */\n      tag_188\n      tag_81\n      jump\t// in\n    tag_188:\n        /* \"#utility.yul\":8996:9113   */\n    tag_187:\n        /* \"#utility.yul\":9131:9152   */\n      tag_189\n        /* \"#utility.yul\":9147:9151   */\n      0x40\n        /* \"#utility.yul\":9131:9152   */\n      tag_62\n      jump\t// in\n    tag_189:\n        /* \"#utility.yul\":9122:9152   */\n      swap1\n      pop\n        /* \"#utility.yul\":9239:9240   */\n      0x00\n        /* \"#utility.yul\":9228:9237   */\n      dup3\n        /* \"#utility.yul\":9224:9241   */\n      add\n        /* \"#utility.yul\":9211:9242   */\n      calldataload\n        /* \"#utility.yul\":9269:9287   */\n      0xffffffffffffffff\n        /* \"#utility.yul\":9261:9267   */\n      dup2\n        /* \"#utility.yul\":9258:9288   */\n      gt\n        /* \"#utility.yul\":9255:9372   */\n      iszero\n      tag_190\n      jumpi\n        /* \"#utility.yul\":9291:9370   */\n      tag_191\n      tag_82\n      jump\t// in\n    tag_191:\n        /* \"#utility.yul\":9255:9372   */\n    tag_190:\n        /* \"#utility.yul\":9411:9470   */\n      tag_192\n        /* \"#utility.yul\":9466:9469   */\n      dup5\n        /* \"#utility.yul\":9457:9463   */\n      dup3\n        /* \"#utility.yul\":9446:9455   */\n      dup6\n        /* \"#utility.yul\":9442:9464   */\n      add\n        /* \"#utility.yul\":9411:9470   */\n      tag_66\n      jump\t// in\n    tag_192:\n        /* \"#utility.yul\":9404:9408   */\n      0x00\n        /* \"#utility.yul\":9397:9402   */\n      dup4\n        /* \"#utility.yul\":9393:9409   */\n      add\n        /* \"#utility.yul\":9386:9471   */\n      mstore\n        /* \"#utility.yul\":9162:9482   */\n      pop\n        /* \"#utility.yul\":9543:9545   */\n      0x20\n        /* \"#utility.yul\":9584:9633   */\n      tag_193\n        /* \"#utility.yul\":9629:9632   */\n      dup5\n        /* \"#utility.yul\":9620:9626   */\n      dup3\n        /* \"#utility.yul\":9609:9618   */\n      dup6\n        /* \"#utility.yul\":9605:9627   */\n      add\n        /* \"#utility.yul\":9584:9633   */\n      tag_84\n      jump\t// in\n    tag_193:\n        /* \"#utility.yul\":9577:9581   */\n      0x20\n        /* \"#utility.yul\":9570:9575   */\n      dup4\n        /* \"#utility.yul\":9566:9582   */\n      add\n        /* \"#utility.yul\":9559:9634   */\n      mstore\n        /* \"#utility.yul\":9492:9645   */\n      pop\n        /* \"#utility.yul\":8909:9652   */\n      swap3\n      swap2\n      pop\n      pop\n      jump\t// out\n        /* \"#utility.yul\":9658:10516   */\n    tag_20:\n        /* \"#utility.yul\":9758:9764   */\n      0x00\n        /* \"#utility.yul\":9766:9772   */\n      dup1\n        /* \"#utility.yul\":9815:9817   */\n      0x40\n        /* \"#utility.yul\":9803:9812   */\n      dup4\n        /* \"#utility.yul\":9794:9801   */\n      dup6\n        /* \"#utility.yul\":9790:9813   */\n      sub\n        /* \"#utility.yul\":9786:9818   */\n      slt\n        /* \"#utility.yul\":9783:9902   */\n      iszero\n      tag_195\n      jumpi\n        /* \"#utility.yul\":9821:9900   */\n      tag_196\n      tag_55\n      jump\t// in\n    tag_196:\n        /* \"#utility.yul\":9783:9902   */\n    tag_195:\n        /* \"#utility.yul\":9969:9970   */\n      0x00\n        /* \"#utility.yul\":9958:9967   */\n      dup4\n        /* \"#utility.yul\":9954:9971   */\n      add\n        /* \"#utility.yul\":9941:9972   */\n      calldataload\n        /* \"#utility.yul\":9999:10017   */\n      0xffffffffffffffff\n        /* \"#utility.yul\":9991:9997   */\n      dup2\n        /* \"#utility.yul\":9988:10018   */\n      gt\n        /* \"#utility.yul\":9985:10102   */\n      iszero\n      tag_197\n      jumpi\n        /* \"#utility.yul\":10021:10100   */\n      tag_198\n      tag_56\n      jump\t// in\n    tag_198:\n        /* \"#utility.yul\":9985:10102   */\n    tag_197:\n        /* \"#utility.yul\":10126:10189   */\n      tag_199\n        /* \"#utility.yul\":10181:10188   */\n      dup6\n        /* \"#utility.yul\":10172:10178   */\n      dup3\n        /* \"#utility.yul\":10161:10170   */\n      dup7\n        /* \"#utility.yul\":10157:10179   */\n      add\n        /* \"#utility.yul\":10126:10189   */\n      tag_66\n      jump\t// in\n    tag_199:\n        /* \"#utility.yul\":10116:10189   */\n      swap3\n      pop\n        /* \"#utility.yul\":9912:10199   */\n      pop\n        /* \"#utility.yul\":10266:10268   */\n      0x20\n        /* \"#utility.yul\":10255:10264   */\n      dup4\n        /* \"#utility.yul\":10251:10269   */\n      add\n        /* \"#utility.yul\":10238:10270   */\n      calldataload\n        /* \"#utility.yul\":10297:10315   */\n      0xffffffffffffffff\n        /* \"#utility.yul\":10289:10295   */\n      dup2\n        /* \"#utility.yul\":10286:10316   */\n      gt\n        /* \"#utility.yul\":10283:10400   */\n      iszero\n      tag_200\n      jumpi\n        /* \"#utility.yul\":10319:10398   */\n      tag_201\n      tag_56\n      jump\t// in\n    tag_201:\n        /* \"#utility.yul\":10283:10400   */\n    tag_200:\n        /* \"#utility.yul\":10424:10499   */\n      tag_202\n        /* \"#utility.yul\":10491:10498   */\n      dup6\n        /* \"#utility.yul\":10482:10488   */\n      dup3\n        /* \"#utility.yul\":10471:10480   */\n      dup7\n        /* \"#utility.yul\":10467:10489   */\n      add\n        /* \"#utility.yul\":10424:10499   */\n      tag_85\n      jump\t// in\n    tag_202:\n        /* \"#utility.yul\":10414:10499   */\n      swap2\n      pop\n        /* \"#utility.yul\":10209:10509   */\n      pop\n        /* \"#utility.yul\":9658:10516   */\n      swap3\n      pop\n      swap3\n      swap1\n      pop\n      jump\t// out\n        /* \"#utility.yul\":10522:10670   */\n    tag_86:\n        /* \"#utility.yul\":10624:10635   */\n      0x00\n        /* \"#utility.yul\":10661:10664   */\n      dup2\n        /* \"#utility.yul\":10646:10664   */\n      swap1\n      pop\n        /* \"#utility.yul\":10522:10670   */\n      swap3\n      swap2\n      pop\n      pop\n      jump\t// out\n        /* \"#utility.yul\":10676:11066   */\n    tag_87:\n        /* \"#utility.yul\":10782:10785   */\n      0x00\n        /* \"#utility.yul\":10810:10849   */\n      tag_205\n        /* \"#utility.yul\":10843:10848   */\n      dup3\n        /* \"#utility.yul\":10810:10849   */\n      tag_67\n      jump\t// in\n    tag_205:\n        /* \"#utility.yul\":10865:10954   */\n      tag_206\n        /* \"#utility.yul\":10947:10953   */\n      dup2\n        /* \"#utility.yul\":10942:10945   */\n      dup6\n        /* \"#utility.yul\":10865:10954   */\n      tag_86\n      jump\t// in\n    tag_206:\n        /* \"#utility.yul\":10858:10954   */\n      swap4\n      pop\n        /* \"#utility.yul\":10963:11028   */\n      tag_207\n        /* \"#utility.yul\":11021:11027   */\n      dup2\n        /* \"#utility.yul\":11016:11019   */\n      dup6\n        /* \"#utility.yul\":11009:11013   */\n      0x20\n        /* \"#utility.yul\":11002:11007   */\n      dup7\n        /* \"#utility.yul\":10998:11014   */\n      add\n        /* \"#utility.yul\":10963:11028   */\n      tag_69\n      jump\t// in\n    tag_207:\n        /* \"#utility.yul\":11053:11059   */\n      dup1\n        /* \"#utility.yul\":11048:11051   */\n      dup5\n        /* \"#utility.yul\":11044:11060   */\n      add\n        /* \"#utility.yul\":11037:11060   */\n      swap2\n      pop\n        /* \"#utility.yul\":10786:11066   */\n      pop\n        /* \"#utility.yul\":10676:11066   */\n      swap3\n      swap2\n      pop\n      pop\n      jump\t// out\n        /* \"#utility.yul\":11072:11347   */\n    tag_29:\n        /* \"#utility.yul\":11204:11207   */\n      0x00\n        /* \"#utility.yul\":11226:11321   */\n      tag_209\n        /* \"#utility.yul\":11317:11320   */\n      dup3\n        /* \"#utility.yul\":11308:11314   */\n      dup5\n        /* \"#utility.yul\":11226:11321   */\n      tag_87\n      jump\t// in\n    tag_209:\n        /* \"#utility.yul\":11219:11321   */\n      swap2\n      pop\n        /* \"#utility.yul\":11338:11341   */\n      dup2\n        /* \"#utility.yul\":11331:11341   */\n      swap1\n      pop\n        /* \"#utility.yul\":11072:11347   */\n      swap3\n      swap2\n      pop\n      pop\n      jump\t// out\n        /* \"#utility.yul\":11353:11533   */\n    tag_88:\n        /* \"#utility.yul\":11401:11478   */\n      0x4e487b7100000000000000000000000000000000000000000000000000000000\n        /* \"#utility.yul\":11398:11399   */\n      0x00\n        /* \"#utility.yul\":11391:11479   */\n      mstore\n        /* \"#utility.yul\":11498:11502   */\n      0x22\n        /* \"#utility.yul\":11495:11496   */\n      0x04\n        /* \"#utility.yul\":11488:11503   */\n      mstore\n        /* \"#utility.yul\":11522:11526   */\n      0x24\n        /* \"#utility.yul\":11519:11520   */\n      0x00\n        /* \"#utility.yul\":11512:11527   */\n      revert\n        /* \"#utility.yul\":11539:11859   */\n    tag_31:\n        /* \"#utility.yul\":11583:11589   */\n      0x00\n        /* \"#utility.yul\":11620:11621   */\n      0x02\n        /* \"#utility.yul\":11614:11618   */\n      dup3\n        /* \"#utility.yul\":11610:11622   */\n      div\n        /* \"#utility.yul\":11600:11622   */\n      swap1\n      pop\n        /* \"#utility.yul\":11667:11668   */\n      0x01\n        /* \"#utility.yul\":11661:11665   */\n      dup3\n        /* \"#utility.yul\":11657:11669   */\n      and\n        /* \"#utility.yul\":11688:11706   */\n      dup1\n        /* \"#utility.yul\":11678:11759   */\n      tag_212\n      jumpi\n        /* \"#utility.yul\":11744:11748   */\n      0x7f\n        /* \"#utility.yul\":11736:11742   */\n      dup3\n        /* \"#utility.yul\":11732:11749   */\n      and\n        /* \"#utility.yul\":11722:11749   */\n      swap2\n      pop\n        /* \"#utility.yul\":11678:11759   */\n    tag_212:\n        /* \"#utility.yul\":11806:11808   */\n      0x20\n        /* \"#utility.yul\":11798:11804   */\n      dup3\n        /* \"#utility.yul\":11795:11809   */\n      lt\n        /* \"#utility.yul\":11775:11793   */\n      dup2\n        /* \"#utility.yul\":11772:11810   */\n      sub\n        /* \"#utility.yul\":11769:11853   */\n      tag_213\n      jumpi\n        /* \"#utility.yul\":11825:11843   */\n      tag_214\n      tag_88\n      jump\t// in\n    tag_214:\n        /* \"#utility.yul\":11769:11853   */\n    tag_213:\n        /* \"#utility.yul\":11590:11859   */\n      pop\n        /* \"#utility.yul\":11539:11859   */\n      swap2\n      swap1\n      pop\n      jump\t// out\n        /* \"#utility.yul\":11865:12006   */\n    tag_89:\n        /* \"#utility.yul\":11914:11918   */\n      0x00\n        /* \"#utility.yul\":11937:11940   */\n      dup2\n        /* \"#utility.yul\":11929:11940   */\n      swap1\n      pop\n        /* \"#utility.yul\":11960:11963   */\n      dup2\n        /* \"#utility.yul\":11957:11958   */\n      0x00\n        /* \"#utility.yul\":11950:11964   */\n      mstore\n        /* \"#utility.yul\":11994:11998   */\n      0x20\n        /* \"#utility.yul\":11991:11992   */\n      0x00\n        /* \"#utility.yul\":11981:11999   */\n      keccak256\n        /* \"#utility.yul\":11973:11999   */\n      swap1\n      pop\n        /* \"#utility.yul\":11865:12006   */\n      swap2\n      swap1\n      pop\n      jump\t// out\n        /* \"#utility.yul\":12012:12105   */\n    tag_90:\n        /* \"#utility.yul\":12049:12055   */\n      0x00\n        /* \"#utility.yul\":12096:12098   */\n      0x20\n        /* \"#utility.yul\":12091:12093   */\n      0x1f\n        /* \"#utility.yul\":12084:12089   */\n      dup4\n        /* \"#utility.yul\":12080:12094   */\n      add\n        /* \"#utility.yul\":12076:12099   */\n      div\n        /* \"#utility.yul\":12066:12099   */\n      swap1\n      pop\n        /* \"#utility.yul\":12012:12105   */\n      swap2\n      swap1\n      pop\n      jump\t// out\n        /* \"#utility.yul\":12111:12218   */\n    tag_91:\n        /* \"#utility.yul\":12155:12163   */\n      0x00\n        /* \"#utility.yul\":12205:12210   */\n      dup3\n        /* \"#utility.yul\":12199:12203   */\n      dup3\n        /* \"#utility.yul\":12195:12211   */\n      shl\n        /* \"#utility.yul\":12174:12211   */\n      swap1\n      pop\n        /* \"#utility.yul\":12111:12218   */\n      swap3\n      swap2\n      pop\n      pop\n      jump\t// out\n        /* \"#utility.yul\":12224:12617   */\n    tag_92:\n        /* \"#utility.yul\":12293:12299   */\n      0x00\n        /* \"#utility.yul\":12343:12344   */\n      0x08\n        /* \"#utility.yul\":12331:12341   */\n      dup4\n        /* \"#utility.yul\":12327:12345   */\n      mul\n        /* \"#utility.yul\":12366:12463   */\n      tag_219\n        /* \"#utility.yul\":12396:12462   */\n      0xffffffffffffffffffffffffffffffffffffffffffffffffffffffffffffffff\n        /* \"#utility.yul\":12385:12394   */\n      dup3\n        /* \"#utility.yul\":12366:12463   */\n      tag_91\n      jump\t// in\n    tag_219:\n        /* \"#utility.yul\":12484:12523   */\n      tag_220\n        /* \"#utility.yul\":12514:12522   */\n      dup7\n        /* \"#utility.yul\":12503:12512   */\n      dup4\n        /* \"#utility.yul\":12484:12523   */\n      tag_91\n      jump\t// in\n    tag_220:\n        /* \"#utility.yul\":12472:12523   */\n      swap6\n      pop\n        /* \"#utility.yul\":12556:12560   */\n      dup1\n        /* \"#utility.yul\":12552:12561   */\n      not\n        /* \"#utility.yul\":12545:12550   */\n      dup5\n        /* \"#utility.yul\":12541:12562   */\n      and\n        /* \"#utility.yul\":12532:12562   */\n      swap4\n      pop\n        /* \"#utility.yul\":12605:12609   */\n      dup1\n        /* \"#utility.yul\":12595:12603   */\n      dup7\n        /* \"#utility.yul\":12591:12610   */\n      and\n        /* \"#utility.yul\":12584:12589   */\n      dup5\n        /* \"#utility.yul\":12581:12611   */\n      or\n        /* \"#utility.yul\":12571:12611   */\n      swap3\n      pop\n        /* \"#utility.yul\":12300:12617   */\n      pop\n      pop\n        /* \"#utility.yul\":12224:12617   */\n      swap4\n      swap3\n      pop\n      pop\n      pop\n      jump\t// out\n        /* \"#utility.yul\":12623:12683   */\n    tag_93:\n        /* \"#utility.yul\":12651:12654   */\n      0x00\n        /* \"#utility.yul\":12672:12677   */\n      dup2\n        /* \"#utility.yul\":12665:12677   */\n      swap1\n      pop\n        /* \"#utility.yul\":12623:12683   */\n      swap2\n      swap1\n      pop\n      jump\t// out\n        /* \"#utility.yul\":12689:12831   */\n    tag_94:\n        /* \"#utility.yul\":12739:12748   */\n      0x00\n        /* \"#utility.yul\":12772:12825   */\n      tag_223\n        /* \"#utility.yul\":12790:12824   */\n      tag_224\n        /* \"#utility.yul\":12799:12823   */\n      tag_225\n        /* \"#utility.yul\":12817:12822   */\n      dup5\n        /* \"#utility.yul\":12799:12823   */\n      tag_71\n      jump\t// in\n    tag_225:\n        /* \"#utility.yul\":12790:12824   */\n      tag_93\n      jump\t// in\n    tag_224:\n        /* \"#utility.yul\":12772:12825   */\n      tag_71\n      jump\t// in\n    tag_223:\n        /* \"#utility.yul\":12759:12825   */\n      swap1\n      pop\n        /* \"#utility.yul\":12689:12831   */\n      swap2\n      swap1\n      pop\n      jump\t// out\n        /* \"#utility.yul\":12837:12912   */\n    tag_95:\n        /* \"#utility.yul\":12880:12883   */\n      0x00\n        /* \"#utility.yul\":12901:12906   */\n      dup2\n        /* \"#utility.yul\":12894:12906   */\n      swap1\n      pop\n        /* \"#utility.yul\":12837:12912   */\n      swap2\n      swap1\n      pop\n      jump\t// out\n        /* \"#utility.yul\":12918:13187   */\n    tag_96:\n        /* \"#utility.yul\":13028:13067   */\n      tag_228\n        /* \"#utility.yul\":13059:13066   */\n      dup4\n        /* \"#utility.yul\":13028:13067   */\n      tag_94\n      jump\t// in\n    tag_228:\n        /* \"#utility.yul\":13089:13180   */\n      tag_229\n        /* \"#utility.yul\":13138:13179   */\n      tag_230\n        /* \"#utility.yul\":13162:13178   */\n      dup3\n        /* \"#utility.yul\":13138:13179   */\n      tag_95\n      jump\t// in\n    tag_230:\n        /* \"#utility.yul\":13130:13136   */\n      dup5\n        /* \"#utility.yul\":13123:13127   */\n      dup5\n        /* \"#utility.yul\":13117:13128   */\n      sload\n        /* \"#utility.yul\":13089:13180   */\n      tag_92\n      jump\t// in\n    tag_229:\n        /* \"#utility.yul\":13083:13087   */\n      dup3\n        /* \"#utility.yul\":13076:13181   */\n      sstore\n        /* \"#utility.yul\":12994:13187   */\n      pop\n        /* \"#utility.yul\":12918:13187   */\n      pop\n      pop\n      pop\n      jump\t// out\n        /* \"#utility.yul\":13193:13266   */\n    tag_97:\n        /* \"#utility.yul\":13238:13241   */\n      0x00\n        /* \"#utility.yul\":13193:13266   */\n      swap1\n      jump\t// out\n        /* \"#utility.yul\":13272:13461   */\n    tag_98:\n        /* \"#utility.yul\":13349:13381   */\n      tag_233\n      tag_97\n      jump\t// in\n    tag_233:\n        /* \"#utility.yul\":13390:13455   */\n      tag_234\n        /* \"#utility.yul\":13448:13454   */\n      dup2\n        /* \"#utility.yul\":13440:13446   */\n      dup5\n        /* \"#utility.yul\":13434:13438   */\n      dup5\n        /* \"#utility.yul\":13390:13455   */\n      tag_96\n      jump\t// in\n    tag_234:\n        /* \"#utility.yul\":13325:13461   */\n      pop\n        /* \"#utility.yul\":13272:13461   */\n      pop\n      pop\n      jump\t// out\n        /* \"#utility.yul\":13467:13653   */\n    tag_99:\n        /* \"#utility.yul\":13527:13647   */\n    tag_236:\n        /* \"#utility.yul\":13544:13547   */\n      dup2\n        /* \"#utility.yul\":13537:13542   */\n      dup2\n        /* \"#utility.yul\":13534:13548   */\n      lt\n        /* \"#utility.yul\":13527:13647   */\n      iszero\n      tag_238\n      jumpi\n        /* \"#utility.yul\":13598:13637   */\n      tag_239\n        /* \"#utility.yul\":13635:13636   */\n      0x00\n        /* \"#utility.yul\":13628:13633   */\n      dup3\n        /* \"#utility.yul\":13598:13637   */\n      tag_98\n      jump\t// in\n    tag_239:\n        /* \"#utility.yul\":13571:13572   */\n      0x01\n        /* \"#utility.yul\":13564:13569   */\n      dup2\n        /* \"#utility.yul\":13560:13573   */\n      add\n        /* \"#utility.yul\":13551:13573   */\n      swap1\n      pop\n        /* \"#utility.yul\":13527:13647   */\n      jump(tag_236)\n    tag_238:\n        /* \"#utility.yul\":13467:13653   */\n      pop\n      pop\n      jump\t// out\n        /* \"#utility.yul\":13659:14202   */\n    tag_100:\n        /* \"#utility.yul\":13760:13762   */\n      0x1f\n        /* \"#utility.yul\":13755:13758   */\n      dup3\n        /* \"#utility.yul\":13752:13763   */\n      gt\n        /* \"#utility.yul\":13749:14195   */\n      iszero\n      tag_241\n      jumpi\n        /* \"#utility.yul\":13794:13832   */\n      tag_242\n        /* \"#utility.yul\":13826:13831   */\n      dup2\n        /* \"#utility.yul\":13794:13832   */\n      tag_89\n      jump\t// in\n    tag_242:\n        /* \"#utility.yul\":13878:13907   */\n      tag_243\n        /* \"#utility.yul\":13896:13906   */\n      dup5\n        /* \"#utility.yul\":13878:13907   */\n      tag_90\n      jump\t// in\n    tag_243:\n        /* \"#utility.yul\":13868:13876   */\n      dup2\n        /* \"#utility.yul\":13864:13908   */\n      add\n        /* \"#utility.yul\":14061:14063   */\n      0x20\n        /* \"#utility.yul\":14049:14059   */\n      dup6\n        /* \"#utility.yul\":14046:14064   */\n      lt\n        /* \"#utility.yul\":14043:14092   */\n      iszero\n      tag_244\n      jumpi\n        /* \"#utility.yul\":14082:14090   */\n      dup2\n        /* \"#utility.yul\":14067:14090   */\n      swap1\n      pop\n        /* \"#utility.yul\":14043:14092   */\n    tag_244:\n        /* \"#utility.yul\":14105:14185   */\n      tag_245\n        /* \"#utility.yul\":14161:14183   */\n      tag_246\n        /* \"#utility.yul\":14179:14182   */\n      dup6\n        /* \"#utility.yul\":14161:14183   */\n      tag_90\n      jump\t// in\n    tag_246:\n        /* \"#utility.yul\":14151:14159   */\n      dup4\n        /* \"#utility.yul\":14147:14184   */\n      add\n        /* \"#utility.yul\":14134:14145   */\n      dup3\n        /* \"#utility.yul\":14105:14185   */\n      tag_99\n      jump\t// in\n    tag_245:\n        /* \"#utility.yul\":13764:14195   */\n      pop\n      pop\n        /* \"#utility.yul\":13749:14195   */\n    tag_241:\n        /* \"#utility.yul\":13659:14202   */\n      pop\n      pop\n      pop\n      jump\t// out\n        /* \"#utility.yul\":14208:14325   */\n    tag_101:\n        /* \"#utility.yul\":14262:14270   */\n      0x00\n        /* \"#utility.yul\":14312:14317   */\n      dup3\n        /* \"#utility.yul\":14306:14310   */\n      dup3\n        /* \"#utility.yul\":14302:14318   */\n      shr\n        /* \"#utility.yul\":14281:14318   */\n      swap1\n      pop\n        /* \"#utility.yul\":14208:14325   */\n      swap3\n      swap2\n      pop\n      pop\n      jump\t// out\n        /* \"#utility.yul\":14331:14500   */\n    tag_102:\n        /* \"#utility.yul\":14375:14381   */\n      0x00\n        /* \"#utility.yul\":14408:14459   */\n      tag_249\n        /* \"#utility.yul\":14456:14457   */\n      0x00\n        /* \"#utility.yul\":14452:14458   */\n      not\n        /* \"#utility.yul\":14444:14449   */\n      dup5\n        /* \"#utility.yul\":14441:14442   */\n      0x08\n        /* \"#utility.yul\":14437:14450   */\n      mul\n        /* \"#utility.yul\":14408:14459   */\n      tag_101\n      jump\t// in\n    tag_249:\n        /* \"#utility.yul\":14404:14460   */\n      not\n        /* \"#utility.yul\":14489:14493   */\n      dup1\n        /* \"#utility.yul\":14483:14487   */\n      dup4\n        /* \"#utility.yul\":14479:14494   */\n      and\n        /* \"#utility.yul\":14469:14494   */\n      swap2\n      pop\n        /* \"#utility.yul\":14382:14500   */\n      pop\n        /* \"#utility.yul\":14331:14500   */\n      swap3\n      swap2\n      pop\n      pop\n      jump\t// out\n        /* \"#utility.yul\":14505:14800   */\n    tag_103:\n        /* \"#utility.yul\":14581:14585   */\n      0x00\n        /* \"#utility.yul\":14727:14756   */\n      tag_251\n        /* \"#utility.yul\":14752:14755   */\n      dup4\n        /* \"#utility.yul\":14746:14750   */\n      dup4\n        /* \"#utility.yul\":14727:14756   */\n      tag_102\n      jump\t// in\n    tag_251:\n        /* \"#utility.yul\":14719:14756   */\n      swap2\n      pop\n        /* \"#utility.yul\":14789:14792   */\n      dup3\n        /* \"#utility.yul\":14786:14787   */\n      0x02\n        /* \"#utility.yul\":14782:14793   */\n      mul\n        /* \"#utility.yul\":14776:14780   */\n      dup3\n        /* \"#utility.yul\":14773:14794   */\n      or\n        /* \"#utility.yul\":14765:14794   */\n      swap1\n      pop\n        /* \"#utility.yul\":14505:14800   */\n      swap3\n      swap2\n      pop\n      pop\n      jump\t// out\n        /* \"#utility.yul\":14805:16200   */\n    tag_49:\n        /* \"#utility.yul\":14922:14959   */\n      tag_253\n        /* \"#utility.yul\":14955:14958   */\n      dup3\n        /* \"#utility.yul\":14922:14959   */\n      tag_67\n      jump\t// in\n    tag_253:\n        /* \"#utility.yul\":15024:15042   */\n      0xffffffffffffffff\n        /* \"#utility.yul\":15016:15022   */\n      dup2\n        /* \"#utility.yul\":15013:15043   */\n      gt\n        /* \"#utility.yul\":15010:15066   */\n      iszero\n      tag_254\n      jumpi\n        /* \"#utility.yul\":15046:15064   */\n      tag_255\n      tag_60\n      jump\t// in\n    tag_255:\n        /* \"#utility.yul\":15010:15066   */\n    tag_254:\n        /* \"#utility.yul\":15090:15128   */\n      tag_256\n        /* \"#utility.yul\":15122:15126   */\n      dup3\n        /* \"#utility.yul\":15116:15127   */\n      sload\n        /* \"#utility.yul\":15090:15128   */\n      tag_31\n      jump\t// in\n    tag_256:\n        /* \"#utility.yul\":15175:15242   */\n      tag_257\n        /* \"#utility.yul\":15235:15241   */\n      dup3\n        /* \"#utility.yul\":15227:15233   */\n      dup3\n        /* \"#utility.yul\":15221:15225   */\n      dup6\n        /* \"#utility.yul\":15175:15242   */\n      tag_100\n      jump\t// in\n    tag_257:\n        /* \"#utility.yul\":15269:15270   */\n      0x00\n        /* \"#utility.yul\":15293:15297   */\n      0x20\n        /* \"#utility.yul\":15280:15297   */\n      swap1\n      pop\n        /* \"#utility.yul\":15325:15327   */\n      0x1f\n        /* \"#utility.yul\":15317:15323   */\n      dup4\n        /* \"#utility.yul\":15314:15328   */\n      gt\n        /* \"#utility.yul\":15342:15343   */\n      0x01\n        /* \"#utility.yul\":15337:15955   */\n      dup2\n      eq\n      tag_259\n      jumpi\n        /* \"#utility.yul\":15999:16000   */\n      0x00\n        /* \"#utility.yul\":16016:16022   */\n      dup5\n        /* \"#utility.yul\":16013:16090   */\n      iszero\n      tag_260\n      jumpi\n        /* \"#utility.yul\":16065:16074   */\n      dup3\n        /* \"#utility.yul\":16060:16063   */\n      dup8\n        /* \"#utility.yul\":16056:16075   */\n      add\n        /* \"#utility.yul\":16050:16076   */\n      mload\n        /* \"#utility.yul\":16041:16076   */\n      swap1\n      pop\n        /* \"#utility.yul\":16013:16090   */\n    tag_260:\n        /* \"#utility.yul\":16116:16183   */\n      tag_261\n        /* \"#utility.yul\":16176:16182   */\n      dup6\n        /* \"#utility.yul\":16169:16174   */\n      dup3\n        /* \"#utility.yul\":16116:16183   */\n      tag_103\n      jump\t// in\n    tag_261:\n        /* \"#utility.yul\":16110:16114   */\n      dup7\n        /* \"#utility.yul\":16103:16184   */\n      sstore\n        /* \"#utility.yul\":15972:16194   */\n      pop\n        /* \"#utility.yul\":15307:16194   */\n      jump(tag_258)\n        /* \"#utility.yul\":15337:15955   */\n    tag_259:\n        /* \"#utility.yul\":15389:15393   */\n      0x1f\n        /* \"#utility.yul\":15385:15394   */\n      not\n        /* \"#utility.yul\":15377:15383   */\n      dup5\n        /* \"#utility.yul\":15373:15395   */\n      and\n        /* \"#utility.yul\":15423:15460   */\n      tag_262\n        /* \"#utility.yul\":15455:15459   */\n      dup7\n        /* \"#utility.yul\":15423:15460   */\n      tag_89\n      jump\t// in\n    tag_262:\n        /* \"#utility.yul\":15482:15483   */\n      0x00\n        /* \"#utility.yul\":15496:15704   */\n    tag_263:\n        /* \"#utility.yul\":15510:15517   */\n      dup3\n        /* \"#utility.yul\":15507:15508   */\n      dup2\n        /* \"#utility.yul\":15504:15518   */\n      lt\n        /* \"#utility.yul\":15496:15704   */\n      iszero\n      tag_265\n      jumpi\n        /* \"#utility.yul\":15589:15598   */\n      dup5\n        /* \"#utility.yul\":15584:15587   */\n      dup10\n        /* \"#utility.yul\":15580:15599   */\n      add\n        /* \"#utility.yul\":15574:15600   */\n      mload\n        /* \"#utility.yul\":15566:15572   */\n      dup3\n        /* \"#utility.yul\":15559:15601   */\n      sstore\n        /* \"#utility.yul\":15640:15641   */\n      0x01\n        /* \"#utility.yul\":15632:15638   */\n      dup3\n        /* \"#utility.yul\":15628:15642   */\n      add\n        /* \"#utility.yul\":15618:15642   */\n      swap2\n      pop\n        /* \"#utility.yul\":15687:15689   */\n      0x20\n        /* \"#utility.yul\":15676:15685   */\n      dup6\n        /* \"#utility.yul\":15672:15690   */\n      add\n        /* \"#utility.yul\":15659:15690   */\n      swap5\n      pop\n        /* \"#utility.yul\":15533:15537   */\n      0x20\n        /* \"#utility.yul\":15530:15531   */\n      dup2\n        /* \"#utility.yul\":15526:15538   */\n      add\n        /* \"#utility.yul\":15521:15538   */\n      swap1\n      pop\n        /* \"#utility.yul\":15496:15704   */\n      jump(tag_263)\n    tag_265:\n        /* \"#utility.yul\":15732:15738   */\n      dup7\n        /* \"#utility.yul\":15723:15730   */\n      dup4\n        /* \"#utility.yul\":15720:15739   */\n      lt\n        /* \"#utility.yul\":15717:15896   */\n      iszero\n      tag_266\n      jumpi\n        /* \"#utility.yul\":15790:15799   */\n      dup5\n        /* \"#utility.yul\":15785:15788   */\n      dup10\n        /* \"#utility.yul\":15781:15800   */\n      add\n        /* \"#utility.yul\":15775:15801   */\n      mload\n        /* \"#utility.yul\":15833:15881   */\n      tag_267\n        /* \"#utility.yul\":15875:15879   */\n      0x1f\n        /* \"#utility.yul\":15867:15873   */\n      dup10\n        /* \"#utility.yul\":15863:15880   */\n      and\n        /* \"#utility.yul\":15852:15861   */\n      dup3\n        /* \"#utility.yul\":15833:15881   */\n      tag_102\n      jump\t// in\n    tag_267:\n        /* \"#utility.yul\":15825:15831   */\n      dup4\n        /* \"#utility.yul\":15818:15882   */\n      sstore\n        /* \"#utility.yul\":15740:15896   */\n      pop\n        /* \"#utility.yul\":15717:15896   */\n    tag_266:\n        /* \"#utility.yul\":15942:15943   */\n      0x01\n        /* \"#utility.yul\":15938:15939   */\n      0x02\n        /* \"#utility.yul\":15930:15936   */\n      dup9\n        /* \"#utility.yul\":15926:15940   */\n      mul\n        /* \"#utility.yul\":15922:15944   */\n      add\n        /* \"#utility.yul\":15916:15920   */\n      dup9\n        /* \"#utility.yul\":15909:15945   */\n      sstore\n        /* \"#utility.yul\":15344:15955   */\n      pop\n      pop\n      pop\n        /* \"#utility.yul\":15307:16194   */\n    tag_258:\n      pop\n        /* \"#utility.yul\":14897:16200   */\n      pop\n      pop\n      pop\n        /* \"#utility.yul\":14805:16200   */\n      pop\n      pop\n      jump\t// out\n\n    auxdata: 0xa26469706673582212200e46f6cfd1b56dfc44ac03598b193680b0e644ba1e83f73c57d57e19686cfd4864736f6c63430008160033\n}\n",
				"bytecode": {
					"linkReferences": {},
					"object": "608060405234801561000f575f80fd5b50610b838061001d5f395ff3fe608060405234801561000f575f80fd5b506004361061004a575f3560e01c806325f94ab41461004e5780633b91f0301461007e578063d49fadae146100ae578063eedb76dd146100ca575b5f80fd5b610068600480360381019061006391906104db565b6100e6565b60405161007591906105ee565b60405180910390f35b610098600480360381019061009391906104db565b6101b6565b6040516100a59190610703565b60405180910390f35b6100c860048036038101906100c391906107be565b6102c9565b005b6100e460048036038101906100df91906107be565b61030c565b005b6100ee610375565b5f826040516100fd919061086e565b90815260200160405180910390206040518060400160405290815f82018054610125906108b1565b80601f0160208091040260200160405190810160405280929190818152602001828054610151906108b1565b801561019c5780601f106101735761010080835404028352916020019161019c565b820191905f5260205f20905b81548152906001019060200180831161017f57829003601f168201915b505050505081526020016001820154815250509050919050565b60606001826040516101c8919061086e565b9081526020016040518091039020805480602002602001604051908101604052809291908181526020015f905b828210156102be578382905f5260205f2090600202016040518060400160405290815f82018054610225906108b1565b80601f0160208091040260200160405190810160405280929190818152602001828054610251906108b1565b801561029c5780601f106102735761010080835404028352916020019161029c565b820191905f5260205f20905b81548152906001019060200180831161027f57829003601f168201915b50505050508152602001600182015481525050815260200190600101906101f5565b505050509050919050565b805f836040516102d9919061086e565b90815260200160405180910390205f820151815f0190816102fa9190610a7e565b50602082015181600101559050505050565b60018260405161031c919061086e565b908152602001604051809103902081908060018154018082558091505060019003905f5260205f2090600202015f909190919091505f820151815f0190816103649190610a7e565b506020820151816001015550505050565b6040518060400160405280606081526020015f81525090565b5f604051905090565b5f80fd5b5f80fd5b5f80fd5b5f80fd5b5f601f19601f8301169050919050565b7f4e487b71000000000000000000000000000000000000000000000000000000005f52604160045260245ffd5b6103ed826103a7565b810181811067ffffffffffffffff8211171561040c5761040b6103b7565b5b80604052505050565b5f61041e61038e565b905061042a82826103e4565b919050565b5f67ffffffffffffffff821115610449576104486103b7565b5b610452826103a7565b9050602081019050919050565b828183375f83830152505050565b5f61047f61047a8461042f565b610415565b90508281526020810184848401111561049b5761049a6103a3565b5b6104a684828561045f565b509392505050565b5f82601f8301126104c2576104c161039f565b5b81356104d284826020860161046d565b91505092915050565b5f602082840312156104f0576104ef610397565b5b5f82013567ffffffffffffffff81111561050d5761050c61039b565b5b610519848285016104ae565b91505092915050565b5f81519050919050565b5f82825260208201905092915050565b5f5b8381101561055957808201518184015260208101905061053e565b5f8484015250505050565b5f61056e82610522565b610578818561052c565b935061058881856020860161053c565b610591816103a7565b840191505092915050565b5f819050919050565b6105ae8161059c565b82525050565b5f604083015f8301518482035f8601526105ce8282610564565b91505060208301516105e360208601826105a5565b508091505092915050565b5f6020820190508181035f83015261060681846105b4565b905092915050565b5f81519050919050565b5f82825260208201905092915050565b5f819050602082019050919050565b5f604083015f8301518482035f8601526106518282610564565b915050602083015161066660208601826105a5565b508091505092915050565b5f61067c8383610637565b905092915050565b5f602082019050919050565b5f61069a8261060e565b6106a48185610618565b9350836020820285016106b685610628565b805f5b858110156106f157848403895281516106d28582610671565b94506106dd83610684565b925060208a019950506001810190506106b9565b50829750879550505050505092915050565b5f6020820190508181035f83015261071b8184610690565b905092915050565b5f80fd5b5f80fd5b6107348161059c565b811461073e575f80fd5b50565b5f8135905061074f8161072b565b92915050565b5f6040828403121561076a57610769610723565b5b6107746040610415565b90505f82013567ffffffffffffffff81111561079357610792610727565b5b61079f848285016104ae565b5f8301525060206107b284828501610741565b60208301525092915050565b5f80604083850312156107d4576107d3610397565b5b5f83013567ffffffffffffffff8111156107f1576107f061039b565b5b6107fd858286016104ae565b925050602083013567ffffffffffffffff81111561081e5761081d61039b565b5b61082a85828601610755565b9150509250929050565b5f81905092915050565b5f61084882610522565b6108528185610834565b935061086281856020860161053c565b80840191505092915050565b5f610879828461083e565b915081905092915050565b7f4e487b71000000000000000000000000000000000000000000000000000000005f52602260045260245ffd5b5f60028204905060018216806108c857607f821691505b6020821081036108db576108da610884565b5b50919050565b5f819050815f5260205f209050919050565b5f6020601f8301049050919050565b5f82821b905092915050565b5f6008830261093d7fffffffffffffffffffffffffffffffffffffffffffffffffffffffffffffffff82610902565b6109478683610902565b95508019841693508086168417925050509392505050565b5f819050919050565b5f61098261097d6109788461059c565b61095f565b61059c565b9050919050565b5f819050919050565b61099b83610968565b6109af6109a782610989565b84845461090e565b825550505050565b5f90565b6109c36109b7565b6109ce818484610992565b505050565b5b818110156109f1576109e65f826109bb565b6001810190506109d4565b5050565b601f821115610a3657610a07816108e1565b610a10846108f3565b81016020851015610a1f578190505b610a33610a2b856108f3565b8301826109d3565b50505b505050565b5f82821c905092915050565b5f610a565f1984600802610a3b565b1980831691505092915050565b5f610a6e8383610a47565b9150826002028217905092915050565b610a8782610522565b67ffffffffffffffff811115610aa057610a9f6103b7565b5b610aaa82546108b1565b610ab58282856109f5565b5f60209050601f831160018114610ae6575f8415610ad4578287015190505b610ade8582610a63565b865550610b45565b601f198416610af4866108e1565b5f5b82811015610b1b57848901518255600182019150602085019450602081019050610af6565b86831015610b385784890151610b34601f891682610a47565b8355505b6001600288020188555050505b50505050505056fea26469706673582212200e46f6cfd1b56dfc44ac03598b193680b0e644ba1e83f73c57d57e19686cfd4864736f6c63430008160033",
					"opcodes": "PUSH1 0x80 PUSH1 0x40 MSTORE CALLVALUE DUP1 ISZERO PUSH2 0xF JUMPI PUSH0 DUP1 REVERT JUMPDEST POP PUSH2 0xB83 DUP1 PUSH2 0x1D PUSH0 CODECOPY PUSH0 RETURN INVALID PUSH1 0x80 PUSH1 0x40 MSTORE CALLVALUE DUP1 ISZERO PUSH2 0xF JUMPI PUSH0 DUP1 REVERT JUMPDEST POP PUSH1 0x4 CALLDATASIZE LT PUSH2 0x4A JUMPI PUSH0 CALLDATALOAD PUSH1 0xE0 SHR DUP1 PUSH4 0x25F94AB4 EQ PUSH2 0x4E JUMPI DUP1 PUSH4 0x3B91F030 EQ PUSH2 0x7E JUMPI DUP1 PUSH4 0xD49FADAE EQ PUSH2 0xAE JUMPI DUP1 PUSH4 0xEEDB76DD EQ PUSH2 0xCA JUMPI JUMPDEST PUSH0 DUP1 REVERT JUMPDEST PUSH2 0x68 PUSH1 0x4 DUP1 CALLDATASIZE SUB DUP2 ADD SWAP1 PUSH2 0x63 SWAP2 SWAP1 PUSH2 0x4DB JUMP JUMPDEST PUSH2 0xE6 JUMP JUMPDEST PUSH1 0x40 MLOAD PUSH2 0x75 SWAP2 SWAP1 PUSH2 0x5EE JUMP JUMPDEST PUSH1 0x40 MLOAD DUP1 SWAP2 SUB SWAP1 RETURN JUMPDEST PUSH2 0x98 PUSH1 0x4 DUP1 CALLDATASIZE SUB DUP2 ADD SWAP1 PUSH2 0x93 SWAP2 SWAP1 PUSH2 0x4DB JUMP JUMPDEST PUSH2 0x1B6 JUMP JUMPDEST PUSH1 0x40 MLOAD PUSH2 0xA5 SWAP2 SWAP1 PUSH2 0x703 JUMP JUMPDEST PUSH1 0x40 MLOAD DUP1 SWAP2 SUB SWAP1 RETURN JUMPDEST PUSH2 0xC8 PUSH1 0x4 DUP1 CALLDATASIZE SUB DUP2 ADD SWAP1 PUSH2 0xC3 SWAP2 SWAP1 PUSH2 0x7BE JUMP JUMPDEST PUSH2 0x2C9 JUMP JUMPDEST STOP JUMPDEST PUSH2 0xE4 PUSH1 0x4 DUP1 CALLDATASIZE SUB DUP2 ADD SWAP1 PUSH2 0xDF SWAP2 SWAP1 PUSH2 0x7BE JUMP JUMPDEST PUSH2 0x30C JUMP JUMPDEST STOP JUMPDEST PUSH2 0xEE PUSH2 0x375 JUMP JUMPDEST PUSH0 DUP3 PUSH1 0x40 MLOAD PUSH2 0xFD SWAP2 SWAP1 PUSH2 0x86E JUMP JUMPDEST SWAP1 DUP2 MSTORE PUSH1 0x20 ADD PUSH1 0x40 MLOAD DUP1 SWAP2 SUB SWAP1 KECCAK256 PUSH1 0x40 MLOAD DUP1 PUSH1 0x40 ADD PUSH1 0x40 MSTORE SWAP1 DUP2 PUSH0 DUP3 ADD DUP1 SLOAD PUSH2 0x125 SWAP1 PUSH2 0x8B1 JUMP JUMPDEST DUP1 PUSH1 0x1F ADD PUSH1 0x20 DUP1 SWAP2 DIV MUL PUSH1 0x20 ADD PUSH1 0x40 MLOAD SWAP1 DUP2 ADD PUSH1 0x40 MSTORE DUP1 SWAP3 SWAP2 SWAP1 DUP2 DUP2 MSTORE PUSH1 0x20 ADD DUP3 DUP1 SLOAD PUSH2 0x151 SWAP1 PUSH2 0x8B1 JUMP JUMPDEST DUP1 ISZERO PUSH2 0x19C JUMPI DUP1 PUSH1 0x1F LT PUSH2 0x173 JUMPI PUSH2 0x100 DUP1 DUP4 SLOAD DIV MUL DUP4 MSTORE SWAP2 PUSH1 0x20 ADD SWAP2 PUSH2 0x19C JUMP JUMPDEST DUP3 ADD SWAP2 SWAP1 PUSH0 MSTORE PUSH1 0x20 PUSH0 KECCAK256 SWAP1 JUMPDEST DUP2 SLOAD DUP2 MSTORE SWAP1 PUSH1 0x1 ADD SWAP1 PUSH1 0x20 ADD DUP1 DUP4 GT PUSH2 0x17F JUMPI DUP3 SWAP1 SUB PUSH1 0x1F AND DUP3 ADD SWAP2 JUMPDEST POP POP POP POP POP DUP2 MSTORE PUSH1 0x20 ADD PUSH1 0x1 DUP3 ADD SLOAD DUP2 MSTORE POP POP SWAP1 POP SWAP2 SWAP1 POP JUMP JUMPDEST PUSH1 0x60 PUSH1 0x1 DUP3 PUSH1 0x40 MLOAD PUSH2 0x1C8 SWAP2 SWAP1 PUSH2 0x86E JUMP JUMPDEST SWAP1 DUP2 MSTORE PUSH1 0x20 ADD PUSH1 0x40 MLOAD DUP1 SWAP2 SUB SWAP1 KECCAK256 DUP1 SLOAD DUP1 PUSH1 0x20 MUL PUSH1 0x20 ADD PUSH1 0x40 MLOAD SWAP1 DUP2 ADD PUSH1 0x40 MSTORE DUP1 SWAP3 SWAP2 SWAP1 DUP2 DUP2 MSTORE PUSH1 0x20 ADD PUSH0 SWAP1 JUMPDEST DUP3 DUP3 LT ISZERO PUSH2 0x2BE JUMPI DUP4 DUP3 SWAP1 PUSH0 MSTORE PUSH1 0x20 PUSH0 KECCAK256 SWAP1 PUSH1 0x2 MUL ADD PUSH1 0x40 MLOAD DUP1 PUSH1 0x40 ADD PUSH1 0x40 MSTORE SWAP1 DUP2 PUSH0 DUP3 ADD DUP1 SLOAD PUSH2 0x225 SWAP1 PUSH2 0x8B1 JUMP JUMPDEST DUP1 PUSH1 0x1F ADD PUSH1 0x20 DUP1 SWAP2 DIV MUL PUSH1 0x20 ADD PUSH1 0x40 MLOAD SWAP1 DUP2 ADD PUSH1 0x40 MSTORE DUP1 SWAP3 SWAP2 SWAP1 DUP2 DUP2 MSTORE PUSH1 0x20 ADD DUP3 DUP1 SLOAD PUSH2 0x251 SWAP1 PUSH2 0x8B1 JUMP JUMPDEST DUP1 ISZERO PUSH2 0x29C JUMPI DUP1 PUSH1 0x1F LT PUSH2 0x273 JUMPI PUSH2 0x100 DUP1 DUP4 SLOAD DIV MUL DUP4 MSTORE SWAP2 PUSH1 0x20 ADD SWAP2 PUSH2 0x29C JUMP JUMPDEST DUP3 ADD SWAP2 SWAP1 PUSH0 MSTORE PUSH1 0x20 PUSH0 KECCAK256 SWAP1 JUMPDEST DUP2 SLOAD DUP2 MSTORE SWAP1 PUSH1 0x1 ADD SWAP1 PUSH1 0x20 ADD DUP1 DUP4 GT PUSH2 0x27F JUMPI DUP3 SWAP1 SUB PUSH1 0x1F AND DUP3 ADD SWAP2 JUMPDEST POP POP POP POP POP DUP2 MSTORE PUSH1 0x20 ADD PUSH1 0x1 DUP3 ADD SLOAD DUP2 MSTORE POP POP DUP2 MSTORE PUSH1 0x20 ADD SWAP1 PUSH1 0x1 ADD SWAP1 PUSH2 0x1F5 JUMP JUMPDEST POP POP POP POP SWAP1 POP SWAP2 SWAP1 POP JUMP JUMPDEST DUP1 PUSH0 DUP4 PUSH1 0x40 MLOAD PUSH2 0x2D9 SWAP2 SWAP1 PUSH2 0x86E JUMP JUMPDEST SWAP1 DUP2 MSTORE PUSH1 0x20 ADD PUSH1 0x40 MLOAD DUP1 SWAP2 SUB SWAP1 KECCAK256 PUSH0 DUP3 ADD MLOAD DUP2 PUSH0 ADD SWAP1 DUP2 PUSH2 0x2FA SWAP2 SWAP1 PUSH2 0xA7E JUMP JUMPDEST POP PUSH1 0x20 DUP3 ADD MLOAD DUP2 PUSH1 0x1 ADD SSTORE SWAP1 POP POP POP POP JUMP JUMPDEST PUSH1 0x1 DUP3 PUSH1 0x40 MLOAD PUSH2 0x31C SWAP2 SWAP1 PUSH2 0x86E JUMP JUMPDEST SWAP1 DUP2 MSTORE PUSH1 0x20 ADD PUSH1 0x40 MLOAD DUP1 SWAP2 SUB SWAP1 KECCAK256 DUP2 SWAP1 DUP1 PUSH1 0x1 DUP2 SLOAD ADD DUP1 DUP3 SSTORE DUP1 SWAP2 POP POP PUSH1 0x1 SWAP1 SUB SWAP1 PUSH0 MSTORE PUSH1 0x20 PUSH0 KECCAK256 SWAP1 PUSH1 0x2 MUL ADD PUSH0 SWAP1 SWAP2 SWAP1 SWAP2 SWAP1 SWAP2 POP PUSH0 DUP3 ADD MLOAD DUP2 PUSH0 ADD SWAP1 DUP2 PUSH2 0x364 SWAP2 SWAP1 PUSH2 0xA7E JUMP JUMPDEST POP PUSH1 0x20 DUP3 ADD MLOAD DUP2 PUSH1 0x1 ADD SSTORE POP POP POP POP JUMP JUMPDEST PUSH1 0x40 MLOAD DUP1 PUSH1 0x40 ADD PUSH1 0x40 MSTORE DUP1 PUSH1 0x60 DUP2 MSTORE PUSH1 0x20 ADD PUSH0 DUP2 MSTORE POP SWAP1 JUMP JUMPDEST PUSH0 PUSH1 0x40 MLOAD SWAP1 POP SWAP1 JUMP JUMPDEST PUSH0 DUP1 REVERT JUMPDEST PUSH0 DUP1 REVERT JUMPDEST PUSH0 DUP1 REVERT JUMPDEST PUSH0 DUP1 REVERT JUMPDEST PUSH0 PUSH1 0x1F NOT PUSH1 0x1F DUP4 ADD AND SWAP1 POP SWAP2 SWAP1 POP JUMP JUMPDEST PUSH32 0x4E487B7100000000000000000000000000000000000000000000000000000000 PUSH0 MSTORE PUSH1 0x41 PUSH1 0x4 MSTORE PUSH1 0x24 PUSH0 REVERT JUMPDEST PUSH2 0x3ED DUP3 PUSH2 0x3A7 JUMP JUMPDEST DUP2 ADD DUP2 DUP2 LT PUSH8 0xFFFFFFFFFFFFFFFF DUP3 GT OR ISZERO PUSH2 0x40C JUMPI PUSH2 0x40B PUSH2 0x3B7 JUMP JUMPDEST JUMPDEST DUP1 PUSH1 0x40 MSTORE POP POP POP JUMP JUMPDEST PUSH0 PUSH2 0x41E PUSH2 0x38E JUMP JUMPDEST SWAP1 POP PUSH2 0x42A DUP3 DUP3 PUSH2 0x3E4 JUMP JUMPDEST SWAP2 SWAP1 POP JUMP JUMPDEST PUSH0 PUSH8 0xFFFFFFFFFFFFFFFF DUP3 GT ISZERO PUSH2 0x449 JUMPI PUSH2 0x448 PUSH2 0x3B7 JUMP JUMPDEST JUMPDEST PUSH2 0x452 DUP3 PUSH2 0x3A7 JUMP JUMPDEST SWAP1 POP PUSH1 0x20 DUP2 ADD SWAP1 POP SWAP2 SWAP1 POP JUMP JUMPDEST DUP3 DUP2 DUP4 CALLDATACOPY PUSH0 DUP4 DUP4 ADD MSTORE POP POP POP JUMP JUMPDEST PUSH0 PUSH2 0x47F PUSH2 0x47A DUP5 PUSH2 0x42F JUMP JUMPDEST PUSH2 0x415 JUMP JUMPDEST SWAP1 POP DUP3 DUP2 MSTORE PUSH1 0x20 DUP2 ADD DUP5 DUP5 DUP5 ADD GT ISZERO PUSH2 0x49B JUMPI PUSH2 0x49A PUSH2 0x3A3 JUMP JUMPDEST JUMPDEST PUSH2 0x4A6 DUP5 DUP3 DUP6 PUSH2 0x45F JUMP JUMPDEST POP SWAP4 SWAP3 POP POP POP JUMP JUMPDEST PUSH0 DUP3 PUSH1 0x1F DUP4 ADD SLT PUSH2 0x4C2 JUMPI PUSH2 0x4C1 PUSH2 0x39F JUMP JUMPDEST JUMPDEST DUP2 CALLDATALOAD PUSH2 0x4D2 DUP5 DUP3 PUSH1 0x20 DUP7 ADD PUSH2 0x46D JUMP JUMPDEST SWAP2 POP POP SWAP3 SWAP2 POP POP JUMP JUMPDEST PUSH0 PUSH1 0x20 DUP3 DUP5 SUB SLT ISZERO PUSH2 0x4F0 JUMPI PUSH2 0x4EF PUSH2 0x397 JUMP JUMPDEST JUMPDEST PUSH0 DUP3 ADD CALLDATALOAD PUSH8 0xFFFFFFFFFFFFFFFF DUP2 GT ISZERO PUSH2 0x50D JUMPI PUSH2 0x50C PUSH2 0x39B JUMP JUMPDEST JUMPDEST PUSH2 0x519 DUP5 DUP3 DUP6 ADD PUSH2 0x4AE JUMP JUMPDEST SWAP2 POP POP SWAP3 SWAP2 POP POP JUMP JUMPDEST PUSH0 DUP2 MLOAD SWAP1 POP SWAP2 SWAP1 POP JUMP JUMPDEST PUSH0 DUP3 DUP3 MSTORE PUSH1 0x20 DUP3 ADD SWAP1 POP SWAP3 SWAP2 POP POP JUMP JUMPDEST PUSH0 JUMPDEST DUP4 DUP2 LT ISZERO PUSH2 0x559 JUMPI DUP1 DUP3 ADD MLOAD DUP2 DUP5 ADD MSTORE PUSH1 0x20 DUP2 ADD SWAP1 POP PUSH2 0x53E JUMP JUMPDEST PUSH0 DUP5 DUP5 ADD MSTORE POP POP POP POP JUMP JUMPDEST PUSH0 PUSH2 0x56E DUP3 PUSH2 0x522 JUMP JUMPDEST PUSH2 0x578 DUP2 DUP6 PUSH2 0x52C JUMP JUMPDEST SWAP4 POP PUSH2 0x588 DUP2 DUP6 PUSH1 0x20 DUP7 ADD PUSH2 0x53C JUMP JUMPDEST PUSH2 0x591 DUP2 PUSH2 0x3A7 JUMP JUMPDEST DUP5 ADD SWAP2 POP POP SWAP3 SWAP2 POP POP JUMP JUMPDEST PUSH0 DUP2 SWAP1 POP SWAP2 SWAP1 POP JUMP JUMPDEST PUSH2 0x5AE DUP2 PUSH2 0x59C JUMP JUMPDEST DUP3 MSTORE POP POP JUMP JUMPDEST PUSH0 PUSH1 0x40 DUP4 ADD PUSH0 DUP4 ADD MLOAD DUP5 DUP3 SUB PUSH0 DUP7 ADD MSTORE PUSH2 0x5CE DUP3 DUP3 PUSH2 0x564 JUMP JUMPDEST SWAP2 POP POP PUSH1 0x20 DUP4 ADD MLOAD PUSH2 0x5E3 PUSH1 0x20 DUP7 ADD DUP3 PUSH2 0x5A5 JUMP JUMPDEST POP DUP1 SWAP2 POP POP SWAP3 SWAP2 POP POP JUMP JUMPDEST PUSH0 PUSH1 0x20 DUP3 ADD SWAP1 POP DUP2 DUP2 SUB PUSH0 DUP4 ADD MSTORE PUSH2 0x606 DUP2 DUP5 PUSH2 0x5B4 JUMP JUMPDEST SWAP1 POP SWAP3 SWAP2 POP POP JUMP JUMPDEST PUSH0 DUP2 MLOAD SWAP1 POP SWAP2 SWAP1 POP JUMP JUMPDEST PUSH0 DUP3 DUP3 MSTORE PUSH1 0x20 DUP3 ADD SWAP1 POP SWAP3 SWAP2 POP POP JUMP JUMPDEST PUSH0 DUP2 SWAP1 POP PUSH1 0x20 DUP3 ADD SWAP1 POP SWAP2 SWAP1 POP JUMP JUMPDEST PUSH0 PUSH1 0x40 DUP4 ADD PUSH0 DUP4 ADD MLOAD DUP5 DUP3 SUB PUSH0 DUP7 ADD MSTORE PUSH2 0x651 DUP3 DUP3 PUSH2 0x564 JUMP JUMPDEST SWAP2 POP POP PUSH1 0x20 DUP4 ADD MLOAD PUSH2 0x666 PUSH1 0x20 DUP7 ADD DUP3 PUSH2 0x5A5 JUMP JUMPDEST POP DUP1 SWAP2 POP POP SWAP3 SWAP2 POP POP JUMP JUMPDEST PUSH0 PUSH2 0x67C DUP4 DUP4 PUSH2 0x637 JUMP JUMPDEST SWAP1 POP SWAP3 SWAP2 POP POP JUMP JUMPDEST PUSH0 PUSH1 0x20 DUP3 ADD SWAP1 POP SWAP2 SWAP1 POP JUMP JUMPDEST PUSH0 PUSH2 0x69A DUP3 PUSH2 0x60E JUMP JUMPDEST PUSH2 0x6A4 DUP2 DUP6 PUSH2 0x618 JUMP JUMPDEST SWAP4 POP DUP4 PUSH1 0x20 DUP3 MUL DUP6 ADD PUSH2 0x6B6 DUP6 PUSH2 0x628 JUMP JUMPDEST DUP1 PUSH0 JUMPDEST DUP6 DUP2 LT ISZERO PUSH2 0x6F1 JUMPI DUP5 DUP5 SUB DUP10 MSTORE DUP2 MLOAD PUSH2 0x6D2 DUP6 DUP3 PUSH2 0x671 JUMP JUMPDEST SWAP5 POP PUSH2 0x6DD DUP4 PUSH2 0x684 JUMP JUMPDEST SWAP3 POP PUSH1 0x20 DUP11 ADD SWAP10 POP POP PUSH1 0x1 DUP2 ADD SWAP1 POP PUSH2 0x6B9 JUMP JUMPDEST POP DUP3 SWAP8 POP DUP8 SWAP6 POP POP POP POP POP POP SWAP3 SWAP2 POP POP JUMP JUMPDEST PUSH0 PUSH1 0x20 DUP3 ADD SWAP1 POP DUP2 DUP2 SUB PUSH0 DUP4 ADD MSTORE PUSH2 0x71B DUP2 DUP5 PUSH2 0x690 JUMP JUMPDEST SWAP1 POP SWAP3 SWAP2 POP POP JUMP JUMPDEST PUSH0 DUP1 REVERT JUMPDEST PUSH0 DUP1 REVERT JUMPDEST PUSH2 0x734 DUP2 PUSH2 0x59C JUMP JUMPDEST DUP2 EQ PUSH2 0x73E JUMPI PUSH0 DUP1 REVERT JUMPDEST POP JUMP JUMPDEST PUSH0 DUP2 CALLDATALOAD SWAP1 POP PUSH2 0x74F DUP2 PUSH2 0x72B JUMP JUMPDEST SWAP3 SWAP2 POP POP JUMP JUMPDEST PUSH0 PUSH1 0x40 DUP3 DUP5 SUB SLT ISZERO PUSH2 0x76A JUMPI PUSH2 0x769 PUSH2 0x723 JUMP JUMPDEST JUMPDEST PUSH2 0x774 PUSH1 0x40 PUSH2 0x415 JUMP JUMPDEST SWAP1 POP PUSH0 DUP3 ADD CALLDATALOAD PUSH8 0xFFFFFFFFFFFFFFFF DUP2 GT ISZERO PUSH2 0x793 JUMPI PUSH2 0x792 PUSH2 0x727 JUMP JUMPDEST JUMPDEST PUSH2 0x79F DUP5 DUP3 DUP6 ADD PUSH2 0x4AE JUMP JUMPDEST PUSH0 DUP4 ADD MSTORE POP PUSH1 0x20 PUSH2 0x7B2 DUP5 DUP3 DUP6 ADD PUSH2 0x741 JUMP JUMPDEST PUSH1 0x20 DUP4 ADD MSTORE POP SWAP3 SWAP2 POP POP JUMP JUMPDEST PUSH0 DUP1 PUSH1 0x40 DUP4 DUP6 SUB SLT ISZERO PUSH2 0x7D4 JUMPI PUSH2 0x7D3 PUSH2 0x397 JUMP JUMPDEST JUMPDEST PUSH0 DUP4 ADD CALLDATALOAD PUSH8 0xFFFFFFFFFFFFFFFF DUP2 GT ISZERO PUSH2 0x7F1 JUMPI PUSH2 0x7F0 PUSH2 0x39B JUMP JUMPDEST JUMPDEST PUSH2 0x7FD DUP6 DUP3 DUP7 ADD PUSH2 0x4AE JUMP JUMPDEST SWAP3 POP POP PUSH1 0x20 DUP4 ADD CALLDATALOAD PUSH8 0xFFFFFFFFFFFFFFFF DUP2 GT ISZERO PUSH2 0x81E JUMPI PUSH2 0x81D PUSH2 0x39B JUMP JUMPDEST JUMPDEST PUSH2 0x82A DUP6 DUP3 DUP7 ADD PUSH2 0x755 JUMP JUMPDEST SWAP2 POP POP SWAP3 POP SWAP3 SWAP1 POP JUMP JUMPDEST PUSH0 DUP2 SWAP1 POP SWAP3 SWAP2 POP POP JUMP JUMPDEST PUSH0 PUSH2 0x848 DUP3 PUSH2 0x522 JUMP JUMPDEST PUSH2 0x852 DUP2 DUP6 PUSH2 0x834 JUMP JUMPDEST SWAP4 POP PUSH2 0x862 DUP2 DUP6 PUSH1 0x20 DUP7 ADD PUSH2 0x53C JUMP JUMPDEST DUP1 DUP5 ADD SWAP2 POP POP SWAP3 SWAP2 POP POP JUMP JUMPDEST PUSH0 PUSH2 0x879 DUP3 DUP5 PUSH2 0x83E JUMP JUMPDEST SWAP2 POP DUP2 SWAP1 POP SWAP3 SWAP2 POP POP JUMP JUMPDEST PUSH32 0x4E487B7100000000000000000000000000000000000000000000000000000000 PUSH0 MSTORE PUSH1 0x22 PUSH1 0x4 MSTORE PUSH1 0x24 PUSH0 REVERT JUMPDEST PUSH0 PUSH1 0x2 DUP3 DIV SWAP1 POP PUSH1 0x1 DUP3 AND DUP1 PUSH2 0x8C8 JUMPI PUSH1 0x7F DUP3 AND SWAP2 POP JUMPDEST PUSH1 0x20 DUP3 LT DUP2 SUB PUSH2 0x8DB JUMPI PUSH2 0x8DA PUSH2 0x884 JUMP JUMPDEST JUMPDEST POP SWAP2 SWAP1 POP JUMP JUMPDEST PUSH0 DUP2 SWAP1 POP DUP2 PUSH0 MSTORE PUSH1 0x20 PUSH0 KECCAK256 SWAP1 POP SWAP2 SWAP1 POP JUMP JUMPDEST PUSH0 PUSH1 0x20 PUSH1 0x1F DUP4 ADD DIV SWAP1 POP SWAP2 SWAP1 POP JUMP JUMPDEST PUSH0 DUP3 DUP3 SHL SWAP1 POP SWAP3 SWAP2 POP POP JUMP JUMPDEST PUSH0 PUSH1 0x8 DUP4 MUL PUSH2 0x93D PUSH32 0xFFFFFFFFFFFFFFFFFFFFFFFFFFFFFFFFFFFFFFFFFFFFFFFFFFFFFFFFFFFFFFFF DUP3 PUSH2 0x902 JUMP JUMPDEST PUSH2 0x947 DUP7 DUP4 PUSH2 0x902 JUMP JUMPDEST SWAP6 POP DUP1 NOT DUP5 AND SWAP4 POP DUP1 DUP7 AND DUP5 OR SWAP3 POP POP POP SWAP4 SWAP3 POP POP POP JUMP JUMPDEST PUSH0 DUP2 SWAP1 POP SWAP2 SWAP1 POP JUMP JUMPDEST PUSH0 PUSH2 0x982 PUSH2 0x97D PUSH2 0x978 DUP5 PUSH2 0x59C JUMP JUMPDEST PUSH2 0x95F JUMP JUMPDEST PUSH2 0x59C JUMP JUMPDEST SWAP1 POP SWAP2 SWAP1 POP JUMP JUMPDEST PUSH0 DUP2 SWAP1 POP SWAP2 SWAP1 POP JUMP JUMPDEST PUSH2 0x99B DUP4 PUSH2 0x968 JUMP JUMPDEST PUSH2 0x9AF PUSH2 0x9A7 DUP3 PUSH2 0x989 JUMP JUMPDEST DUP5 DUP5 SLOAD PUSH2 0x90E JUMP JUMPDEST DUP3 SSTORE POP POP POP POP JUMP JUMPDEST PUSH0 SWAP1 JUMP JUMPDEST PUSH2 0x9C3 PUSH2 0x9B7 JUMP JUMPDEST PUSH2 0x9CE DUP2 DUP5 DUP5 PUSH2 0x992 JUMP JUMPDEST POP POP POP JUMP JUMPDEST JUMPDEST DUP2 DUP2 LT ISZERO PUSH2 0x9F1 JUMPI PUSH2 0x9E6 PUSH0 DUP3 PUSH2 0x9BB JUMP JUMPDEST PUSH1 0x1 DUP2 ADD SWAP1 POP PUSH2 0x9D4 JUMP JUMPDEST POP POP JUMP JUMPDEST PUSH1 0x1F DUP3 GT ISZERO PUSH2 0xA36 JUMPI PUSH2 0xA07 DUP2 PUSH2 0x8E1 JUMP JUMPDEST PUSH2 0xA10 DUP5 PUSH2 0x8F3 JUMP JUMPDEST DUP2 ADD PUSH1 0x20 DUP6 LT ISZERO PUSH2 0xA1F JUMPI DUP2 SWAP1 POP JUMPDEST PUSH2 0xA33 PUSH2 0xA2B DUP6 PUSH2 0x8F3 JUMP JUMPDEST DUP4 ADD DUP3 PUSH2 0x9D3 JUMP JUMPDEST POP POP JUMPDEST POP POP POP JUMP JUMPDEST PUSH0 DUP3 DUP3 SHR SWAP1 POP SWAP3 SWAP2 POP POP JUMP JUMPDEST PUSH0 PUSH2 0xA56 PUSH0 NOT DUP5 PUSH1 0x8 MUL PUSH2 0xA3B JUMP JUMPDEST NOT DUP1 DUP4 AND SWAP2 POP POP SWAP3 SWAP2 POP POP JUMP JUMPDEST PUSH0 PUSH2 0xA6E DUP4 DUP4 PUSH2 0xA47 JUMP JUMPDEST SWAP2 POP DUP3 PUSH1 0x2 MUL DUP3 OR SWAP1 POP SWAP3 SWAP2 POP POP JUMP JUMPDEST PUSH2 0xA87 DUP3 PUSH2 0x522 JUMP JUMPDEST PUSH8 0xFFFFFFFFFFFFFFFF DUP2 GT ISZERO PUSH2 0xAA0 JUMPI PUSH2 0xA9F PUSH2 0x3B7 JUMP JUMPDEST JUMPDEST PUSH2 0xAAA DUP3 SLOAD PUSH2 0x8B1 JUMP JUMPDEST PUSH2 0xAB5 DUP3 DUP3 DUP6 PUSH2 0x9F5 JUMP JUMPDEST PUSH0 PUSH1 0x20 SWAP1 POP PUSH1 0x1F DUP4 GT PUSH1 0x1 DUP2 EQ PUSH2 0xAE6 JUMPI PUSH0 DUP5 ISZERO PUSH2 0xAD4 JUMPI DUP3 DUP8 ADD MLOAD SWAP1 POP JUMPDEST PUSH2 0xADE DUP6 DUP3 PUSH2 0xA63 JUMP JUMPDEST DUP7 SSTORE POP PUSH2 0xB45 JUMP JUMPDEST PUSH1 0x1F NOT DUP5 AND PUSH2 0xAF4 DUP7 PUSH2 0x8E1 JUMP JUMPDEST PUSH0 JUMPDEST DUP3 DUP2 LT ISZERO PUSH2 0xB1B JUMPI DUP5 DUP10 ADD MLOAD DUP3 SSTORE PUSH1 0x1 DUP3 ADD SWAP2 POP PUSH1 0x20 DUP6 ADD SWAP5 POP PUSH1 0x20 DUP2 ADD SWAP1 POP PUSH2 0xAF6 JUMP JUMPDEST DUP7 DUP4 LT ISZERO PUSH2 0xB38 JUMPI DUP5 DUP10 ADD MLOAD PUSH2 0xB34 PUSH1 0x1F DUP10 AND DUP3 PUSH2 0xA47 JUMP JUMPDEST DUP4 SSTORE POP JUMPDEST PUSH1 0x1 PUSH1 0x2 DUP9 MUL ADD DUP9 SSTORE POP POP POP JUMPDEST POP POP POP POP POP POP JUMP INVALID LOG2 PUSH5 0x6970667358 0x22 SLT KECCAK256 0xE CHAINID 0xF6 0xCF 0xD1 0xB5 PUSH14 0xFC44AC03598B193680B0E644BA1E DUP4 0xF7 EXTCODECOPY JUMPI 0xD5 PUSH31 0x19686CFD4864736F6C63430008160033000000000000000000000000000000 "
				},
				"gasEstimates": {
					"creation": {
						"codeDepositCost": "589400",
						"executionCost": "623",
						"totalCost": "590023"
					},
					"external": {
						"getTeacherStudent1(string)": "infinite",
						"getTeacherStudent2(string)": "infinite",
						"setTeacherStudent1(string,(string,uint256))": "infinite",
						"setTeacherStudent2(string,(string,uint256))": "infinite"
					}
				},
				"methodIdentifiers": {
					"getTeacherStudent1(string)": "25f94ab4",
					"getTeacherStudent2(string)": "3b91f030",
					"setTeacherStudent1(string,(string,uint256))": "d49fadae",
					"setTeacherStudent2(string,(string,uint256))": "eedb76dd"
				}
			},
			"storageLayout": {
				"storage": [
					{
						"astId": 11,
						"contract": "contracts/mapping3.sol:MAPPING",
						"label": "students1",
						"offset": 0,
						"slot": "0",
						"type": "t_mapping(t_string_memory_ptr,t_struct(Student)6_storage)"
					},
					{
						"astId": 17,
						"contract": "contracts/mapping3.sol:MAPPING",
						"label": "students2",
						"offset": 0,
						"slot": "1",
						"type": "t_mapping(t_string_memory_ptr,t_array(t_struct(Student)6_storage)dyn_storage)"
					}
				],
				"types": {
					"t_array(t_struct(Student)6_storage)dyn_storage": {
						"base": "t_struct(Student)6_storage",
						"encoding": "dynamic_array",
						"label": "struct MAPPING.Student[]",
						"numberOfBytes": "32"
					},
					"t_mapping(t_string_memory_ptr,t_array(t_struct(Student)6_storage)dyn_storage)": {
						"encoding": "mapping",
						"key": "t_string_memory_ptr",
						"label": "mapping(string => struct MAPPING.Student[])",
						"numberOfBytes": "32",
						"value": "t_array(t_struct(Student)6_storage)dyn_storage"
					},
					"t_mapping(t_string_memory_ptr,t_struct(Student)6_storage)": {
						"encoding": "mapping",
						"key": "t_string_memory_ptr",
						"label": "mapping(string => struct MAPPING.Student)",
						"numberOfBytes": "32",
						"value": "t_struct(Student)6_storage"
					},
					"t_string_memory_ptr": {
						"encoding": "bytes",
						"label": "string",
						"numberOfBytes": "32"
					},
					"t_string_storage": {
						"encoding": "bytes",
						"label": "string",
						"numberOfBytes": "32"
					},
					"t_struct(Student)6_storage": {
						"encoding": "inplace",
						"label": "struct MAPPING.Student",
						"members": [
							{
								"astId": 3,
								"contract": "contracts/mapping3.sol:MAPPING",
								"label": "name",
								"offset": 0,
								"slot": "0",
								"type": "t_string_storage"
							},
							{
								"astId": 5,
								"contract": "contracts/mapping3.sol:MAPPING",
								"label": "number",
								"offset": 0,
								"slot": "1",
								"type": "t_uint256"
							}
						],
						"numberOfBytes": "64"
					},
					"t_uint256": {
						"encoding": "inplace",
						"label": "uint256",
						"numberOfBytes": "32"
					}
				}
			},
			"userdoc": {
				"kind": "user",
				"methods": {},
				"version": 1
			}
		}
	}
}