{
	"data": {
		"bytecode": {
			"linkReferences": {},
			"object": "608060405260028055348015610013575f80fd5b506102ce806100215f395ff3fe608060405234801561000f575f80fd5b5060043610610086575f3560e01c8063a1c5191511610059578063a1c51915146100eb578063d46300fd14610109578063ee919d5014610127578063eeb4914e1461014357610086565b8063010a013c1461008a578063016aa20b1461009457806309cdcf9b146100b05780632b06cb2d146100cc575b5f80fd5b61009261015f565b005b6100ae60048036038101906100a991906101e0565b610168565b005b6100ca60048036038101906100c5919061021e565b61016c565b005b6100d4610176565b6040516100e2929190610258565b60405180910390f35b6100f3610185565b604051610100919061027f565b60405180910390f35b61011161018e565b60405161011e919061027f565b60405180910390f35b610141600480360381019061013c919061021e565b610196565b005b61015d6004803603810190610158919061021e565b61019f565b005b60095f81905550565b5050565b8060018190555050565b5f805f54600154915091509091565b5f600154905090565b5f8054905090565b805f8190555050565b8060028190555050565b5f80fd5b5f819050919050565b6101bf816101ad565b81146101c9575f80fd5b50565b5f813590506101da816101b6565b92915050565b5f80604083850312156101f6576101f56101a9565b5b5f610203858286016101cc565b9250506020610214858286016101cc565b9150509250929050565b5f60208284031215610233576102326101a9565b5b5f610240848285016101cc565b91505092915050565b610252816101ad565b82525050565b5f60408201905061026b5f830185610249565b6102786020830184610249565b9392505050565b5f6020820190506102925f830184610249565b9291505056fea26469706673582212206dcc5264b2c77b3959e5a45ad73a1773b566da530a5edcc05e248d8c873cfbfc64736f6c63430008160033",
			"opcodes": "PUSH1 0x80 PUSH1 0x40 MSTORE PUSH1 0x2 DUP1 SSTORE CALLVALUE DUP1 ISZERO PUSH2 0x13 JUMPI PUSH0 DUP1 REVERT JUMPDEST POP PUSH2 0x2CE DUP1 PUSH2 0x21 PUSH0 CODECOPY PUSH0 RETURN INVALID PUSH1 0x80 PUSH1 0x40 MSTORE CALLVALUE DUP1 ISZERO PUSH2 0xF JUMPI PUSH0 DUP1 REVERT JUMPDEST POP PUSH1 0x4 CALLDATASIZE LT PUSH2 0x86 JUMPI PUSH0 CALLDATALOAD PUSH1 0xE0 SHR DUP1 PUSH4 0xA1C51915 GT PUSH2 0x59 JUMPI DUP1 PUSH4 0xA1C51915 EQ PUSH2 0xEB JUMPI DUP1 PUSH4 0xD46300FD EQ PUSH2 0x109 JUMPI DUP1 PUSH4 0xEE919D50 EQ PUSH2 0x127 JUMPI DUP1 PUSH4 0xEEB4914E EQ PUSH2 0x143 JUMPI PUSH2 0x86 JUMP JUMPDEST DUP1 PUSH4 0x10A013C EQ PUSH2 0x8A JUMPI DUP1 PUSH4 0x16AA20B EQ PUSH2 0x94 JUMPI DUP1 PUSH4 0x9CDCF9B EQ PUSH2 0xB0 JUMPI DUP1 PUSH4 0x2B06CB2D EQ PUSH2 0xCC JUMPI JUMPDEST PUSH0 DUP1 REVERT JUMPDEST PUSH2 0x92 PUSH2 0x15F JUMP JUMPDEST STOP JUMPDEST PUSH2 0xAE PUSH1 0x4 DUP1 CALLDATASIZE SUB DUP2 ADD SWAP1 PUSH2 0xA9 SWAP2 SWAP1 PUSH2 0x1E0 JUMP JUMPDEST PUSH2 0x168 JUMP JUMPDEST STOP JUMPDEST PUSH2 0xCA PUSH1 0x4 DUP1 CALLDATASIZE SUB DUP2 ADD SWAP1 PUSH2 0xC5 SWAP2 SWAP1 PUSH2 0x21E JUMP JUMPDEST PUSH2 0x16C JUMP JUMPDEST STOP JUMPDEST PUSH2 0xD4 PUSH2 0x176 JUMP JUMPDEST PUSH1 0x40 MLOAD PUSH2 0xE2 SWAP3 SWAP2 SWAP1 PUSH2 0x258 JUMP JUMPDEST PUSH1 0x40 MLOAD DUP1 SWAP2 SUB SWAP1 RETURN JUMPDEST PUSH2 0xF3 PUSH2 0x185 JUMP JUMPDEST PUSH1 0x40 MLOAD PUSH2 0x100 SWAP2 SWAP1 PUSH2 0x27F JUMP JUMPDEST PUSH1 0x40 MLOAD DUP1 SWAP2 SUB SWAP1 RETURN JUMPDEST PUSH2 0x111 PUSH2 0x18E JUMP JUMPDEST PUSH1 0x40 MLOAD PUSH2 0x11E SWAP2 SWAP1 PUSH2 0x27F JUMP JUMPDEST PUSH1 0x40 MLOAD DUP1 SWAP2 SUB SWAP1 RETURN JUMPDEST PUSH2 0x141 PUSH1 0x4 DUP1 CALLDATASIZE SUB DUP2 ADD SWAP1 PUSH2 0x13C SWAP2 SWAP1 PUSH2 0x21E JUMP JUMPDEST PUSH2 0x196 JUMP JUMPDEST STOP JUMPDEST PUSH2 0x15D PUSH1 0x4 DUP1 CALLDATASIZE SUB DUP2 ADD SWAP1 PUSH2 0x158 SWAP2 SWAP1 PUSH2 0x21E JUMP JUMPDEST PUSH2 0x19F JUMP JUMPDEST STOP JUMPDEST PUSH1 0x9 PUSH0 DUP2 SWAP1 SSTORE POP JUMP JUMPDEST POP POP JUMP JUMPDEST DUP1 PUSH1 0x1 DUP2 SWAP1 SSTORE POP POP JUMP JUMPDEST PUSH0 DUP1 PUSH0 SLOAD PUSH1 0x1 SLOAD SWAP2 POP SWAP2 POP SWAP1 SWAP2 JUMP JUMPDEST PUSH0 PUSH1 0x1 SLOAD SWAP1 POP SWAP1 JUMP JUMPDEST PUSH0 DUP1 SLOAD SWAP1 POP SWAP1 JUMP JUMPDEST DUP1 PUSH0 DUP2 SWAP1 SSTORE POP POP JUMP JUMPDEST DUP1 PUSH1 0x2 DUP2 SWAP1 SSTORE POP POP JUMP JUMPDEST PUSH0 DUP1 REVERT JUMPDEST PUSH0 DUP2 SWAP1 POP SWAP2 SWAP1 POP JUMP JUMPDEST PUSH2 0x1BF DUP2 PUSH2 0x1AD JUMP JUMPDEST DUP2 EQ PUSH2 0x1C9 JUMPI PUSH0 DUP1 REVERT JUMPDEST POP JUMP JUMPDEST PUSH0 DUP2 CALLDATALOAD SWAP1 POP PUSH2 0x1DA DUP2 PUSH2 0x1B6 JUMP JUMPDEST SWAP3 SWAP2 POP POP JUMP JUMPDEST PUSH0 DUP1 PUSH1 0x40 DUP4 DUP6 SUB SLT ISZERO PUSH2 0x1F6 JUMPI PUSH2 0x1F5 PUSH2 0x1A9 JUMP JUMPDEST JUMPDEST PUSH0 PUSH2 0x203 DUP6 DUP3 DUP7 ADD PUSH2 0x1CC JUMP JUMPDEST SWAP3 POP POP PUSH1 0x20 PUSH2 0x214 DUP6 DUP3 DUP7 ADD PUSH2 0x1CC JUMP JUMPDEST SWAP2 POP POP SWAP3 POP SWAP3 SWAP1 POP JUMP JUMPDEST PUSH0 PUSH1 0x20 DUP3 DUP5 SUB SLT ISZERO PUSH2 0x233 JUMPI PUSH2 0x232 PUSH2 0x1A9 JUMP JUMPDEST JUMPDEST PUSH0 PUSH2 0x240 DUP5 DUP3 DUP6 ADD PUSH2 0x1CC JUMP JUMPDEST SWAP2 POP POP SWAP3 SWAP2 POP POP JUMP JUMPDEST PUSH2 0x252 DUP2 PUSH2 0x1AD JUMP JUMPDEST DUP3 MSTORE POP POP JUMP JUMPDEST PUSH0 PUSH1 0x40 DUP3 ADD SWAP1 POP PUSH2 0x26B PUSH0 DUP4 ADD DUP6 PUSH2 0x249 JUMP JUMPDEST PUSH2 0x278 PUSH1 0x20 DUP4 ADD DUP5 PUSH2 0x249 JUMP JUMPDEST SWAP4 SWAP3 POP POP POP JUMP JUMPDEST PUSH0 PUSH1 0x20 DUP3 ADD SWAP1 POP PUSH2 0x292 PUSH0 DUP4 ADD DUP5 PUSH2 0x249 JUMP JUMPDEST SWAP3 SWAP2 POP POP JUMP INVALID LOG2 PUSH5 0x6970667358 0x22 SLT KECCAK256 PUSH14 0xCC5264B2C77B3959E5A45AD73A17 PUSH20 0xB566DA530A5EDCC05E248D8C873CFBFC64736F6C PUSH4 0x43000816 STOP CALLER "
		},
		"gasEstimates": {
			"creation": {
				"codeDepositCost": "143600",
				"executionCost": "22294",
				"totalCost": "165894"
			},
			"external": {
				"getA()": "2454",
				"getAB()": "infinite",
				"getB()": "2432",
				"setA(uint256)": "22558",
				"setAB(uint256,uint256)": "infinite",
				"setAsNine()": "22257",
				"setB(uint256)": "22560",
				"setC(uint256)": "22581"
			}
		},
		"methodIdentifiers": {
			"getA()": "d46300fd",
			"getAB()": "2b06cb2d",
			"getB()": "a1c51915",
			"setA(uint256)": "ee919d50",
			"setAB(uint256,uint256)": "016aa20b",
			"setAsNine()": "010a013c",
			"setB(uint256)": "09cdcf9b",
			"setC(uint256)": "eeb4914e"
		}
	},
	"abi": [
		{
			"inputs": [],
			"name": "getA",
			"outputs": [
				{
					"internalType": "uint256",
					"name": "",
					"type": "uint256"
				}
			],
			"stateMutability": "view",
			"type": "function"
		},
		{
			"inputs": [],
			"name": "getAB",
			"outputs": [
				{
					"internalType": "uint256",
					"name": "",
					"type": "uint256"
				},
				{
					"internalType": "uint256",
					"name": "",
					"type": "uint256"
				}
			],
			"stateMutability": "view",
			"type": "function"
		},
		{
			"inputs": [],
			"name": "getB",
			"outputs": [
				{
					"internalType": "uint256",
					"name": "",
					"type": "uint256"
				}
			],
			"stateMutability": "view",
			"type": "function"
		},
		{
			"inputs": [
				{
					"internalType": "uint256",
					"name": "_a",
					"type": "uint256"
				}
			],
			"name": "setA",
			"outputs": [],
			"stateMutability": "nonpayable",
			"type": "function"
		},
		{
			"inputs": [
				{
					"internalType": "uint256",
					"name": "_a",
					"type": "uint256"
				},
				{
					"internalType": "uint256",
					"name": "_b",
					"type": "uint256"
				}
			],
			"name": "setAB",
			"outputs": [],
			"stateMutability": "nonpayable",
			"type": "function"
		},
		{
			"inputs": [],
			"name": "setAsNine",
			"outputs": [],
			"stateMutability": "nonpayable",
			"type": "function"
		},
		{
			"inputs": [
				{
					"internalType": "uint256",
					"name": "_b",
					"type": "uint256"
				}
			],
			"name": "setB",
			"outputs": [],
			"stateMutability": "nonpayable",
			"type": "function"
		},
		{
			"inputs": [
				{
					"internalType": "uint256",
					"name": "_c",
					"type": "uint256"
				}
			],
			"name": "setC",
			"outputs": [],
			"stateMutability": "nonpayable",
			"type": "function"
		}
	]
}