{
	"data": {
		"bytecode": {
			"linkReferences": {},
			"object": "608060405234801561000f575f80fd5b5061095b8061001d5f395ff3fe608060405234801561000f575f80fd5b506004361061003f575f3560e01c80631fc376f71461004357806348aa931e1461004d578063c736694e14610069575b5f80fd5b61004b61008a565b005b61006760048036038101906100629190610409565b6100d0565b005b610071610121565b6040516100819493929190610530565b60405180910390f35b6040518060400160405280600481526020017f31323334000000000000000000000000000000000000000000000000000000008152505f90816100cd9190610787565b50565b835f90816100de9190610856565b508260015f6101000a81548160ff021916908360f81c0217905550816001806101000a81548161ffff021916908360f01c02179055508060028190555050505050565b60605f805f8060015f9054906101000a900460f81b60018054906101000a900460f01b600254838054610153906105b1565b80601f016020809104026020016040519081016040528092919081815260200182805461017f906105b1565b80156101ca5780601f106101a1576101008083540402835291602001916101ca565b820191905f5260205f20905b8154815290600101906020018083116101ad57829003601f168201915b50505050509350935093509350935090919293565b5f604051905090565b5f80fd5b5f80fd5b5f80fd5b5f80fd5b5f601f19601f8301169050919050565b7f4e487b71000000000000000000000000000000000000000000000000000000005f52604160045260245ffd5b61023e826101f8565b810181811067ffffffffffffffff8211171561025d5761025c610208565b5b80604052505050565b5f61026f6101df565b905061027b8282610235565b919050565b5f67ffffffffffffffff82111561029a57610299610208565b5b6102a3826101f8565b9050602081019050919050565b828183375f83830152505050565b5f6102d06102cb84610280565b610266565b9050828152602081018484840111156102ec576102eb6101f4565b5b6102f78482856102b0565b509392505050565b5f82601f830112610313576103126101f0565b5b81356103238482602086016102be565b91505092915050565b5f7fff0000000000000000000000000000000000000000000000000000000000000082169050919050565b6103608161032c565b811461036a575f80fd5b50565b5f8135905061037b81610357565b92915050565b5f7fffff00000000000000000000000000000000000000000000000000000000000082169050919050565b6103b581610381565b81146103bf575f80fd5b50565b5f813590506103d0816103ac565b92915050565b5f819050919050565b6103e8816103d6565b81146103f2575f80fd5b50565b5f81359050610403816103df565b92915050565b5f805f8060808587031215610421576104206101e8565b5b5f85013567ffffffffffffffff81111561043e5761043d6101ec565b5b61044a878288016102ff565b945050602061045b8782880161036d565b935050604061046c878288016103c2565b925050606061047d878288016103f5565b91505092959194509250565b5f81519050919050565b5f82825260208201905092915050565b5f5b838110156104c05780820151818401526020810190506104a5565b5f8484015250505050565b5f6104d582610489565b6104df8185610493565b93506104ef8185602086016104a3565b6104f8816101f8565b840191505092915050565b61050c8161032c565b82525050565b61051b81610381565b82525050565b61052a816103d6565b82525050565b5f6080820190508181035f83015261054881876104cb565b90506105576020830186610503565b6105646040830185610512565b6105716060830184610521565b95945050505050565b5f81519050919050565b7f4e487b71000000000000000000000000000000000000000000000000000000005f52602260045260245ffd5b5f60028204905060018216806105c857607f821691505b6020821081036105db576105da610584565b5b50919050565b5f819050815f5260205f209050919050565b5f6020601f8301049050919050565b5f82821b905092915050565b5f6008830261063d7fffffffffffffffffffffffffffffffffffffffffffffffffffffffffffffffff82610602565b6106478683610602565b95508019841693508086168417925050509392505050565b5f819050919050565b5f819050919050565b5f61068b6106866106818461065f565b610668565b61065f565b9050919050565b5f819050919050565b6106a483610671565b6106b86106b082610692565b84845461060e565b825550505050565b5f90565b6106cc6106c0565b6106d781848461069b565b505050565b5b818110156106fa576106ef5f826106c4565b6001810190506106dd565b5050565b601f82111561073f57610710816105e1565b610719846105f3565b81016020851015610728578190505b61073c610734856105f3565b8301826106dc565b50505b505050565b5f82821c905092915050565b5f61075f5f1984600802610744565b1980831691505092915050565b5f6107778383610750565b9150826002028217905092915050565b6107908261057a565b67ffffffffffffffff8111156107a9576107a8610208565b5b6107b382546105b1565b6107be8282856106fe565b5f60209050601f8311600181146107ef575f84156107dd578287015190505b6107e7858261076c565b86555061084e565b601f1984166107fd866105e1565b5f5b82811015610824578489015182556001820191506020850194506020810190506107ff565b86831015610841578489015161083d601f891682610750565b8355505b6001600288020188555050505b505050505050565b61085f82610489565b67ffffffffffffffff81111561087857610877610208565b5b61088282546105b1565b61088d8282856106fe565b5f60209050601f8311600181146108be575f84156108ac578287015190505b6108b6858261076c565b86555061091d565b601f1984166108cc866105e1565b5f5b828110156108f3578489015182556001820191506020850194506020810190506108ce565b86831015610910578489015161090c601f891682610750565b8355505b6001600288020188555050505b50505050505056fea2646970667358221220259463ca9e40b9160cc3a34b73c50d720a44d23a65852825789917be333ff56a64736f6c63430008160033",
			"opcodes": "PUSH1 0x80 PUSH1 0x40 MSTORE CALLVALUE DUP1 ISZERO PUSH2 0xF JUMPI PUSH0 DUP1 REVERT JUMPDEST POP PUSH2 0x95B DUP1 PUSH2 0x1D PUSH0 CODECOPY PUSH0 RETURN INVALID PUSH1 0x80 PUSH1 0x40 MSTORE CALLVALUE DUP1 ISZERO PUSH2 0xF JUMPI PUSH0 DUP1 REVERT JUMPDEST POP PUSH1 0x4 CALLDATASIZE LT PUSH2 0x3F JUMPI PUSH0 CALLDATALOAD PUSH1 0xE0 SHR DUP1 PUSH4 0x1FC376F7 EQ PUSH2 0x43 JUMPI DUP1 PUSH4 0x48AA931E EQ PUSH2 0x4D JUMPI DUP1 PUSH4 0xC736694E EQ PUSH2 0x69 JUMPI JUMPDEST PUSH0 DUP1 REVERT JUMPDEST PUSH2 0x4B PUSH2 0x8A JUMP JUMPDEST STOP JUMPDEST PUSH2 0x67 PUSH1 0x4 DUP1 CALLDATASIZE SUB DUP2 ADD SWAP1 PUSH2 0x62 SWAP2 SWAP1 PUSH2 0x409 JUMP JUMPDEST PUSH2 0xD0 JUMP JUMPDEST STOP JUMPDEST PUSH2 0x71 PUSH2 0x121 JUMP JUMPDEST PUSH1 0x40 MLOAD PUSH2 0x81 SWAP5 SWAP4 SWAP3 SWAP2 SWAP1 PUSH2 0x530 JUMP JUMPDEST PUSH1 0x40 MLOAD DUP1 SWAP2 SUB SWAP1 RETURN JUMPDEST PUSH1 0x40 MLOAD DUP1 PUSH1 0x40 ADD PUSH1 0x40 MSTORE DUP1 PUSH1 0x4 DUP2 MSTORE PUSH1 0x20 ADD PUSH32 0x3132333400000000000000000000000000000000000000000000000000000000 DUP2 MSTORE POP PUSH0 SWAP1 DUP2 PUSH2 0xCD SWAP2 SWAP1 PUSH2 0x787 JUMP JUMPDEST POP JUMP JUMPDEST DUP4 PUSH0 SWAP1 DUP2 PUSH2 0xDE SWAP2 SWAP1 PUSH2 0x856 JUMP JUMPDEST POP DUP3 PUSH1 0x1 PUSH0 PUSH2 0x100 EXP DUP2 SLOAD DUP2 PUSH1 0xFF MUL NOT AND SWAP1 DUP4 PUSH1 0xF8 SHR MUL OR SWAP1 SSTORE POP DUP2 PUSH1 0x1 DUP1 PUSH2 0x100 EXP DUP2 SLOAD DUP2 PUSH2 0xFFFF MUL NOT AND SWAP1 DUP4 PUSH1 0xF0 SHR MUL OR SWAP1 SSTORE POP DUP1 PUSH1 0x2 DUP2 SWAP1 SSTORE POP POP POP POP POP JUMP JUMPDEST PUSH1 0x60 PUSH0 DUP1 PUSH0 DUP1 PUSH1 0x1 PUSH0 SWAP1 SLOAD SWAP1 PUSH2 0x100 EXP SWAP1 DIV PUSH1 0xF8 SHL PUSH1 0x1 DUP1 SLOAD SWAP1 PUSH2 0x100 EXP SWAP1 DIV PUSH1 0xF0 SHL PUSH1 0x2 SLOAD DUP4 DUP1 SLOAD PUSH2 0x153 SWAP1 PUSH2 0x5B1 JUMP JUMPDEST DUP1 PUSH1 0x1F ADD PUSH1 0x20 DUP1 SWAP2 DIV MUL PUSH1 0x20 ADD PUSH1 0x40 MLOAD SWAP1 DUP2 ADD PUSH1 0x40 MSTORE DUP1 SWAP3 SWAP2 SWAP1 DUP2 DUP2 MSTORE PUSH1 0x20 ADD DUP3 DUP1 SLOAD PUSH2 0x17F SWAP1 PUSH2 0x5B1 JUMP JUMPDEST DUP1 ISZERO PUSH2 0x1CA JUMPI DUP1 PUSH1 0x1F LT PUSH2 0x1A1 JUMPI PUSH2 0x100 DUP1 DUP4 SLOAD DIV MUL DUP4 MSTORE SWAP2 PUSH1 0x20 ADD SWAP2 PUSH2 0x1CA JUMP JUMPDEST DUP3 ADD SWAP2 SWAP1 PUSH0 MSTORE PUSH1 0x20 PUSH0 KECCAK256 SWAP1 JUMPDEST DUP2 SLOAD DUP2 MSTORE SWAP1 PUSH1 0x1 ADD SWAP1 PUSH1 0x20 ADD DUP1 DUP4 GT PUSH2 0x1AD JUMPI DUP3 SWAP1 SUB PUSH1 0x1F AND DUP3 ADD SWAP2 JUMPDEST POP POP POP POP POP SWAP4 POP SWAP4 POP SWAP4 POP SWAP4 POP SWAP4 POP SWAP1 SWAP2 SWAP3 SWAP4 JUMP JUMPDEST PUSH0 PUSH1 0x40 MLOAD SWAP1 POP SWAP1 JUMP JUMPDEST PUSH0 DUP1 REVERT JUMPDEST PUSH0 DUP1 REVERT JUMPDEST PUSH0 DUP1 REVERT JUMPDEST PUSH0 DUP1 REVERT JUMPDEST PUSH0 PUSH1 0x1F NOT PUSH1 0x1F DUP4 ADD AND SWAP1 POP SWAP2 SWAP1 POP JUMP JUMPDEST PUSH32 0x4E487B7100000000000000000000000000000000000000000000000000000000 PUSH0 MSTORE PUSH1 0x41 PUSH1 0x4 MSTORE PUSH1 0x24 PUSH0 REVERT JUMPDEST PUSH2 0x23E DUP3 PUSH2 0x1F8 JUMP JUMPDEST DUP2 ADD DUP2 DUP2 LT PUSH8 0xFFFFFFFFFFFFFFFF DUP3 GT OR ISZERO PUSH2 0x25D JUMPI PUSH2 0x25C PUSH2 0x208 JUMP JUMPDEST JUMPDEST DUP1 PUSH1 0x40 MSTORE POP POP POP JUMP JUMPDEST PUSH0 PUSH2 0x26F PUSH2 0x1DF JUMP JUMPDEST SWAP1 POP PUSH2 0x27B DUP3 DUP3 PUSH2 0x235 JUMP JUMPDEST SWAP2 SWAP1 POP JUMP JUMPDEST PUSH0 PUSH8 0xFFFFFFFFFFFFFFFF DUP3 GT ISZERO PUSH2 0x29A JUMPI PUSH2 0x299 PUSH2 0x208 JUMP JUMPDEST JUMPDEST PUSH2 0x2A3 DUP3 PUSH2 0x1F8 JUMP JUMPDEST SWAP1 POP PUSH1 0x20 DUP2 ADD SWAP1 POP SWAP2 SWAP1 POP JUMP JUMPDEST DUP3 DUP2 DUP4 CALLDATACOPY PUSH0 DUP4 DUP4 ADD MSTORE POP POP POP JUMP JUMPDEST PUSH0 PUSH2 0x2D0 PUSH2 0x2CB DUP5 PUSH2 0x280 JUMP JUMPDEST PUSH2 0x266 JUMP JUMPDEST SWAP1 POP DUP3 DUP2 MSTORE PUSH1 0x20 DUP2 ADD DUP5 DUP5 DUP5 ADD GT ISZERO PUSH2 0x2EC JUMPI PUSH2 0x2EB PUSH2 0x1F4 JUMP JUMPDEST JUMPDEST PUSH2 0x2F7 DUP5 DUP3 DUP6 PUSH2 0x2B0 JUMP JUMPDEST POP SWAP4 SWAP3 POP POP POP JUMP JUMPDEST PUSH0 DUP3 PUSH1 0x1F DUP4 ADD SLT PUSH2 0x313 JUMPI PUSH2 0x312 PUSH2 0x1F0 JUMP JUMPDEST JUMPDEST DUP2 CALLDATALOAD PUSH2 0x323 DUP5 DUP3 PUSH1 0x20 DUP7 ADD PUSH2 0x2BE JUMP JUMPDEST SWAP2 POP POP SWAP3 SWAP2 POP POP JUMP JUMPDEST PUSH0 PUSH32 0xFF00000000000000000000000000000000000000000000000000000000000000 DUP3 AND SWAP1 POP SWAP2 SWAP1 POP JUMP JUMPDEST PUSH2 0x360 DUP2 PUSH2 0x32C JUMP JUMPDEST DUP2 EQ PUSH2 0x36A JUMPI PUSH0 DUP1 REVERT JUMPDEST POP JUMP JUMPDEST PUSH0 DUP2 CALLDATALOAD SWAP1 POP PUSH2 0x37B DUP2 PUSH2 0x357 JUMP JUMPDEST SWAP3 SWAP2 POP POP JUMP JUMPDEST PUSH0 PUSH32 0xFFFF000000000000000000000000000000000000000000000000000000000000 DUP3 AND SWAP1 POP SWAP2 SWAP1 POP JUMP JUMPDEST PUSH2 0x3B5 DUP2 PUSH2 0x381 JUMP JUMPDEST DUP2 EQ PUSH2 0x3BF JUMPI PUSH0 DUP1 REVERT JUMPDEST POP JUMP JUMPDEST PUSH0 DUP2 CALLDATALOAD SWAP1 POP PUSH2 0x3D0 DUP2 PUSH2 0x3AC JUMP JUMPDEST SWAP3 SWAP2 POP POP JUMP JUMPDEST PUSH0 DUP2 SWAP1 POP SWAP2 SWAP1 POP JUMP JUMPDEST PUSH2 0x3E8 DUP2 PUSH2 0x3D6 JUMP JUMPDEST DUP2 EQ PUSH2 0x3F2 JUMPI PUSH0 DUP1 REVERT JUMPDEST POP JUMP JUMPDEST PUSH0 DUP2 CALLDATALOAD SWAP1 POP PUSH2 0x403 DUP2 PUSH2 0x3DF JUMP JUMPDEST SWAP3 SWAP2 POP POP JUMP JUMPDEST PUSH0 DUP1 PUSH0 DUP1 PUSH1 0x80 DUP6 DUP8 SUB SLT ISZERO PUSH2 0x421 JUMPI PUSH2 0x420 PUSH2 0x1E8 JUMP JUMPDEST JUMPDEST PUSH0 DUP6 ADD CALLDATALOAD PUSH8 0xFFFFFFFFFFFFFFFF DUP2 GT ISZERO PUSH2 0x43E JUMPI PUSH2 0x43D PUSH2 0x1EC JUMP JUMPDEST JUMPDEST PUSH2 0x44A DUP8 DUP3 DUP9 ADD PUSH2 0x2FF JUMP JUMPDEST SWAP5 POP POP PUSH1 0x20 PUSH2 0x45B DUP8 DUP3 DUP9 ADD PUSH2 0x36D JUMP JUMPDEST SWAP4 POP POP PUSH1 0x40 PUSH2 0x46C DUP8 DUP3 DUP9 ADD PUSH2 0x3C2 JUMP JUMPDEST SWAP3 POP POP PUSH1 0x60 PUSH2 0x47D DUP8 DUP3 DUP9 ADD PUSH2 0x3F5 JUMP JUMPDEST SWAP2 POP POP SWAP3 SWAP6 SWAP2 SWAP5 POP SWAP3 POP JUMP JUMPDEST PUSH0 DUP2 MLOAD SWAP1 POP SWAP2 SWAP1 POP JUMP JUMPDEST PUSH0 DUP3 DUP3 MSTORE PUSH1 0x20 DUP3 ADD SWAP1 POP SWAP3 SWAP2 POP POP JUMP JUMPDEST PUSH0 JUMPDEST DUP4 DUP2 LT ISZERO PUSH2 0x4C0 JUMPI DUP1 DUP3 ADD MLOAD DUP2 DUP5 ADD MSTORE PUSH1 0x20 DUP2 ADD SWAP1 POP PUSH2 0x4A5 JUMP JUMPDEST PUSH0 DUP5 DUP5 ADD MSTORE POP POP POP POP JUMP JUMPDEST PUSH0 PUSH2 0x4D5 DUP3 PUSH2 0x489 JUMP JUMPDEST PUSH2 0x4DF DUP2 DUP6 PUSH2 0x493 JUMP JUMPDEST SWAP4 POP PUSH2 0x4EF DUP2 DUP6 PUSH1 0x20 DUP7 ADD PUSH2 0x4A3 JUMP JUMPDEST PUSH2 0x4F8 DUP2 PUSH2 0x1F8 JUMP JUMPDEST DUP5 ADD SWAP2 POP POP SWAP3 SWAP2 POP POP JUMP JUMPDEST PUSH2 0x50C DUP2 PUSH2 0x32C JUMP JUMPDEST DUP3 MSTORE POP POP JUMP JUMPDEST PUSH2 0x51B DUP2 PUSH2 0x381 JUMP JUMPDEST DUP3 MSTORE POP POP JUMP JUMPDEST PUSH2 0x52A DUP2 PUSH2 0x3D6 JUMP JUMPDEST DUP3 MSTORE POP POP JUMP JUMPDEST PUSH0 PUSH1 0x80 DUP3 ADD SWAP1 POP DUP2 DUP2 SUB PUSH0 DUP4 ADD MSTORE PUSH2 0x548 DUP2 DUP8 PUSH2 0x4CB JUMP JUMPDEST SWAP1 POP PUSH2 0x557 PUSH1 0x20 DUP4 ADD DUP7 PUSH2 0x503 JUMP JUMPDEST PUSH2 0x564 PUSH1 0x40 DUP4 ADD DUP6 PUSH2 0x512 JUMP JUMPDEST PUSH2 0x571 PUSH1 0x60 DUP4 ADD DUP5 PUSH2 0x521 JUMP JUMPDEST SWAP6 SWAP5 POP POP POP POP POP JUMP JUMPDEST PUSH0 DUP2 MLOAD SWAP1 POP SWAP2 SWAP1 POP JUMP JUMPDEST PUSH32 0x4E487B7100000000000000000000000000000000000000000000000000000000 PUSH0 MSTORE PUSH1 0x22 PUSH1 0x4 MSTORE PUSH1 0x24 PUSH0 REVERT JUMPDEST PUSH0 PUSH1 0x2 DUP3 DIV SWAP1 POP PUSH1 0x1 DUP3 AND DUP1 PUSH2 0x5C8 JUMPI PUSH1 0x7F DUP3 AND SWAP2 POP JUMPDEST PUSH1 0x20 DUP3 LT DUP2 SUB PUSH2 0x5DB JUMPI PUSH2 0x5DA PUSH2 0x584 JUMP JUMPDEST JUMPDEST POP SWAP2 SWAP1 POP JUMP JUMPDEST PUSH0 DUP2 SWAP1 POP DUP2 PUSH0 MSTORE PUSH1 0x20 PUSH0 KECCAK256 SWAP1 POP SWAP2 SWAP1 POP JUMP JUMPDEST PUSH0 PUSH1 0x20 PUSH1 0x1F DUP4 ADD DIV SWAP1 POP SWAP2 SWAP1 POP JUMP JUMPDEST PUSH0 DUP3 DUP3 SHL SWAP1 POP SWAP3 SWAP2 POP POP JUMP JUMPDEST PUSH0 PUSH1 0x8 DUP4 MUL PUSH2 0x63D PUSH32 0xFFFFFFFFFFFFFFFFFFFFFFFFFFFFFFFFFFFFFFFFFFFFFFFFFFFFFFFFFFFFFFFF DUP3 PUSH2 0x602 JUMP JUMPDEST PUSH2 0x647 DUP7 DUP4 PUSH2 0x602 JUMP JUMPDEST SWAP6 POP DUP1 NOT DUP5 AND SWAP4 POP DUP1 DUP7 AND DUP5 OR SWAP3 POP POP POP SWAP4 SWAP3 POP POP POP JUMP JUMPDEST PUSH0 DUP2 SWAP1 POP SWAP2 SWAP1 POP JUMP JUMPDEST PUSH0 DUP2 SWAP1 POP SWAP2 SWAP1 POP JUMP JUMPDEST PUSH0 PUSH2 0x68B PUSH2 0x686 PUSH2 0x681 DUP5 PUSH2 0x65F JUMP JUMPDEST PUSH2 0x668 JUMP JUMPDEST PUSH2 0x65F JUMP JUMPDEST SWAP1 POP SWAP2 SWAP1 POP JUMP JUMPDEST PUSH0 DUP2 SWAP1 POP SWAP2 SWAP1 POP JUMP JUMPDEST PUSH2 0x6A4 DUP4 PUSH2 0x671 JUMP JUMPDEST PUSH2 0x6B8 PUSH2 0x6B0 DUP3 PUSH2 0x692 JUMP JUMPDEST DUP5 DUP5 SLOAD PUSH2 0x60E JUMP JUMPDEST DUP3 SSTORE POP POP POP POP JUMP JUMPDEST PUSH0 SWAP1 JUMP JUMPDEST PUSH2 0x6CC PUSH2 0x6C0 JUMP JUMPDEST PUSH2 0x6D7 DUP2 DUP5 DUP5 PUSH2 0x69B JUMP JUMPDEST POP POP POP JUMP JUMPDEST JUMPDEST DUP2 DUP2 LT ISZERO PUSH2 0x6FA JUMPI PUSH2 0x6EF PUSH0 DUP3 PUSH2 0x6C4 JUMP JUMPDEST PUSH1 0x1 DUP2 ADD SWAP1 POP PUSH2 0x6DD JUMP JUMPDEST POP POP JUMP JUMPDEST PUSH1 0x1F DUP3 GT ISZERO PUSH2 0x73F JUMPI PUSH2 0x710 DUP2 PUSH2 0x5E1 JUMP JUMPDEST PUSH2 0x719 DUP5 PUSH2 0x5F3 JUMP JUMPDEST DUP2 ADD PUSH1 0x20 DUP6 LT ISZERO PUSH2 0x728 JUMPI DUP2 SWAP1 POP JUMPDEST PUSH2 0x73C PUSH2 0x734 DUP6 PUSH2 0x5F3 JUMP JUMPDEST DUP4 ADD DUP3 PUSH2 0x6DC JUMP JUMPDEST POP POP JUMPDEST POP POP POP JUMP JUMPDEST PUSH0 DUP3 DUP3 SHR SWAP1 POP SWAP3 SWAP2 POP POP JUMP JUMPDEST PUSH0 PUSH2 0x75F PUSH0 NOT DUP5 PUSH1 0x8 MUL PUSH2 0x744 JUMP JUMPDEST NOT DUP1 DUP4 AND SWAP2 POP POP SWAP3 SWAP2 POP POP JUMP JUMPDEST PUSH0 PUSH2 0x777 DUP4 DUP4 PUSH2 0x750 JUMP JUMPDEST SWAP2 POP DUP3 PUSH1 0x2 MUL DUP3 OR SWAP1 POP SWAP3 SWAP2 POP POP JUMP JUMPDEST PUSH2 0x790 DUP3 PUSH2 0x57A JUMP JUMPDEST PUSH8 0xFFFFFFFFFFFFFFFF DUP2 GT ISZERO PUSH2 0x7A9 JUMPI PUSH2 0x7A8 PUSH2 0x208 JUMP JUMPDEST JUMPDEST PUSH2 0x7B3 DUP3 SLOAD PUSH2 0x5B1 JUMP JUMPDEST PUSH2 0x7BE DUP3 DUP3 DUP6 PUSH2 0x6FE JUMP JUMPDEST PUSH0 PUSH1 0x20 SWAP1 POP PUSH1 0x1F DUP4 GT PUSH1 0x1 DUP2 EQ PUSH2 0x7EF JUMPI PUSH0 DUP5 ISZERO PUSH2 0x7DD JUMPI DUP3 DUP8 ADD MLOAD SWAP1 POP JUMPDEST PUSH2 0x7E7 DUP6 DUP3 PUSH2 0x76C JUMP JUMPDEST DUP7 SSTORE POP PUSH2 0x84E JUMP JUMPDEST PUSH1 0x1F NOT DUP5 AND PUSH2 0x7FD DUP7 PUSH2 0x5E1 JUMP JUMPDEST PUSH0 JUMPDEST DUP3 DUP2 LT ISZERO PUSH2 0x824 JUMPI DUP5 DUP10 ADD MLOAD DUP3 SSTORE PUSH1 0x1 DUP3 ADD SWAP2 POP PUSH1 0x20 DUP6 ADD SWAP5 POP PUSH1 0x20 DUP2 ADD SWAP1 POP PUSH2 0x7FF JUMP JUMPDEST DUP7 DUP4 LT ISZERO PUSH2 0x841 JUMPI DUP5 DUP10 ADD MLOAD PUSH2 0x83D PUSH1 0x1F DUP10 AND DUP3 PUSH2 0x750 JUMP JUMPDEST DUP4 SSTORE POP JUMPDEST PUSH1 0x1 PUSH1 0x2 DUP9 MUL ADD DUP9 SSTORE POP POP POP JUMPDEST POP POP POP POP POP POP JUMP JUMPDEST PUSH2 0x85F DUP3 PUSH2 0x489 JUMP JUMPDEST PUSH8 0xFFFFFFFFFFFFFFFF DUP2 GT ISZERO PUSH2 0x878 JUMPI PUSH2 0x877 PUSH2 0x208 JUMP JUMPDEST JUMPDEST PUSH2 0x882 DUP3 SLOAD PUSH2 0x5B1 JUMP JUMPDEST PUSH2 0x88D DUP3 DUP3 DUP6 PUSH2 0x6FE JUMP JUMPDEST PUSH0 PUSH1 0x20 SWAP1 POP PUSH1 0x1F DUP4 GT PUSH1 0x1 DUP2 EQ PUSH2 0x8BE JUMPI PUSH0 DUP5 ISZERO PUSH2 0x8AC JUMPI DUP3 DUP8 ADD MLOAD SWAP1 POP JUMPDEST PUSH2 0x8B6 DUP6 DUP3 PUSH2 0x76C JUMP JUMPDEST DUP7 SSTORE POP PUSH2 0x91D JUMP JUMPDEST PUSH1 0x1F NOT DUP5 AND PUSH2 0x8CC DUP7 PUSH2 0x5E1 JUMP JUMPDEST PUSH0 JUMPDEST DUP3 DUP2 LT ISZERO PUSH2 0x8F3 JUMPI DUP5 DUP10 ADD MLOAD DUP3 SSTORE PUSH1 0x1 DUP3 ADD SWAP2 POP PUSH1 0x20 DUP6 ADD SWAP5 POP PUSH1 0x20 DUP2 ADD SWAP1 POP PUSH2 0x8CE JUMP JUMPDEST DUP7 DUP4 LT ISZERO PUSH2 0x910 JUMPI DUP5 DUP10 ADD MLOAD PUSH2 0x90C PUSH1 0x1F DUP10 AND DUP3 PUSH2 0x750 JUMP JUMPDEST DUP4 SSTORE POP JUMPDEST PUSH1 0x1 PUSH1 0x2 DUP9 MUL ADD DUP9 SSTORE POP POP POP JUMPDEST POP POP POP POP POP POP JUMP INVALID LOG2 PUSH5 0x6970667358 0x22 SLT KECCAK256 0x25 SWAP5 PUSH4 0xCA9E40B9 AND 0xC 0xC3 LOG3 0x4B PUSH20 0xC50D720A44D23A65852825789917BE333FF56A64 PUSH20 0x6F6C634300081600330000000000000000000000 "
		},
		"gasEstimates": {
			"creation": {
				"codeDepositCost": "479000",
				"executionCost": "509",
				"totalCost": "479509"
			},
			"external": {
				"getABCD()": "infinite",
				"setA()": "infinite",
				"setABCD(bytes,bytes1,bytes2,bytes32)": "infinite"
			}
		},
		"methodIdentifiers": {
			"getABCD()": "c736694e",
			"setA()": "1fc376f7",
			"setABCD(bytes,bytes1,bytes2,bytes32)": "48aa931e"
		}
	},
	"abi": [
		{
			"inputs": [],
			"name": "getABCD",
			"outputs": [
				{
					"internalType": "bytes",
					"name": "",
					"type": "bytes"
				},
				{
					"internalType": "bytes1",
					"name": "",
					"type": "bytes1"
				},
				{
					"internalType": "bytes2",
					"name": "",
					"type": "bytes2"
				},
				{
					"internalType": "bytes32",
					"name": "",
					"type": "bytes32"
				}
			],
			"stateMutability": "view",
			"type": "function"
		},
		{
			"inputs": [],
			"name": "setA",
			"outputs": [],
			"stateMutability": "nonpayable",
			"type": "function"
		},
		{
			"inputs": [
				{
					"internalType": "bytes",
					"name": "_a",
					"type": "bytes"
				},
				{
					"internalType": "bytes1",
					"name": "_b",
					"type": "bytes1"
				},
				{
					"internalType": "bytes2",
					"name": "_c",
					"type": "bytes2"
				},
				{
					"internalType": "bytes32",
					"name": "_d",
					"type": "bytes32"
				}
			],
			"name": "setABCD",
			"outputs": [],
			"stateMutability": "nonpayable",
			"type": "function"
		}
	]
}