{
	"data": {
		"bytecode": {
			"linkReferences": {},
			"object": "608060405234801561000f575f80fd5b506106128061001d5f395ff3fe608060405234801561000f575f80fd5b5060043610610086575f3560e01c8063d504ea1d11610059578063d504ea1d14610101578063d70f3e3e1461011f578063f5fb1bf81461013d578063fadc93911461015b57610086565b80633fbd13e21461008a578063959ac484146100a85780639dfeea2b146100c4578063a89edd59146100e2575b5f80fd5b610092610165565b60405161009f9190610357565b60405180910390f35b6100c260048036038101906100bd919061039e565b61019b565b005b6100cc6101c3565b6040516100d99190610357565b60405180910390f35b6100ea6101fc565b6040516100f89291906103c9565b60405180910390f35b610109610234565b60405161011691906104a7565b60405180910390f35b610127610289565b6040516101349190610357565b60405180910390f35b6101456102bf565b6040516101529190610357565b60405180910390f35b6101636102ef565b005b5f805f5b6064811161019357808261017d91906104f4565b915060028161018c9190610527565b9050610169565b508091505090565b5f81908060018154018082558091505060019003905f5260205f20015f909190919091505550565b5f805f600190505b606481116101f45780826101df91906104f4565b915080806101ec90610568565b9150506101cb565b508091505090565b5f805f805f90505b600581101561022857808261021991906104f4565b91508080600101915050610204565b81819350935050509091565b60605f80548060200260200160405190810160405280929190818152602001828054801561027f57602002820191905f5260205f20905b81548152602001906001019080831161026b575b5050505050905090565b5f805f5b606481116102b75780826102a191906104f4565b91506002816102b091906104f4565b905061028d565b508091505090565b5f805f5b60058110156102e75780826102d891906104f4565b915080806001019150506102c3565b508091505090565b5f5b5f8054905081101561033c5760025f8281548110610312576103116105af565b5b905f5260205f20015f82825461032891906104f4565b9250508190555080806001019150506102f1565b50565b5f819050919050565b6103518161033f565b82525050565b5f60208201905061036a5f830184610348565b92915050565b5f80fd5b61037d8161033f565b8114610387575f80fd5b50565b5f8135905061039881610374565b92915050565b5f602082840312156103b3576103b2610370565b5b5f6103c08482850161038a565b91505092915050565b5f6040820190506103dc5f830185610348565b6103e96020830184610348565b9392505050565b5f81519050919050565b5f82825260208201905092915050565b5f819050602082019050919050565b6104228161033f565b82525050565b5f6104338383610419565b60208301905092915050565b5f602082019050919050565b5f610455826103f0565b61045f81856103fa565b935061046a8361040a565b805f5b8381101561049a5781516104818882610428565b975061048c8361043f565b92505060018101905061046d565b5085935050505092915050565b5f6020820190508181035f8301526104bf818461044b565b905092915050565b7f4e487b71000000000000000000000000000000000000000000000000000000005f52601160045260245ffd5b5f6104fe8261033f565b91506105098361033f565b9250828201905080821115610521576105206104c7565b5b92915050565b5f6105318261033f565b915061053c8361033f565b925082820261054a8161033f565b91508282048414831517610561576105606104c7565b5b5092915050565b5f6105728261033f565b91507fffffffffffffffffffffffffffffffffffffffffffffffffffffffffffffffff82036105a4576105a36104c7565b5b600182019050919050565b7f4e487b71000000000000000000000000000000000000000000000000000000005f52603260045260245ffdfea26469706673582212200a423560db47f9d08957ece3fa8565e1020aa1f872478166c2f0886de0c606aa64736f6c63430008160033",
			"opcodes": "PUSH1 0x80 PUSH1 0x40 MSTORE CALLVALUE DUP1 ISZERO PUSH2 0xF JUMPI PUSH0 DUP1 REVERT JUMPDEST POP PUSH2 0x612 DUP1 PUSH2 0x1D PUSH0 CODECOPY PUSH0 RETURN INVALID PUSH1 0x80 PUSH1 0x40 MSTORE CALLVALUE DUP1 ISZERO PUSH2 0xF JUMPI PUSH0 DUP1 REVERT JUMPDEST POP PUSH1 0x4 CALLDATASIZE LT PUSH2 0x86 JUMPI PUSH0 CALLDATALOAD PUSH1 0xE0 SHR DUP1 PUSH4 0xD504EA1D GT PUSH2 0x59 JUMPI DUP1 PUSH4 0xD504EA1D EQ PUSH2 0x101 JUMPI DUP1 PUSH4 0xD70F3E3E EQ PUSH2 0x11F JUMPI DUP1 PUSH4 0xF5FB1BF8 EQ PUSH2 0x13D JUMPI DUP1 PUSH4 0xFADC9391 EQ PUSH2 0x15B JUMPI PUSH2 0x86 JUMP JUMPDEST DUP1 PUSH4 0x3FBD13E2 EQ PUSH2 0x8A JUMPI DUP1 PUSH4 0x959AC484 EQ PUSH2 0xA8 JUMPI DUP1 PUSH4 0x9DFEEA2B EQ PUSH2 0xC4 JUMPI DUP1 PUSH4 0xA89EDD59 EQ PUSH2 0xE2 JUMPI JUMPDEST PUSH0 DUP1 REVERT JUMPDEST PUSH2 0x92 PUSH2 0x165 JUMP JUMPDEST PUSH1 0x40 MLOAD PUSH2 0x9F SWAP2 SWAP1 PUSH2 0x357 JUMP JUMPDEST PUSH1 0x40 MLOAD DUP1 SWAP2 SUB SWAP1 RETURN JUMPDEST PUSH2 0xC2 PUSH1 0x4 DUP1 CALLDATASIZE SUB DUP2 ADD SWAP1 PUSH2 0xBD SWAP2 SWAP1 PUSH2 0x39E JUMP JUMPDEST PUSH2 0x19B JUMP JUMPDEST STOP JUMPDEST PUSH2 0xCC PUSH2 0x1C3 JUMP JUMPDEST PUSH1 0x40 MLOAD PUSH2 0xD9 SWAP2 SWAP1 PUSH2 0x357 JUMP JUMPDEST PUSH1 0x40 MLOAD DUP1 SWAP2 SUB SWAP1 RETURN JUMPDEST PUSH2 0xEA PUSH2 0x1FC JUMP JUMPDEST PUSH1 0x40 MLOAD PUSH2 0xF8 SWAP3 SWAP2 SWAP1 PUSH2 0x3C9 JUMP JUMPDEST PUSH1 0x40 MLOAD DUP1 SWAP2 SUB SWAP1 RETURN JUMPDEST PUSH2 0x109 PUSH2 0x234 JUMP JUMPDEST PUSH1 0x40 MLOAD PUSH2 0x116 SWAP2 SWAP1 PUSH2 0x4A7 JUMP JUMPDEST PUSH1 0x40 MLOAD DUP1 SWAP2 SUB SWAP1 RETURN JUMPDEST PUSH2 0x127 PUSH2 0x289 JUMP JUMPDEST PUSH1 0x40 MLOAD PUSH2 0x134 SWAP2 SWAP1 PUSH2 0x357 JUMP JUMPDEST PUSH1 0x40 MLOAD DUP1 SWAP2 SUB SWAP1 RETURN JUMPDEST PUSH2 0x145 PUSH2 0x2BF JUMP JUMPDEST PUSH1 0x40 MLOAD PUSH2 0x152 SWAP2 SWAP1 PUSH2 0x357 JUMP JUMPDEST PUSH1 0x40 MLOAD DUP1 SWAP2 SUB SWAP1 RETURN JUMPDEST PUSH2 0x163 PUSH2 0x2EF JUMP JUMPDEST STOP JUMPDEST PUSH0 DUP1 PUSH0 JUMPDEST PUSH1 0x64 DUP2 GT PUSH2 0x193 JUMPI DUP1 DUP3 PUSH2 0x17D SWAP2 SWAP1 PUSH2 0x4F4 JUMP JUMPDEST SWAP2 POP PUSH1 0x2 DUP2 PUSH2 0x18C SWAP2 SWAP1 PUSH2 0x527 JUMP JUMPDEST SWAP1 POP PUSH2 0x169 JUMP JUMPDEST POP DUP1 SWAP2 POP POP SWAP1 JUMP JUMPDEST PUSH0 DUP2 SWAP1 DUP1 PUSH1 0x1 DUP2 SLOAD ADD DUP1 DUP3 SSTORE DUP1 SWAP2 POP POP PUSH1 0x1 SWAP1 SUB SWAP1 PUSH0 MSTORE PUSH1 0x20 PUSH0 KECCAK256 ADD PUSH0 SWAP1 SWAP2 SWAP1 SWAP2 SWAP1 SWAP2 POP SSTORE POP JUMP JUMPDEST PUSH0 DUP1 PUSH0 PUSH1 0x1 SWAP1 POP JUMPDEST PUSH1 0x64 DUP2 GT PUSH2 0x1F4 JUMPI DUP1 DUP3 PUSH2 0x1DF SWAP2 SWAP1 PUSH2 0x4F4 JUMP JUMPDEST SWAP2 POP DUP1 DUP1 PUSH2 0x1EC SWAP1 PUSH2 0x568 JUMP JUMPDEST SWAP2 POP POP PUSH2 0x1CB JUMP JUMPDEST POP DUP1 SWAP2 POP POP SWAP1 JUMP JUMPDEST PUSH0 DUP1 PUSH0 DUP1 PUSH0 SWAP1 POP JUMPDEST PUSH1 0x5 DUP2 LT ISZERO PUSH2 0x228 JUMPI DUP1 DUP3 PUSH2 0x219 SWAP2 SWAP1 PUSH2 0x4F4 JUMP JUMPDEST SWAP2 POP DUP1 DUP1 PUSH1 0x1 ADD SWAP2 POP POP PUSH2 0x204 JUMP JUMPDEST DUP2 DUP2 SWAP4 POP SWAP4 POP POP POP SWAP1 SWAP2 JUMP JUMPDEST PUSH1 0x60 PUSH0 DUP1 SLOAD DUP1 PUSH1 0x20 MUL PUSH1 0x20 ADD PUSH1 0x40 MLOAD SWAP1 DUP2 ADD PUSH1 0x40 MSTORE DUP1 SWAP3 SWAP2 SWAP1 DUP2 DUP2 MSTORE PUSH1 0x20 ADD DUP3 DUP1 SLOAD DUP1 ISZERO PUSH2 0x27F JUMPI PUSH1 0x20 MUL DUP3 ADD SWAP2 SWAP1 PUSH0 MSTORE PUSH1 0x20 PUSH0 KECCAK256 SWAP1 JUMPDEST DUP2 SLOAD DUP2 MSTORE PUSH1 0x20 ADD SWAP1 PUSH1 0x1 ADD SWAP1 DUP1 DUP4 GT PUSH2 0x26B JUMPI JUMPDEST POP POP POP POP POP SWAP1 POP SWAP1 JUMP JUMPDEST PUSH0 DUP1 PUSH0 JUMPDEST PUSH1 0x64 DUP2 GT PUSH2 0x2B7 JUMPI DUP1 DUP3 PUSH2 0x2A1 SWAP2 SWAP1 PUSH2 0x4F4 JUMP JUMPDEST SWAP2 POP PUSH1 0x2 DUP2 PUSH2 0x2B0 SWAP2 SWAP1 PUSH2 0x4F4 JUMP JUMPDEST SWAP1 POP PUSH2 0x28D JUMP JUMPDEST POP DUP1 SWAP2 POP POP SWAP1 JUMP JUMPDEST PUSH0 DUP1 PUSH0 JUMPDEST PUSH1 0x5 DUP2 LT ISZERO PUSH2 0x2E7 JUMPI DUP1 DUP3 PUSH2 0x2D8 SWAP2 SWAP1 PUSH2 0x4F4 JUMP JUMPDEST SWAP2 POP DUP1 DUP1 PUSH1 0x1 ADD SWAP2 POP POP PUSH2 0x2C3 JUMP JUMPDEST POP DUP1 SWAP2 POP POP SWAP1 JUMP JUMPDEST PUSH0 JUMPDEST PUSH0 DUP1 SLOAD SWAP1 POP DUP2 LT ISZERO PUSH2 0x33C JUMPI PUSH1 0x2 PUSH0 DUP3 DUP2 SLOAD DUP2 LT PUSH2 0x312 JUMPI PUSH2 0x311 PUSH2 0x5AF JUMP JUMPDEST JUMPDEST SWAP1 PUSH0 MSTORE PUSH1 0x20 PUSH0 KECCAK256 ADD PUSH0 DUP3 DUP3 SLOAD PUSH2 0x328 SWAP2 SWAP1 PUSH2 0x4F4 JUMP JUMPDEST SWAP3 POP POP DUP2 SWAP1 SSTORE POP DUP1 DUP1 PUSH1 0x1 ADD SWAP2 POP POP PUSH2 0x2F1 JUMP JUMPDEST POP JUMP JUMPDEST PUSH0 DUP2 SWAP1 POP SWAP2 SWAP1 POP JUMP JUMPDEST PUSH2 0x351 DUP2 PUSH2 0x33F JUMP JUMPDEST DUP3 MSTORE POP POP JUMP JUMPDEST PUSH0 PUSH1 0x20 DUP3 ADD SWAP1 POP PUSH2 0x36A PUSH0 DUP4 ADD DUP5 PUSH2 0x348 JUMP JUMPDEST SWAP3 SWAP2 POP POP JUMP JUMPDEST PUSH0 DUP1 REVERT JUMPDEST PUSH2 0x37D DUP2 PUSH2 0x33F JUMP JUMPDEST DUP2 EQ PUSH2 0x387 JUMPI PUSH0 DUP1 REVERT JUMPDEST POP JUMP JUMPDEST PUSH0 DUP2 CALLDATALOAD SWAP1 POP PUSH2 0x398 DUP2 PUSH2 0x374 JUMP JUMPDEST SWAP3 SWAP2 POP POP JUMP JUMPDEST PUSH0 PUSH1 0x20 DUP3 DUP5 SUB SLT ISZERO PUSH2 0x3B3 JUMPI PUSH2 0x3B2 PUSH2 0x370 JUMP JUMPDEST JUMPDEST PUSH0 PUSH2 0x3C0 DUP5 DUP3 DUP6 ADD PUSH2 0x38A JUMP JUMPDEST SWAP2 POP POP SWAP3 SWAP2 POP POP JUMP JUMPDEST PUSH0 PUSH1 0x40 DUP3 ADD SWAP1 POP PUSH2 0x3DC PUSH0 DUP4 ADD DUP6 PUSH2 0x348 JUMP JUMPDEST PUSH2 0x3E9 PUSH1 0x20 DUP4 ADD DUP5 PUSH2 0x348 JUMP JUMPDEST SWAP4 SWAP3 POP POP POP JUMP JUMPDEST PUSH0 DUP2 MLOAD SWAP1 POP SWAP2 SWAP1 POP JUMP JUMPDEST PUSH0 DUP3 DUP3 MSTORE PUSH1 0x20 DUP3 ADD SWAP1 POP SWAP3 SWAP2 POP POP JUMP JUMPDEST PUSH0 DUP2 SWAP1 POP PUSH1 0x20 DUP3 ADD SWAP1 POP SWAP2 SWAP1 POP JUMP JUMPDEST PUSH2 0x422 DUP2 PUSH2 0x33F JUMP JUMPDEST DUP3 MSTORE POP POP JUMP JUMPDEST PUSH0 PUSH2 0x433 DUP4 DUP4 PUSH2 0x419 JUMP JUMPDEST PUSH1 0x20 DUP4 ADD SWAP1 POP SWAP3 SWAP2 POP POP JUMP JUMPDEST PUSH0 PUSH1 0x20 DUP3 ADD SWAP1 POP SWAP2 SWAP1 POP JUMP JUMPDEST PUSH0 PUSH2 0x455 DUP3 PUSH2 0x3F0 JUMP JUMPDEST PUSH2 0x45F DUP2 DUP6 PUSH2 0x3FA JUMP JUMPDEST SWAP4 POP PUSH2 0x46A DUP4 PUSH2 0x40A JUMP JUMPDEST DUP1 PUSH0 JUMPDEST DUP4 DUP2 LT ISZERO PUSH2 0x49A JUMPI DUP2 MLOAD PUSH2 0x481 DUP9 DUP3 PUSH2 0x428 JUMP JUMPDEST SWAP8 POP PUSH2 0x48C DUP4 PUSH2 0x43F JUMP JUMPDEST SWAP3 POP POP PUSH1 0x1 DUP2 ADD SWAP1 POP PUSH2 0x46D JUMP JUMPDEST POP DUP6 SWAP4 POP POP POP POP SWAP3 SWAP2 POP POP JUMP JUMPDEST PUSH0 PUSH1 0x20 DUP3 ADD SWAP1 POP DUP2 DUP2 SUB PUSH0 DUP4 ADD MSTORE PUSH2 0x4BF DUP2 DUP5 PUSH2 0x44B JUMP JUMPDEST SWAP1 POP SWAP3 SWAP2 POP POP JUMP JUMPDEST PUSH32 0x4E487B7100000000000000000000000000000000000000000000000000000000 PUSH0 MSTORE PUSH1 0x11 PUSH1 0x4 MSTORE PUSH1 0x24 PUSH0 REVERT JUMPDEST PUSH0 PUSH2 0x4FE DUP3 PUSH2 0x33F JUMP JUMPDEST SWAP2 POP PUSH2 0x509 DUP4 PUSH2 0x33F JUMP JUMPDEST SWAP3 POP DUP3 DUP3 ADD SWAP1 POP DUP1 DUP3 GT ISZERO PUSH2 0x521 JUMPI PUSH2 0x520 PUSH2 0x4C7 JUMP JUMPDEST JUMPDEST SWAP3 SWAP2 POP POP JUMP JUMPDEST PUSH0 PUSH2 0x531 DUP3 PUSH2 0x33F JUMP JUMPDEST SWAP2 POP PUSH2 0x53C DUP4 PUSH2 0x33F JUMP JUMPDEST SWAP3 POP DUP3 DUP3 MUL PUSH2 0x54A DUP2 PUSH2 0x33F JUMP JUMPDEST SWAP2 POP DUP3 DUP3 DIV DUP5 EQ DUP4 ISZERO OR PUSH2 0x561 JUMPI PUSH2 0x560 PUSH2 0x4C7 JUMP JUMPDEST JUMPDEST POP SWAP3 SWAP2 POP POP JUMP JUMPDEST PUSH0 PUSH2 0x572 DUP3 PUSH2 0x33F JUMP JUMPDEST SWAP2 POP PUSH32 0xFFFFFFFFFFFFFFFFFFFFFFFFFFFFFFFFFFFFFFFFFFFFFFFFFFFFFFFFFFFFFFFF DUP3 SUB PUSH2 0x5A4 JUMPI PUSH2 0x5A3 PUSH2 0x4C7 JUMP JUMPDEST JUMPDEST PUSH1 0x1 DUP3 ADD SWAP1 POP SWAP2 SWAP1 POP JUMP JUMPDEST PUSH32 0x4E487B7100000000000000000000000000000000000000000000000000000000 PUSH0 MSTORE PUSH1 0x32 PUSH1 0x4 MSTORE PUSH1 0x24 PUSH0 REVERT INVALID LOG2 PUSH5 0x6970667358 0x22 SLT KECCAK256 EXP TIMESTAMP CALLDATALOAD PUSH1 0xDB SELFBALANCE 0xF9 0xD0 DUP10 JUMPI 0xEC 0xE3 STATICCALL DUP6 PUSH6 0xE1020AA1F872 SELFBALANCE DUP2 PUSH7 0xC2F0886DE0C606 0xAA PUSH5 0x736F6C6343 STOP ADDMOD AND STOP CALLER "
		},
		"gasEstimates": {
			"creation": {
				"codeDepositCost": "310800",
				"executionCost": "347",
				"totalCost": "311147"
			},
			"external": {
				"Each()": "infinite",
				"getArray()": "infinite",
				"loop1()": "infinite",
				"loop2()": "infinite",
				"loop3()": "infinite",
				"loop4()": "infinite",
				"loop5()": "infinite",
				"push(uint256)": "46843"
			}
		},
		"methodIdentifiers": {
			"Each()": "fadc9391",
			"getArray()": "d504ea1d",
			"loop1()": "f5fb1bf8",
			"loop2()": "a89edd59",
			"loop3()": "9dfeea2b",
			"loop4()": "d70f3e3e",
			"loop5()": "3fbd13e2",
			"push(uint256)": "959ac484"
		}
	},
	"abi": [
		{
			"inputs": [],
			"name": "Each",
			"outputs": [],
			"stateMutability": "nonpayable",
			"type": "function"
		},
		{
			"inputs": [],
			"name": "getArray",
			"outputs": [
				{
					"internalType": "uint256[]",
					"name": "",
					"type": "uint256[]"
				}
			],
			"stateMutability": "view",
			"type": "function"
		},
		{
			"inputs": [],
			"name": "loop1",
			"outputs": [
				{
					"internalType": "uint256",
					"name": "",
					"type": "uint256"
				}
			],
			"stateMutability": "pure",
			"type": "function"
		},
		{
			"inputs": [],
			"name": "loop2",
			"outputs": [
				{
					"internalType": "uint256",
					"name": "",
					"type": "uint256"
				},
				{
					"internalType": "uint256",
					"name": "",
					"type": "uint256"
				}
			],
			"stateMutability": "pure",
			"type": "function"
		},
		{
			"inputs": [],
			"name": "loop3",
			"outputs": [
				{
					"internalType": "uint256",
					"name": "",
					"type": "uint256"
				}
			],
			"stateMutability": "pure",
			"type": "function"
		},
		{
			"inputs": [],
			"name": "loop4",
			"outputs": [
				{
					"internalType": "uint256",
					"name": "",
					"type": "uint256"
				}
			],
			"stateMutability": "pure",
			"type": "function"
		},
		{
			"inputs": [],
			"name": "loop5",
			"outputs": [
				{
					"internalType": "uint256",
					"name": "",
					"type": "uint256"
				}
			],
			"stateMutability": "pure",
			"type": "function"
		},
		{
			"inputs": [
				{
					"internalType": "uint256",
					"name": "_a",
					"type": "uint256"
				}
			],
			"name": "push",
			"outputs": [],
			"stateMutability": "nonpayable",
			"type": "function"
		}
	]
}